:020000040800F2
:10000000F8BF0120190102082FFF04081DFF040892
:1000100031FF04083DFF040849FF04080000000008
:1000200000000000000000000000000055FF040870
:1000300057FF040800000000D9010508E101002075
:100040000100020859FF040865FF04086DFF040859
:10005000BD520508010002080D47050813470508B1
:10006000194705081F47050825470508C120050849
:10007000D1200508E1200508F12005080121050827
:1000800011210508212105080100020800000000D7
:100090000000000000000000000000002B470508E1
:1000A00081FF040887FF040899FF04089FFF0408E4
:1000B000A5FF0408ABFF0408B1FF04085926050892
:1000C0007526050891260508AD26050801000208D9
:1000D00001000208F9020020FF02002000000000D9
:1000E0004F4705085FFF04080100020800000000F8
:1000F00000000000000000000000000031210508A1
:100100000000000001000208B9FF04080100020815
:1001100000000000000000000000000000000000DF
:1001200041210508512105086121050871210508B3
:100130008121050800000000000000000000000010
:1001400000000000000000000000000001000208A4
:1001500091210508A1210508B1210508050300200A
:10016000C9260508E526050800000000000000007B
:10017000000000000000000000000000000000007F
:100180000000000001000208000000000000000064
:1001900001000208010002080248002343643C30C9
:1001A00000F036B980040020054B43F82010054BC1
:1001B00001221A60044B4FF080525A60704700BF12
:1001C000A80A0020AC0A002000ED00E010F4FF7F38
:1001D00002BF024B0422C3F8002E704700E100E08A
:1001E0000D4B10B51C6801341C604FF0E02304F087
:1001F00001021B69094B53F822300BB12046984786
:10020000074B1B68A34205D1BDE8104005490020FB
:10021000FFF7CABF10BD00BF58090020B00A002078
:100220005409002001AD040838B5314B03EB8003BD
:10023000D3F88441002C51D063681968E1838A06A1
:1002400030D5608A50B3A28A0132B2FBF0F500FBD0
:100250001522E08A92B2904220D01968E183596851
:10026000A3890B40A17A79B12249096899420BD13F
:10027000FFF792FFA38BDD0604D56268D36843F0D5
:100280001003D360012516E0E07AA1690128A08A55
:100290000CBF21F810300B54A282EBE7DA6822F091
:1002A0002002DA60C80642BFDA6822F01002DA6083
:1002B0000A0714D40025637AA28B5B0742BFE38B45
:1002C00023F01003E383E38B1A4202D0206A00F08C
:1002D000A3F8637A45B123F00403637238BDDA688A
:1002E00022F02002DA60E5E743F00403F5E700BFFF
:1002F00080040020780400200120FFF795BF022031
:10030000FFF792BF0620FFF78FBF0000114B70B5BB
:1003100000220546DA6100F06FF80F4C0646E368EC
:10032000DA030CD4E368DB0744BF0123E360E06831
:1003300010F4F97007D000F077F8012003E0691C91
:10034000EDD00DB9032070BD00F056F8801BA84217
:10035000E5D9F7E75C090020003C02402DE9F843AD
:10036000234F3B7E012B054688463FD001234CF2AC
:1003700050303B76FFF7CAFF0446A8B94FF0FF3371
:10038000C8F800302B68012B13D1287C00F048F806
:100390004CF25030FFF7BAFF164A136923F00403FA
:1003A0000446136100F030F800233B762046BDE898
:1003B000F883AE68DFF83C90D5E902231344B342DA
:1003C000F0D9297C304600F033F84CF25030FFF77A
:1003D0009DFFD9F8103023F0FA03C9F8103018B196
:1003E000C8F800600446DDE70136E5E70224DDE7F2
:1003F0005C090020003C0240014B1868704700BFB8
:1004000058090020000000005FF800F011F804080F
:100410005FF800F06DE202085FF800F05DA70408E5
:100420005FF800F0A5F704085FF800F055F604083F
:080430005FF800F0C9F70408B1
:020000040802F0
:10000000FEE700000F49D1F8883043F47003C1F8CF
:1000100088300D4B1A68002042F001021A60986087
:100020001A6822F0847222F480321A60074A5A60F9
:100030001A6822F480221A60D8604FF000638B6047
:10004000704700BF00ED00E000380240103000248F
:1000500030B5002495B010252A4621460AA80494FC
:1000600029F06AFF284B01941A6C42F080521A64FE
:100070001B6C03F080530193019B244B029419687D
:1000800041F4404119601B68059403F44043029316
:100090000122029B4FF48033CDE908234FF4800105
:1000A00002230F22CDE90E3112930423CDE90B4533
:1000B00003920825C02213934FF4A05C4FF48053A1
:1000C00008A8CDE91052CDE906C32DF0E1FA10B130
:1000D0000F482FF0EBFB119B109A3021DB00B3FB94
:1000E000F2F3B3FBF1F201FB1232121A1299B3FBD5
:1000F000F1F118BF012203A830F036F908B1054824
:10010000E7E715B030BD00BF003802400070004086
:10011000686905087A6905080446DFF82CD00B49A0
:100120000B4A0C4B03E051F8040B42F8040B9A42C3
:10013000F9D300200849094A01E041F8040B914233
:10014000FBD320462FF008BDF8BF0120EC8D060838
:10015000380400208004002080040020340F002098
:1001600040F8044B40F8045B40F8046B40F8047B13
:1001700040F8048B40F8049B40F804AB40F804BB03
:1001800040F804CB40F804DB68467047024B5A69DC
:10019000026058610020704780040020024B5A69B9
:1001A00012685A61704700BF80040020024B9A69B0
:1001B000C0E900219861704780040020044A9369D7
:1001C0001968916110B15A6818461047704700BF0E
:1001D0008004002038B5054D0446AB690BB1A3423D
:1001E00000D338BD0120FFF7E9FFF6E780040020C7
:1001F000C460056146618761C0F81C80C0F820902A
:10020000C0F824A0C0F828B0C0F82CD080ED0C8B2A
:1002100080ED0E9B80ED10ABC0F808E0FFF7B6BF95
:10022000124D6C6908B50CB92FF082FC6060204655
:10023000FFF7D0FF23686B612046C46805694669F3
:100240008769D0F81C80D0F82090D0F824A0D0F88E
:1002500028B0D0F82CD090ED0C8B90ED0E9B90ED4B
:1002600010ABD0F808E00120704700BF80040020E8
:1002700010B50021044600F00DFB18B914B120465A
:100280000DF090FD10BD002100F004BB10B5012160
:10029000044600F0FFFA18B914B120460DF082FDB3
:1002A00010BDFFF7E5BF10B501220C4600F014FCAD
:1002B00018B914B120460DF075FD10BD00F00CBC4E
:1002C00000F0CCBBDFF8B8C02DE9F04305464FF095
:1002D000000E0324DCF89C02002101316B189A08FF
:1002E00003F00303825C5B0042FA03F303F00303B1
:1002F000022BF2D0090136D0DCF8A80200EB051081
:10030000014403681A072BD1DCF8A8525A1BC2F328
:1003100001169D424FEA92174FEA46064FEA121223
:100320001ED8DCF8AC529D421AD9DCF89C8218F831
:10033000075045FA06F303F0030304FA06F9012B0C
:1003400045EA09050CD10CEB4E06BEF13F0F08F84B
:1003500007509ABF0EF1010EA6F8BC22CCF8B832B5
:1003600004308842CDD1BEF1000F06D00EF1FF3E21
:100370000CEB4E03B3F8BC52ACE7BDE8F08300BF12
:100380008004002030B51C4CD4E9A953C01AC1091F
:10039000C0F3021E6B5C012202FA0EF223EA020392
:1003A0006B54D4F8B02283094FEA101CB2EB901FB3
:1003B000D4F89C0288BFC4F8B032C15C4FEA9C0EEE
:1003C0000CF0030303255B0005FA03F321EA0301A4
:1003D00000F80E100CF1010CD4F89C024FEA9C0EB0
:1003E0000CF0030310F80E105A0041FA02F202F06A
:1003F0000302022AE7D030BD8004002021F00F0163
:100400000B1A134A013BDB0010B5A2FB0323114C6E
:100410005B0AC4E9A703C4F8AC129A00A1EB8311EC
:100420000133C4F8A8120732C11803EBD202C4F892
:10043000A412002129F080FD002301214FF0FF329A
:10044000C4E9AC33C4E9D0322381A4F83C1310BD15
:10045000F32C23FA80040020024A1389023313810B
:10046000704700BF80040020024A1389023B1381B9
:10047000704700BF80040020024B1889003818BF65
:10048000012070478004002070B51E4C2389002293
:1004900043F0010382B004F5F875C4F8B822C4F83B
:1004A0004023238104F1080252F8043F19071AD1AE
:1004B000D4F8A812581AC0F3011C8B424FEA901EC0
:1004C0004FEA4C0C4FEA10100DD3D4F8AC128B420B
:1004D00009D2D4F89C6216F80E1041FA0CF303F01E
:1004E0000303012B03D0AA42DED102B070BD032367
:1004F00003FA0CF3194306F80E100192FFF7E2FE1F
:10050000019AF0E780040020B9B3F0B51B4C0D460A
:1005100083B0011F002251F8043F18071AD1D4F804
:10052000A872D81BC0F3011E9F424FEA90164FEAF3
:100530004E0E4FEA10100DD8D4F8AC729F4209D974
:10054000D4F89C7217F806C04CFA0EF303F00303BC
:10055000012B04D001329542DDD103B0F0BD03235D
:1005600003FA0EF34CEA030C07F806C0CDE90021AC
:10057000FFF7A8FEDDE90021ECE7704780040020CA
:100580002DE9F043614ED6F8B832D6F89C1283B00C
:10059000C3B1D6F8A03200259800C6F8B85288B189
:1005A0000024A30804F00302CB5C5200134103F0C3
:1005B0000303032B2BD00134A042F2D8D6F8B83273
:1005C000002BEAD1D6F8B4324FF000094FEAD30835
:1005D0000127D6F8A43213F809404FEAC90514B927
:1005E0004CE064080135E20703D464080135E307F1
:1005F000F7D5AB0805F00302CB5C5200134103F0C2
:100600000303012B15D0640838D00135EFE72046ED
:10061000FFF758FED6F8A032D6F89C120134B4EB9E
:10062000830F4FEA8300BCD3D6F8B832002BB4D185
:10063000C8E7D6F8A8222B0102EB0510D35873B1F6
:100640006A464FF445710CF061FD009B3BB10DF023
:1006500019FEDDE900010DF0EFFD0DF029FED6F8E1
:10066000A402EB0805F00701C25C07FA01F122EAD7
:100670000102C2546408D6F89C12C6D1C14502D00A
:1006800009F10109A5E70027BE463A4603240225E1
:100690000FE0012806D104FA03F32CEA03030B70E0
:1006A0004FF0010ED6F8B43201329A421FD8D6F874
:1006B0009C12900802F0030311F800C05B004CFA92
:1006C00003F000F00300022801EB920119D0032887
:1006D000DFD105FA03F32CEA030C81F800C0D6F849
:1006E000B432174601329A424FF0000EDFD93389F7
:1006F000002223F00103C6E9AC27338103B0BDE833
:10070000F083BEF1000FC6D11746CBE7800400206E
:10071000044B1A89002142F00102C3F8B8121A8171
:10072000FFF72EBF80040020594B00212DE9F04136
:10073000D3E9AA42C0E90411121BD3E9A7458846B0
:100740004FEA850CC0E90111C160816102600E466B
:100750008E460D4618E05BBB01359445856001F17E
:10076000010179D09608A75D02F0030676003741B3
:1007700017F002084AD107F003071646B44536D0F1
:10078000012F34D094453AD0B30806F00302E35C5D
:100790005200134103F00303012B06F1010238D08C
:1007A000022BD8D10EF1010EC0F804E008F10108C7
:1007B000944545D0960802F00303A75D5B001F41F6
:1007C000BB0724D4B8F1010F07F003075BD0B8F1E1
:1007D000020F164604D14369013343614FF002080A
:1007E00083699845CAD9B445C0F81880C8D1C36890
:1007F000994200D9C16094454FF00001C4D14FEA3D
:100800000E132D01C0E90135BDE8F081984616466A
:10081000B8E70EF1010E9445C0F804E027D0960821
:10082000A75D02F0030676003741BE07EED407F05D
:10083000030716460369013303614FF00108CFE750
:10084000B8F1010F1F4620D0B8F1020F19D083690B
:1008500098456646C7D8CAE7C3689942CFD94FEAD8
:100860000E132D01C0E90135C160BDE8F0810669B4
:1008700001360661866906B9836116464FF00108A4
:10088000B5E76646A7E71646D4E76646D2E700BF57
:10089000800400202DE9F84300F10F04240900F042
:1008A0009D806D4D2F89002F40F09880B5F83C2336
:1008B0008846002A40F09680D5F8B012D5F8A0E21C
:1008C000714538BF012780F08980D5F89CC20CF1B2
:1008D000FF3600200E440FE013F00C0200F0A18060
:1008E00013F0300F00F0B08000223F2B40F29180D7
:1008F00000200131714570D216F8013F9A07EBD103
:10090000421C944240F2A58013F00C0F40F09180FD
:100910000230844240F2898013F0300F40F08F8023
:1009200002329442E1D889008B1CA3EB020E012A0B
:1009300008F001090EF1010603D1591C8908C5F818
:10094000B012D5F8B412994238BF1946B008C5F8AC
:10095000B41206F003071CF800807F0001210EF19D
:10096000020EB94041EA080173450CF8001013D398
:1009700002274FEA9E01D5F89CC20EF003001CF836
:100980000180400007FA00F00EF1010E40EA080075
:1009900073450CF80100ECD2D5F84033D5F8A872B5
:1009A00023441201002107EB0610C5F8403329F05B
:1009B000C3FA34010346B9F1000F10D00022D5F874
:1009C000A4023A51F1080122445C06F00706B24045
:1009D000224342541846BDE8F88377B100231846F5
:1009E000BDE8F883D5E9D01291422FD2D5F8B012E4
:1009F000D5F8A0E27145FFF468AF33F0F9F9D5F806
:100A0000B012D5F8A0E271454FF00107FFF45DAFD9
:100A1000E4E7501C84423FF66CAF8900CB1C0246D1
:100A200083E7012084423FF677AF89004B1C0246E2
:100A30007BE713F0300F0CBF0122002255E73F2B5C
:100A40008CBF0020012054E701226AE733F0D0F97F
:100A500032E78B0069E700BF80040020034B1B894D
:100A6000012B02D808B1FFF78DBC7047800400202D
:100A7000034610F00F001AD1164AD2F8A812994274
:100A800014D810B4D2F8AC429C420DD95B1AD2F8FB
:100A90009CC29A09C3F301111CF8022049000A41C3
:100AA00002F00302012A04D010BC704770470020F6
:100AB0007047013000EB1312910802F003021CF89A
:100AC0000110520041FA02F202F00302022AF0D0B1
:100AD0000001E9E7800400202DE9F84F05460028D1
:100AE00000F0C980754C914626890A46002900F01D
:100AF0008880002E40F08980D4F8A832C31A9B4623
:100B0000D4F8A0021B0901F10F0E591C8700B1EBAC
:100B1000800F4FEA1E1EBA4680F0B380D4F89C7254
:100B2000B4460126880801F00308385C4FEA4808FB
:100B300040FA08F000F0030002286AD028B90CF14E
:100B4000010C0CEB0600704564D3B64555D065D357
:100B5000B444F4451DD2B9F1000F56D010464FEA07
:100B6000DB11D4F8A422515C03F00703194101F012
:100B70000101FFF78FFE074600283FD032012946CA
:100B800029F090F92389012B38D82846FFF7FAFB82
:100B900034E003EB0E01334499421FD9980803F067
:100BA000030217F8008052004FF0020C01330CFAD8
:100BB00002F242EA080299423A540FD99808D4F84E
:100BC0009C7203F0030217F8008052000CFA02F244
:100BD000013342EA080299423A54EFD1D4F8B432D0
:100BE000994238BF1946AEEB0602C4F8B41212019E
:100BF00005EB0610002129F09FF92F463846BDE885
:100C0000F88F012E01D8FFF7BDFB00273846BDE85D
:100C1000F88F013601318A4584D196E773444FEA53
:100C2000930C03F0030117F80C0049004FF0030880
:100C3000A6EB0E0E08FA01F120EA0101BEF1010F48
:100C400007F80C1010D05F1E77440133D4F89C6273
:100C5000980803F00302315C520008FA02F221EA1C
:100C60000202BB423254F0D1D4F8B0326345C4D949
:100C7000C4F8B0C2C1E708462946BDE8F84FFFF7FF
:100C800009BEBEF1010FB8D0BEF1000F05D001269C
:100C9000B9F1000F7FF462AFB7E7D4F89C024FEAD6
:100CA0009B1C03F003035900032210F80C308A4008
:100CB00023EA020300F80C30D6E700BF80040020CE
:100CC00010B58AB0044603A8FFF72EFDDDE9043015
:100CD000039A00900749204600F090FFDDE90832B2
:100CE00006980549CDE90020079A204600F086FFC6
:100CF0000AB010BD10B5050834B505082DE9F84354
:100D0000DFF858914749D9F8A822074600F076FF46
:100D1000D9F8A01289006DD0DFF84481002515F0C4
:100D20003F0633D005F003067600D9F89C22AB08C5
:100D3000D35C334103F00303022B63D0032B5FD05A
:100D4000012B4AD1D9F8A8222B01D25842455BD0B9
:100D5000354B9A425AD0354B9A425BD0344B9A422B
:100D600056D0344B9A4253D0334B9A4254D0334BE3
:100D70009A4251D0324B9A4252D0324B9A424DD085
:100D8000314B9A4214BF68224D2227E0A9421ED956
:100D9000D9F89C022C4602E001348C4208D0A2080B
:100DA00004F00303825C5B0042FA03F39B07F3D079
:100DB000621B7F2A0BD925499209384600F01EFF95
:100DC000D9F8A03224F03F05B5EB830F12D22049A9
:100DD0002A01384600F012FFA7E72E221D493846A7
:100DE00000F00CFFD9F8A0320135B5EB830F4FEAC4
:100DF000830194D338461849BDE8F84300F049BB55
:100E00006D22EBE73D22E9E75422E7E74C22E5E7D4
:100E10005322E3E74422E1E74122DFE74222DDE714
:100E20004622DBE77CB5050804F20508D4E905088D
:100E3000DCFA0508ACFA0508FCE6050884E60508B6
:100E40007CEE050818EF050870F3050898B505084D
:100E5000B4B50508BCB5050878B5050880040020C0
:100E600024FC0508064B02685B6A5968C1F31E0141
:100E70008A4203D3521A0260184670471B68F4E78F
:100E800080040020014441F20553884204D398B203
:100E9000012838BF0120704710F8012B03EB4313E2
:100EA0005340F2E7034B044A5A620022C3F8F4218C
:100EB000704700BF80040020142B06082DE9F0477E
:100EC00081468846002940D0FFF7DCFF204B5C6A52
:100ED00082460CB9204634E094F90730E668002BCE
:100EE00006F1FF364FF0000513DB013604F1180759
:100EF000B54212D32468ECE777197F08BB1D424640
:100F000054F82310484629F07BF80028CCBF3D4612
:100F10003E46731B012BEFD8E7E7236933F8153002
:100F20009A4510D163695B5D98450CD157F825004F
:100F30004246494629F028F828B96068C0F31E00E7
:100F40002844BDE8F0870135D2E70120F9E700BF6A
:100F5000800400202DE9F84380460F46FFF7AEFFDE
:100F60000246002840F08D80FF2F03D946494748AC
:100F70000CF030F9464DD5F8F4017E1C90B1D5E95E
:100F80007E1333448B4227D93144FFF797F9044647
:100F9000D5F8F401CCB9D5F8FC112246FFF78EF94B
:100FA000C5F8F441802E344638BF80242046FFF730
:100FB0006AF9C5F8F401B0BB3046FFF764F9C5F82B
:100FC000F40178BB30460CF0EDFED5F8F83133442F
:100FD000C5F8F8310028E5D0D5F8FC31C4181E4416
:100FE00041463A4620464FF00009C5F8FC6128F01A
:100FF00059FF394604F807902046FFF743FF804623
:10100000686AD0E90261B1422BD376000A2E38BF5C
:101010000A26C6EBC6001830FFF735F948B9C5F8FF
:10102000F401CFE734460023C5F8F841C5F8FC3198
:10103000D2E700F1180202EB8602696A026102EB54
:10104000460242614A680160C968C0F80C90C2F368
:101050001E020A44416862F31E01C0E9011668627B
:1010600049460269436922F811805F548A1D6B6A00
:1010700043F82240DA680132DA605A68C2F31E028D
:101080000A441046BDE8F8838E69050870EB050830
:101090008004002010B5044628F08CFF014620464D
:1010A000BDE81040FFF756BF07B5019001A8FFF754
:1010B000D9FE019A036933F8120003B000BD07B5E9
:1010C000019001A8FFF7CEFE019B4269D05C03B0FE
:1010D00000BD07B5019001A8FFF7C4FE019B0633D0
:1010E00050F8230003B000BD13B5019001A80C46D1
:1010F000FFF7B8FE019B4269D25C2260063350F8CC
:10110000230002B010BD00002DE9F8431D46002366
:1011100003600B6013602B60164BDFF85C905C6A19
:1011200007468846164664B92B68326813442B601C
:10113000BDE8F883336812F8010B013303443360D0
:101140000DE04C45F0D03B6801333B60E268D8F8D5
:1011500000301344C8F800306269E368D1188A424D
:10116000E8D32046FFF784FC2B68246803442B60F7
:10117000D9E700BF80040020142B0608F8B50B4BFC
:101180000B4F5C6A0CB1BC4200D1F8BDE36804F1BE
:10119000180505EB8306B54201D32468F2E755F83C
:1011A000042B0449044800F029FDF4E780040020E2
:1011B000142B060896690508E4D9050830B5002304
:1011C000202511F8012F0AB9027030BD120600F176
:1011D000010420D513B12023037020460B78124A56
:1011E00003F07F036BB9013A12F8013F13F0800F4F
:1011F000044600F101000BD003F07F0323700123AC
:10120000DFE712F9014B002CFBDA013BDBB2E9E727
:1012100000F8013CE8E7012B04BF057020460B787D
:1012200000F8013B0223CCE79D69050838B5436807
:10123000194403689942054610D9037B1BB108483D
:1012400000210BF0C7FF01F1100424F0070408345B
:1012500080682146FFF727F82C60A86038BD00BFE2
:1012600070EB050870B504460E4611461546FFF7AB
:10127000DDFFD4E901302A461844314628F046FE05
:1012800063682B44636070BD38B50129044638BFDC
:1012900001210025084621606560FEF7E9FF2573FE
:1012A000A06038BD38B505460C460131FFF7ECFFAC
:1012B0006C6038BD0023C0E9013201230160037373
:1012C0007047000038B514460546FFF7DDFF024BB6
:1012D0002560636038BD00BF65120208037B10B54E
:1012E000044613B98068FEF7EBFF0023A36010BD2E
:1012F00038B505461020FEF7BBFF29460446FFF728
:10130000C3FF204638BD10B5044648B1037B13B96E
:101310008068FEF7D5FF2046BDE81040FEF7D0BF3D
:1013200010BD000038B5037B04460D461BB10748CD
:1013300000210BF04FFF016880682944FEF7B3FFDE
:101340002368A0601D442560184438BD70EB050873
:1013500038B504460D46FFF769FFD4E901301D4456
:101360006560184438BDD0E900239A4210B50446A0
:1013700002D10121FFF7D6FFD4E901320021D15477
:10138000A06810BD10B50C460121FFF7E1FF047005
:1013900010BD7F29F8B50C4604D80121FFF7D8FF0E
:1013A0000470F8BD01F03F06B1F5006F4FEA9115EA
:1013B00066F07F0607D20221FFF7CAFF65F03F05FE
:1013C00005704670EDE705F03F05B1F5803F4FEA47
:1013D000113765F07F0508D20321FFF7B9FF67F0E9
:1013E0001F03037045708670DBE70421FFF7B0FF31
:1013F000A40C07F03F0364F00F0463F07F03047054
:1014000043708570C670CCE738B5054608460C4673
:1014100028F0D0FD214602462846BDE83840FFF7B7
:1014200021BFF8B54768B942054628BF39460C4682
:1014300011461646FFF7FAFEAB68A01919193A1BB8
:10144000184428F063FD6B68A86833446B6020443F
:10145000F8BD43688B422CBF5B1A00234360704782
:1014600038B5154642688A4204460B4603D92944DA
:101470008A4201D8636038BD8068521A014418441A
:1014800028F044FD63685B1BF4E70846114629F029
:10149000DFBC70B5054608460E4628F08BFD0446B5
:1014A00020B102466B68286831469847204670BDD7
:1014B0002DE9F74F01919DF8301091460D9A11F0EA
:1014C000DF0F8046A2EB09045CD030295DD1C3F365
:1014D000472100295CD05F290CBF0526042692FB1A
:1014E000F6F106FB11210CBF2D4F2E4F002902F102
:1014F000010108BF0A4604F1010008BF0446711E3D
:1015000092FBF6F006FB10228A1A174413F0200211
:1015100040D004EBD473A4EB63055C10002C3DDDDC
:10152000A3465E45B246A8BFDA46D8F80430D8F8DC
:10153000000052463946ABEB0A0B9847BBF1000F4F
:10154000EFDCB9F1000F07D0D8F804300199D8F8D2
:1015500000004A4698474C44002D0FDD2C44AE4213
:10156000B146A8BFA946D8F80430D8F800004A46CA
:101570003946A5EB09059847002DF0DC204603B05D
:10158000BDE8F08F084F1026C0E70CAF0126BDE77D
:10159000064FF8E713F00105C0D025460024D0E738
:1015A000F8D90508FDD9050803DA0508ECD90508BE
:1015B0002DE9F04F93B08146C807DDE91E871C9DD9
:1015C0009DF874A00C4693461E460BD4A10703D188
:1015D00021687B4B994205D020460DF0D9FC440090
:1015E00044F0010415F0210F08D1B8454346B8BFB7
:1015F0003B46BAF1300F04BF98460027204610F052
:10160000E7FE00280EDA0AAB2807F6B222D5BBF1B6
:10161000020F13D11946302001F8020B701C5870CC
:101620000B4617E0AA0705D52B238DF828300DF1BE
:101630002903E9E76B07E6D52023F6E7BBF1080F9E
:101640005CD130211970290645BF06F10E01597091
:101650000133023300210AAA0EA81970012FA3EB4F
:1016600002030B904FF010000693C5F34723C8BF49
:10167000054315F01002CDE90C01CDE902638DF8A8
:101680002710059244D0CDE900B123460DAA0CA93C
:101690000BA810F073FD03782D2B834606D18DF82F
:1016A00027300D9B013B00F1010B0D93012F7CDDD9
:1016B0000D9C059BBC42B8BF3C462BB19DF8273022
:1016C00003B10134069B1C4425F00103A045079398
:1016D00073DD15F00105A8EB04046FD120230194FC
:1016E000009338492B462A464846FFF7E1FE2C4630
:1016F0000646059B4FF0300AC3B938E0BBF1100F26
:10170000A8D11946302001F8020B06F1170086E730
:101710000AABCDE900B30DAA23460CA90BA810F023
:101720002DFD8346C2E70024079526469DF8273005
:101730005BB100230122CDE900320DF127014846BB
:10174000FFF7B6FE08F1FF380644069B63B100239D
:101750000122CDE900320AA9069A4846FFF7A8FE01
:10176000069B0644A8EB0308012FD8BF4746CDE9E6
:1017700000A7079B0D9A59464846FFF799FE064475
:101780004CB12023009300230E4901941A46484689
:10179000FFF78EFE06440B980EAB984201D0FEF781
:1017A0008FFD304613B0BDE8F08F059B002BBAD1FA
:1017B000059C079526464746D9E70024002698E76A
:1017C000DCF00508D7AC05082DE9F0430746900783
:1017D000984658BFC2F380038DB05ABF5B01DBB29D
:1017E0002B23154600930A46159B149E212103A81E
:1017F0000AF038FCE90504461FD52E2103A828F07D
:101800001DFCD0B9652103A828F018FCA8B96E21E9
:1018100003A828F013FC80B904F130026A4404F1F3
:1018200031036B442E2102F8241C0234302203F8C9
:10183000242CA3186B4403F8240C6A060ED504F17B
:101840003002631C0DEB0204252204F8242C03F162
:1018500030026A44002102F8241C1C46EB0603D522
:101860009DF80C302F2B0DD903A94FF00009CDE9BD
:1018700000862B4622463846FFF71AFE48440DB034
:10188000BDE8F0830023012203A9CDE900323846E8
:10189000FFF70EFE013E8146013C0DF10D01E6E72A
:1018A0002DE9F04F81468BB014464FF000080B46EF
:1018B0001A781D461AB1252A03F10103F8D1A9426D
:1018C00008D26E1AD9F80430D9F800003246984789
:1018D000B04429460B78002B00F0878120224B1C56
:1018E000039200271E783EB12D2E3ED037D8202EF1
:1018F00042D02B2E3DD000261A78A2F130010929C2
:101900001D4603F101033AD92E2A4DD16A782A2ABD
:1019100048D154F8042B023522EAE27B2B786C2B59
:1019200008BF013595F800A0BAF1000F00F05D8105
:10193000BAF1780F09D8BAF1570F38D8BAF1470F72
:101940007ED8BAF1440F00F23E81D9F80430D9F8BC
:10195000000001222946984708F10108B9E0302E1D
:10196000C9D147F01007039601E047F001070133A2
:10197000B8E747F00207FAE747F00407F7E70A215C
:1019800001FB0622A2F13006B6E70A2000FB021B8B
:101990000133ABF130021978A1F1300009281D465E
:1019A000F3D9B9E70022F6E74FF0FF3BB6E7AAF11B
:1019B0005803202BC9D801A252F823F0471A020875
:1019C0004B1902084B1902084B1902084B1902085F
:1019D0004B1902084B1902084B1902084B1902084F
:1019E0004B190208B91A0208E31A0208471A02083A
:1019F000C71B0208C71B0208C71B02084B190208B5
:101A00004B1902084B1902084B1902084B1902081E
:101A10004B1902084B1902084B190208471A020811
:101A2000F91A02084B190208211B02084B19020877
:101A3000471A02084B1902084B190208471A0208F4
:101A4000BAF1500F81D154F804CB0AF0DF03502BC8
:101A5000624677D12AF00F0AAAF10F030020102165
:101A60008DF81700BCF1000F7ED130238DF82730A0
:101A70000DF1270A17F0100B9DF8173000F0958034
:101A8000002B00F09E80039B0093012201923B46B5
:101A90000DF117014846FFF70BFD013E8346039BFE
:101AA00000930AAA01963B46A2EB0A025146484619
:101AB000FFF7FEFC58440BE054F8043B019653B189
:101AC000039B4C49009304223B464846FFF7F0FC39
:101AD0008044691CEBE6039B009347493B46052283
:101AE000F3E754F8043B8DF81830039B00930196FC
:101AF0003B46012206A9E8E706A954F8040BFFF7C4
:101B0000F3FABBF1FF3F014604D0069B9B4538BF6B
:101B1000CDF818B0039B0093069A01963B46D4E794
:101B200054F804AB504628F045FABBF1FF3F02469B
:101B300002D0584528BF5A46039B009301963B4666
:101B40005146C2E7BAF1640F06D0BAF1750F81D1E0
:101B500000200A21612383E7002A1CDA2D238DF857
:101B6000173052420A2151230DF1280A0A3B0DF188
:101B7000180EB2FBF1FC01FB1C2009288CBFC01819
:101B800030300AF8010DF2453FF474AF91423FF650
:101B900071AF6246EDE7BB0705D4C7F38000400193
:101BA0000A2151235CE72B20FAE7002B3FF477AFA3
:101BB00006AA92457FF673AF0AF8013C0AF1FF3A94
:101BC0006DE79B466BE7073424F00704F4E8020155
:101BD00034F096FCCDE9006B00EE100A039B3A4608
:101BE00051464846FFF7F0FD72E740460BB0BDE8AE
:101BF000F08F00BFD08F0508D58F05080EB403B550
:101C000003AA52F8041B0192FFF74AFE02B05DF8E6
:101C100004EB03B0704790F900200378002A0ADA39
:101C200003F07F034022134207D110F8012F02F086
:101C3000C001802905D01846704723EA02035208E4
:101C4000F1E702F03F0242EA8313EEE7431C184635
:101C50000133027802F0C002802AF8D070470023D6
:101C6000814201D81846704711F8012D02F0C002D8
:101C7000802A18BF0133F3E701440346002099424C
:101C80001A4600D87047127802F0C002802A03F189
:101C9000010318BF0130F2E77F289DBF024B185C9B
:101CA000C0F340000020704713DA05087F289DBF6D
:101CB000024B185CC0F3C0000020704713DA05081F
:101CC0007F289DBF024B185CC0F380000020704746
:101CD00013DA05087F289DBF024B185CC0F3801003
:101CE0000020704713DA05087F2809D8064B1B5CD3
:101CF00003F00C0333B9A0F15F0358425841704719
:101D0000002070470120704713DA05087F289DBF27
:101D1000024B185CC0F300100020704713DA05086E
:101D20007F289DBF024B185CC0F340100020704715
:101D300013DA050808B50246FFF7E8FF02EB40108A
:101D400008BD08B50246FFF7EBFF404220F01F0038
:101D5000104408BD303820F02003073B092888BF15
:101D60001846704730B50A440024E5258A4203D856
:101D7000B4FA84F0400906E00B784CB103F0C003DC
:101D8000802B01D0002030BD013CE4B20131EDE7F1
:101D900058B9BF2B09D9F72BF4D8DB0803F0060399
:101DA00045FA03F303F00304F0E71B06EAD4EDE77A
:101DB000023981420B4603D31A880239002AF8D02F
:101DC00002331B1A58107047B2EB131F70B54FEA5D
:101DD00013141AD9121B01EB440103F00F0314462C
:101DE0000646012C0CBF0D880D68013C25FA03F551
:101DF00026F8025B01F10201F3D100EB420030F85A
:101E0000023C03B9013A104670BD0022FBE7F0B571
:101E1000059C0025121B2E46AC420FD101EB44035A
:101E2000174600EB4404411A9FB904EB420316B174
:101E300024F812600233181A4010F0BD31F8157002
:101E400033F815C067443E4420F81560360C013560
:101E5000E2E71D8835445D522E0C013F0233E3E773
:101E6000F0B4049E0025921B2C46AE420BD101EB30
:101E70004605174600EB4606431A7FB906EB4201BA
:101E8000F0BCFFF795BF31F815703C4433F815707E
:101E9000E41B20F8154024140135E6E729880C449A
:101EA000EC52013F24140235E7E72DE9F043079C8B
:101EB000DDF828E0DDE908760239154684464FF65C
:101EC000FF78A4EB020955B900EB42011FB10123D1
:101ED00020F812300231BDE8F043FFF769BF31F856
:101EE000024F013D4444264405EB0904A5422ABFA4
:101EF00033F8024B4FF6FF744444744486EA040EF0
:101F000017FA8EF72CF8027B4FEA144E360C3F0C72
:101F1000D9E738B502290446806838BF02210D464A
:101F200018B12368B1EB930F07D96900FEF7BBF92D
:101F30002368A06065F39F03236038BD38B504466D
:101F40000C20FEF795F923682278054602F001027D
:101F5000C3F39D0023F0030313432B6063686B609E
:101F60004000FEF785F9A8602268A168C2F39D02CF
:101F7000520027F097FF284638BD994210B502D28B
:101F80004FF0FF3010BD01D90120FBE700EB41000D
:101F900002EB410209B90846F4E730F8023D32F895
:101FA000024D1B1BECD4EFD10139F3E710B5044609
:101FB00038B18068FEF784F92046BDE81040FEF78E
:101FC0007FB910BD38B505460C460221FFF7A1FFC9
:101FD000211E2B78B4BF0122002262F300032B7074
:101FE0004FF00003B8BF49426B60D5E90132581C7D
:101FF000686022F81310090CF7D138BD0023C0E93E
:1020000000338360704728B103789B0702D480684F
:10201000FEF756B9704738B504460D464968FFF7D4
:1020200078FF2A782378A06862F3000323706A6837
:102030006260A9685200BDE8384027F033BF29B973
:102040000378416061F3000303707047FFF7BABF84
:1020500008B5FFF7D3FFBDE80840FFF7F0BF9200D7
:1020600042F0020202600022C0E901211946FFF796
:10207000E6BFF8B59DF8187014461D4604210646C3
:10208000FFF747FF22462B4627B1002D0CDA6242AC
:1020900065EB4503317867F3000131700021716011
:1020A00052EA030102D1F8BD0027F3E7D6E9011097
:1020B0004C1C746020F81120120C42EA03421B0CE5
:1020C000EEE72DE9F3418DED010A019D0378EA0F5A
:1020D00062F300030370C5F30F4313F4FF4380461C
:1020E0000BD198F8003023F0010388F8003000236A
:1020F000C8F8043002B0BDE8F081B3F5FF4FF0D06E
:10210000C5F3C754B4F17F06EBD405D1012102B069
:10211000BDE8F041FFF756BF162EC5F31605A4F132
:102120006F07D8BFC6F1170645F400054FEA271719
:10213000D5BFF540963C00260936D4BF344624115D
:102140003946C8BF06F00F06FFF7E3FEC8F8047073
:102150002CB1D8F808006200002127F0EDFE4EB146
:10216000D8F8083005FA06F223F81420C6F1100654
:10217000F5400134A742BDD0D8F8083023F81450F8
:102180002D0CF6E72DE9F843074601EB0208C2F3F0
:102190005B020D46511C089E1C46FFF7BAFE3A78BA
:1021A00064F300023A7000212A461FFA86FC424579
:1021B000796002D3501BBDE8F8831078A0F130039A
:1021C000092B05D9A0F14103192B11D8A0F1370330
:1021D000B342EFD2B86801320C4686467CB900EBB8
:1021E000410413B120F811300234241A6110DEE7E3
:1021F000A0F16103192BDDD8A0F15703E8E7BEF881
:1022000000900CFB09332EF8023B013C1B0CE5E768
:10221000F8B5044615461E46C1B1531E1E444FF084
:10222000FF37E9000F3109092046FFF772FE2378D6
:10223000002123F00103237061600B4645B9A068BB
:1022400000EB4101FFF7B4FD6060F8BD0127E8E74E
:1022500000220F2B09DC3078013D00FA03F042EA3E
:10226000000203F108033E44F3D1A06801F1010C20
:10227000C4F804C0103B20F811206146DEE738B5F1
:1022800005780B7805F0010203F001030446981A63
:1022900008D1D1E90132D4E90110FFF76EFEEB0756
:1022A00048BF404238BD884210B5044601D0FFF710
:1022B000B2FE237823F00103237010BD884210B5CD
:1022C000044601D0FFF7A7FE63683BB12378C3F350
:1022D000000282F0010262F30003237010BD884205
:1022E0001FB5044601D0FFF796FE626862B901216E
:1022F0002046FFF70EFEA268012313806360237857
:1023000043F00103237010E02378D9070FD523F0A1
:102310000103237001230093A168ADF80E30084635
:102320000DF10E03FFF79CFD606004B010BD511C61
:102330002046FFF7EEFD01230093D4E90121ADF81B
:102340000E3008460DF10E03FFF761FD6060D6E721
:102350004B682DE9F04704460D46164603B12AB9ED
:1023600029462046BDE8F047FFF755BE02F10F01B0
:102370004FEA111803EB1111FFF7CBFDD5E901036B
:1023800016F00F02A1686FF0004E08EB000606EB96
:102390000E0C864403EB4E0308BF10224FEA4C0795
:1023A00001EB4C0C02330146E1464FF0000EC2F146
:1023B0001002F9B96FF001035843C8F101080CEBA2
:1023C00000032EFA02FE4FEA48022CF800E05242C7
:1023D00003EB480027F0B0FD0237C31916B133F8FC
:1023E000022D9AB166602A78237862F30003237085
:1023F000BDE8F08733F802AD4AEA0E0E2EFA02FA73
:1024000029F802A94FEA0E4E0139D2E7013EE5E76D
:102410002DE9FF410D4649680646144601B132B91F
:102420002946304604B0BDE8F041FFF7F4BDFFF7A0
:1024300070FDB768D5F808806A682346414638467B
:10244000FFF7C2FC70602978337861F300033370C2
:10245000DB0702460BD500236968ADF80E304FEA62
:10246000141C994201D0634504D161450AD804B0D7
:10247000BDE8F08138F8130098B101236145ADF84B
:102480000E3012D904F00F04012338F81C1003FA9F
:1024900004F4013C214206D1BDF80E30002BE6D0F9
:1024A00003E00133DDE7ADF80E30012312B93B80C4
:1024B0007360DCE7009339460DF10E033846FFF7F1
:1024C000A6FC7060D3E72DE9F3414E6857680C46CF
:1024D00090463B46314692680546A068FFF74DFDA1
:1024E000013017BF374646462646444633782278A1
:1024F0005340DB0719D4791C2846FFF70AFD6368AF
:102500000093D6E90121A368A868FFF780FC686002
:1025100033782A7800280CBF002303F0010363F30B
:1025200000022A7002B0BDE8F08139462846FFF764
:10253000F0FC63680093D6E90121A368A868FFF75F
:102540008FFCE4E72DE9F3410F464E68D2F8048092
:1025500014464346314692680546B868FFF70DFDBC
:1025600001301EBF23463C461F4623783A7883EA53
:10257000020316BFB04601260026DB0719D508F175
:1025800001012846FFF7C5FC7B680093D4E90121CF
:10259000BB68A868FFF73BFC686018B1207800F0C2
:1025A000010070402B7860F300032B7002B0BDE88F
:1025B000F08141462846FFF7ACFC7B680093D4E9E4
:1025C0000121BB68A868FFF74BFCE5E72DE9F04F58
:1025D00053680C46496899422EBF2646164619464E
:1025E000337828BF1446DB0785B0054622D423780C
:1025F00013F001071ED1FFF78CFCD4E9011CA86879
:10260000B6683B4699420CD100EB4101FFF7D0FB85
:10261000002368602A7863F300022A7005B0BDE8E1
:10262000F08F36F813203CF81340224020F8132096
:102630000133E7E701312846FFF76BFC3778237851
:10264000D6F804C0A868A26887EA0301C94301F06C
:10265000010E41F3000189B2029147F3000101919B
:10266000B168A1F10209616803F0010A43F30003B4
:102670009BB2A1EB0C0107F001080093674683466B
:1026800003918FB900EB4C01BEF1000F03D0012381
:1026900020F81C300231FFF78BFB6860227833781A
:1026A000C2F300021340B5E739F8021F019B5940FD
:1026B000039B013F18FA81F8D919B9429BBF32F840
:1026C000021B009B009959408A44029B08EA0A01B8
:1026D00059401EFA81F12BF8021B4FEA1A4A4FEAC1
:1026E00018484FEA114ECCE72DE9F84F53680D46D4
:1026F000496899422EBF2E4616461946337828BFA0
:102700001546DB07044631D42A7812F001072DD193
:10271000FFF7FFFBD5E9013E7568D4F808C0B16842
:10272000ED1A3A46934213D10CEB43002A4601EBD3
:102730004303ACEB0101A2B900EB4500A0EB0C0098
:1027400040102378606062F300032370BDE8F88FC7
:1027500031F812003EF8126030432CF812000132BA
:10276000E0E71E885E52013A0233E4E70131204679
:10277000FFF7CFFB2B7837787168A068D5E901E2C5
:10278000B56803F0010943F3000307F001089BB2A9
:1027900047F30007A5F1020C0E4683464FF0010AED
:1027A000AEEB010E2EB900EB4101FFF701FB012258
:1027B000C7E73CF8025F013E7D4018FA85F80EEB52
:1027C0000605AE422ABF32F8025B1D465D40A944B1
:1027D00048EA0905ED431AFA85F52BF8025B4FEA42
:1027E00019494FEA18484FEA154ADBE7F0B5536834
:1027F0000D46496899422BBF2F4617461546194684
:102800003C782B785C4014F0010485B0064636D144
:10281000FFF77FFBD5E9013C3D78B06815F0010575
:10282000D7E9012123D1D21A2C469C4211D101EBC8
:10283000440500EB4403411A14469CB903EB4201E2
:10284000FFF7B6FA3378706064F30003337005B0B5
:10285000F0BD31F814503CF814707D4020F814504D
:102860000134E2E72F886F52013C0235E5E7CDE9FC
:102870000244CDE900346346FFF717FBE2E701317C
:10288000FFF747FB2B78DB4303F0010303933B780F
:10289000DB4303F001030124029301946B6800936E
:1028A000D7E90121AB68B068E6E72DE9F04F4B6846
:1028B00085B006460D4614460BB1536843B93378CC
:1028C00023F0010333700023736005B0BDE8F08F7F
:1028D00081422DD1FFF732FBB442054607462ED088
:1028E0006368696830461944FFF713FB3268B068C3
:1028F000C2F39D025200002127F01EFBAB68D6F800
:1029000008E0D5F804900193A3680293002263685D
:1029100003930EEB4908F4461146039B934233D0D0
:10292000DDF804B0CDF80090ACF1020000231AE00D
:10293000824206D1FFF702FB04460746D0E7044671
:10294000CEE70027CCE730F802AF03EB0A01029B89
:102950003BF802AB33F8123003FB0A1300990380F3
:1029600001391B0C009100990029ECD14146881CCB
:1029700013B1A8F800300146A1EB0E0149100CF18B
:10298000020C01328046C8E7716022782B785340F0
:102990003278384663F30002327005B0BDE8F04F7C
:1029A000FFF704BB4B6870B50546144613B11378A6
:1029B000DA0706D52B7823F001032B7000236B6018
:1029C00070BD636823B9BDE870400121FFF7FABA12
:1029D0000846FFF7B3FA06462046FFF7AFFA012193
:1029E00004462846FFF7EEFA636883B1A3681B88A4
:1029F000DB0704D5324629462846FFF756FFD4E9BF
:102A0000012101230846FFF7DFF9606038B930463D
:102A1000FFF7CCFA2046BDE87040FFF7C7BA324650
:102A200031463046FFF741FFDEE72DE9F04F0C4617
:102A300051688FB00131054601920393FFF769FA9F
:102A4000019BA8685A6801325200002127F074FAED
:102A50002B7823F001032B704FF0000A019BC5F87F
:102A600004A0596820460131FFF753FA0199204626
:102A7000FFF7D1FA039BA668D4F80480D3E9013BA1
:102A80000093AB6804935A46009B41463046FFF7DB
:102A900074FA002833D1049A6060012313806B60BC
:102AA00023786268002A0CBF002103F0010161F362
:102AB000000323700399019B09781B784B40DB07C7
:102AC00040F100816B682978003B18BF012363F354
:102AD00000012970002A00F0F5800BA84FF0FF31AB
:102AE000FFF7B6FA0BAA29462846FFF7ECFC039A33
:102AF000214620460FB0BDE8F04FFFF7E4BC01309F
:102B000002D1C5F804A0CBE7009B03F10047013FC9
:102B10004FEA47093BF817301A045CD506EB48002A
:102B2000831C02931FFA8AF34FF0000C08F1010294
:102B3000C3F1100126F818C0B646626005910299EB
:102B40008E454CD33BF8171001FA03FA009901297E
:102B500008D90BEB0901C3F1100731F8021CF94049
:102B60004AEA010A0099521A6A60049902F1004285
:102B7000013A01EB4202079209F1020209926268EE
:102B800005920599009A8A4235D301F1004B0BF169
:102B9000FF3B06EB4B0B0022C3F110005E4540F2F9
:102BA00084806B6843B103F100420499013A31F823
:102BB0001220002A00F083806368002B3FF470AF7E
:102BC00003F10042013A36F81220002A7FF468AF80
:102BD000013B6360F0E70AF1010A5B009CE7BEF885
:102BE00000A005990AFA03F84CEA08082EF8028BAF
:102BF0002AFA01FCA3E7018830F8022C42EA0142DC
:102C0000B2FBFAF20292099A821A06920027ABF1FD
:102C10000202DDF818C00892B84660450DD8018858
:102C20000F44002F39D1079A029922F8021907920E
:102C3000059A013A02386260A1E7089ABCF8009050
:102C400032F8021F08929940029A41EA18481FFA86
:102C500088F1514319FA87F91FFA81FE090CA9EB93
:102C60000E0EC1EB27412CF802EB01EB2E47D4E707
:102C700039F8021F994041EA1848BEF80010614433
:102C800011FA88F12EF8021B4FEA114C7045EFD86B
:102C9000029A013A67440292C3E74FF0000CDDF854
:102CA00018E0ABF10209E046F0E7BBF8001041FA8A
:102CB00003F73A432BF8022901FA00F26EE7013BD1
:102CC0006B606EE70FB0BDE8F08FF0B51F4613786C
:102CD0000D46D90785B00446164606D47B68012BFD
:102CE0000BD1BB681B88012B07D1237823F001038C
:102CF00023700023636005B0F0BD01212046FFF77B
:102D000061F9736853B93B78DA07F4D53A4621463E
:102D1000204605B0BDE8F040FFF7D5BB6B68002B3F
:102D2000E3D02846FFF70AF905463046FFF706F9D3
:102D30000023CDE901330646039373685BB901A80C
:102D4000FFF761F92846FFF731F9304605B0BDE8D5
:102D5000F040FFF72BB9B3681B88DB070AD52A467A
:102D600021462046FFF7A1FD3B462246214601A809
:102D7000FFF75BFED6E9012101230846FFF724F89F
:102D800070600028DBD02A4629462846FFF78DFDD3
:102D90003B462A46294601A8FFF747FECDE710B576
:102DA000D0E90121002301EB4202914205D30278D0
:102DB000D20748BF5B42184610BD32F8024D44EAC4
:102DC0000343F2E730B5D0E90124002304EB4202CB
:102DD000944206D30278D20748BF5B420B600120C1
:102DE00030BDB3F5004F04D232F8025D45EA03432B
:102DF000EEE70020F4E72DE9F74FDDF830A001926F
:102E00008846B1B10AEB0305D0E901240178A4F1A9
:102E1000020E41F300010024C9B24FF00109274618
:102E2000264642B9D3BB019B93BB012003B0BDE84A
:102E3000F08F5546E8E73EF802CF10364CEA0747D8
:102E4000072E01DC013AECE7BCB26FEA040C90F803
:102E500000B059FA8CFC1BF0010B1FFA8CFC18BF58
:102E600064464FEA142C18BFE1465FFA84FC23B98C
:102E700061451CD1083E3F0AE2E7B8F1000F04D0DB
:102E800005F801CC013D013BF4E705F801CBFAE779
:102E90004C4084F08004C4F3C010C7E71A46B8F170
:102EA000000F0CBF2846504627F046F8BDE71846ED
:102EB000BCE70000D0E901329FED0C0A9FED0C7ACF
:102EC00002EB43039A4205D30378DB0748BFB1EE18
:102ED000400A704733F8021D07EE901AF8EEE77AC1
:102EE000E0EE077AB0EE670AECE700BF00000000F2
:102EF000000080472DE9F74F44689DF830A00D9DF4
:102F00000A2980468946164614BF4FF0040B4FF03D
:102F1000030B9CB982B1561E2B4616F8012F42B9FD
:102F200030221A70002203F8012F581B03B0BDE8AD
:102F3000F08F03F8012BF0E72B46F1E760000193D7
:102F4000FDF796F96200D8F80810074626F0AAFFA8
:102F5000019B07EB440C28462A463A3BACF102049D
:102F60000021A7422AD93031CC18392988BF2146FF
:102F7000144604F8011B39468C458E4629D838463C
:102F8000FDF79EF95EB1304627F014F83218611E45
:102F90001346B3422FD8964288BF0020044498F8C5
:102FA0000030DB0744BF2D2304F8013B2B46621E93
:102FB0009A4225D800232370601BB7E7B4F800E0DD
:102FC0004EEA0141B1FBF9FE24F802E909FB1E11AA
:102FD000C7E7BEF800E00231BEF1000FCCD0BAF175
:102FE000000F06D0211A594502BF941C82F801A097
:102FF00020462246B2E713F8017D01F8017FC8E7B9
:103000001978107803F8010B02F80119D0E7D0E91C
:10301000023293423DBF5A1C826018784FF0FF3055
:1030200070470368013B033310B5044602D840687B
:10303000FDF746F92046BDE81040FDF741B9000014
:10304000F8B5054610200C461F461646FDF710F948
:10305000054B8460C0E900743444C4606B60034B6A
:103060002860AB60F8BD00BF0F30020823300208B3
:1030700002690A2AF8B5044623D1836901338361C2
:103080000123E361237D2361637D237500260A27E5
:10309000256EF5B16B1CA26D2366555D626D934282
:1030A00001D366652666237D0D2B02D10A2D277577
:1030B000EED025B9237D13B10A2B18BF0A256575FB
:1030C000F8BDC369092A04BF073323F0070301339E
:1030D000D7E7D4E901039847431CE4D0012838BF5F
:1030E00001200546DFE700000169272902D10123FD
:1030F000184670472229FAD0A1F16202132A01D999
:103100000023F5E70F4B134113F00103F8D1027DC3
:10311000272AECD0222AEAD0722909D1662A0BD1BB
:10312000437D272BE3D0A3F1220253425341DFE733
:10313000662904D1722A00E0622AD9D1F0E7622917
:10314000F8D0D5E7EEFFF6FF38B504460D46206906
:1031500008B905461BE00A2806D10DB1636AB3B170
:103160002046FFF785FFF2E7FEF796FD0028F7D12E
:103170002369232B08D12046FFF77AFF2369002B10
:10318000E5D00A2BF7D1E2E75C2B02D000252846D8
:1031900038BD237D0A2BF9D12046FFF769FFDFE711
:1031A0002DE9F04F0023044685B001214364FFF769
:1031B000CBFF266AA3696363002EE369A36307DA82
:1031C000072384F83C300136266205B0BDE8F08F55
:1031D00004D0062384F83C30013EF5E7002835D0C2
:1031E00031462046FFF7B0FF052384F83C30D4E990
:1031F0000B3003F10042013AE56930F81220013D3D
:103200009542E2D009D8013B30F81320954218D3FB
:10321000DBD0022384F83C30D7E7A16A8B4207D386
:1032200008314900FDF73FF8A36A20630833A36221
:10323000E36A5A1CE26220F81350236A01332362C6
:10324000C3E7226AE362013A2262DCE7256915B925
:1032500084F83C50B9E72046FFF746FF8046002837
:1032600000F0148284F83C602369722B4AD008D89D
:10327000622B0CD0662B4FD0B14600252F460B2376
:103280000EE0753BD3F1000949EB0309F5E7237D17
:10329000722B4FF0000546D02F464FF001090C234A
:1032A00094F83C20002A47D184F83C30B9F1000F53
:1032B00008D02046FFF7DCFEB9F1020F02D120460C
:1032C000FFF7D6FE23692046222B0CBF4FF02209C0
:1032D0004FF02709FFF7CCFE23694B4502D1237D30
:1032E0004B4560D04FF0010A35B1A36E23B9AB490D
:1032F00004F16400FEF788F804F140034FF0000B7E
:103300000093EFE0237D622B0CD0662B0FD00025BD
:1033100047464FF00109B2E7237D722B454607D09F
:103320000027F6E7002547464FF00209B7E7454674
:1033300047464FF00209A2E79A42B7D0A36E002B8E
:103340003FF443AF292104F16400FEF71BF8236E1C
:1033500004F15006002B40F0968103213046FDF722
:10336000F7FF23690370237D4370637D8370D4E985
:103370001A57216E2A463046FEF753F82A46394638
:1033800026F090FD0023A366236EA26D581C2066D4
:10339000D15C2161991C2166105C20750333236682
:1033A000535C637511E72046FFF762FE2046FFF786
:1033B0005FFE4FF0030A97E7894509D10098494617
:1033C0000BF1010BFDF7E5FF2046FFF751FE89E009
:1033D000002D6DD15C2940F04D812046FFF748FE5D
:1033E000236967B9782B0AD85B2B00F29880222BCF
:1033F00000F0CC8000F2C4800A2B00F0BE80009860
:1034000001935C21FDF7C5FFDDF804B002E104F192
:10341000640B28215846FDF7B5FFA36E00222169F1
:1034200081B17ABB3A290DD07D290BD0212929D130
:10343000207D7238C0B2012829D8607D3A2801D099
:103440007D2824D1D4E91A21881810F8010C3D28D0
:1034500009D1D21A194401980293FDF703FFA26E15
:10346000029B013AA266934208BF0423584608BF54
:1034700084F83C302921FDF785FF2C215846FDF7C3
:1034800081FF29E021F020005B280CD10132C9B274
:103490005846CDE90232FDF775FF2046FFF7E8FDFB
:1034A000DDE90232BBE75D2808BF02F1FF32EEE73B
:1034B0007B298FD120460291FFF7DAFD04F140030A
:1034C000019323697B2BA2D104F140000299FDF7FF
:1034D00059FF2046FFF7CCFD01987B21FDF752FFF5
:1034E0004FF0000B2169002900F0C780BAF1010FED
:1034F00002D10A2900F0C180D345FFF45DAF5946DF
:1035000004F14000FDF7A5FF01212046FFF71CFE56
:103510002046FFF7E9FD00287FF4A6AE0EE7A3F1F1
:103520005C021C2A7ED8DFE812F031007D007D00AD
:103530007D007D0096003D007D007D007D004900FE
:103540007D007D007D007D007D007D007D004300CD
:103550007D007D007D001D007D0040004C00460088
:103560007D00C6014FF00D0B94F83C300B2B75D14C
:10357000594604F14000FDF70CFF4FF0000B23E724
:10358000552B1ED03FF63BAF272B01D19B46EBE7D7
:103590004E2B47D102480AF015FE00BF20900508C7
:1035A000299005084FF0080BDEE74FF0090BDBE729
:1035B0004FF00A0BD8E74FF00B0BD5E74FF00C0B91
:1035C000D2E794F83C200C2A07D15C2104F140009A
:1035D0000193FDF7DEFE019BD8E7752B14BF08238E
:1035E00004234FF0000B20460193FFF741FD2269B1
:1035F00002921046FEF76EFB002800F05781019BF7
:103600000298013B0193FEF7A5FB019B00EB0B1B0E
:10361000002BE8D1BBF5881FA6D34FF0010384F837
:103620003C30AAE7A3F1300BBBF1070F3FF6E7AE42
:10363000032308E020460193FFF71AFD2269019B4E
:10364000303A02EBCB0B227D303AD2B2072AE1D8D6
:10365000013BEFD1DEE74FF0070B85E7BBF1FF0F32
:10366000DBD80C2BD9D15FFA8BF104F14000FDF7C8
:1036700089FE82E70098C9B2F9E7D3453CBF03232E
:1036800084F83C303BE7033B236670E62846FEF7B0
:103690000DFB054600283FD120695F283CD07F28DC
:1036A0003AD8FEF70DFB48B923692E2B40F09980DC
:1036B000207DFEF705FB002800F0938021692E296C
:1036C00066D10A2384F83C3004F140063046FDF709
:1036D00060FE2046FFF7CCFC0A27206900283FF453
:1036E00074AD002D66D120F02003452B62D16521F9
:1036F000304684F83C70FDF74CFE2046FFF7B8FCDE
:1037000021692B2901D02D29E7D13046FDF741FE53
:103710002046FFF7ADFCE0E7082384F83C3004F1D5
:103720004005217C2846FDF72DFE2046FFF7A0FC32
:10373000206960B1FEF7BAFA0028F2D120695F284B
:10374000EFD07F28EDD8FEF7BBFA0028E9D1284654
:10375000FDF709FE594E074600253168384626F028
:1037600037FC00280CD10E35EDB2112D7FF470AD71
:10377000534BD3F80032002B14BF0E23102349E51E
:10378000FFF623AD0135242D06F10406E5D11CE535
:103790000923302984F83C3096D1237D494A43F0EF
:1037A0002003623BDBB2DA4002F00102162B98BF25
:1037B000154689E7FEF77AFA30B92069FEF780FAF4
:1037C00010B923692E2B09D121692E2903D021F0AC
:1037D00020034A2B99D184F83C7096E75F2B97D051
:1037E000F3E4394D00262F7817B12369BB4205D188
:1037F0002046FFF73DFC4FB901230BE5652F01D0B3
:10380000632F00D1013501360135ECE7212F07D1B7
:1038100023693D2BF0D12046FFF72AFC3923F9E438
:103820002E2F0FD123692E2B02D1237D2E2B01D0D9
:103830005C23EFE42046FFF71BFC2046FFF718FC53
:103840000D23E7E40335334615F8027C632F01D0DE
:10385000652F10D115F8012C2169914206F101065E
:1038600007D12046FFF704FC652F05D0334602350B
:10387000EAE7632FFBD11E46144B9B5D84F83C3076
:10388000543BDBB2052B3FF6A0AC012202FA03F356
:1038900013F02A0F07D113F0150F3FF496AC636AAB
:1038A0001344636291E4636A013BFAE7012384F8FD
:1038B0003C30834658E6022393E600BF94DA0508BD
:1038C0008004002001204000DB8F050824DB050870
:1038D00030B585B0054601A880E80E007420FCF7DD
:1038E000C7FC01AA0446034607CA43F8045B83E801
:1038F000070001236FF001020025C4E906320A2205
:10390000C4E90A23C4E908551420FCF7B1FC2021BE
:10391000206304F14000FDF7B7FC294604F1500094
:10392000FDF7B2FC294604F164002566FDF7ACFC06
:10393000236B20461D802561A582FFF799FB204659
:10394000FFF796FB2046FFF793FB2046FFF728FC86
:10395000A36B012B06D094F83C30052B1CBF06232B
:1039600084F83C30204605B030BD1FB5044601A8A0
:10397000FFF766FB01AB0ECB2046FFF7A9FF04B0B3
:1039800010BD1FB50446014601A820F01BFF01AB86
:103990000ECB2046FFF79CFF04B010BD10B50446C7
:1039A000B0B1C3684068984704F14000FDF796FC49
:1039B00004F15000FDF792FC04F16400FDF78EFC69
:1039C000206BFCF77DFC2046BDE81040FCF778BC7E
:1039D00010BDD0E90432013B036152F82300704767
:1039E000036942695B1A013B52F823007047F8B53E
:1039F000446A06460D46B4B1D4E900030B44834241
:103A000022D90831002201442046FCF757FC024627
:103A1000B8B9616820460831FCF750FC6368236040
:103A2000336A63603462802D2F4638BF802707F1E8
:103A30000800FCF71DFC0023076043600446706229
:103A400002E023682B442360606805446560083405
:103A50002044F8BD38B50D460C211446FFF7C7FFCA
:103A60004FF49D73C0E90134056038BD38B50D468B
:103A7000D0E903138B42044608D310314069890012
:103A8000FCF711FCE36860611033E360D4E90432B1
:103A9000591C216142F8235038BDF8B50E461D4629
:103AA000D0E900138B420446174608D31031C900F1
:103AB0008068FCF7F8FB2168A06010312160D4E930
:103AC00001104B1C636050F8312066F3170240F878
:103AD000312000EBC103DF705D60F8BD10B4846974
:103AE000CAB20023616B10BCFFF7D7BFC20704D571
:103AF00040F0010008600120704708B900207047BD
:103B00008307FBD103793A2BF8D183680B6013F05C
:103B10000100F0D19A0707D11868044B9842EAD007
:103B2000034BC31A58425841704700BFDCF00508E8
:103B30007CEE0508C20701D50120704783070ED02F
:103B400000F00F03062BF7D00A2B01D0002070479E
:103B500000090D3803288CBF002001207047002881
:103B6000F4D003793A2BE7D02D2BEFD18068B0FA4F
:103B700080F0400970470000C20702D540F0010004
:103B8000704783070FD0030900F00F00062803D108
:103B9000D80040F0020070470E3B022B0BD8074ABA
:103BA00052F82300704708B90548704703793A2B4B
:103BB000FAD1806870470348704700BF50DB0508A2
:103BC000E8FB0508B4F7050838B505460C46FFF7CD
:103BD000B1FF38B12846FFF7CFFF0BF01DFB031BE9
:103BE0005842584138BD0000F0B593B004466846CD
:103BF0000E4617461D46FCF7FBFA10B1002013B025
:103C0000F0BD3A46314620460AF0E8F80446FCF793
:103C1000C5FAA30703D12268024B9A42EED02C606A
:103C20000120ECE7E8E705082DE9F0410E460546DE
:103C30001446114689B9204613F02AF8074600F1C8
:103C40000808A4B93A4631462846FFF703FF014663
:103C50002846FFF70BFF012007E001392846FFF750
:103C6000BFFEFFF767FF0028E4D1BDE8F0812846DA
:103C7000FFF7AFFE0146FFF77FFF013C48F8240045
:103C80000029DED08B07DCD16A6A02F10803994271
:103C9000D7D3506803449942D3D24B681B0A0233EE
:103CA000A0EB83005060CCE7F7B58669054696F82F
:103CB0003C00A0F108030F46042B55D8DFE803F0C1
:103CC00003232E3B4F00D6E91110FDF743F9902F47
:103CD000044614D1C100002241F0020105F1280080
:103CE0000AF030FE58B14268D1071FD542F00100FA
:103CF0000146284603B0BDE8F040FFF7B7BE2001FB
:103D000040F00200F4E73346D6E91110002208F033
:103D1000EDFBC30709D540F00100E9E70096D6E9BD
:103D200011100023012208F021FD0246716B284684
:103D3000FFF790FEDCE7D6E911100A2906D8FDF757
:103D400009F930B1000140F00600D1E7FDF7B6F8FF
:103D5000F7E7D6E91121064810F0D6FFE5E7D6E9E6
:103D6000111011F041F8E0E7000140F00A00BFE750
:103D7000DCFA050808B5FFF7B9FE08B9002008BD50
:103D80000B68D90707D49A07F8D11868034BC31AF0
:103D900058425841F3E70120F1E700BFDCF0050885
:103DA0000021FFF711BF0121FFF70EBF2DE9F04FF2
:103DB0002D2A85B00446884616461D461DD1002191
:103DC000FFF70EFE20B1810734D10379922B31D158
:103DD000A6F12303DFB2092F00F20282092B00F2C1
:103DE000F281DFE813F0F700F700F700290129015D
:103DF00029014E01F700F001AC01922A1DD10021EA
:103E0000FFF7EEFD07460028E2D08207E0D14168C7
:103E1000CBB2952B04D12046FFF7DBFD013DD7E760
:103E2000962BD5D121F0FF01204641F09201FFF7FA
:103E3000D0FD796005B0BDE8F08F962A13D1D0E9A6
:103E4000012303EBC203013513F8153C2D2B40F081
:103E50005F812A46FFF7E8FE002800F05981636879
:103E6000023B6360E6E7A2F11E03012B40F284806F
:103E7000202A00F09580052AAAD10021FFF7B0FD85
:103E80000746002800F0448110F0030905D143687B
:103E900003F0FE03562B00F03B8101212046FFF783
:103EA0009FFD00F00F03022B014640F03181B9F174
:103EB000000F06D13B795B2B06D1FF68002F00F085
:103EC0002781B80740F024813B792C2B40F02081DA
:103ED000BB6803F00F02022A40F01A811B09482B2D
:103EE00040F01681FB68002B00F0128113F00309EB
:103EF00040F00E811A79302A40F00A81D3F808A0E8
:103F00005046FFF717FE8346002840F0DC80AF499B
:103F1000AF480DF0EBF8A1693A68096805465B46C1
:103F20000DF0C6F92846FCF77BF9A946AA460AF126
:103F3000FF3A51462046FFF753FD23696269A3EB20
:103F40000903834642F82300BAF1000F17D01E2E52
:103F50000BD1FFF728FF90B95846FFF721FF002843
:103F600018BF4F46B946013FE1E7FFF719FF30B9E7
:103F70005846FFF718FFF2E76F1E002DD5D100213C
:103F8000B94208D16D1A012D3FF454AF362E00F01E
:103F90003181332E2DE12046FFF71BFD0131EFE784
:103FA0000021FFF71DFD0746FFF7FAFE78B93846F6
:103FB000FFF7F9FE002800F0AB80EA212046FFF76A
:103FC00008FD204605B0BDE8F04FFFF74FBD4FF4A8
:103FD0008571F3E7691E2046FFF702FD01A9FFF78F
:103FE00085FD002800F09480022F9ABFA6F10D09EC
:103FF0005FFA89F94FF02209AF1E002F09DA002D70
:1040000040F0D680019AD30740F1D78042F00101F9
:10401000D7E739462046FFF7E3FC02A9FFF766FD24
:10402000002875D0DDE9011201AB4846FFF7DCFD41
:1040300000286DD0013FE0E7691E2046FFF7D0FC65
:1040400001A9FFF753FD002862D0AF1E002FD6DD77
:10405000791E2046FFF7C4FC02A9FFF747FD0028A0
:1040600056D039462046FFF7BBFC00092438DDE96D
:10407000011201ABC0B2FFF7B7FD002848D0023FE4
:10408000E4E700212046FFF7ABFC01A9FFF72EFD76
:1040900000283DD001212046FFF7A2FCC0F3071005
:1040A000332801990CD1CB0705D48F0730D10A688A
:1040B000484B9A422CD1022009F0E6F801909EE785
:1040C0003F38C0B2F8E75046FFF756FD0F09F90038
:1040D0008346012241F0020104F128000AF032FC7B
:1040E000C0F804B03846FCF7F4FF03785F2B204695
:1040F00008D1FFF76EFC2046FFF76BFC4D46C84623
:10410000082665E6FFF765FC51462046FFF7AEFC42
:10411000A91C89002046FFF76AFC46EA05230746EA
:10412000C0F80080436000F10801002D6BD1962E8D
:1041300003D139462046FFF799FC394641E7012172
:104140002046FFF74DFC00F00F03022B0746DFD19E
:1041500000212046FFF744FC0028D9D010F00302CC
:10416000D6D10379322BD3D13909C900D0F80890C0
:10417000194841F002010AF0E5FB0028C8D0406868
:1041800002AA4FEA191108F0C1FF029B002BBFD011
:10419000D90708D49A07BBD11A680E498A4202D0BF
:1041A0000E498A42B4D1039A002AB1D1019326E77D
:1041B0002046FFF70EFC013D21E729462046FFF788
:1041C00049FC0146FDE62B26A2E700BFBC9005088E
:1041D00028EB0508DCF005085CDB05087CEE05082B
:1041E000922E17D1D4E9012303EBC20313F8053C47
:1041F0002D2B8DD12A4641462046FFF715FD00287C
:104200007FF418AE84E72046FFF7E3FB013D41F859
:1042100025008AE7062EEDD0B8E600BF0346006809
:1042200030B560B1840702D00120136030BD44680E
:10423000E5B28D42F8D100F10803200AF5E7034604
:10424000F3E700002DE9F04FAC4B97B0CDE9073113
:1042500002900E4605A8AA4901920024FBF7A6FF8A
:1042600040234FF40070CDE90934FCF701F8202316
:104270000B908020CDE90C34FBF7FAFF2146CDE905
:104280000E0613A8CDE911440AF026FB019B002B72
:1042900051D0022B0CBF3F222246716B994F002355
:1042A00009A8FFF7FAFB4FF0000B0A9C002C00F066
:1042B0007781013C0B9B944D0A9403EBC40253F8A5
:1042C000343092F803805268C3F3170A8F4B13F807
:1042D000083000938E4B13F80830B8F1630F88BF95
:1042E00043F4807305EB4305009B03F00F0903F0D3
:1042F0003003102B21D0202B50D0BBF1000F00F049
:104300002581B9F1020F40F01481012A43D04FF00A
:10431000000B0099C90702F1FF3305D569883940C0
:10432000B1F5805F08BF5308012B40F00081BBF15D
:10433000000FBAD0FBE03D22AFE712B1BBF1000F96
:10434000B3D005EB420524E02B8803EA0701B1F561
:10435000805F0FD196F83C10C3F30B03994216D13E
:1043600009A84146FFF7A0FC3046FEF719FF4FF0C1
:10437000000B9AE7531C4B4504D24246514609A80C
:10438000FFF78BFB298809A8FFF7A8FBEFE70235A9
:1043900001329145D8D84FF0010B86E7BBF1000FF1
:1043A0000ED002F10043013B35F813303B40B3F52A
:1043B000405F08D1002109A80392FFF757FB039A39
:1043C00005EB420B30E0012A7FF66FAF96F83C30E8
:1043D000062B40F013814F494F480CF087FE726B5B
:1043E0003168044600230CF063FF2046FBF718FFFA
:1043F000BBF8003003EA0701B1F5805F32D196F8CF
:104400003C10DBB299422AD108290BF1020B05D1ED
:10441000414609A80392FFF747FC039A03923046EE
:10442000FEF7BEFE039A01329145E1D8019B8BB1A4
:10443000B8F1050F0ED1002109A8FFF7D1FA48B94C
:10444000012109A8FFF7CCFA820714D000F00F0071
:10445000022815D1002405EB4909A3462DE0002AC6
:1044600099D0B3E7531C5146424609A8FFF715FB04
:10447000BBF8001087E70028ECD003793A2BE9D18C
:1044800009A8FFF7A6FA09A8FFF7A3FA0023082254
:10449000514609A8FFF78AFC69E739F8023D03EAAB
:1044A0000702B2F5805F13D1DBB2082B04F10102E1
:1044B0000BF1010304BF14469B464D45EDD1BBF102
:1044C000010F2BD1009B5B0628D5002529460EE065
:1044D000214609A8FFF784FA08B10BF1010B01345A
:1044E000EBE7FFF776FA0135002818BF0146A54231
:1044F00009A8F6D1FFF7BAFA39E700BF9D390208DB
:104500000FD0020800F0FFFF48DC0508D0DF0508E7
:1045100098DB0508C890050804EB0508009B1D06FC
:1045200004D5002109A8FFF7A1FA01342346424629
:10453000AEE7012A3FF42FAFD0077FF5E8AEB9F11F
:10454000030F7FF443AF4FF0010BE2E609EA0203E9
:1045500003F0010335F8134004EA0701B1F5805F69
:1045600013D196F83C10C4F30B04A14202F10104EC
:1045700009D11BB9414609A8FFF796FB3046FEF763
:104580000FFE2246E2E72246BBE6531C514609A82D
:104590004246FFF782FA214609A8FFF79FFA84E610
:1045A00013A80AF0ADF9129850B1416822460831BB
:1045B000FBF784FE129B5A681A60119A5A60119395
:1045C00096F83C30002B7FF401AF0D9B002B3FF49D
:1045D000FDAE0E9B0B981B681093FBF771FE0E98B7
:1045E000FBF76EFE0120FBF7E9FDDDE91001029B00
:1045F00083E80300184617B0BDE8F08F022B01D105
:104600000349E9E6042B0CBF024903490348E4E6E9
:10461000DA900508019105081491050828EB0508B2
:1046200038B50446406808B9606038BD4568FBF796
:1046300047FE2846F7E70000F8B5054630200E464D
:104640001746FBF72EFE072D04460570C66001D005
:10465000012D0ED1B3681B09A38208F05FF9042372
:1046600020612783E3842020FBF702FEE0622046DE
:10467000F8BD014B5B5DEFE780E0050810B504462F
:10468000C06AFBF71DFE2046BDE81040FBF718BED0
:1046900030B5048D0022944202D80023184630BD64
:1046A000C36A03EBC2035D688D42F7D00132F2E7C3
:1046B00070B504460D461646FFF7EAFFC0B9E18C17
:1046C000238D8B4208D30631E06AC900FBF7EBFD6E
:1046D000E38CE0620633E384238DE26A591C02EB2B
:1046E000C300218502F83360002343704380456096
:1046F00070BD034618465B68002BFBD1FFF7C8BFAF
:10470000F8B544680E462CB9F8BD042BFCD105233E
:104710000370F9E7254628466D68002DF4D07768C8
:104720003946FFF7B5FF0028F5D00378043BDBB22C
:10473000022BE9D806253570002239462046FFF7BE
:10474000B7FF0378002BE0D105706468F4E7036AD3
:104750001B8B012B1EBFC3685B18C3607047836A45
:1047600010B504469B6F406A9847238B226A013339
:10477000918C9BB29942238338BF938410BD038BE5
:1047800010B5013B0383836A0446D3F88430406A42
:10479000984720460121BDE81040FFF7D8BF2DE91A
:1047A000F04F044685B00D4691469A461BB1CB8A20
:1047B00043F00803CB82236AA5F81E90DA8A42F000
:1047C0003002DA821B78002B4AD1A36A606AD3F8E0
:1047D000B4604A4653462946B44605B0BDE8F04F9A
:1047E0006047DB6A03EBC60B13F83630053BDBB2E0
:1047F000012B20D8002319E0EB6A039A039903EBFD
:10480000C20213F83130062B0ED1DBF804105368C6
:10481000994209D1A36ABBF802201B69606A1F464E
:104820000023B84708F10108039B01330393039A5F
:104830002B8D9342E0DC0136236A1A8DB242D0DC24
:10484000B8F1000FC1D0A36ACDF800A0D3F8B860CA
:10485000606A4B4642462946B04705B0BDE8F08F36
:104860000026B046E8E7836A10B50446D3F88830DE
:10487000406A00219847A36A606A1B6B0F21984722
:10488000A36A606AD3F8CC300121984720460321FF
:10489000BDE81040FFF75BBF38B5836A04465B6C28
:1048A000406A00229847A36A606AD3F8C050002388
:1048B0001A461946A8472046BDE83840FFF7D3BF3F
:1048C000836A89681B6D406A002209091847836A58
:1048D0008968DB6B406A184710B5044608461146E4
:1048E0001A46FFF7A9FE236A436000238360E36949
:1048F0000BB9E06110BD1A469B68002BFBD190609C
:10490000F8E72DE9F04F87B0054600AF0C4651B1EE
:1049100011F0030612D10B79682B1ED1CB681B094D
:1049200013608C68B4B9AB6A0121DB6A116022465E
:10493000686A98471C37BD46BDE8F08F002604F032
:104940000F03022B08D1210906B91160AB6A0022BE
:10495000DB6AEDE70126F2E716B9A3681B091360CD
:10496000A04658F8043F4FEA132908EB890309F1E0
:10497000FF3BBB60C2465AF8040F0009FCF79FFBDF
:10498000BB689A458344F6D10BF1070323F0070374
:10499000ADEB030DC7F80CD0EA46002358F8040F1E
:1049A0003B6007F114010009FCF79EFB7A697A600D
:1049B0000146504625F076FA3B687A6801339945FE
:1049C00018D15946F868FCF7C5FAAB6A0146DB6AAC
:1049D000686A00229847002EACD00834BB689C421D
:1049E000A8D054F8041FAB6A686A1B6D002209093D
:1049F0009847F3E792444FF02E020AF8012BCDE7D7
:104A000031B1826801F00303134304BF0B68836074
:104A100070472DE9F04107461E4661B111F00305CC
:104A200011D1D1F804805FFA88F393420BD10C1DA9
:104A3000B5EB182F01D1BDE8F08154F8041F3846BA
:104A4000B0470135F4E738463346BDE8F041184732
:104A5000F8B504460F4611461A46002385780669C4
:104A6000837003610E4BFFF7D4FF6368BBB9618AA3
:104A7000ED1A18BF012551B1228A42B9A36A606AB2
:104A8000D3F8A0309847A36A606A1B6C9847238AC2
:104A9000628A39462046FFF782FEA5702661F8BD7E
:104AA000E952020870B54378012B05460C4606D141
:104AB000036A0A461B8B0221FFF70EFF2061A268E2
:104AC000216928464C23BDE87040FFF7C1BF70B58F
:104AD00013464278012A06460C4604D10A460721AD
:104AE000FFF7FAFEA061A569E26830464623294631
:104AF000FFF7AEFFA88A70BD024B89689D22FFF7C1
:104B000088BF00BFE5570208024B89686B22FFF798
:104B100080BF00BF7573020838B5436804460D4670
:104B200053B9114605480CF0E1FA29466060204669
:104B3000BDE83840FFF764BF38BD00BF28EB05086B
:104B4000014AFFF7E9BF00BF189105080B79092B4F
:104B500070B50CBF858AC58A4FF6FF739D42044627
:104B600002D1064AFFF7D8FF218B628BA36A606AE5
:104B70005B6F8A1A2946BDE87040184725910508E1
:104B800070B51446054612780E4683B132B1032A39
:104B900004D0104ABDE87040FFF7BEBF0326267060
:104BA0006168286AFFF7A5FD00B1067070BD62B9A3
:104BB00001232370006A2146FFF7A2FD2378012B11
:104BC000F4D1054A31462846E4E7062AEED0034AE6
:104BD000E0E700BF3E9105084B9105085891050894
:104BE00038B505460C4671B101F00F03022B0CD10C
:104BF000080909F0F1FC002806DA064906482209EE
:104C00000CF00AFB6860002038BD044AFFF784FFFF
:104C1000F9E700BF5F910508BCEA05086491050843
:104C20002DE9F3414378012B06460F4619D10B7944
:104C3000102B08D0026A12782AB9134A02B0BDE8D4
:104C4000F041FFF769BF103B5D4201AA4FF06D01D3
:104C500007F108005D41FFF7E1FA00248046A04516
:104C600002D102B0BDE8F081019B306A53F82410F4
:104C700000220909FFF71CFD2B4602463946304643
:104C8000FFF77EFF0134EAE76B9105084278012ABD
:104C90000B4602D1006A02F001BE816A026A406AD4
:104CA000203102F00ABE4278012A0B4602D1006A86
:104CB000FFF7FEBC816A026A406A103102F0FDBD56
:104CC00070B505460C4600292ED0CA0706D5836A62
:104CD0005B6B4910686ABDE8704018478B0717D0B6
:104CE00004F00F04022C4FEA11110AD0062C0CD04C
:104CF000052919D0836A406A1B6BBDE87040C9B2B0
:104D00001847BDE87040FFF7CEBF836A9B6BE1E7B1
:104D1000836A0968DB68406A98472279034B214619
:104D200053F822302846D6E770BD00BF88E005085A
:104D30002DE9F74F05460C46164698462046FFF7E4
:104D40002FF840B16EB9AB6A9B6E4146686A03B0FA
:104D5000BDE8F04F18472046FFF725F820B1002E98
:104D6000F1D103B0BDE8F08F002C44D0A30742D1AD
:104D700063681F0ADBB21E2B2FD196BBD5F80C90AF
:104D800009F10103EB60013F04F1040B4FF0000A4D
:104D900086F0010257450BDC0237434654F82710D2
:104DA00032462846FFF7C4FFAB6A49469B6ACDE707
:104DB0005BF8041F01924B462846FFF7B9FF0AF142
:104DC000010A019AE6E754F8041F43463246284692
:104DD000FFF7AEFFBC42F6D1C3E71F2B05D1002E73
:104DE000CCD1043404EB8707F4E7202B03D1A4686B
:104DF00086F00106A2E721462846FFF761FFAB6A6D
:104E0000686ADB6E4246314603B0BDE8F04F184792
:104E100038B5036A1B78072B04460A4606D0022BD6
:104E200004D0BDE83840144AFFF776BE956885B9CE
:104E3000A36A606A1B6B0F219847A36A606AD3F864
:104E4000CC300021984720460121BDE83840FFF7CB
:104E50007EBCAB070BD12B79AF2B08D12046A968BC
:104E6000FFF72EFF2046BDE83840FFF7FCBC29467F
:104E70002046FFF725FFE0E77D91050870B54378F0
:104E8000CD68012B0446164606D1036A0A461B8BE1
:104E90003146FFF721FD6861002369691A46204603
:104EA000FFF77DFCE9682046FFF70AFF062E05D1D3
:104EB000A36A606AD3F8883000219847A36A606AC1
:104EC000D3F8BC500023AC461A46BDE8704001211F
:104ED000604738B50C460546C968FFF7F1FEA16882
:104EE0002846BDE83840FFF7EBBE0B79342B70B590
:104EF00004460D4610D18968FFF7E2FEED68AD6803
:104F000085B9A36A606A1B6B0F219847A36A0422C4
:104F1000D3F8A03002211AE0836A406A1B6B0F218C
:104F20009847ECE7AB071FD12B799A2B13D1A36AD3
:104F3000606A1B6B0F219847A9680029E6D02046BC
:104F4000FFF7BEFEA36AD3F8A03004220321606AF3
:104F5000BDE8704018479B2B06D1A9682046FFF793
:104F6000AFFEEB689968E8E729462046FFF7A8FE00
:104F7000CCE710B504468968FFF7A2FEA36A606A11
:104F8000DB6CBDE810400021184700002DE9F74315
:104F90008D68044617465DB9002A6FD0836AD3F83E
:104FA000A03002222946606A03B0BDE8F0431847EA
:104FB00015F0030640F08A802B79372B13D132B1DC
:104FC000836A406AD3F8A030022201219847204624
:104FD0002946FFF775FEA36A606AD3F8A43003B0D0
:104FE000BDE8F04318479F2B70D1EB681A79A12ACE
:104FF0005AD1A22101AA03F10800FFF70FF9A9680D
:10500000804621B38B0722D10B79372B1FD137B1C3
:10501000A36A411CD3F8A030606A02229847A968AD
:105020002046FFF74DFEA36A606AD3F8A430984784
:105030004FF00109464510D1B9F1000F1ED1A36A06
:10504000606AD3F8A0300322711C984716E020460E
:10505000FFF736FE4FF00009ECE7019B53F82610EE
:1050600079B900272046FFF72BFEB9F1000F17D0C2
:105070007FB91B4A29462046FFF74EFD03B0BDE825
:10508000F0838F07EDD10F79A7F1370047424741F1
:10509000E8E7A36A606AD3F8A43098470136C9E705
:1050A000002FFBD00F4AE5E7AB685BB19A0709D147
:1050B0001B79372B06D10422294603B0BDE8F04303
:1050C000FFF7DCBE052229462046F6E729462046A2
:1050D000FFF7F6FDA36A0322D3F8A030012162E7AF
:1050E00088910508999105080122FFF74FBF70B517
:1050F0000D46C9680446FFF7E3FDA968A36A606A24
:10510000D3F89830C1F30711332918BF3F39BDE8F0
:10511000704014BFC9B202211847F8B54E680C465A
:1051200089680746FFF7CCFD360A0C3400250235A6
:10513000AE4200DCF8BD38466168FFF7C1FD21686A
:10514000BB6A786AD3F89C3009092439C9B208349B
:105150009847ECE72DE9F0410C46D1F8048054F86B
:10516000081F0746FFF7ACFDA8F10D06F6B20125B2
:10517000B5EB182F01DBBDE8F08154F8041F384669
:10518000FFF79EFDBB6A786AD3F89C30314698479A
:105190000135EDE72DE9F0414E6804460D46360A2B
:1051A0008968FFF78DFD032E83BFD4F80C8008F1CA
:1051B0000103E3604FF0000801277B1C9E4222DCC4
:1051C000032E55D9E568606A6B1CE360A36A294623
:1051D0009B6E9847A36A606A9B6A41469847A36A98
:1051E000606A9B6801219847A36A606A1B6E9847B2
:1051F000A36A606ADB6D9847A36A606A9B6A294666
:10520000BDE8F0411847296920460237FFF758FDED
:10521000B74207DAA36A606A5B6D9847A36A606A5F
:105220005B6E9847EB68A26A606AD2F89C2003F034
:105230000F010A2911D1C3F30713252B1ABF343BE1
:10524000D9B206219047B74205DAA36A606A1B6F9C
:105250004246002198470835AFE71979852901D1E1
:105260003221EFE79B680BB90721EBE73321E9E730
:10527000BDE8F08110B504468968FFF721FDA36AF7
:10528000606AD3F89830BDE81040032118472DE933
:10529000F0470D46D0F80C8055F8046F5FFA86F998
:1052A000A9F11E03D3F1000949EB030908F1010339
:1052B0000446C360360A0027B74206D1A36A606A73
:1052C0009B6A4146BDE8F047184755F8041F204641
:1052D0000137FFF7F5FCB742EEDAA36A606A1B6F8D
:1052E000424649469847E7E701F00F03022B70B5A5
:1052F000044612D00B79492B09D0483B082B18D80B
:10530000DFE803F008170717171717050700012331
:10531000A37070BD8E680D6975B9A378002BF8D1A4
:10532000638A002BF5D020461D4ABDE87040FFF788
:10533000F3BBD1E90265EFE7A3783BB3238A0133DE
:105340009BB2012B23820ED1618AD4E90903D1B12A
:10535000D3F8A03000229847A36A606AD3F8A0303F
:1053600002220021984729462046FFF7A9FCA36A9C
:10537000606A9B6B31099847A36A606AD3F8A430CE
:10538000BDE8704018471B6C9847E5E7638A013316
:10539000638229462046BDE87040FFF791BC00BFFC
:1053A000A49105082DE9F041C568CF688846AB1C7B
:1053B00004460022B968C3602B46FFF7B9FCD8F851
:1053C00008102046FFF77CFCA36A606A9B6E691C8C
:1053D0009847A36A606A9B6A29469847A36A606AED
:1053E0009B684FF0FF319847F9682046FFF768FC4B
:1053F000A36A606A9B6A691CBDE8F04118472DE901
:10540000F047C668D0F814A0B0F81A908682B31C92
:10541000C36006F10108038BA0F81680044643839D
:1054200088680D46FEF7BCFCF8B9E768A8687B1CE5
:10543000E360FEF7B8FC20B9A36A606A9B6E414640
:105440009847A36A606A9B6A39469847E96820468C
:10545000FFF736FCA36A606A9B6A41469847A968D1
:105460003B4601222046FFF763FC2969C4F814A0DB
:105470002046A4F81A90FFF723FCA36A606A9B6A8F
:105480003146BDE8F04718472DE9F347C668731C5D
:10549000C360044688680D46FEF782FC0246E8B900
:1054A000E768A9687B1CE36020463B46FFF740FCA9
:1054B0002046E968FFF704FCA868FEF774FCD8B939
:1054C0002B690BB96B6923B1A36A606A9B6E314685
:1054D0009847A36A606A9B6A3946984701AA712176
:1054E00005F11000FEF79AFE0027824657450BD1C2
:1054F00069692046FFF7E4FBA36A606A9B6A31464C
:10550000984702B0BDE8F087019B53F82780D8F890
:105510000800FEF745FC0246F8B9D4F80C90D8F81C
:10552000081009F10103E36020464B46FFF700FC39
:105530002046D8F80C10FFF7C3FBD8F80800FEF798
:1055400032FC0028D8D1A36A606A9B6E3146984726
:10555000A36A606A9B6A494698470137C6E700001C
:10556000184B2DE9F041D3F8006204460F463EBBCC
:10557000C56889686B1CC36001222B46FFF7D8FB06
:10558000A36A606A5B691F2101229847F96851B1DB
:105590002046FFF795FBA36A606AD3F8BC703246D9
:1055A00033460121B847A36A606AD3F8C8300121A5
:1055B0009847A36A606A9B6A2946BDE8F04118478C
:1055C000BDE8F0818004002070B58D6804463DB9C7
:1055D000836AD3F8C8302946606ABDE8704018472E
:1055E000AB070ED12B795E2B0BD1A968FFF768FBB7
:1055F000E9682046FFF764FBA36A0221D3F8C830AC
:10560000EAE729462046FFF75BFBA36A0121D3F8AE
:10561000C830E1E710B504468968FFF751FBA36A7B
:10562000606ADB6DBDE81040184700002DE9F041CD
:10563000036A1B78072B044604D0BDE8F0411A4AE0
:10564000FFF76ABA8D685DB9836A406A1B6B0F21E8
:105650009847A36A606AD3F8C430BDE8F0411847A0
:1056600015F003021DD12B791B2B1AD1C668EF68E8
:10567000731CC360B9683346FFF75AFBA96820461C
:10568000FFF71EFBA36A606AD3F8C4309847A36A89
:10569000606A9B6A31469847F9682046FFF710FB1D
