:020000040800F2
:10000000F8FF0720290102087B4407086944070814
:100010007D4407088944070895440708000000004C
:10002000000000000000000000000000A1440708DC
:10003000A344070800000000F95A07084102022003
:1000400001000208294507083B4507084145070804
:10005000B7CC07080100020899C007089FC007082D
:10006000A5C00708ABC00708B1C00708ED7B0708AB
:10007000FD7B07080D7C07081D7C07082D7C070801
:100080003D7C07084D7C070801000208E5A1070830
:10009000A9A10708AFA10708B5A10708B7C00708BD
:1000A000554507085B4507086D4507087345070870
:1000B000794507087F45070885450708AD82070889
:1000C000C9820708E58207080183070801000208C2
:1000D00001000208350302203B03022041030220F5
:1000E000DBC007082F450708B1440708B1450708DA
:1000F000B7450708CF450708C94507085D7C0708CD
:1001000001000208D5D607088D450708010002083E
:100110001D03022023030220A5450708AB4507085D
:100120006D7C07087D7C07088D7C07089D7C07088F
:10013000AD7C070835AF0708354507080100020800
:10014000010002080100020801000208A544070896
:10015000BD7C0708CD7C0708DD7C0708470302202B
:100160000100020801000208010002080100020863
:10017000010002080100020801000208000000005E
:100180000100020801000208290302202F030220B7
:100190000100020801000208010002080100020833
:1001A0000100020801000208010002080100020823
:1001B0000100020801000208010002081D8307086F
:1001C000398307080100020800000000010002084E
:1001D00001000208010002080100020801000208F3
:1001E00001000208010002080100020801000208E3
:1001F0000100020801000208024800234030836029
:1002000000F03AB900400220054B012243F82010CB
:10021000044B1A604FF08052034B5A60704700BF86
:1002200080CC022088CC022000ED00E010F4FE7F9C
:1002300003D1024B0422C3F8002E704700E100E016
:100240000D4B10B51C6801341C604FF0E02304F026
:1002500003021B69094B53F822300BB12046984723
:10026000074B1B68A34205D106490020BDE810409A
:10027000FFF7CABF10BD00BFD8B102208CCC02204E
:10028000D4B10220DDA10608224B03EB800310B598
:10029000D3F89C41002C3BD06268D3699BB2E383C6
:1002A0009B0618D5618A00292DD0A38A9BB2013301
:1002B000B3FBF1F001FB1033E18A9BB2994222D0EB
:1002C000516AA2890A40A17A91B113490968914201
:1002D0000ED1FFF791FFE38B626803F01801116202
:1002E000A28B134214D0206ABDE8104000F0C0B8C1
:1002F000E17AA0690129A18A89B20CBF20F81120F6
:100300004254A382E7E7136823F020031360E2E777
:1003100010BD00BF00400220D80402200420FFF7D7
:10032000B3BF0520FFF7B0BF0720FFF7ADBF082020
:10033000FFF7AABF0120FFF7A7BF0220FFF7A4BF66
:100340000320FFF7A1BF0620FFF79EBF134B00223B
:1003500070B504469A61124D00F076F80646EB68D7
:10036000DA0307D4EB6813F0F20F0ED000F078F840
:10037000012003E0611CF2D00CB9032070BD00F035
:1003800063F8801BA042EAD9F7E7EB68DB0701D4EA
:100390000020F3E70123EB60FAE700BFDCB10220A5
:1003A000003C02402DE9F843DFF8988005460F46EF
:1003B00098F81430012B40D001234CF2503088F8CB
:1003C0001430FFF7C3FF0446A8B94FF0FF333B607A
:1003D0002B68012B15D16968287C00F03DF84CF2A0
:1003E0005030FFF7B3FF164A0446136923F4004365
:1003F00023F004031361002388F814302046BDE87D
:10040000F883AE68DFF83890D5E902231344B3428D
:10041000F1D9297C304600F027F84CF25030FFF734
:1004200095FFD9F8103023F0FA03C9F8103010B155
:1004300004463E60DFE70136E6E70224DEE700BF60
:10044000003C0240DCB10220014B1868704700BF3D
:10045000D8B10220000000005FF800F0E5FD0608BA
:100460005FF800F0CDFC06085FF800F021FE0608FA
:100470005FF800F0359C06085FF800F051E40208D0
:020000040802F0
:10000000FEE700000F490020D1F8883043F4700368
:10001000C1F888300C4B1A6842F001021A609860EF
:100020001A6822F0847222F480321A60074A5A60F9
:100030001A6822F480221A60D8604FF000638B6047
:10004000704700BF00ED00E000380240103000248F
:1000500030B5002495B02F4D2C22214609A8C5F8B3
:100060009040039449F078F82B6C4FF480004FF0E7
:10007000040C4FF4A05E43F080532B642B6C03F010
:1000800080530093009B244B1A6842F440421A604C
:1000900001221B680A9403F4404304940193019BDA
:1000A0004FF4A023CDE9072310230F220B93022343
:1000B0000292D8221193CDE90D30092307A812939B
:1000C0004FF48053CDE90FC2CDE905E34CF0CAFFF0
:1000D00010B1124853F072FD4CF036FF08B11048D1
:1000E000F8E7109B30210F9A02A8DB00B3FBF2F374
:1000F000B3FBF1F201FB12321199003AB3FBF1F1BB
:1001000018BF012255F0FCFD08B10648E2E715B022
:1001100030BD00BF0038024000700040E0EA070830
:10012000F2EA07080CEB07080446DFF82CD00B496D
:100130000B4A0C4B03E051F8040B42F8040B9A42B3
:10014000F9D300200849094A01E041F8040B914223
:10015000FBD3204653F086BEF8FF072010250A087F
:1001600080040220E40402200040022068410320B1
:1001700040F8044B40F8045B40F8046B40F8047B03
:1001800040F8048B40F8049B40F804AB40F804BBF3
:1001900040F804CB40F804DB68467047024B5A69CC
:1001A000026058610020704700400220024B5A69EB
:1001B00012685A61704700BF00400220024B9A69E2
:1001C000C0E900219861704700400220044A936909
:1001D0001968916110B15A6818461047704700BFFE
:1001E0000040022038B50446044DAB690BB1A34270
:1001F00000D338BD0120FFF7E9FFF6E700400220F9
:10020000C460056146618761C0F81C80C0F8209019
:10021000C0F824A0C0F828B0C0F82CD080ED0C8B1A
:1002200080ED0E9B80ED10ABC0F808E0FFF7B6BF85
:10023000124D6C6908B50CB953F000FE60602046A1
:10024000FFF7D0FF23686B612046C46805694669E3
:100250008769D0F81C80D0F82090D0F824A0D0F87E
:1002600028B0D0F82CD090ED0C8B90ED0E9B90ED3B
:1002700010ABD0F808E00120704700BF004002201A
:1002800010B50021044600F0FDFA18B914B120465B
:100290000DF0A6FE10BD002100F0F4BA10B501214A
:1002A000044600F0EFFA18B914B120460DF098FE9C
:1002B00010BDFFF7E5BF10B501220C4600F006FCAB
:1002C00018B914B120460DF08BFE10BD00F0FEBB36
:1002D00000F0BEBB484308B50830FFF7DCFF40B173
:1002E000044A936A03B118600021C0E900139062C8
:1002F000083008BD00400220034678B153F8042CB2
:10030000083812B153F8081C116053F8083C13B1B7
:100310005A6000F09DBB024B9A62FAE7704700BF3B
:10032000004002202DE9F0414FF0030C00252A4C3B
:100330008646D4F8CC02002101310EEB01039A0865
:1003400003F00303825C5B0042FA03F303F0030350
:10035000022BF1D0D4F8D802090100EB0E104FEABD
:10036000910E61B300EB8E0E03681A0724D1D4F806
:10037000D822991A9A424FEA9116C1F301124FEA14
:10038000111119D8D4F8DC7252009F4214D9D4F854
:10039000CC720CFA02F8BB5D43FA02F243EA08039E
:1003A00002F00302012A07D13F2DBB5504EB4503A0
:1003B0000CD80135A3F8EC1204307045D4D145B106
:1003C000013D04EB4503B3F8ECE2B2E7C4F8E822E0
:1003D000F2E7BDE8F08100BF0040022030B51C4CC0
:1003E0000122D4E9B553C01AC109C0F302134FEA80
:1003F000101C9A406B5C4FEA9C0E23EA02036B547C
:100400008309D4F8E0220325B2EB901FD4F8CC0284
:100410000CF0030288BFC4F8E032C15C52000CF15A
:10042000010C05FA02F30CF0030221EA0301530068
:1004300000F80E104FEA9C0ED4F8CC0210F80E1003
:1004400041FA03F303F00303022BE7D030BD00BFF2
:100450000040022021F00F01154A38B50B1A154C47
:100460000546013BC4F8DC12C4F8CC02DB00A2FB59
:1004700003235B0A9A00C4F8D032A1EB8311013345
:1004800007321D44C4F8D81203EBD2020021C4F88D
:10049000D45248F061FE002301214FF0FF32238146
:1004A000A4F86C13C4E9B833C4E9DC3238BD00BF2A
:1004B000F32C23FA00400220024A138902331381ED
:1004C000704700BF00400220024A1389023B13819B
:1004D000704700BF00400220024B1889003818BF47
:1004E0000120704700400220F8B51C4D00222B89E6
:1004F00005F1080405F50876C5F8E82243F0010384
:10050000C5F870232B8154F8043F1A0719D1D5F888
:10051000D822981A93424FEA9011C0F301124FEA81
:1005200010100ED3D5F8DC725200BB4209D2D5F8B8
:10053000CC7217F801C04CFA02F303F00303012B4D
:1005400002D0B442DFD1F8BD032393404CEA030C40
:1005500007F801C0FFF7E6FEF3E700BF0040022006
:1005600071B3F8B50F46051F0024164E55F8043F29
:100570001A0719D1D6F8D822981A9A424FEA901C35
:10058000C0F301124FEA10100ED8D6F8DC12520058
:10059000994209D9D6F8CCE21EF80C1041FA02F3C0
:1005A00003F00303012B03D00134A742DED1F8BDD1
:1005B0000323934019430EF80C10FFF7B3FEF3E743
:1005C000704700BF004002202DE9F043614C83B02A
:1005D000D4F8E832D4F8CC12C3B1D4F8D032002524
:1005E0009800C4F8E85288B10026B30806F0030268
:1005F000CB5C5200134103F00303032B20D00136E0
:100600008642F2D3D4F8E832002BEAD1D4F8E432AF
:100610004FF0000901274FEAD308D4F8D4324FEA4B
:10062000C90513F8096046B305F0030316F0010F7E
:100630004FEA95024FEA430314D176080135F3E7F8
:1006400030460136FFF76EFED4F8D032D4F8CC1223
:10065000B6EB830F4FEA8300C7D3D4F8E832002B00
:10066000BFD1D3E78A5C42FA03F303F00303012B03
:1006700009D0760805F10105D6D1C84509F1010375
:1006800025D09946C9E7D4F8D8022B016A4640F232
:100690001241C35800EB05105BB10CF031FE009B1A
:1006A0003BB10DF0E3FEDDE900010DF0B7FE0DF00A
:1006B000F3FEEB08D4F8D40205F00701C25C07FA98
:1006C00001F122EA0102C254D4F8CC12D1E74FF072
:1006D000000C03260227654662460EE0012905D17B
:1006E00006FA03F301252EEA030303700132D4F85E
:1006F000E4329A421FD8D4F8CC124FEA920E02F09C
:10070000030301EB920011F80EE05B004EFA03F1D7
:1007100001F0030102291AD00329DFD107FA03F3FC
:100720002EEA030E80F800E09446D4F8E432013259
:1007300000259A42DFD923890022C4F8E4C223F0BD
:100740000103C4F8E022238103B0BDE8F083002D4B
:10075000EAD0C5E700400220044B00211A89C3F803
:10076000E81242F001021A81FFF72EBF004002207A
:10077000434B00212DE9F041D3E9B6420F460E4626
:10078000121BD3E9B3540B4641604FEA840C0C466C
:1007900081610260C0E90211C0E904119A0803F006
:1007A00003080133AA5C4FEA4808ACEB030E42FA97
:1007B00008F2BEFA8EFE02F003024FEA5E1E012A24
:1007C00049D0022A39D0A2BB01369C4501F1010172
:1007D0001746866022D09A0803F00308AA5C4FEA05
:1007E000480842FA08F202F00302012A02DDBEF1D3
:1007F000000FD3D0A2F10108012FB8FA88F84FEA10
:10080000581824D0022F02D1426901324261826914
:10081000BA4238BF8761B8F1000F02D1BEF1000FB4
:10082000BCD0C2688A4238BFC1609C4519D0002143
:10083000B4E79C45CFD10322D7E701349C4507F1AB
:1008400001074460C7D1012F4FF00008DAD10269D7
:1008500001320261DBE701349C45446007D0174652
:10086000B9E724013601C0E90146BDE8F081076916
:1008700001370761876907B982610127D1E700BFA6
:10088000004002202DE9F84300F10F0636093FD061
:100890006E4C2389E3BBB4F86C230D46E2BBD4F85D
:1008A000E002D4F8D072B84232D24FF0010ED4F840
:1008B000CCC20138013F00216044CCF101086744FB
:1008C00018E04A1C964255D913F00C0F37D18A1CF8
:1008D000964240F2AA8013F0300F36D10132964290
:1008E00040F2A8803F2B23D8511C8E4240F2A780B3
:1008F000B8420AD008EB000910F8013F9A07E0D08F
:1009000013F00C0F16D10122E2E7BEF1000F23D045
:1009100000231846BDE8F883D4E9DC12914226D2C0
:10092000D4F8E002D4F8D072874215D99E46BEE7CB
:100930000021DDE713F0300F0CD10122CFE703F0E7
:100940003002B2FA82F25209CCE73F2B8CBF002171
:100950000121CDE70022C5E75AF0DAFDD4F8E00224
:10096000D4F8D0724FF0010EB842A0D3D0E75AF0BD
:10097000CFFD94E74FEA8909A9EB0201012A01F1B1
:10098000010704D109F101039B08C4F8E032D4F84F
:10099000E43207F0030EB80802314B454FEA4E0E21
:1009A00038BF4B468945C4F8E4324FF0010303FADF
:1009B0000EF31CF800E043EA0E030CF8003012D3EB
:1009C0004FF0020E01F003038808D4F8CCC20131C5
:1009D0005B001CF8008089450EFA03F343EA080324
:1009E0000CF80030EED2D4F870331201D4F8D8826B
:1009F000002133443E01C4F8703308EB0713184656
:100A000048F0AAFBEA07034683D50022D4F8D402B3
:100A1000F90807F0070748F806200122445CBA40AD
:100A2000224342541846BDE8F8834FEA890909F188
:100A30000109A1E74FEA890909F102099CE74FEA98
:100A400089090A4609F1030996E700BF0040022020
:100A5000034B1A89012A02D808B1FFF7BFBC7047BF
:100A600000400220034610F00F001BD1164AD2F8B6
:100A7000D812994215D810B4D2F8DC429C420DD954
:100A80005B1AD2F8CC42C3F301119A091B09A25C8C
:100A900049000A4102F00302012A05D05DF8044B27
:100AA000704770470020704701301A18910802F013
:100AB0000302615C520041FA02F202F00302022AD0
:100AC000F2D00001EAE700BF004002202DE9F84F14
:100AD0000F460646002800F0CC80744D2C89002972
:100AE00000F09280002C40F09380D5F8D8020F31AE
:100AF000D5F8D0C2301A09094FEA8C0A030903F16C
:100B0000010EBEEB8C0F80F0BA80A446D5F8CC92D3
:100B10004FF001084FEA9E040EF0030B19F8044051
:100B20004FEA4B0B44FA0BF404F00304022C2BD0D5
:100B30002CB90CF1010C0CEB08048C4226D3414576
:100B40005ED067D3C4448C4525D2002A60D0C20948
:100B5000D5F8D41203F007033846895C194101F037
:100B60000101FFF78FFE0446002851D04FEA08121A
:100B7000314648F0ADFA2B89012B02D83046FFF7F9
:100B80002DFC2046BDE8F88F08F101080EF1010E9A
:100B9000F245BFD1D3E75C1843449C4220D903F00F
:100BA000030298084FF0020C0133520019F800704C
:100BB0009C420CFA02F242EA070209F800200FD91F
:100BC00003F003029808D5F8CC720133520017F8ED
:100BD00000E09C420CFA02F242EA0E023A54EFD1D3
:100BE000D5F8E432A1EB080206EB081000219C4284
:100BF0004FEA021238BF1C46C5F8E44248F0ACFA8E
:100C000034462046BDE8F88F012C01D8FFF7E6FBFB
:100C10000024B6E75C184FF0030CA8EB010104EACE
:100C20000C07A008012904F101044FEA470719F84D
:100C300000E00CFA07F72EEA070709F8007010D059
:100C400003EB080E04F00302A708D5F8CC320134F8
:100C50005200D95D74450CFA02F221EA0202DA551B
:100C6000F0D1D5F8E0328342CAD93446C5F8E00263
:100C7000C7E701463846BDE8F84FFFF703BE012934
:100C8000BED029B14FF00108002A7FF460AFBFE762
:100C900003F003038009D5F8CC1203225B009A40CD
:100CA0000B5C23EA02030B54DBE700BF0040022089
:100CB00010B58AB0044603A8FFF75AFD039A094904
:100CC000DDE904300090204600F092FF2046069CAB
:100CD000079ADDE90831CDE90014034900F088FFE7
:100CE0000AB010BDE0700808047108082DE9F84347
:100CF000DFF8589107464749D9F8D82200F078FF25
:100D0000D9F8D01289006DD00025DFF8448115F0A4
:100D10003F0633D005F003067600AB08D9F8CC22A5
:100D2000D35C334103F00303022B63D0032B5FD06A
:100D3000012B4AD1D9F8D8222B01D25842455BD099
:100D4000354B9A425AD0354B9A425BD0344B9A423B
:100D500056D0344B9A4253D0334B9A4254D0334BF3
:100D60009A4251D0324B9A4252D0324B9A424DD095
:100D7000314B9A4214BF68224D2227E0A9421ED966
:100D8000D9F8CC022C4602E001348C4208D0A208EB
:100D900004F00303825C5B0042FA03F39B07F3D089
:100DA000621B7F2A0BD992092449384624F03F055B
:100DB00000F01EFFD9F8D032B5EB830F12D22A0112
:100DC0001F49384600F014FFA7E72E221D49384678
:100DD00000F00EFF0135D9F8D032B5EB830F4FEAA2
:100DE000830194D338461849BDE8F84300F053BB5B
:100DF0006D22EBE73D22E9E75422E7E74C22E5E7E5
:100E00005322E3E74422E1E74122DFE74222DDE724
:100E10004622DBE74C710808CCB608088CAE0808FF
:100E20009CBF0808CCBF080840AB0808B4AB080852
:100E300034B30808F8B3080860B8080868710808EF
:100E4000847108088C710808487108080040022065
:100E500014C108080346064A506A1A684168C1F37B
:100E60001E018A4202D3521A1A6070470068F5E7E1
:100E700000400220014441F20553884204D398B255
:100E8000012838BF0120704703EB431310F8012BF2
:100E90005340F2E7034B044A5A620022C3F824226B
:100EA000704700BF004002208C0C09082DE9F04774
:100EB00081460F46002942D0FFF7DCFF214B8246D6
:100EC0005C6A0CB9204636E094F907300025E668E4
:100ED000002B06F1FF3616DB013604F11808B54287
:100EE00015D32468EDE705EB06083A4648464FEA75
:100EF000580808F1060354F8231048F091F9002827
:100F0000CCBF45464646731B012BECD8E4E723696A
:100F100033F815309A4510D163695B5D9F420CD15F
:100F20003A46494658F8250048F042F928B9606821
:100F3000C0F31E002844BDE8F0870135CFE701204B
:100F4000F9E700BF004002202DE9F84380460F4634
:100F5000FFF7ACFF002840F09280FF2F03D94949EA
:100F600049480CF031FA494D7E1CD5F82432ABB11A
:100F7000D5E98A1232448A422CD9024631441846B5
:100F8000FFF7A4F9D5F824320446E0B90246D5F8B3
:100F90002C121846FFF79AF9C5F82442802E3446E1
:100FA00038BF80242046FFF776F90346C5F82402AF
:100FB000B8BB3046FFF76FF90346C5F8240278BB8B
:100FC00030460DF00DF8D5F828223244C5F8282215
:100FD000002BE3D0D5F82C2241464FF000089C1896
:100FE00032442046C5F82C223A4648F071F839467A
:100FF000204604F80780FFF73DFF8146686AD0E984
:101000000262B2422BD376000A2E38BF0A26C6EB04
:10101000C6001830FFF73FF948B9C5F82402CFE7FA
:1010200034460022C5F82842C5F82C22D2E700F148
:101030001802696A02EB86020160026102EB460255
:1010400042614A68C968C2F31E02C0F80C800A44B3
:10105000416862F31E014246C0E9011668620169F7
:10106000436921F81290911D9F546B6A43F8214007
:101070005868D968C0F31E0001311044D960BDE83A
:10108000F88300BF20EB070828B0080800400220C2
:1010900010B5044648F09EF801462046BDE81040D1
:1010A000FFF752BF07B5019001A8FFF7D3FE019AE1
:1010B000036933F8120003B05DF804FB07B5019033
:1010C00001A8FFF7C7FE019B4269D05C03B05DF841
:1010D00004FB07B5019001A8FFF7BCFE019B063396
:1010E00050F8230003B05DF804FB13B5019001A88C
:1010F0000C46FFF7AFFE019B4269D25C063350F805
:101100002300226002B010BD2DE9F8431D460023E4
:1011100007468846036016460B6013602B60154B2C
:10112000DFF854905C6A64B92B68326813442B6012
:10113000BDE8F883336812F8010B013303443360D0
:101140000DE04C45F0D03B6801333B60E268D8F8D5
:10115000003013446269C8F80030E368D1188A424D
:10116000E8D32046FFF77EFC2B68246803442B60FD
:10117000D9E700BF004002208C0C0908F8B50B4BE2
:101180000B4F5C6A0CB1BC4200D1F8BD04F11805EC
:10119000E36805EB8306B54201D32468F2E755F80E
:1011A000042B0449044800F023FDF4E7004002202A
:1011B0008C0C090825EB0708949E080830B500231D
:1011C000202511F8012F0AB9027030BD120600F176
:1011D00001041FD513B12023037020460B78124A57
:1011E00003F07F0363B9013A12F8013F044601306E
:1011F00013F0800F0BD003F07F0323700123E0E78F
:1012000012F9014B002CFBDA013BDBB2EAE700F8F4
:10121000013CE9E7012B04BF057020460B7800F87C
:10122000013B0223CDE700BF2CEB070838B543682C
:10123000054619440368994210D9037B1BB100216C
:1012400007480CF0C1F801F11004806824F007048D
:1012500008342146FFF72FF82C60A86038BD00BF86
:1012600028B0080870B504460E4611461546FFF72B
:10127000DDFF31462A46D4E90130184447F058FFD3
:1012800063682B44636070BD012938B538BF012104
:1012900004460025084621606560FEF7F1FF2573CE
:1012A000A06038BD38B505460C460131FFF7ECFFAC
:1012B0006C6038BD00230160C0E901320123037373
:1012C0007047000038B514460546FFF7DDFF024BB6
:1012D0002560636038BD00BF65120208037B10B54E
:1012E000044613B98068FEF7F3FF0023A36010BD26
:1012F00038B505461020FEF7C3FF04462946FFF720
:10130000C3FF204638BD10B5044648B1037B13B96E
:101310008068FEF7DDFF2046BDE81040FEF7D8BF2D
:1013200010BD000038B5037B04460D461BB10021FB
:1013300006480CF049F8016880682944FEF7BBFFB5
:101340002368A0601D441844256038BD28B00808F3
:1013500038B504460D46FFF769FFD4E901301D4456
:101360001844656038BDD0E9002310B59A420446A0
:1013700002D10121FFF7D6FF0021D4E90132D15477
:10138000A06810BD10B50C460121FFF7E1FF047005
:1013900010BD7F29F8B50C46CEB204D80121FFF765
:1013A000D7FF0670F8BD06F03F06B1F5006FC1F338
:1013B000871546F0800607D265F03F050221FFF74A
:1013C000C7FF46700570EDE705F03F05B1F5803FBA
:1013D000C1F3073745F0800508D267F01F070321E6
:1013E000FFF7B6FF457007708670DBE7A40C07F0C7
:1013F0003F07042164F00F0467F07F07FFF7A8FFA1
:10140000857004704770C670CCE738B505460C4649
:10141000084647F0DFFE214602462846BDE8384030
:10142000FFF720BFF8B5476804461646B94228BF03
:1014300039460D461146FFF7F9FEA368A8197A1B35
:101440005919184447F074FE6368A068334428446F
:101450006360F8BD43688B422CBF591A002141607C
:10146000704738B504461546084662688A4203D973
:1014700029448A4201D8606038BDA368521A1844D2
:10148000194447F055FE63685B1B6360F4E7084648
:10149000114648F04DBF70B5054608460E4647F068
:1014A00099FE044620B102466B6831462868984789
:1014B000204670BD2DE9F74F8A469DF830109146C1
:1014C0000D9A11F0DF0F0746A2EB090551D0302924
:1014D00053D1C3F34721002953D05F290BBF052601
:1014E00004262C482C4892FBF6F106FB112109B981
:1014F00001350132711E92FBF6F406FB14228A1AA2
:1015000000EB020813F020023ED005EBD573A5EBEB
:1015100063045D10002D3BDDAB465E4532467B68C3
:101520004146A8BF5A46386801929847019AABEBEA
:10153000020BBBF1000FF0DCB9F1000F05D04D44F8
:101540007B684A46514638689847002C0DDD254493
:10155000A642B1467B684146A8BFA1463868A4EBC5
:1015600009044A469847002CF2DC284603B0BDE83F
:10157000F08FDFF828801026C4E70DF1300801262F
:10158000C0E7DFF81C80F6E713F00104C2D02C4658
:101590000025D1E7A89E0808AD9E0808B39E08085C
:1015A0009C9E08082DE9F04F924693B0CA078046EA
:1015B0000D461C9C9DF874900593DDE91E760BD4B6
:1015C0008B0703D109687C4B994205D028460DF062
:1015D0008BFD450045F0010514F0210306D1B9F15A
:1015E000300F03D1B742B8BF37461E4628460DF12B
:1015F000280B10F0BAFF00281CDBA00716D52B2300
:101600008DF828300DF1290322079DF814101FD5FD
:10161000BAF1020F10D14FF0300C184600F802CB8F
:1016200001F1010C83F801C0034611E0610701D507
:101630002023E5E75B46E7E7BAF1080F5BD13020EE
:101640001870200649BF01F10E00013358700233B3
:1016500000200EAA012E1870A3EB0B030B924FF083
:1016600010020693C4F34723C8BF14438DF8270024
:10167000CDE90C2014F01002CDE90213059245D0FB
:101680002B460DAA0CA9CDE900A00BA810F030FE46
:10169000037882462D2B06D18DF8273000F1010A00
:1016A0000D9B013B0D93012E7ADD0D9D059BB542EF
:1016B000B8BF35462BB19DF8273003B10135069BE5
:1016C0001D4424F00103AF42079371DD14F00109BA
:1016D000A7EB05056DD1202301954A4637490093B4
:1016E00040464B464D46FFF7E5FE0446059B4FF04E
:1016F0003009C3B936E0BAF1100FA9D14FF0300C60
:10170000184600F802CB01F1170C8BE70AAB0DAAC3
:101710000CA90BA8CDE900A32B4610F0E9FD8246E9
:10172000C1E700252C469DF8273053B10023012244
:101730000DF127014046013FCDE90032FFF7BAFE27
:101740000444069B5BB10023012259464046CDE983
:101750000032069AFFF7AEFE069B0444FF1A012EE4
:10176000D8BF3E46079B51460D9A4046CDE90096AC
:10177000FFF7A0FE04444DB12023104940460195D7
:10178000009300231A46FFF795FE04440B980EAB16
:10179000984201D0FEF79CFD204613B0BDE8F08FC3
:1017A000059B0794002BBCD11D461C463E46D9E73D
:1017B000002500249AE700BFB4B50808375208088E
:1017C0002DE9F0430746900798468DB054BFC2F309
:1017D00080032B23164603A858BF5B010A464FF02F
:1017E0002101DDF8509058BFDBB20093159B0AF041
:1017F000A7FCF20504461FD52E2103A847F04CFD97
:10180000D0B9652103A847F047FDA8B96E2103A808
:1018100047F042FD80B9631C04F130022E210234EE
:101820006A44303302F8241C6B44302203F8242C21
:10183000A3186B4403F8240C73060ED504F1300290
:10184000631C00210DEB0204252204F8242C03F173
:1018500030021C466A4402F8241C16F010051DD004
:101860009DF80C302F2B4FF0000319D8012203A94B
:10187000384609F1FF39013CCDE90032FFF71AFE85
:101880000DF10D010546334622463846CDE9008963
:10189000FFF710FE28440DB0BDE8F08303A9F2E77E
:1018A00003A91D46EFE700002DE9F04F81468BB0FC
:1018B00014464FF000080B461D4613F8012B0AB1E1
:1018C000252AF9D1A94208D26E1AD9F80430D9F8DC
:1018D00000003246B044984729460B78002B00F0B0
:1018E0007F8120234A1C00270393134613F8016BC2
:1018F0003EB12D2E25D01ED8202E29D02B2E24D01F
:101900000026154612F8013BA3F13001092922D91E
:101910002E2B46D16B782A2B23D00023154612F8A4
:10192000011BA1F1300009281ED80A2000FB031B6F
:10193000ABF13003F2E7302EE2D147F01007039607
:1019400001E047F001071A46CFE747F00207FAE740
:1019500047F00407F7E70A2101FB0633A3F130063D
:10196000CFE7023554F8043B23EAE37B2B786C2B5A
:1019700008BF01352978002900F03281782906D87E
:10198000572911D8472959D8442900F21C81D9F880
:10199000043001222946D9F8000008F101089847CF
:1019A00085E04FF0FF3BE1E7A1F15803202BEED893
:1019B00001A252F823F000BF411A02088F19020851
:1019C0008F1902088F1902088F1902088F1902084F
:1019D0008F1902088F1902088F1902088F1902083F
:1019E000951A0208BF1A0208411A0208C71B02080A
:1019F000C71B0208C71B02088F1902088F190208AB
:101A00008F1902088F1902088F1902088F1902080E
:101A10008F1902088F190208411A0208D51A020804
:101A20008F190208FD1A02088F190208411A0208CC
:101A30008F1902088F190208411A02085029A6D1ED
:101A400001F0DF0354F804CB502B604668D16429C1
:101A50006AD1BCF1000F80F29D802D23CCF10000F3
:101A60000A228DF8173051230DF1280A0A3B0DF197
:101A7000180B8646B0FBF2FC02FB1C0160460929EC
:101A80008CBFC91830310AF8011DDA455CD07245A7
:101A9000EFD959E054F8043B019653B1039B04225B
:101AA000514900933B464846FFF704FD8044691CBA
:101AB00001E7039B05224D4900933B46F3E754F8A9
:101AC000043B012206A901968DF81830039B009370
:101AD0003B46E8E706A954F8040BFFF706FBBBF109
:101AE000FF3F014604D0069B9B4538BFCDF818B098
:101AF000039B069A00933B460196D4E754F804AB47
:101B0000504647F067FBBBF1FF3F024602D0584505
:101B100028BF5A46039B5146019600933B46C2E7B5
:101B2000642996D075292FD021F00F0300220F3B96
:101B30008DF817201022DBB2BCF1000F94D13023B6
:101B40000DF1270A8DF8273017F0100B9DF817308C
:101B50002DD0002B35D0039B01220DF117014846F3
:101B600000933B460192013EFFF7A4FC8346039B92
:101B70000AAA514648460093A2EB0A023B46019648
:101B8000FFF798FC584491E700230A228DF817309C
:101B90006123D1E7BB0705D52B238DF817300A2227
:101BA0005123C9E7C7F380035B01DBB2F5E7002BE4
:101BB000DDD006AA9245DAD90AF8013C0AF1FF3ACB
:101BC000D5E79B46D3E70734039B3A46484624F0C3
:101BD0000704CDE9006BB4EC020BFFF7F1FD65E7FC
:101BE00040460BB0BDE8F08F7C1B0808811B08083D
:101BF0000EB403B503AA52F8041B0192FFF754FE7A
:101C000002B05DF804EB03B070470346007893F927
:101C10000020002A0ADA00F07F004022104206D19C
:101C200013F8012F02F0C001802904D0704720EA88
:101C300002005208F2E702F03F0242EA8010EFE7AA
:101C4000431C18460133027802F0C002802AF8D003
:101C5000704703460020994200D8704711F8012DC3
:101C600002F0C002802A18BF0130F4E703460144A5
:101C7000002099421A4600D870471278013302F0CA
:101C8000C002802A18BF0130F3E700007F289DBF03
:101C9000024B185CC0F3400000207047C39E080848
:101CA0007F289DBF024B185CC0F3C0000020704726
:101CB000C39E08087F289DBF024B185CC0F38000BC
:101CC00000207047C39E08087F289DBF024B185C08
:101CD000C0F3801000207047C39E08087F2809D8F1
:101CE000064B1B5C13F00C0F06D1A0F15F035842AA
:101CF000584170470020704701207047C39E080874
:101D00007F289DBF024B185CC0F300100020704775
:101D1000C39E08087F289DBF024B185CC0F340108B
:101D200000207047C39E0808024608B5FFF7E8FF89
:101D300002EB401008BD08B50246FFF7EBFF40423A
:101D400020F01F00104408BD3038092884BF20F05F
:101D500020000738704702460144002010B5E524F2
:101D6000914203D8B0FA80F0400917E012F8013B25
:101D700030B103F0C003802B11D10138C0B2EFE7BE
:101D8000BF2B09D9F72B09D8DB0803F0060344FA67
:101D900003F303F00300E3E71B06E1D510BD0020C9
:101DA000FCE7023981420B4603D31A880239002A24
:101DB000F8D00233181A40107047B2EB131F70B5F9
:101DC00004464FEA13101BD901EB4001101A03F02F
:101DD0000F0326460246012A01F102010CBF31F829
:101DE000025C51F8025C013A25FA03F526F8025B21
:101DF000F1D104EB400434F8023C03B9013870BD62
:101E00000020FCE7F0B5059C0025121B2E46AC42D5
:101E10000FD101EB4403174600EB4404411A9FB96C
:101E200004EB420316B1023324F81260181A401072
:101E3000F0BD31F8157033F815C067443E4420F802
:101E40001560360C0135E2E71D88013F35445D52CF
:101E50002E0C0233E3E7F0B4049F00260D4634460F
:101E6000D11BB7420BD105EB47030A4600EB4707EE
:101E7000451B7AB907EB4101F0BCFFF792BF35F87B
:101E800016C033F816206444A41A20F8164024140F
:101E90000136E6E71E88013A34445C5324140233C9
:101EA000E7E72DE9F043079C0239DDF828E0154605
:101EB00084464FF6FF78A4EB0209DDE9087655B9B0
:101EC00000EB42011FB10123023120F81230BDE8BE
:101ED000F043FFF766BF31F8024F013D444426440A
:101EE00005EB0904A5422ABF33F8024B4FF6FF74F5
:101EF0004444744486EA040E360C17FA8EF74FEA0F
:101F0000144E2CF8027B3F0CD9E7022938B538BFB4
:101F10000221044680680D4618B12368B1EB930F87
:101F200007D96900FEF7C7F92368A06065F39F032E
:101F3000236038BD38B504460C20FEF7A1F90546EC
:101F400023682278C3F39D0023F0030302F001020B
:101F5000400013432B6063686B60FEF791F9A86043
:101F60002268A168C2F39D02520047F0B1F82846EA
:101F700038BD994210B511D313D800EB410002EBE4
:101F8000410209B9084610BD30F8023D32F8024D51
:101F90001B1B002B02DB04D10139F2E74FF0FF30AD
:101FA000F1E70120EFE710B5044638B18068FEF78D
:101FB0008FF92046BDE81040FEF78AB910BD70B514
:101FC0000C4602210546FFF7A0FF002C2B78B5BF79
:101FD000012200226142214662F30003AA682B70AD
:101FE000012388B21446090C1E4622F8020B03F1A5
:101FF0000103F6D16E60208070BD0023C0E900337C
:102000008360704728B103789B0702D48068FEF78D
:102010005FB9704738B504460D464968FFF775FF4C
:102020002A782378A06862F3000323706A68A9689D
:1020300062605200BDE8384047F04AB80A4629B904
:102040000178426062F3000101707047FFF7B7BF8B
:1020500008B5FFF7D2FFBDE80840FFF7EFBF9200D9
:1020600042F0020210B4026000225DF8044BC0E9A5
:1020700001211946FFF7E2BFF8B514461D469DF849
:10208000187004210646FFF740FF22462B4627B171
:10209000002D0CDA624265EB4503317867F30001ED
:1020A00031700021716052EA030102D1F8BD0027AE
:1020B000F3E7D6E901104C1C746020F81120120CD3
:1020C00042EA03421B0CEEE72DE9F84353EC102BD8
:1020D0001E46154603788046F20F62F30003037034
:1020E00047F6F07313EA16420AD198F8003023F04D
:1020F000010388F800300023C8F80430BDE8F883F5
:102100009A42F2D0C6F30A53A3F2FF34002CECDB60
:1021100004D10121BDE8F843FFF751BFA3F2EF3727
:10212000C6F31306332C4FEA271746F4801642DC19
:10213000C4F13402A4F11403C4F1140406FA03F345
:10214000D54026FA04F4D6401D4325430024A14679
:1021500039464046FFF7D9FEC8F80470B9F1000FC0
:1021600006D04FEA49020021D8F8080046F0F4FFF3
:10217000A4B105FA04F2D8F8083023F81920C4F104
:102180001003103409F10109A3F12002DD4006FA21
:1021900004F426FA02F2DE40254315434B469F42E3
:1021A000ACD0D8F8082022F813502D0C013345EAA2
:1021B0000645360CF3E70C34A3F2334304F00F0466
:1021C0004FEA2319C4E72DE9F8438F18C2F35B02E5
:1021D00004460D46511C9846089EFFF796FE23784C
:1021E000AC4600221FFA86FE68F300032370BC454C
:1021F0006046626002D3401BBDE8F88301780CF1B1
:10220000010CA1F13003092B05D9A1F14103192BD0
:1022100012D8A1F13703B342EDD2A06890468146AF
:10222000B8F1000F0FD100EB420113B1023120F8D9
:102230001230091A4A10DAE7A1F16103192BDAD832
:10224000A1F15703E7E7B9F8001008F1FF380EFBDA
:10225000013329F8023B1B0CE2E7F8B504461546AA
:102260001E46C1B1531E4FF0FF371E44E900204601
:102270000F310909FFF749FE2378002123F00103FC
:10228000616023700B4645B9A06800EB4101FFF780
:1022900088FD6060F8BD0127E8E700220F2B0ADC0B
:1022A0003078013D3E4400FA03F003F1080342EAAE
:1022B000000292B2F2D1A0680131103B00EB410064
:1022C000616020F8022CDEE738B5057804460B780B
:1022D00005F0010203F00103981A08D1D1E9013297
:1022E000D4E90110FFF745FEEB0748BF404238BD77
:1022F000884210B5044601D0FFF78CFE237823F006
:102300000103237010BD884210B5044601D0FFF7C9
:1023100081FE63683BB12378C3F3000282F00102BF
:1023200062F30003237010BD88421FB5044601D03C
:10233000FFF770FE626862B901212046FFF7E5FDF4
:102340000123A26813806360237843F001032370A4
:1023500010E02378D9070FD523F001032370012360
:102360000093A168ADF80E300DF10E030846FFF79B
:1023700072FD606004B010BD511C2046FFF7C5FD22
:1023800001230093ADF80E300DF10E03D4E90121C5
:102390000846FFF737FD6060D6E74B682DE9F04748
:1023A00005460E46144603B12AB931462846BDE813
:1023B000F047FFF72FBE02F10F014FEA111803EBB0
:1023C0001111FFF7A2FDA96814F00F044FF0000CE3
:1023D000D6E9012308BF102408EB020703EB4203F0
:1023E000C4F1100407F1004001384FEA400901EB45
:1023F00040001146864609BB6FF001032CFA04FC2D
:10240000C8F1010809F102095A43831820F802C0F3
:102410004FEA480203EB48035242184646F09CFE3E
:1024200003464B4417B133F8022D9AB12B786F60F5
:10243000327862F300032B70BDE8F08733F802AD09
:1024400001394AEA0C0C2CFA04FA4FEA0C4C2EF82B
:1024500002A9D0E7013FE5E72DE9FF410D464968B4
:102460000646144601B132B92946304604B0BDE8EB
:10247000F041FFF7CFBDFFF748FDB768D5F80880FA
:1024800023466A6838464146FFF797FC3378706008
:102490000246297861F300033370DB070AD5002375
:1024A00020096968ADF80E30994201D0834204D109
:1024B00081420AD804B0BDE8F08138F813509DB1CC
:1024C00001238142ADF80E3012D904F00F0401232C
:1024D00038F8101003FA04F4013C214206D1BDF88B
:1024E0000E30002BE6D003E00133DDE7ADF80E300F
:1024F000012312B93B807360DCE7009339460DF18C
:102500000E033846FFF77EFC7060D3E72DE9F341F8
:102510000D465768D1F8048014463B46926806463B
:102520004146A868FFF725FD01301FBF23462C4612
:1025300047461D4623782A785340DB0719D4791C77
:102540003046FFF7E2FC6B680093AB68B068D4E9F3
:102550000121FFF757FC70602378327800280CBF08
:10256000002303F0010363F30002327002B0BDE800
:10257000F08139463046FFF7C8FC6B680093AB68C2
:10258000B068D4E90121FFF766FCE4E72DE9F341E7
:102590000F464E68D2F8048014463146926843468E
:1025A0000546B868FFF7E5FC01301DBF23463C46F1
:1025B000B046012618BF1F46237818BF00263A7878
:1025C0005340DB0719D508F101012846FFF79DFCB0
:1025D0007B680093BB68A868D4E90121FFF712FC6F
:1025E000686018B1207800F0010070402B7860F32B
:1025F00000032B7002B0BDE8F08141462846FFF78A
:1026000084FC7B680093BB68A868D4E90121FFF7CC
:1026100022FCE5E74B682DE9F04F0C465168154662
:1026200085B08B42064621BF1946254613461C46F7
:102630002B78DB0722D4237813F001071ED1FFF794
:1026400064FCB068AD683B46D4E9011C99420CD1EA
:1026500000EB4101FFF7A5FB00237060327863F3C4
:102660000002327005B0BDE8F08F35F813203CF859
:102670001340224020F813200133E7E701313046B0
:10268000FFF743FC2F78237807F00109D5F804C041
:1026900087EA030147F30007B06803F0010AC94362
:1026A00043F30003A268834601F0010E41F30001E9
:1026B0009BB289B200930291B9B267460191A968B1
:1026C000A1F102086168A1EB0C0103918FB900EB45
:1026D0004C01BEF1000F03D00123023120F81C3061
:1026E000FFF75FFB706022782B78C2F30002134083
:1026F000B4E738F8021F013F019B5940039B89440E
:10270000D9198F4225BF32F8021B009B009959400E
:10271000029B8A4409EA0A014FEA1A4A4FEA194918
:1027200059401EFA81F14FEA114E2BF8021BCDE7FA
:102730002DE9F84F4B680D465168144606468B420A
:1027400021BF19462C4613461D462378DB0731D49A
:102750002B7813F001072DD1FFF7D7FBA068646831
:102760003B46D6F808C0D5E9012EA41A9A4213D1E7
:102770000CEB4203214600EB4202ACEB0000A1B996
:1027800003EB4403A3EB0C0358103378706061F340
:1027900000033370BDE8F88F30F813103EF8135083
:1027A00029432CF813100133E0E71588013915523D
:1027B0000232E4E701313046FFF7A7FB27782B7898
:1027C0004FF0010A616807F00108B06803F00109E1
:1027D000A46843F3000383469BB2A4F1020CD5E93D
:1027E00001E247F300050F46AEEB010EADB22FB983
:1027F00000EB4101FFF7D5FA0121C6E73CF8024F93
:10280000013F6C40A0440EEB0704A7422ABF32F8F8
:10281000024B1C465C40A14448EA09044FEA1949AE
:102820004FEA1848E4431AFA84F44FEA144A2BF8A2
:10283000024BDCE74B68F0B50D465168144685B095
:102840008B42064621BF194613462C461D46277863
:102850002B785F4017F0010736D1FFF756FBB068C1
:10286000D4E90121247814F00104D5E9015324D1DD
:10287000521BA54212D101EB4503144600EB45055E
:10288000411AACB905EB4201FFF78BFA0027337808
:10289000706067F30003337005B0F0BD31F8147059
:1028A00033F814C087EA0C0720F814700134E0E70D
:1028B0001F88013C5F520233E3E7CDE90277CDE99F
:1028C0000057FFF7EEFAE1E701310127FFF71DFBA3
:1028D0002B78DB4303F00103039323780197DB4359
:1028E00003F0010302936B680093AB68B068D4E90E
:1028F0000121FFF7D6FACAE74B682DE9F04F0446ED
:1029000085B00E4615460BB1536843B9237823F0C2
:10291000010323700023636005B0BDE8F08F81429E
:102920002DD1FFF707FBA542064607462ED06B6860
:10293000204671681944FFF7E8FA22680021A06870
:10294000C2F39D02520046F007FCB368D4F808E0D9
:102950000022D6F804900193F446AB680EEB4908C8
:10296000114602936B680393039B934233D0ACF1FF
:102970000200DDF804B00023CDF800901AE0824296
:1029800006D1FFF7D7FA05460746D0E70546CEE75A
:102990000027CCE730F802AF53443BF802AB1946AE
:1029A000029B33F8123003FB0A13009903800139AC
:1029B0001B0C009100990029ECD14146881C13B1F1
:1029C0000146A8F80030A1EB0E010CF1020C013217
:1029D00080464910C8E7616038462A78337853400A
:1029E000227863F30002227005B0BDE8F04FFFF7D4
:1029F000DABA4B6870B50546144613B11378DA0796
:102A000006D52B7823F001032B7000236B6070BD7B
:102A1000636823B90121BDE87040FFF7D0BA0846CA
:102A2000FFF788FA06462046FFF784FA012104469C
:102A30002846FFF7C4FA636883B1A3681B88DB07E5
:102A400004D5324629462846FFF756FF0123D4E92C
:102A500001210846FFF7B1F9606038B93046FFF749
:102A6000A2FA2046BDE87040FFF79DBA32463146D3
:102A70003046FFF741FFDEE72DE9F04F0C46516885
:102A80008FB09346013105460393FFF73EFADBF81A
:102A900004200021A86800260132520046F05CFBA9
:102AA0002B786E60204623F001032B70DBF80410B6
:102AB0000131FFF72AFA59462046FFF7ABFA039B8C
:102AC000D4F80890D4F8048048464146D3E9013749
:102AD00002933A46AB680493029BFFF74AFA002838
:102AE00033D10123049A606013806B60237862689D
:102AF000002A0CBF002103F0010161F300030399D8
:102B000023709BF8003009784B40DB0740F1FD80D3
:102B10006B682978003B18BF012363F3000129701B
:102B2000002A00F0F2800BA84FF0FF31FFF790FA77
:102B30000BAA29462846FFF7E9FC039A21462046BE
:102B40000FB0BDE8F04FFFF7E1BC013001D16E607E
:102B5000CCE7029B03F100423346013A4FEA420AB6
:102B600037F812100E0403F101004ED509EB4801AD
:102B70004FF0000C9BB208F101000191CE46C3F169
:102B80001006023129F818C0059660608E4540D3C2
:102B900037F812209A400592029A012A09D907EBC8
:102BA0000A02C3F1100132F8022CCA400599114300
:102BB0000591029A801A049A686000F10040013879
:102BC00002EB400207920AF102020992BA1E089231
:102BD000D4F804A0029A524529D30AF1004A0022EF
:102BE000C3F110000AF1FF3A09EB4A0AD14573D943
:102BF0006FF000416B682BB15A18049830F812201E
:102C0000002A73D06FF0004175E04900034689B295
:102C1000A8E7BEF8008008FA03F64CEA060C059E09
:102C200028FA06F82EF802CB1FFA88FCAEE7019AC4
:102C30000198118832F8022C42EA01420599B2FB50
:102C4000F1F20999411A0020069186460899069FDB
:102C50000E460199B9420DD809880844A8BB0799C6
:102C600021F80229019A0791023A01920AF1FF32F2
:102C70006260ADE736F8021FB7F80080994018FA95
:102C800080F841EA1E4E1FFA8EF151431FFA81FC73
:102C9000090CA8EB0C0CC1EB204127F802CB01EB8F
:102CA0002C40D6E738F8021F994041EA1E4EBCF886
:102CB0000010394411FA8EF10F0C2CF8021B019907
:102CC0006145EFD83844013AC8E70027DDF8208095
:102CD000DDF818C0BE46F2E7BAF8001041FA03F674
:102CE000814032432AF802298AB27FE7013B6B60B8
:102CF00080E7013B63606368002B3FF4F7AE5A182E
:102D000039F81220002AF4D0F0E60FB0BDE8F08FB9
:102D1000F0B51F464B6885B004460D4616464BB1CC
:102D20001378DA0706D47B68012B0BD1BB681B88AC
:102D3000012B07D1237823F0010323700023636064
:102D400005B0F0BD01212046FFF739F97368002B6B
:102D5000F6D02846FFF7EEF805463046FFF7EAF8CA
:102D6000002306460393CDE901337368B3B1B3681A
:102D70001B88DB070AD52A4621462046FFF7BCFD03
:102D80003B462246214601A8FFF776FE0123D6E9FD
:102D900001210846FFF711F8706058B901A8FFF744
:102DA00031F92846FFF7FFF8304605B0BDE8F0409E
:102DB000FFF7F9B82A4629462846FFF79DFD3B460E
:102DC0002A46294601A8FFF757FECEE7D0E90121A0
:102DD0000346002001EB420210B5914204D31B7858
:102DE000DB0748BF404210BD32F8024D44EA0040C4
:102DF000F3E730B5D0E90124002304EB420294420A
:102E000006D302780120D20748BF5B420B6030BD79
:102E1000B3F5004F04D232F8025D45EA0343EEE712
:102E20000020F4E7037813F0010310B510D1D0E9C6
:102E3000012404EB4202944202D301200B6010BD36
:102E4000B3F5803F04D232F8020D40EA0343F2E7C3
:102E50000020F4E72DE9F74FDDF830C006460F46B5
:102E6000019209B30CEB0300012400211A46A2468B
:102E70008E46D6E90189B8F1000F17D101990029D2
:102E800045D0002A43D1002B41D0002F3BD09CF8E5
:102E900000302CB1DB43347884EAD31404F001040D
:102EA000204603B0BDE8F08F6046DDE739F8025BED
:102EB0000EF1100E45EA0141BEF1070F02DC08F1E8
:102EC000FF38D8E796F800B08DB21BF0010F1FBF96
:102ED000ED435AFA85FA1FFA8AF5CAF3072A42B96E
:102EE0001CB1EDB2B5FA85F46409AEF1080E090A19
:102EF000E2E7EDB227B100F8015C0138013AF4E7EE
:102F000000F8015BFAE7634413F8013CC1E733784A
:102F100013F0010F14BFFF210021002F18BF6046DE
:102F200046F01AF9BCE70000D0E901329FED0C0B26
:102F30009FED0D6B02EB43039A4205D30378DB0749
:102F400048BFB1EE400B704733F8021D07EE101A70
:102F5000B8EEC77BA0EE067BB0EE470BECE700BFF8
:102F60000000000000000000000000000000F04031
:102F70000A292DE9F74F1546446814BF042203229D
:102F8000804689469DF830A00D9E0092A4B98DB16F
:102F9000013D324615F8011F134641B930221A701F
:102FA000002203F8012F981B03B0BDE8F08F02F850
:102FB000011BEFE73346F1E764000193B346204677
:102FC000FDF75EF92246D8F80810074646F080F86B
:102FD000019B304607EB040C3A3BACF102040021A4
:102FE000A742A6461DD930315C46392988BFC91889
:102FF00004F8011B39468C458E461DD83846FDF72E
:1030000067F965BB98F80030DB0744BF2D2304F84F
:10301000013B3346621E9A4233D80023A01B237023
:10302000C2E7BEF800E04EEA014EBEFBF9F124F81B
:10303000021909FB11E1D3E7BEF800200231002A92
:10304000D9D0BAF1000F08D0211A009A914204D1C8
:103050000BF102048BF801A02046A346BDE72846E9
:1030600046F0B8F829185A460B46AB4204D88D42B0
:1030700088BF00200444C5E713F8017D02F8017FF2
:10308000F3E71978107803F8010B02F80119C2E789
:10309000D0E9023293423DBF5A1C826018784FF04B
:1030A000FF3070470368013B033310B5044602D874
:1030B0004068FDF70DF92046BDE81040FDF708B95E
:1030C000F8B50C461F46164605461020FDF7D8F801
:1030D000054B8460C0E900743444C4606B60034BEA
:1030E0002860AB60F8BD00BF91300208A53002082F
:1030F00002690A2AF8B504461BD18369013383614A
:103100000123E3610026237D0A272361637D237564
:10311000256EB5B16B1CA26D2366555D626D934241
:1031200001D366652666237D0D2B14D0BDB1657570
:10313000F8BDC369092A04BF073323F0070301332D
:10314000DFE7D4E901039847431CECD0012838BFDE
:1031500001200546E7E70A2D2775D9D0E6E7237D4C
:10316000002BE4D00A2B18BF0A25E0E701690246CC
:10317000272901D0222912D1012024E0137D272BF9
:10318000FAD0222BF8D0722914D1662B16D1507D9B
:103190002728F1D0A0F12203584258417047A1F1ED
:1031A0006200132804D8084B034113F00100E5D056
:1031B00000207047662904D1722B00E0622B02D1F7
:1031C000E5E76229F8D07047EEFFF6FF38B5044610
:1031D0000D462069D0B10A2806D10DB1636AB3B19A
:1031E0002046FFF785FFF4E7FEF750FD0028F7D1F2
:1031F0002369232B08D12046FFF77AFF2369002B90
:10320000E7D00A2BF7D1E4E75C2B02D00025284653
:1032100038BD237D0A2BF9D12046FFF769FFDFE790
:10322000002301212DE9F04F044685B04364FFF7E8
:10323000CDFFA369276A6363002FE369A36307DAFD
:103240000723013784F83C30276205B0BDE8F08FD2
:1032500004D00623013F84F83C30F5E7002835D040
:1032600039462046FFF7B2FF0523E56984F83C3074
:10327000013DD4E90B3003F10042013A30F812204D
:103280009542E2D009D8013B30F81320954218D37B
:10329000DBD0022384F83C30D7E7A16A8B4207D306
:1032A00008314900FDF707F8A36A20630833A362D9
:1032B000E36A5A1CE26220F81350236A0133236246
:1032C000C3E7226AE362013A2262DCE7256915B9A5
:1032D00084F83C50B9E72046FFF748FF064600282F
:1032E00000F00B8284F83C702369722B6BD008D8F5
:1032F000622B0CD0662B70D0B9460025A8460B2354
:103300000DE0753BD3F1000949EB0309F5E7237D97
:103310000025722B69D0A8464FF001090C2394F8C0
:103320003C20002A6AD184F83C30B9F1000F08D063
:103330002046FFF7DDFEB9F1020F02D12046FFF76C
:10334000D7FE23692046222B0CBF2223272301937B
:10335000FFF7CEFE2369019A934240F08680237DD9
:10336000934240F0828020464FF00309FFF7C0FEF1
:103370002046FFF7BDFE35B1A36E23B9A44904F181
:103380006400FEF742F804F140034FF0000B029393
:103390002169002900F0A881B9F1010F02D10A29A1
:1033A00000F0A281CB4563D3594604F14000FEF7FB
:1033B00051F801212046FFF709FF2046FFF7D6FE0E
:1033C000002891D11CE0237D622B0DD0662B10D0FC
:1033D0000025B0464FF0010991E7237D3546722B59
:1033E00008D04FF00008F5E70025B0464FF002097D
:1033F00094E73546B0464FF0020980E79A4294D0F0
:10340000A36E002B3FF421AF292104F16400FDF7E6
:10341000B9FF236E04F15006002B40F06B810321AD
:103420003046FDF795FF23690370237D4370637D6C
:103430008370216E3046D4E91A572A46FDF7F2FF11
:103440002A46394645F044FE0023A26DA366236E4A
:10345000581C2066D15C2161991C03332166105CE5
:1034600023662075535C6375EFE64FF0010982E730
:10347000019B8B4209D1194602980BF1010BFDF714
:1034800088FF2046FFF734FE82E7002D60D15C29DB
:1034900040F0278120460391FFF72AFED4F810A0C0
:1034A0000399B8F1000F6CD00298D346FDF771FF75
:1034B000D2E004F1640B28215846FDF763FFD4F8ED
:1034C00068A00022216979B172BB3A290CD07D290C
:1034D0000AD0212928D1207D7238012829D8607D81
:1034E0003A2801D07D2824D1D4E91A21881810F86F
:1034F000010C3D2809D1A2EB0A02514404F140001D
:10350000FDF7B0FEA26E013AA266924558464FF012
:10351000290104BF042384F83C30FDF733FF2C213C
:103520005846FDF72FFF24E021F020005B280AD148
:103530000132C9B258460392FDF724FF2046FFF737
:10354000D7FD039ABEE75D2808BF02F1FF32F0E71E
:103550007B299CD120460391FFF7CAFD23697B2B71
:10356000A7D104F140000399FDF70CFF2046FFF7B7
:10357000BFFD7B2104F140004FF0000BFDF702FF7F
:1035800006E7BAF1780F09D8BAF15B0F0AD8BAF199
:10359000220F53D029D8BAF10A0F23D05C2104F1AD
:1035A000400082E7AAF15C021C2A73D8DFE802F02F
:1035B00046727272728A2A7272723A72727272727F
:1035C0007272347272720F722D3D37725C004FF05E
:1035D0000D0B94F83C300B2B77D1594604F1400089
:1035E000FDF7D7FE4FF0000B4BE7BAF1550F1CD09B
:1035F000D4D8BAF1270F21D0BAF14E0F4AD10548DD
:103600000AF0D2FE4FF0080BE3E74FF0090BE0E7BA
:10361000CC1B0808D51B08084FF00A0BD9E74FF060
:103620000B0BD6E74FF00C0BD3E794F83C200C2A99
:1036300006D15C2104F14000FDF7ABFED346C8E79C
:10364000BAF1750F14BF4FF0080A4FF0040A4FF09B
:10365000000BBAF1010A0AD2BBF5881FB9D34FF0AB
:10366000010384F83C30BDE74FF0020AEFE7204643
:10367000FFF73EFD226910460392FEF725FB002866
:1036800000F04F81039A4FEA0B1B1046FEF75CFBDC
:103690008344DEE7AAF1300BBBF1070F3FF67EAFA4
:1036A0004FF0030A06E02046FFF722FD2269303A78
:1036B00002EBCB0B227D303A072ACDD8BAF1010AB2
:1036C000F1D1C9E74FF0070B83E7BBF1FF0FC6D875
:1036D0000C2BC4D15FFA8BF104F14000FDF752FED0
:1036E00080E7C9B20298F9E7CB453CBF032384F8D1
:1036F0003C3059E6033B23669BE62846FEF7D0FAAA
:103700002169D8B95F2919D07F2917D80846FEF753
:10371000D1FA002855D123692E2B4DD00026834D98
:103720002F781FB12369BB4240F0A4802046FFF7E9
:10373000DFFC002F40F0A6800123ABE5082304F155
:103740004005C9B284F83C302846FDF71BFE2046F0
:10375000FFF7CEFC2069D8B92846754FFDF703FE68
:103760000025064657F8041B304645F041FD002869
:103770001CD10E35EDB2112D84F83C507FF465ADAF
:103780006C4BD3F83032002B14BF0E23102381E58D
:10379000FEF786FA40B920695F2805D07F2803D854
:1037A000FEF788FA0028D7D0217CCDE7FFF64DAD93
:1037B0000135242DD6D148E5207DFEF77BFA00287F
:1037C000ACD021692E292AD10A2384F83C30002567
:1037D00004F140060A273046FDF7DBFD2046FFF7DF
:1037E00087FC206900283FF430AD55BB20F0200352
:1037F000452B26D16521304684F83C70FDF7C9FD84
:103800002046FFF775FC21692B2901D02D29E8D12D
:103810003046FDF7BEFD2046FFF76AFCE1E70923CD
:10382000302984F83C30D2D1237D43F02003623B21
:10383000DBB2162BCBD8404DDD4015F00105C7D1CA
:10384000C5E7FEF72DFA28B121692E290DD184F89C
:103850003C70DDE72069FEF72DFA0028F4D12369DA
:103860002E2BF1D05F2BD6D0EFE421F020034A2B92
:10387000CED1ECE7652F01D0632F00D101350136A1
:1038800001354DE7212F08D123693D2B7FF454AF3B
:103890002046FFF72DFC3923FCE42E2F0FD123699E
:1038A0002E2B02D1237D2E2B01D05C23F2E4204667
:1038B000FFF71EFC2046FFF71BFC0D23EAE403354F
:1038C000334615F8027C632F18D0652F16D01B4A9B
:1038D000D35C84F83C30543BDBB2052B3FF6B5ACEF
:1038E000012202FA03F313F02A0F17D113F0150F78
:1038F0003FF4ABAC636A13446362A6E415F8012C91
:1039000001362169914207D12046FFF7F1FB33468A
:10391000652FDCD00235D4E7632FFAE7636A013BF9
:10392000EAE70123834684F83C3052E6871B080807
:10393000449F08080040022001204000D49F08084E
:103940007FB501AD0646742085E80E00FCF798FCB3
:103950000446034695E8070043F8046B002583E816
:10396000070001236FF001021420C4E906320A2285
:10397000C4E90855C4E90A23FCF782FC202120632E
:1039800004F14000FDF780FC294604F15000FDF7EA
:103990007BFC294604F164002566FDF775FC236B6A
:1039A00020461D802561A582FFF7A2FB2046FFF778
:1039B0009FFB2046FFF79CFB2046FFF731FCA36BE3
:1039C000012B06D094F83C30052B1CBF062384F84D
:1039D0003C30204604B070BD30B585B0054601AC22
:1039E0002046FFF76DFB284694E80E00FFF7A8FF7E
:1039F00005B030BD30B585B00446014601AD28465E
:103A000023F044FA204695E80E00FFF799FF05B031
:103A100030BD10B50446B0B1C3684068984704F1A2
:103A20004000FDF75BFC04F15000FDF757FC04F18A
:103A30006400FDF753FC206BFCF74AFC2046BDE810
:103A40001040FCF745BC10BDD0E90432013B0361D6
:103A500052F823007047036942695B1A013B52F830
:103A600023007047F8B5446A06460D46B4B1D4E960
:103A700000030B44834222D908310022014420462E
:103A8000FCF724FC0246B8B9616820460831FCF70F
:103A90001DFC63682360336A63603462802D2F46A7
:103AA00038BF802707F10800FCF7EAFB0023076016
:103AB00004464360706202E023682B442360606820
:103AC0000834054444F8045C2044F8BD38B50D467C
:103AD0000C211446FFF7C6FF4FF49D720560C0E944
:103AE000012438BD38B5D0E9033204460D469A4268
:103AF00008D3103340699900FCF7DDFBE36860618F
:103B00001033E360D4E90432591C216142F8235098
:103B100038BDF8B504461D460F461646D0E90003E9
:103B2000834208D31030C100A068FCF7C4FB2368AF
:103B3000A06010332360D4E90103421C626003EBF0
:103B4000C00253F8301067F3170143F83010D670F5
:103B50005560F8BD10B48469CAB20023616B5DF88A
:103B6000044BFFF7D6BF0000F0B593B004460E46F5
:103B7000174668461D46FCF743FB10B1002013B002
:103B8000F0BD3A46314620460AF046FA0446FCF7B4
:103B90000DFBA30703D12268024B9A42EED001200D
:103BA0002C60ECE7A0AC080810F00102034604D03A
:103BB00040F001030B6001207047A8B110F0030032
:103BC00013D11A793A2A11D19B6813F001000B60C6
:103BD000F1D19A070AD11868054B9842EBD0054BF2
:103BE000C31A58425841704770471046704700BF8B
:103BF000B4B5080834B3080810F001021CD110F065
:103C000003030CD000F00F03062B15D00A2B11D1A3
:103C100000090D3803288CBF00200120704770B1C7
:103C200002793A2A08D02D2A08D18068B0FA80F0AB
:103C3000400970471046704701207047184670478A
:103C4000C20702D540F001007047830710D0030976
:103C500000F00F00062803D1D80040F002007047A2
:103C6000A3F10E00022809D8064B53F82000704734
:103C700030B103793A2B03D180687047024870470E
:103C80000248704700A00808A4BC0808D8C008086B
:103C900038B505460C46FFF7AFFF38B12846FFF7A9
:103CA000CFFF0BF06DFB031B5842584138BD2DE987
:103CB000F0410F4605461446114689B9204612F0D8
:103CC0005DFF014600F10808A4B90A4628463946B6
:103CD000FFF7FCFE01462846FFF704FF012007E03E
:103CE00001392846FFF7B7FEFFF786FF0028E4D129
:103CF000BDE8F0812846013CFFF7A6FE0646FFF727
:103D00009FFF48F82400002EDED0B307DCD1686A9C
:103D100000F108039E42D7D3426813449E42D3D297
:103D200073681B0A0233A2EB83024260CCE70000F7
:103D3000F7B5866905460F4696F83C20A2F10803C0
:103D4000042B52D8DFE803F003232B384C00D6E9CC
:103D50001110FDF7F9F8902F04460ED1C100002292
:103D600005F1280041F002010AF0B8FE28B14268CE
:103D7000D3071CD542F0010002E0200140F0020010
:103D80000146284603B0BDE8F040FFF7ABBE002275
:103D90003346D6E9111008F051FC0246E8E70096D8
:103DA00000230122D6E9111008F0A6FD0246716B2E
:103DB0002846FFF78BFEE3E7D6E911100A2906D85B
:103DC000FDF7C2F830B1000140F00600D8E7FDF77A
:103DD0006DF8F7E7D6E91121064810F0B7FFE5E7DF
:103DE000D6E9111011F092F8E0E7120142F00A0052
:103DF000C6E700BFCCBF080810B5FFF7D5FE50B12D
:103E00000B6813F0010007D19A0704D11868034B1F
:103E1000C31A5842584110BD0120FCE7B4B5080848
:103E20000021FFF735BF0121FFF732BF2D2A2DE911
:103E3000F04F044685B0884616461D460BD100213A
:103E4000FFF709FEC0B1820702D10379922B13D08C
:103E500005B0BDE8F08F922A2ED10021FFF7FBFDBF
:103E6000014648B1830707D14768FBB2952B18D1AB
:103E7000013D2046FFF7E8FDA6F12303DFB2092F3D
:103E800000F2EB80092B00F2CF80DFE813F0ED00A9
:103E9000ED00ED001F011F011F014601ED00CD00E7
:103EA0009001962BE8D127F0FF072046FFF7CCFDC5
:103EB00047F092074F60CBE7962A13D10135D0E93E
:103EC000012303EBC20313F8153C2D2B40F0AD800A
:103ED0002A46FFF7ECFE002800F0A7806368023B4B
:103EE0006360B5E7A2F11E03012B5FD9202A00F021
:103EF0008380052AC0D10021FFF7ADFD07460028C9
:103F000000F0938010F0030A05D1436803F0FE032C
:103F1000562B00F08A8001212046FFF79CFD00F01F
:103F20000F03022B40F08180BAF1000F7DD13B7965
:103F30002C2B7AD1BB6803F00F02022A75D11B0922
:103F4000482B72D1FB68002B6FD09A076DD11A797C
:103F5000302A6AD1D3F808B04FEA10195846FFF753
:103F60004BFE002840F0FE80B749B8480DF032F90A
:103F7000A169054653463A6809680DF00DFA2846CE
:103F8000FCF756F91E2E0AD1FFF74DFF18BB384635
:103F9000FFF746FF00B9D3460BF1FF3A0BE0FFF7FE
:103FA0003FFFC0B93846FFF73EFFF3E705F1FF3AA0
:103FB0008DB1AB46A94609F1FF3920464946FFF7C6
:103FC0004AFD236962690746A3EB0B0342F823000D
:103FD000B9F1000FD6D10021514508D16D1A012D3C
:103FE0003FF436AF362E00F04281332E3DE12046BD
:103FF0000131FFF729FDEFE70021FFF72CFD074610
:10400000FFF70EFF68B93846FFF70DFF68B1EA21E8
:104010002046FFF719FD204605B0BDE8F04FFFF739
:1040200061BD4FF48571F3E72B26A91C204689005A
:10403000FFF718FD074646EA052300F10801C0F81E
:1040400000804360002D40F01B81962E03D139463D
:104050002046FFF747FD3946DDE7922E00F0FE804F
:10406000062E00F00481BDE7691E2046FFF7F3FC31
:1040700001A9FFF799FD0028B7D0022FA5F102078B
:1040800096BFA6F10D094FF022095FFA89F9002FBA
:1040900009DA002D40F0CD80019AD30740F1CE809F
:1040A00042F00101B7E739462046FFF7D4FC02A9E8
:1040B000FFF77AFD002898D001AB4846DDE90112F0
:1040C000FFF752FD002890D0013FE0E7691E20462F
:1040D000FFF7C1FC01A9FFF767FD002885D0AF1EDF
:1040E000002FD6DD791E2046FFF7B5FC02A9FFF7A9
:1040F0005BFD00283FF479AF39462046FFF7ABFC63
:1041000001AB00092438DDE90112C0B2FFF72CFD34
:1041100000283FF46AAF023FE2E700212046FFF7A4
:104120009AFC01A9FFF740FD00283FF45EAF012192
:104130002046FFF790FCC0F30710019933280BD1FC
:10414000CF0707D488077FF450AF0A68404B9A42E4
:104150007FF44BAF022001E03F38C0B209F08EF986
:10416000019096E75846FFF76BFD07464FEAC903F3
:104170000A4604F1280043F002010AF0AFFC476050
:104180004846FCF7A6FF037820465F2B08D10025A0
:10419000FFF75AFC20460826A846FFF755FC6BE6B9
:1041A000FFF752FC59462046FFF79CFC3DE70121F2
:1041B0002046FFF750FC00F00F030746022B7FF468
:1041C00014AF00212046FFF746FC00283FF40DAF56
:1041D00010F003027FF409AF0379322B7FF405AFAF
:1041E0003909D0F808901B48C90041F002010AF0D3
:1041F00075FC00283FF4F9AE02AA4FEA1911406895
:1042000009F07EF8029B002B3FF4EFAED9070AD4E9
:104210009A077FF4EAAE1A680D498A4203D00E4924
:104220008A427FF4E2AE039A002A7FF4DEAE019365
:104230002FE72046013DFFF707FC2AE729462046E5
:10424000FFF744FC0146E6E65E1C0808E0AF0808FC
:10425000B4B508080CA0080834B30808D4E9012351
:1042600003EBC20313F8053C2D2B7FF4DEAE2A4688
:1042700041462046FFF71BFD00287FF4E9ADD4E658
:10428000013D2046FFF7E0FB41F82500DAE600BFDC
:104290000346006830B550B184070AD14468E5B2DE
:1042A0008D4206D100F10803200A136030BD034699
:1042B000FBE70120F9E700002DE9F04FA94B97B08B
:1042C0000D460024029005A80192CDE90731A649C8
:1042D000FBF774FF40234FF40070CDE90934FBF77E
:1042E000CFFF20230B908020CDE90C34FBF7C8FFD3
:1042F0002146CDE90E0513A8CDE911440AF0B8FB1B
:10430000019B002B48D0022B0CBF3F2222460023EA
:10431000696B09A8954FFFF7FCFB00230A9C002C52
:1043200000F06481013C0B99914801EBC40251F803
:1043300034100A94D678C1F3170A8E49632E526856
:1043400011F806B08C490BF00F09895D88BF41F464
:10435000807100EB41080BF0300110291ED020299C
:104360004BD0002B00F01B81B9F1020F40F00A8105
:10437000012A40D000211BF0010F02F1FF3306D0CB
:10438000B8F802003840B0F5805F08BF5308012B31
:1043900040F0E580E1B1E2E03D22B8E702B1BBB117
:1043A00008EB420825E0C34638F8023B03EA070160
:1043B000B1F5805F0ED195F83C10C3F30B03994221
:1043C00016D109A83146FFF7B3FC2846FEF728FFAF
:1043D0000023A3E7531C4B4504D23246514609A89B
:1043E000FFF797FBBBF8001009A8FFF7B3FBEFE757
:1043F00001329145D7D8012390E773B102F1004310
:10440000013B38F813303B40B3F5405F21D1002128
:1044100009A80392FFF766FB039A08EB4204914553
:104420002BD8019B83B1052E0ED1002109A8FFF7DF
:1044300012FB48B9012109A8FFF70DFB830744D0FF
:1044400000F00F00022845D1002408EB4903A146E3
:104450005AE0012ACFD995F83C30062B40F0F48081
:10446000464947480CF0B6FE044600236A6B2968AB
:104470000CF092FF2046FBF7DBFE039434F8021B9E
:1044800001EA0700B0F5805F16D1C9B295F83C008B
:1044900088420ED1082805D1314609A80392FFF7BA
:1044A00047FC039A28460392FEF7BAFE039A0132AC
:1044B000B5E7002A9FD0CEE7531C5146324609A8E3
:1044C000FFF727FB039B19888EE70028BCD00379F0
:1044D0003A2BB9D109A8FFF7B7FA09A8FFF7B4FA40
:1044E00000230822514609A8FFF7A0FC70E733F823
:1044F000022D02EA0701B1F5805F10D1D2B2082A7D
:1045000002D1013409F101094345F0D1B9F1010F9C
:104510001CD11BF0400F19D00026314610E0214677
:1045200009A80393FFF797FA039B08B109F1010962
:104530000134E9E7FFF788FA0136002818BF014681
:10454000A64209A8F6D1FFF7CDFA41E71BF0800F8C
:1045500004D00134002109A8FFF7C4FA23463246EB
:10456000C0E700BF133A020803D2020800F0FFFFC1
:10457000F8A0080880A4080848A008086A1C0808D1
:10458000BCAF0808012A3FF436AF12F001013FF436
:10459000F2AEB9F1030F7FF45EAF0121EBE609EA59
:1045A000020303F0010338F8134004EA0701B1F5F0
:1045B000805F13D1C4F30B0495F83C10A14202F1C3
:1045C000010409D11BB9314609A8FFF7B1FB284600
:1045D000FEF726FE2246E2E72246C5E6531C514678
:1045E000324609A8FFF795FA2146FDE613A80AF01E
:1045F00053FA129850B1416822460831FBF766FE23
:10460000129B5A681A60119A5A60119395F83C30BF
:10461000002B7FF420AF0D9B002B3FF41CAF0E9BB3
:104620000B981B681093FBF753FE0E98FBF750FE98
:104630000120FBF7CBFD029BDDE9100183E80300BD
:10464000184617B0BDE8F08F022B01D1034908E7E7
:10465000042B03480CBF0349034903E7731C0808F4
:10466000E0AF08089A1C0808AD1C080838B50446D5
:10467000406808B9606038BD4568FBF729FE2846E8
:10468000F7E70000F8B5054630200E461746FBF761
:1046900010FE072D04460570C66001D0012D0FD114
:1046A000B368C3F30F13A38208F00AFA042320614E
:1046B00020202783E384FBF7E3FDE0622046F8BD7A
:1046C000014B5B5DEFE700BF30A5080810B504465D
:1046D000C06AFBF7FDFD2046BDE81040FBF7F8BDC2
:1046E00030B500220446058D954201D8002030BD2A
:1046F000E36A03EBC20043688B42F8D00132F3E770
:1047000070B504460D461646FFF7EAFFC0B9E38CC4
:10471000228D9A4208D30633E06AD900FBF7CBFD1D
:10472000E38CE0620633E384238DE26A591C02EBDA
:10473000C300218502F83360002345604370438045
:1047400070BD034618465B68002BFBD1FFF7C8BF5E
:10475000F8B544680E462CB9F8BD042BFCD10523EE
:104760000370F9E7254628466D68002DF4D0776878
:104770003946FFF7B5FF0028F5D00378043B022B3C
:10478000EAD806253570002239462046FFF7B8FFE3
:104790000378002BE1D105706468F4E7036A1B8B92
:1047A000012B1EBFC3685B18C3607047836A10B5D6
:1047B00004469B6F406A9847238B226A0133918C91
:1047C0009BB29942238338BF938410BD038B013B76
:1047D00010B503830446836A406AD3F8843098474F
:1047E00020460121BDE81040FFF7D8BF2DE9F04F6A
:1047F00085B004460D46984603921BB1CB8A43F020
:104800000803CB82039BEB83236ADA8A42F03002EF
:10481000DA821B78002B46D1A36A2946039AD3F883
:10482000B4604346606AB44605B0BDE8F04F6047E7
:10483000DB6A03EBC60B13F83630053B012B1DD8A2
:104840004FF0000917E0EB6A03EBC90213F83930A7
:10485000062B0ED1DBF804105368994209D1A36AE4
:104860000AF1010ABBF802201B69606A1F46002397
:10487000B84709F101092B8D4B45E4DC0136236A69
:104880001A8DB242D4DCBAF1000FC5D0A36A5246E9
:10489000CDF800802946D3F8B860606A039BB04722
:1048A00005B0BDE8F08F0026B246E8E7836A002134
:1048B00010B50446D3F88830406A9847A36A606A06
:1048C0000F211B6B9847A36A606A0121D3F8CC3093
:1048D000984720460321BDE81040FFF75FBF38B579
:1048E000836A04460022406A5B6C9847A36A606A48
:1048F000D3F8C05000231A461946A8472046BDE801
:104900003840FFF7D3BF836A002289681B6D09090D
:10491000406A1847836A8968DB6B406A184710B59C
:104920000446084611461A46FFF7ACFE236A436068
:1049300000238360E3690BB9E06110BD1A469B68F0
:10494000002BFBD19060F8E72DE9F04F87B00546CA
:104950000C4600AF11B90121116013E011F00306FC
:1049600019D10B79682B19D1CB681B0913608C689E
:10497000002CF0D0012604F00F03022B0DD12109E9
:10498000002EE9D0AB6A0022686ADB6A98471C37C0
:10499000BD46BDE8F08F0026EDE716B9A3681B09F8
:1049A0001360A04658F8043F4FEA132AC14608EBAB
:1049B0008A030AF1FF3BBB6059F8040F0009FCF7BA
:1049C0007DFBBB6883449945F6D10BF1070323F0C7
:1049D0000703ADEB030D0023E946C7F80CD058F8E8
:1049E000040F07F114013B600009FCF77EFB7A69B4
:1049F000014648467A6044F06BFB3B687A680133B5
:104A00004A449A4505D091464FF02E0209F8012BF1
:104A1000E5E75946F868FCF797FAAB6A01460022C9
:104A2000DB6A686A9847002EB1D00834BB689C42A4
:104A3000ADD054F8041F0022AB6A0909686A1B6DE7
:104A40009847F3E731B101F003038268134304BFD1
:104A50000B68836070472DE9F04107461E4659B147
:104A600011F0030510D14B68D8B290420CD14FEA37
:104A700013280C1D454501DBBDE8F08154F8041FE7
:104A800038460135B047F5E738463346BDE8F041D2
:104A900018470000F8B50E4611461A460023044692
:104AA00085780769837003610E4BFFF7D4FF636855
:104AB000BBB9618A51B1228A42B9A36A606AD3F84C
:104AC000A0309847A36A606A1B6C9847238A3146D6
:104AD000628A2046FFF78AFE003D276118BF012544
:104AE000A570F8BD3D53020870B5437805460C46E5
:104AF000012B06D1036A0A4602211B8BFFF70FFF29
:104B00002061A268284621694C23BDE87040FFF768
:104B1000C1BF70B51346427805460C46012A04D140
:104B20000A460721FFF7FBFEA061A6692846462337
:104B3000E2683146FFF7AEFFB08A70BD024B9D229E
:104B40008968FFF788BF00BF49580208024B6B22F3
:104B50008968FFF780BF00BFE173020838B543687A
:104B60000D46044611464BB905480CF033FB294667
:104B700060602046BDE83840FFF764BF38BD00BF25
:104B8000E0AF0808014AFFF7E9BF00BFB11C080801
:104B90000B79092B4FF6FF7370B508BF858A044661
:104BA00018BFC58A9D4202D1064AFFF7D7FF218B65
:104BB000628BA36A8A1A606A29465B6FBDE87040FF
:104BC000184700BFBE1C080838B5054679B101F08A
:104BD0000F03022B0DD10C09204609F0C5FD00285A
:104BE00006DA2246054906480CF08AFB6860002078
:104BF00038BD044AFFF7B2FFF9E700BFD71C080829
:104C000074AF0808DC1C080870B5144605460E464B
:104C1000127883B132B1032A04D0104ABDE8704043
:104C2000FFF79CBF032661682670286AFFF789FD9D
:104C300000B1067070BD62B9012321462370006A7D
:104C4000FFF786FD2378012BF4D1054A314628462B
:104C5000E4E7062AEED0034AE0E700BFEC1C0808B0
:104C6000F91C0808061D08082DE9F341437804469D
:104C70000D46012B1AD10B79102B0CBF4FF00108F8
:104C80004FF0000808D0036A1B782BB9114A02B014
:104C9000BDE8F041FFF762BF01AA6D2105F10800F0
:104CA0000026FFF7F5FA0746B74202D102B0BDE889
:104CB000F081019B0022206A53F826100136090971
:104CC000FFF71EFD4346024629462046FFF79CFF9C
:104CD000EAE700BF0D1D080842780B46012A02D101
:104CE000006A02F00FBE816A026A2031406A02F057
:104CF00018BE42780B46012A02D1006AFFF700BDB8
:104D0000816A026A1031406A02F00BBE70B5054636
:104D10000C4600292DD0CA0706D5836A49105B6B63
:104D2000686ABDE8704018478B0716D004F00F047E
:104D30000909022C0AD0062C0CD0052919D0836A47
:104D4000C9B2406A1B6BBDE870401847BDE87040AF
:104D5000FFF7CFBF836A9B6BE2E7836A0968DB6872
:104D6000406A98472279034B2146284653F822305F
:104D7000D7E770BD38A508082DE9F74F05460C4662
:104D800016461F462046FFF74BF840B16EB9AB6A96
:104D900039469B6E686A03B0BDE8F04F184720465D
:104DA000FFF741F820B1002EF1D103B0BDE8F08F3C
:104DB000002C48D0A30746D163684FEA132BDBB21F
:104DC0001E2B18D1DEB1043404EB8B0B5C45ECD008
:104DD0003B46324654F8041F2846FFF7CDFFF5E75F
:104DE00043465AF8041F2846019209F10109FFF7CA
:104DF000C3FF019A11E01F2B1FD1002EE3D0D5F87D
:104E00000C8004F1040A4FF0000986F0010208F159
:104E10000103EB600BF1FF330093009B4B45DFDC9C
:104E20000BF101013B463246284654F82110FFF7AA
:104E3000A3FFAB6A41469B6AACE7202B03D1A46871
:104E400086F001069EE721462846FFF75FFFAB6A22
:104E50003A463146DB6E686A03B0BDE8F04F18474A
:104E6000026A38B5127804460B46072A06D0022A91
:104E700004D0154ABDE83840FFF770BE9D6885B97B
:104E8000A36A0F21606A1B6B9847A36A0021606ABE
:104E9000D3F8CC30984720460121BDE83840FFF7D1
:104EA0007DBCAB070BD12B79AF2B08D12046A9686D
:104EB000FFF72CFF2046BDE83840FFF7F7BC294636
:104EC0002046FFF723FFE0E71F1D080870B5437871
:104ED00004461546CE68012B06D1036A0A462946C8
:104EE0001B8BFFF71CFD70610023716920461A4679
:104EF000FFF77CFCF1682046FFF708FF062D05D17F
:104F0000A36A0021606AD3F888309847A36A012118
:104F1000606AD3F8BC500023AC461A46BDE8704026
:104F2000604738B505460C46C968FFF7EFFEA16833
:104F30002846BDE83840FFF7E9BE0B79342B70B541
:104F400004460D4610D18968FFF7E0FEED68AD68B4
:104F500085B9A36A0F21606A1B6B9847A36A042274
:104F60000221D3F8A0301AE0836A0F21406A1B6B3C
:104F70009847ECE7AB071FD12B799A2B13D1A36A83
:104F80000F21606A1B6B9847A9680029E6D020466C
:104F9000FFF7BCFEA36A04220321D3F8A030606AA5
:104FA000BDE8704018479B2B06D1A9682046FFF743
:104FB000ADFEEB689968E8E729462046FFF7A6FEB4
:104FC000CCE710B504468968FFF7A0FE0021A36A6C
:104FD000606ADB6CBDE81040184700002DE9F7431C
:104FE0008D68044616465DB9002A75D0836A022290
:104FF0002946D3F8A030606A03B0BDE8F0431847F3
:1050000015F0030740F08A802B79372B13D132B18A
:10501000836A02220121406AD3F8A03098472046D3
:105020002946FFF773FEA36A606AD3F8A43003B081
:10503000BDE8F04318479F2B70D1EB681A79A12A7D
:105040005AD1A22101AA03F10800FFF721F9A968AA
:10505000804621B38B0722D10B79372B1FD136B174
:10506000A36A411C0222606AD3F8A0309847A9685D
:105070002046FFF74BFEA36A4FF00109606AD3F8A0
:10508000A4309847474510D1B9F1000F24D1A36A45
:105090000322791C606AD3F8A03098471CE02046B0
:1050A0004FF00009FFF732FEECE7019B53F82710A1
:1050B000A9B18E0713D10E79A6F1370046424641B9
:1050C0002046FFF723FEB9F1000F11D04EB9184A60
:1050D00029462046FFF742FD03B0BDE8F0830026D5
:1050E000EEE7A36A606AD3F8A43098470137C9E7AE
:1050F000002EFBD00F4AEBE7AB685BB19A0709D1F2
:105100001B79372B06D10422294603B0BDE8F043B2
:10511000FFF7DCBE052229462046F6E72946204651
:10512000FFF7F4FDA36A03220121D3F8A03062E760
:105130002A1D08083B1D08080122FFF74FBF70B564
:105140000D46C9680446FFF7E1FDA968A36AC1F3EB
:105150000711606AD3F89830332916BF3F3902210E
:10516000C9B2BDE870401847F8B54F680C46002634
:1051700089683F0A0C340546FFF7C8FD023608343B
:10518000B74200DCF8BD54F8041C2846FFF7BEFD0A
:1051900054F8081CAB6A0909686AD3F89C302439B2
:1051A000C9B29847EAE72DE9F0414E680C4601275D
:1051B0000546A6F10D08360A54F8081F5FFA88F86C
:1051C000FFF7A4FDB74201DBBDE8F08154F8041FEE
:1051D0002846FFF79BFDAB6A4146686AD3F89C30CE
:1051E00001379847EEE72DE9F0414E680D46896892
:1051F0000446360A0127FFF789FD032E89BFD4F83C
:105200000C804FF0000808F10103E3607B1C9E4214
:1052100022DC032E55D9E568606A6B1C2946E360E1
:10522000A36A9B6E9847A36A4146606A9B6A984747
:10523000A36A0121606A9B689847A36A606A1B6E33
:105240009847A36A606ADB6D9847A36A2946606A3B
:105250009B6ABDE8F0411847023729692046FFF7ED
:1052600055FDB74207DAA36A606A5B6D9847A36A87
:10527000606A5B6E9847EB68A26A03F00F01606A90
:10528000D2F89C200A2911D1C3F30713252B16BF8E
:10529000343B0621D9B29047B74205DAA36A4246A9
:1052A0000021606A1B6F98470835AFE71979852997
:1052B00001D13221EFE79B680BB90721EBE73321DE
:1052C000E9E7BDE8F08110B504468968FFF71EFDE7
:1052D0000321A36A606AD3F89830BDE810401847EC
:1052E0002DE9F0470D46D0F80C800446002755F80C
:1052F000046F5FFA86F9360AA9F11E03D3F100099B
:1053000049EB030908F10103C360B74206DBA36A56
:105310004146606A9B6ABDE8F0471847013755F877
:10532000041F2046FFF7F2FCB742F0DAA36A4246B8
:105330004946606A1B6F9847E7E7000001F00F03DA
:10534000022B70B5044612D00B79492B09D0483B8B
:10535000082B18D8DFE803F00817071717171705E9
:1053600007000123A37070BD8E680D6975B9A3781D
:10537000002BF8D1638A002BF5D020461D4ABDE8EA
:105380007040FFF7EBBBD1E90265EFE7A3783BB3D1
:10539000238A01339BB2012B23820ED1618AD4E987
:1053A0000903D1B1D3F8A03000229847A36A0222A2
:1053B0000021606AD3F8A030984729462046FFF7BD
:1053C000A5FCA36A606A31099B6B9847A36A606A6F
:1053D000D3F8A430BDE8704018471B6C9847E5E748
:1053E000638A2946204601336382BDE87040FFF797
:1053F0008DBC00BF481D08082DE9F041C568044672
:10540000D1F80C800E46AB1C0022D8F808106F1C97
:10541000C3602B46FFF7B0FCB1682046FFF776FC6F
:10542000A36A3946606A9B6E9847A36A2946606AF8
:105430009B6A9847A36A606A4FF0FF319B68984760
:10544000D8F80C102046FFF761FCA36A3946606A61
:105450009B6ABDE8F04118472DE9F047C66804464D
:10546000D0F814A00D46B31C06F10108B0F81A904C
:10547000C360038B8682A0F8168043838868FEF79A
:10548000CFFCF8B9E768A8687B1CE360FEF7CBFCAB
:1054900020B9A36A4146606A9B6E9847A36A394661
:1054A000606A9B6A9847E9682046FFF72FFCA36A69
:1054B0004146606A9B6A98473B460122A96820469C
:1054C000FFF75AFC29692046C4F814A0A4F81A90E2
:1054D000FFF71CFCA36A3146606A9B6ABDE8F0478F
:1054E00018472DE9F347C66804460D46731CC36090
:1054F0008868FEF795FC0246E8B9E7682046A96887
:105500007B1CE3603B46FFF737FC2046E968FFF76A
:10551000FDFBA868FEF787FCD8B92B690BB96B694E
:1055200023B1A36A3146606A9B6E9847A36A3946E5
:10553000606A9B6A984701AA712105F11000002753
:10554000FEF7A6FE81464F450BD169692046FFF75D
:10555000DDFBA36A3146606A9B6A984702B0BDE8EA
:10556000F087019B53F82780D8F80800FEF758FC15
:10557000024600BBD4F80CA02046D8F808100AF167
:105580000103E3605346FFF7F7FBD8F80C10204601
:10559000FFF7BCFBD8F80800FEF745FCD4E9092367
:1055A0000028D6D19B6E314610469847A36A5146D3
:1055B000606A9B6A98470137C5E70000184B2DE9E0
:1055C000F041D3F8307204460D463FBBC668012255
:1055D0008968731CC3603346FFF7CEFBA36A1F21A3
:1055E00001225B69606A9847E96851B12046FFF77C
:1055F0008DFBA36A3A460121D3F8BC503B46606A52
:10560000A847A36A0121606AD3F8C8309847A36A03
:105610003146606A9B6ABDE8F0411847BDE8F081F9
:105620000040022070B58D6804463DB9836A294662
:10563000D3F8C830606ABDE870401847AB070ED198
:105640002B795E2B0BD1A968FFF760FBE968204638
