:020000040800F2
:10000000F8BF01201901020843FB040831FB040872
:1000100045FB040851FB04085DFB040800000000D8
:1000200000000000000000000000000069FB040860
:100030006BFB040800000000EDFD0408E101002056
:10004000010002086DFB040879FB040881FB040829
:10005000ED4D050801000208AD410508B341050852
:10006000B9410508BF410508C5410508451B0508FC
:10007000551B0508651B0508751B0508851B05082C
:10008000951B0508A51B05080100020800000000DB
:10009000000000000000000000000000CB41050847
:1000A00095FB04089BFB0408ADFB0408B3FB0408A4
:1000B000B9FB0408BFFB0408C5FB0408E5200508DC
:1000C000012105081D210508392105080100020844
:1000D00001000208010300200703002000000000C7
:1000E000EF41050873FB040801000208000000004E
:1000F000000000000000000000000000B51B050823
:100100000000000001000208CDFB04080100020805
:1001100000000000000000000000000000000000DF
:10012000C51B0508D51B0508E51B0508F51B0508BB
:10013000051C050800000000000000000000000091
:1001400000000000000000000000000001000208A4
:10015000151C0508251C0508351C05080D03002085
:10016000552105087121050800000000000000006D
:10017000000000000000000000000000000000007F
:100180000000000001000208000000000000000064
:1001900001000208010002080248002343643C30C9
:1001A00000F03AB970040020054B43F82010054BCD
:1001B00001221A60044B4FF080525A60704700BF12
:1001C000A00A0020A40A002000ED00E010F4FF7F48
:1001D00002BF024B0422C3F8002E704700E100E08A
:1001E0000D4B10B51C6801341C604FF0E02304F087
:1001F00001021B69094B53F822300BB12046984786
:10020000074B1B68A34205D1BDE8104005490020FB
:10021000FFF7CABF10BD00BF50090020A80A002088
:100220004C090020A5A8040838B5334B03EB800324
:10023000D3F88441002C37D06368196889B28A06E4
:10024000E18341D5608A00283AD0A28A92B2013275
:10025000B2FBF0F500FB1522E08A92B290422FD05B
:100260001968E1835968A3890B40A17AE9B1234950
:100270000968994219D1FFF78FFFA38BDD0631D4AE
:100280000125637AA28B5B0742BFE38B23F0100347
:10029000E383E38B1A4202D0206A00F0C1F8637A4C
:1002A00035B323F00403637238BDE17AA0690129F4
:1002B000A18A89B20CBF20F811304354A282DCE736
:1002C000DA6822F02002DA60C80642BFDA6822F05B
:1002D0001002DA600A0742BFDA6822F02002DA6010
:1002E0000025CEE76268D36843F01003D360C7E708
:1002F00043F00403D7E700BF700400206804002027
:100300000120FFF791BF0220FFF78EBF0620FFF705
:100310008BBF0000114B70B500220446DA6100F07B
:1003200071F80F4D0646EB68DA030CD4EB68DB0777
:1003300044BF0123EB60E86810F4F97007D000F0C7
:1003400073F8012003E0611CEDD00CB9032070BDEF
:1003500000F058F8801BA042E5D9F7E754090020C7
:10036000003C02402DE9F843DFF8948098F81830FB
:10037000012B05460F463FD001234CF2503088F840
:100380001830FFF7C7FF0446A0B94FF0FF333B60BA
:100390002B68012B14D1287C00F03AF84CF2503035
:1003A000FFF7B8FF154A136923F0040304461361ED
:1003B00000F03EF8002388F818302046BDE8F883A6
:1003C000AE68DFF83890D5E902231344B342EFD981
:1003D000297C304600F030F84CF25030FFF79AFF9D
:1003E000D9F8103023F0FA03C9F8103010B13E608C
:1003F0000446DDE70136E6E70224DEE7003C024082
:1004000054090020014B1868704700BF50090020B4
:100410005FF800F0BDF304085FF800F07DE2020829
:100420005FF800F0FDA204085FF800F06DF2040828
:100430005FF800F029F404085FF800F0E1F3040825
:020000040802F0
:10000000FEE700000F49D1F8883043F47003C1F8CF
:1000100088300D4B1A68002042F001021A60986087
:100020001A6822F0847222F480321A60074A5A60F9
:100030001A6822F480221A60D8604FF000638B6047
:10004000704700BF00ED00E000380240103000248F
:1000500030B5002495B010252A4621460AA80494FC
:1000600029F042FD284B01941A6C42F080521A6428
:100070001B6C03F080530193019B244B029419687D
:1000800041F4404119601B68059403F44043029316
:100090000122029B4FF48033CDE908234FF4800105
:1000A00002230F22CDE90E3112930423CDE90B4533
:1000B00003920825C02213934FF4A05C4FF48053A1
:1000C00008A8CDE91052CDE906C32DF0B5F810B15E
:1000D0000F482FF0F7F9119B109A3021DB00B3FB8A
:1000E000F2F3B3FBF1F201FB1232003A1299B3FBC7
:1000F000F1F118BF012203A82FF042FF08B1054813
:10010000E7E715B030BD00BF003802400070004086
:10011000886405089A6405080446DFF82CD00B496A
:100120000B4A0C4B03E051F8040B42F8040B9A42C3
:10013000F9D300200849094A01E041F8040B914233
:10014000FBD320462FF012BBF8BF01209087060892
:100150004004002070040020700400203C0F0020A8
:1001600040F8044B40F8045B40F8046B40F8047B13
:1001700040F8048B40F8049B40F804AB40F804BB03
:1001800040F804CB40F804DB68467047024B5A69DC
:10019000026058610020704770040020024B5A69C9
:1001A00012685A61704700BF70040020024B9A69C0
:1001B000C0E900219861704770040020044A9369E7
:1001C0001968916110B15A6818461047704700BF0E
:1001D0007004002038B5054D0446AB690BB1A3424D
:1001E00000D338BD0120FFF7E9FFF6E770040020D7
:1001F000C460056146618761C0F81C80C0F820902A
:10020000C0F824A0C0F828B0C0F82CD080ED0C8B2A
:1002100080ED0E9B80ED10ABC0F808E0FFF7B6BF95
:10022000124D6C6908B50CB92FF08CFA606020464D
:10023000FFF7D0FF23686B612046C46805694669F3
:100240008769D0F81C80D0F82090D0F824A0D0F88E
:1002500028B0D0F82CD090ED0C8B90ED0E9B90ED4B
:1002600010ABD0F808E00120704700BF70040020F8
:1002700010B50021044600F0F9FA18B914B120466F
:100280000DF0C6FD10BD002100F0F0BA10B501213F
:10029000044600F0EBFA18B914B120460DF0B8FD91
:1002A00010BDFFF7E5BF10B501220C4600F002FCBF
:1002B00018B914B120460DF0ABFD10BD00F0FABB2B
:1002C00000F0BABB2DE9F0432B4C864600254FF0D9
:1002D000030CD4F89C02002101310EEB01039A08B3
:1002E00003F00303825C5B0042FA03F303F00303B1
:1002F000022BF1D0D4F8A802090100EB0E108E08F1
:1003000089B300EB860603681A0729D1D4F8A8122E
:100310005A1AC2F3011E99424FEA92174FEA4E0E43
:100320004FEA12121CD8D4F8AC12994218D9D4F85A
:100330009C8218F8071041FA0EF303F003030CFA3D
:100340000EF9012B41EA09010AD104EB450E3F2DBC
:1003500008F807109ABF0135AEF8BC22C4F8B832CD
:100360000430B042CFD12DB1013D04EB4503B3F8C9
:10037000BCE2AEE7BDE8F0837004002030B51C4C51
:10038000D4E9A953C01AC109C0F3021E6B5C012253
:1003900002FA0EF223EA02036B54D4F8B022830966
:1003A0004FEA101CB2EB901FD4F89C0288BFC4F82F
:1003B000B032C15C4FEA9C0E0CF0030303255B00D6
:1003C00005FA03F321EA030100F80E100CF1010C09
:1003D000D4F89C024FEA9C0E0CF0030310F80E10A8
:1003E0005A0041FA02F202F00302022AE7D030BDBD
:1003F0007004002021F00F0138B50B1A134A144C79
:10040000013BDB00A2FB03235B0A9A00C4E9A703BC
:100410000546C4F8AC120732A1EB831101331D4429
:1004200003EBD202C4F8A8120021C4F8A45229F0A8
:100430005BFB002301214FF0FF32C4E9AC33C4E978
:10044000D0322381A4F83C1338BD00BFF32C23FA2B
:1004500070040020024A138902331381704700BFE1
:1004600070040020024A1389023B1381704700BFC9
:1004700070040020024B1889003818BF0120704713
:1004800070040020F8B51C4D2B89002243F00103B5
:10049000C5F8B8222B81C5F8402305F1080405F5FD
:1004A000F87654F8043F1A071AD1D5F8A822981AFA
:1004B000C0F3011193424FEA901C4FEA41014FEA09
:1004C00010100DD3D5F8AC22934209D2D5F89C7206
:1004D00017F80C2042FA01F303F00303012B02D0BA
:1004E000B442DED1F8BD03238B401A4307F80C2039
:1004F000FFF7E8FEF4E700BF7004002081B3F8B511
:10050000184E0F46051F002455F8043F1A071AD14C
:10051000D6F8A822981AC0F3011C9A424FEA90110B
:100520004FEA4C0C4FEA10100DD8D6F8AC229A4284
:1005300009D9D6F89CE21EF8012042FA0CF303F028
:100540000303012B03D00134A742DDD1F8BD0323FF
:1005500003FA0CF31A430EF80120FFF7B3FEF2E79B
:10056000704700BF700400202DE9F043614ED6F8BB
:10057000B832D6F89C1283B0C3B1D6F8A0320025A9
:100580009800C6F8B85288B10024A30804F003020A
:10059000CB5C5200134103F00303032B1FD0013443
:1005A0008442F2D3D6F8B832002BEAD1D6F8B4326E
:1005B0004FF000094FEAD3080127D6F8A43213F808
:1005C00009504FEAC9043DB304F00303E8074FEABA
:1005D00094024FEA430314D46D080134F4E7204633
:1005E000FFF770FED6F8A032D6F89C120134B4EBB7
:1005F000830F4FEA8300C8D3D6F8B832002BC0D19E
:10060000D4E78A5C42FA03F303F00303012B09D019
:100610006D0804F10104D7D1C84509F1010326D0C2
:100620009946CAE7D6F8A8C223016A465CF80330A7
:100630004FF445710CEB04105BB10CF085FD009B91
:100640003BB10DF029FEDDE900010DF0FDFD0DF0DF
:1006500039FED6F8A402E30804F00701C25C07FAE9
:1006600001F122EA0102C254D6F89C12D0E7002719
:10067000BE463A46032402250FE0012806D104FABB
:1006800003F32CEA03030B704FF0010ED6F8B432DB
:1006900001329A421FD8D6F89C12900802F0030348
:1006A00011F800C05B004CFA03F000F003000228D0
:1006B00001EB920119D00328DFD105FA03F32CEAEC
:1006C000030C81F800C0D6F8B432174601329A42C2
:1006D0004FF0000EDFD93389002223F00103C6E971
:1006E000AC27338103B0BDE8F083BEF1000FEAD040
:1006F000C5E700BF70040020044B1A89002142F0B6
:100700000102C3F8B8121A81FFF72EBF700400204F
:10071000554BD3E9AA122DE9F043521A0024D3E92C
:10072000A761C0E90144C0E90344C0E9054402608F
:100730004FEA810C22462146A146A6462746254679
:1007400016F809304FEA4E0E43FA0EF303F0030396
:10075000012B02F1010255D0022B24D033BB01370B
:100760009445876004F101046DD04FEA920902F0CC
:10077000030E16F809804FEA4E0148FA01F818F006
:1007800002013BD108F0030894452DD0B8F1010FC8
:1007900004D1C3689C4288BFC46000244FEA920918
:1007A00002F0030ECCE7013545600131944541D09C
:1007B0004FEA920902F0030E16F809304FEA4E088C
:1007C00043FA08F303F003089B0718D401292CD03F
:1007D000022903D1436901334361022183698B42BA
:1007E000D2D294458161D1D1C3689C4200D9C46002
:1007F0002D013F01C0E90157BDE8F083194694453A
:100800009ED1F5E701359445456025D04FEA920920
:1008100002F0030E16F809804FEA4E0148FA01F87B
:1008200018F0020FEAD108F00308036901330361ED
:100830000121D3E701299846F7D00229CAD083695C
:100840009942CED8D0E7C368A342D0D32D013F014F
:10085000C0E90157BDE8F083026901320261826993
:10086000002AC1D18361BFE7700400202DE9F8435D
:1008700000F10F0636093FD06E4C2389E3BBB4F874
:100880003C230D46E2BBD4F8B002D4F8A072B842C3
:1008900032D24FF0010ED4F89CC20138013F6044BF
:1008A00067440021CCF1010818E04A1C964255D952
:1008B00013F00C0F42D18A1C964240F2AA8013F02A
:1008C000300F41D10132964240F2A8803F2B2ED802
:1008D000511C8E4240F2A780B8420AD008EB0009B2
:1008E00010F8013F9A07E0D013F00C0F21D101223C
:1008F000E2E7BEF1000F0FD000231846BDE8F883F1
:10090000D4E9D012914226D2D4F8B002D4F8A07221
:10091000874288BF9E46BED832F0C1FFD4F8B002ED
:10092000D4F8A072B8424FF0010EB4D3E4E700212E
:10093000D2E713F0300F0CD10122C4E703F03002EC
:10094000B2FA82F25209C1E73F2B8CBF002101218C
:10095000C2E70022BAE732F0A2FF94E74FEA890922
:10096000A9EB0201012A01F1010704D109F10103F8
:100970009B08C4F8B032D4F8B4324B4538BF4B466C
:10098000B808C4F8B43207F0030E1CF800804FEA30
:100990004E0E0123023103FA0EF343EA08038945A0
:1009A0000CF8003012D34FF0020E8808D4F89CC225
:1009B00001F003031CF800805B000EFA03F3013121
:1009C00043EA080389450CF80030EED2D4F84033EE
:1009D000D4F8A8823344C4F8403308EB071312015B
:1009E0001846002129F080F8EA074FEA0716034667
:1009F00083D50022D4F8A40248F80620F908012281
:100A0000445C07F00707BA40224342541846BDE849
:100A1000F8834FEA890909F10109A1E74FEA890939
:100A200009F102099CE74FEA890909F103090A461D
:100A300096E700BF70040020034B1A89012A02D8F0
:100A400008B1FFF79BBC704770040020034610F00C
:100A50000F001CD1164AD2F8A812994216D810B429
:100A6000D2F8AC429C420ED95B1AD2F89C429A0949
:100A7000C3F30111A25C49000A4102F00302012AFA
:100A80004FEA131305D05DF8044B70477047002000
:100A9000704701301A18910802F00302615C52009D
:100AA00041FA02F202F00302022AF2D00001EAE760
:100AB000700400202DE9F84F0F460646002800F08C
:100AC000CA80734D2C89002900F09180002C40F0E1
:100AD0009280D5F8A802D5F8A0C2301A030903F114
:100AE000010E0F31BEEB8C0F4FEA11114FEA8C0A49
:100AF00080F0B780D5F89C92A4464FF001084FEAE9
:100B00009E040EF0030B19F804404FEA4B0B44FA15
:100B10000BF404F00304022C2BD02CB90CF1010CC3
:100B20000CEB08048C4226D341455CD065D3C44409
:100B30008C4525D2002A5ED0C209D5F8A412895C62
:100B400003F007031941384601F00101FFF78EFE5B
:100B5000044600284FD04FEA0812314628F080FFA3
:100B60002B89012B02D83046FFF708FC2046BDE850
:100B7000F88F08F101080EF1010EF245BFD1D3E75D
:100B80005C1843449C421FD9980803F0030219F8EB
:100B9000007052004FF0020C01330CFA02F23A439B
:100BA0009C4209F800200FD99808D5F89C7203F0F0
:100BB000030217F800E052000CFA02F2013342EA95
:100BC0000E029C423A54EFD1D5F8B432A1EB0802A0
:100BD0009C4238BF1C46120106EB08100021C5F8E4
:100BE000B44228F081FF34462046BDE8F88F012C3E
:100BF00001D8FFF7C3FB0024B8E75C18A00804F095
:100C0000030719F800E07F004FF0030CA8EB010187
:100C10000CFA07F72EEA0707012909F8007004F11A
:100C2000010410D003EB080EA708D5F89C3204F09D
:100C30000302D95D52000CFA02F2013421EA0202E9
:100C40007445DA55F0D1D5F8B0328342CBD9C5F826
:100C5000B0023446C8E701463846BDE8F84FFFF712
:100C600005BE0129BFD029B14FF00108002A7FF449
:100C700063AFC0E7D5F89C42800903F00303590035
:100C80000322235C8A4023EA02032354DBE700BFEC
:100C90007004002010B58AB0044603A8FFF738FDA1
:100CA000DDE90430039A00900749204600F09EFFDA
:100CB000DDE9083206980549CDE90020079A20466B
:100CC00000F094FF0AB010BD84AF0508A8AF050876
:100CD0002DE9F843DFF858914749D9F8A82207468B
:100CE00000F084FFD9F8A01289006DD0DFF84481AC
:100CF000002515F03F0633D005F003067600D9F83D
:100D00009C22AB08D35C334103F00303022B63D076
:100D1000032B5FD0012B4AD1D9F8A8222B01D2583E
:100D200042455BD0354B9A425AD0354B9A425BD004
:100D3000344B9A4256D0344B9A4253D0334B9A425A
:100D400054D0334B9A4251D0324B9A4252D0324B0C
:100D50009A424DD0314B9A4214BF68224D2227E06F
:100D6000A9421ED9D9F89C022C4602E001348C42DB
:100D700008D0A20804F00303825C5B0042FA03F38C
:100D80009B07F3D0621B7F2A0BD92549920938466D
:100D900000F02CFFD9F8A03224F03F05B5EB830F0B
:100DA00012D220492A01384600F020FFA7E72E2260
:100DB0001D49384600F01AFFD9F8A0320135B5EBCD
:100DC000830F4FEA830194D338461849BDE8F843AE
:100DD00000F053BB6D22EBE73D22E9E75422E7E741
:100DE0004C22E5E75322E3E74422E1E74122DFE733
:100DF0004222DDE74622DBE7F0AF050824EC0508D8
:100E00000CE40508FCF40508CCF4050834E10508F9
:100E1000C0E00508B4E8050850E9050890ED0508AC
:100E20000CB0050828B0050830B00508ECAF05087F
:100E30007004002044F60508064A0346506A1A6802
:100E40004168C1F31E018A4202D3521A1A607047E8
:100E50000068F5E770040020014441F20553884220
:100E600004D398B2012838BF0120704710F8012B35
:100E700003EB43135340F2E7034B044A5A62002248
:100E8000C3F8F421704700BF700400203425060821
:100E90002DE9F04781460F46002943D0FFF7DCFFDC
:100EA000214B5C6A82460CB9204637E094F9073042
:100EB000E668002B06F1FF364FF0000516DB013621
:100EC00004F11808B54215D32468ECE705EB0608D1
:100ED0004FEA580808F106033A4654F823104846EA
:100EE00028F066FE0028CCBF45464646731B012B02
:100EF000ECD8E4E7236933F815309A4510D16369DB
:100F00005B5D9F420CD158F825003A46494628F0CF
:100F100017FE28B96068C0F31E002844BDE8F087BA
:100F20000135CFE70120F9E7700400202DE9F843EF
:100F300080460F46FFF7ACFF002840F09280FF2F5D
:100F400003D9494949480CF063F9494DD5F8F431C2
:100F50007E1CABB1D5E97E1232448A422CD90246BE
:100F600031441846FFF7AAF9D5F8F4310446E0B940
:100F70000246D5F8FC111846FFF7A0F9C5F8F44170
:100F8000802E344638BF80242046FFF77CF9034684
:100F9000C5F8F401B8BB3046FFF775F90346C5F84C
:100FA000F40178BB30460CF033FFD5F8F821324419
:100FB000C5F8F821002BE3D0D5F8FC219C18324469
:100FC0004146C5F8FC2120463A464FF0000828F07B
:100FD00047FD04F8078039462046FFF73DFF81466C
:100FE000686AD0E90262B2422BD376000A2E38BF7B
:100FF0000A26C6EBC6001830FFF745F948B9C5F810
:10100000F401CFE734460022C5F8F841C5F8FC21C9
:10101000D2E700F1180202EB8602696A026102EB74
:10102000460242614A680160C968C0F80C80C2F398
:101030001E020A44416862F31E01C0E901164246DD
:1010400068620169436921F812909F54911D6B6A8F
:1010500043F82140D96858680131C0F31E00D960B7
:101060001044BDE8F88300BFAE640508A8E5050894
:101070007004002010B5044628F074FD0146204697
:10108000BDE81040FFF752BF07B5019001A8FFF778
:10109000D3FE019A036933F8120003B05DF804FB34
:1010A00007B5019001A8FFF7C7FE019B4269D05C1C
:1010B00003B05DF804FB07B5019001A8FFF7BCFE83
:1010C000019B063350F8230003B05DF804FB13B511
:1010D000019001A80C46FFF7AFFE019B4269D25C6C
:1010E0002260063350F8230002B010BD2DE9F8430A
:1010F0001D46002303600B6013602B60164BDFF866
:101100005C905C6A07468846164664B92B6832686C
:1011100013442B60BDE8F883336812F8010B0133E8
:10112000034433600DE04C45F0D03B6801333B6035
:10113000E268D8F800301344C8F800306269E36808
:10114000D1188A42E8D32046FFF780FC2B68246838
:1011500003442B60D9E700BF700400203425060843
:10116000F8B50B4B0B4F5C6A0CB1BC4200D1F8BD1B
:10117000E36804F1180505EB8306B54201D3246842
:10118000F2E755F8042B0449044800F02FFDF4E77A
:101190007004002034250608B664050814D4050838
:1011A00030B50023202511F8012F0AB9027030BD97
:1011B000120600F1010420D513B12023037020464C
:1011C0000B78124A03F07F036BB9013A12F8013F22
:1011D00013F0800F044600F101000BD003F07F03F1
:1011E00023700123DFE712F9014B002CFBDA013BEE
:1011F000DBB2E9E700F8013CE8E7012B04BF05702A
:1012000020460B7800F8013B0223CCE7BD640508BB
:1012100038B54368194403689942054610D9037BE1
:101220001BB1084800210BF0F3FF01F1100424F07A
:101230000704083480682146FFF735F82C60A86061
:1012400038BD00BFA8E5050870B504460E46114636
:101250001546FFF7DDFFD4E901302A461844314630
:1012600028F02EFC63682B44636070BD38B50129FB
:10127000044638BF01210025084621606560FEF75D
:10128000F7FF2573A06038BD38B505460C4601311F
:10129000FFF7ECFF6C6038BD0023C0E90132012389
:1012A000016003737047000038B514460546FFF728
:1012B000DDFF024B2560636038BD00BF49120208A4
:1012C000037B10B5044613B98068FEF7F9FF0023CD
:1012D000A36010BD38B505461020FEF7C9FF2946AA
:1012E0000446FFF7C3FF204638BD10B5044648B199
:1012F000037B13B98068FEF7E3FF2046BDE810408A
:10130000FEF7DEBF10BD000038B5037B04460D4676
:101310001BB1074800210BF07BFF0168806829445E
:10132000FEF7C1FF2368A0601D442560184438BD46
:10133000A8E5050838B504460D46FFF769FFD4E96E
:1013400001301D446560184438BDD0E900239A423D
:1013500010B5044602D10121FFF7D6FFD4E90132CE
:101360000021D154A06810BD10B50C460121FFF733
:10137000E1FF047010BD7F29F8B50C46CEB204D849
:101380000121FFF7D7FF0670F8BD06F03F06B1F563
:10139000006FC1F3871546F0800607D20221FFF7E0
:1013A000C9FF65F03F0505704670EDE705F03F05A4
:1013B000B1F5803FC1F3073745F0800508D203211E
:1013C000FFF7B8FF67F01F07077045708670DBE70F
:1013D0000421FFF7AFFFA40C07F03F0764F00F04F0
:1013E00067F07F07047047708570C670CCE738B52A
:1013F000054608460C4628F0B5FB2146024628461D
:10140000BDE83840FFF720BFF8B54768B942044649
:1014100028BF39460D4611461646FFF7F9FEA36868
:10142000A81959197A1B184428F04AFB6368A06868
:10143000334463602844F8BD43688B422CBF591A7B
:1014400000214160704738B50446154662688A42FB
:10145000084603D929448A4201D8606038BDA36890
:10146000521A1844194428F02BFB63685B1B636015
:10147000F4E70846114629F0BFBA70B5054608469C
:101480000E4628F06FFB044620B102466B682868C0
:1014900031469847204670BD2DE9F74F8A469DF8A2
:1014A000301091460D9A11F0DF0F0746A2EB0905A7
:1014B00052D0302954D1C3F34721002954D05F2999
:1014C0000CBF0526042692FBF6F106FB11210CBF8A
:1014D0002A482B4809B901350132711E92FBF6F4F6
:1014E00006FB14228A1A00EB020813F020023ED0F9
:1014F00005EBD573A5EB63045D10002D3BDDAB461A
:101500005E4532467B683868A8BF5A46414601921C
:101510009847019AABEB020BBBF1000FF0DCB9F17D
:10152000000F05D07B6838684A46514698474D44BD
:10153000002C0DDD2544A642B146A8BFA1467B681C
:1015400038684A464146A4EB09049847002CF2DC6F
:10155000284603B0BDE8F08FDFF828801026C4E7E6
:101560000DF130080126C0E7DFF81C80F6E713F024
:101570000104C2D02C460025D1E700BF28D40508BD
:101580002DD4050833D405081CD405082DE9F04FE7
:1015900093B09246CA07DDE91E761C9C9DF87490B4
:1015A000059380460D460BD48B0703D109687C4B0D
:1015B000994205D028460DF0C1FC450045F00105D3
:1015C00014F0210306D1B9F1300F03D1B742B8BFEF
:1015D00037461E46284610F0DAFE00280DF1280B8B
:1015E0001CDBA00716D52B238DF828300DF129031D
:1015F00022079DF814101FD5BAF1020F10D118461A
:101600004FF0300C00F802CB01F1010C83F801C05F
:10161000034611E0610701D52023E5E75B46E7E7D4
:10162000BAF1080F5BD130201870200645BF01F1D8
:101630000E0058700133023300200EAA1870012EDC
:10164000A3EB0B030B924FF010020693C4F3472356
:10165000C8BF1443CDE90C2014F01002CDE90213E9
:101660008DF82700059245D0CDE900A02B460DAAA4
:101670000CA90BA810F04EFD03782D2B824606D145
:101680008DF827300D9B013B00F1010A0D93012ECF
:101690007ADD0D9D059BB542B8BF35462BB19DF84F
:1016A000273003B10135069B1D4424F00103AF42EE
:1016B000079371DD14F00109A7EB05056DD1202317
:1016C0000195009337494B464A464046FFF7E4FEF2
:1016D0004D460446059B4FF03009C3B936E0BAF1D8
:1016E000100FA9D118464FF0300C00F802CB01F1D1
:1016F000170C8BE70AABCDE900A30DAA2B460CA96A
:101700000BA810F007FD8246C1E700252C469DF886
:10171000273053B100230122CDE900320DF127011A
:101720004046FFF7B9FE013F0444069B5BB100232E
:101730000122CDE900325946069A4046FFF7ACFE39
:10174000069B0444FF1A012ED8BF3E46CDE9009601
:10175000079B0D9A51464046FFF79EFE04444DB14B
:101760002023009300230F4901951A464046FFF7B6
:1017700093FE04440B980EAB984201D0FEF7A0FDF7
:10178000204613B0BDE8F08F059B0794002BBCD119
:101790001D461C463E46D9E7002500249AE700BFB7
:1017A0000CEB05084BA705082DE9F0430746900709
:1017B000984658BFC2F380038DB05ABF5B01DBB2BD
:1017C0002B23164600930A46159BDDF850902121E5
:1017D00003A80AF065FCF20504461FD52E2103A8D4
:1017E00028F006FAD0B9652103A828F001FAA8B9B3
:1017F0006E2103A828F0FCF980B9631C04F13002C3
:101800006A4430336B442E2102F8241C0234302207
:1018100003F8242CA3186B4403F8240C73060ED58C
:1018200004F13002631C0DEB0204252204F8242C81
:1018300003F130026A44002102F8241C1C4616F011
:1018400010051DD09DF80C302F2B4FF0000319D838
:10185000012203A9CDE900323846FFF71DFE09F148
:10186000FF390546013C0DF10D01CDE900893346F4
:1018700022463846FFF710FE28440DB0BDE8F0833D
:1018800003A9F2E703A91D46EFE700002DE9F04F99
:1018900081468BB014464FF000080B461D4613F8E6
:1018A000012B0AB1252AF9D1A94208D26E1AD9F81A
:1018B0000430D9F8000032469847B04429460B78E6
:1018C000002B00F08B8120234A1C03930027134632
:1018D00013F8016B3EB12D2E25D01ED8202E29D015
:1018E0002B2E24D00026154612F8013BA3F130011F
:1018F000092922D92E2B4CD16B782A2B23D00023F7
:10190000154612F8011BA1F1300009281ED80A2043
:1019100000FB031BABF13003F2E7302EE2D147F0BE
:101920001007039601E047F001071A46CFE747F09A
:101930000207FAE747F00407F7E70A2101FB06333D
:10194000A3F13006CFE754F8043B023523EAE37BEA
:101950002B786C2B08BF013595F800A0BAF1000F69
:1019600000F03C81BAF1780F09D8BAF1570F13D8BB
:10197000BAF1470F5AD8BAF1440F00F21D81D9F8D5
:101980000430D9F8000001222946984708F10108DF
:1019900085E04FF0FF3BDBE7AAF15803202BEED8A0
:1019A00001A252F823F000BF331A02087F1902087F
:1019B0007F1902087F1902087F1902087F1902089F
:1019C0007F1902087F1902087F1902087F1902088F
:1019D000851A0208AF1A0208331A0208B91B020856
:1019E000B91B0208B91B02087F1902087F190208F7
:1019F0007F1902087F1902087F1902087F1902085F
:101A00007F1902087F190208331A0208C51A020852
:101A10007F190208ED1A02087F190208331A02081A
:101A20007F1902087F190208331A0208BAF1500F11
:101A3000A5D154F8040B0AF0DF03502B014667D1FF
:101A4000BAF1640F6AD1002880F29D802D238DF8B1
:101A5000173041420A2251230DF1280A0A3B0DF1A9
:101A6000180BB1FBF2FC02FB1C1009288CBFC0183C
:101A700030300AF8010DDA458E4661465DD0724578
:101A8000EFD95AE054F8043B019653B1039B5549F2
:101A9000009304223B464846FFF7FEFC8044691C45
:101AA000FBE6039B009350493B460522F3E754F8BD
:101AB000043B8DF81830039B009301963B460122AE
:101AC00006A9E8E706A954F8040BFFF700FBBBF1F1
:101AD000FF3F014604D0069B9B4538BFCDF818B0A8
:101AE000039B0093069A01963B46D4E754F804AB57
:101AF000504628F037F8BBF1FF3F024602D0584568
:101B000028BF5A46039B009301963B465146C2E7C5
:101B1000BAF1640F97D0BAF1750F2ED02AF00F03E7
:101B200000220F3B8DF81720DBB21022002893D142
:101B300030238DF827300DF1270A17F0100B9DF890
:101B400017302DD0002B35D0039B0093012201923A
:101B50003B460DF117014846FFF79EFC013E8346C8
:101B6000039B00930AAA01963B46A2EB0A02514648
:101B70004846FFF791FC584490E700238DF8173052
:101B80000A226123D2E7BB0705D52B238DF8173036
:101B90000A225123CAE7C7F380035B01DBB2F5E7F2
:101BA000002BDDD006AA9245DAD90AF8013C0AF1E9
:101BB000FF3AD5E79B46D3E7073424F00704F4E85F
:101BC000020134F02DFACDE9006B00EE100A039B00
:101BD0003A4651464846FFF7E7FD5FE740460BB0FF
:101BE000BDE8F08FB88A0508BD8A05080EB403B5B4
:101BF00003AA52F8041B0192FFF748FE02B05DF8F9
:101C000004EB03B070470346007893F90020002AE4
:101C10000ADA00F07F004022104206D113F8012FAB
:101C200002F0C001802904D0704720EA0200520867
:101C3000F2E702F03F0242EA8010EFE7431C184649
:101C40000133027802F0C002802AF8D070470346C0
:101C50000020994200D8704711F8012D02F0C0020F
:101C6000802A18BF0130F4E703460144002099425E
:101C70001A4600D87047127802F0C002802A03F199
:101C8000010318BF0130F2E77F289DBF024B185CAB
:101C9000C0F340000020704743D405087F289DBF53
:101CA000024B185CC0F3C0000020704743D4050805
:101CB0007F289DBF024B185CC0F380000020704756
:101CC00043D405087F289DBF024B185CC0F38010E9
:101CD0000020704743D405087F2809D8064B1B5CB9
:101CE00013F00C0F06D1A0F15F0358425841704722
:101CF000002070470120704743D405087F289DBF0E
:101D0000024B185CC0F300100020704743D4050854
:101D10007F289DBF024B185CC0F340100020704725
:101D200043D4050808B50246FFF7E8FF02EB401070
:101D300008BD08B50246FFF7EBFF404220F01F0048
:101D4000104408BD3038092884BF20F0200007382F
:101D5000704710B502460144E5240020914203D8A3
:101D6000B0FA80F0400917E012F8013B30B103F0FF
:101D7000C003802B11D10138C0B2EFE7BF2B09D9C6
:101D8000F72B09D8DB0803F0060344FA03F303F04A
:101D90000300E3E71B06E1D510BD0020FCE7023994
:101DA00081420B4603D31A880239002AF8D0023345
:101DB000181A40107047B2EB131F70B504464FEA73
:101DC000131019D901EB4001101A03F00F0302465A
:101DD0002646012A0CBF0D880D68013A25FA03F545
:101DE00026F8025B01F10201F3D104EB400434F860
:101DF000023C03B9013870BD0020FCE7F0B5059C3A
:101E00000025121B2E46AC420FD101EB44031746AE
:101E100000EB4404411A9FB904EB420316B124F8C5
:101E200012600233181A4010F0BD31F8157033F803
:101E300015C067443E4420F81560360C0135E2E7D2
:101E40001D8835445D522E0C013F0233E3E7F0B4A8
:101E5000049F00260D463446D11BB7420BD105EB3B
:101E600047030A4600EB4707451B7AB907EB4101D8
:101E7000F0BCFFF794BF35F816C033F81620644461
:101E8000A41A20F8164024140136E6E71E883444CC
:101E90005C53013A24140233E7E72DE9F043079C31
:101EA000DDF828E0DDE908760239154684464FF66C
:101EB000FF78A4EB020955B900EB42011FB10123E1
:101EC00020F812300231BDE8F043FFF768BF31F867
:101ED000024F013D4444264405EB0904A5422ABFB4
:101EE00033F8024B4FF6FF744444744486EA040E00
:101EF00017FA8EF72CF8027B4FEA144E360C3F0C83
:101F0000D9E738B502290446806838BF02210D465A
:101F100018B12368B1EB930F07D96900FEF7C3F935
:101F20002368A06065F39F03236038BD38B504467D
:101F30000C20FEF79DF923682278054602F0010285
:101F4000C3F39D0023F0030313432B6063686B60AE
:101F50004000FEF78DF9A8602268A168C2F39D02D7
:101F6000520027F07DFD284638BD994210B511D3A7
:101F700013D800EB410002EB410209B9084610BD3D
:101F800030F8023D32F8024D1B1B002B02DB04D15E
:101F90000139F2E74FF0FF30F1E70120EFE710B52C
:101FA000044638B18068FEF78BF92046BDE8104042
:101FB000FEF786B910BD70B505460C460221FFF745
:101FC000A0FF002C2B78B4BF0122002262F3000393
:101FD000AA682B70B4BF61422146012388B2090C64
:101FE00014461E4622F8020B03F10103F6D16E607F
:101FF000208070BD0023C0E900338360704728B1A2
:1020000003789B0702D48068FEF75AB9704738B549
:1020100004460D464968FFF774FF2A782378A068C4
:1020200062F3000323706A686260A9685200BDE829
:10203000384027F015BD0A4629B90178426062F39D
:10204000000101707047FFF7B6BF08B5FFF7D2FF78
:10205000BDE80840FFF7EFBF920042F0020210B463
:1020600002600022C0E901215DF8044B1946FFF728
:10207000E2BFF8B59DF8187014461D4604210646C7
:10208000FFF73FFF22462B4627B1002D0CDA6242B4
:1020900065EB4503317867F3000131700021716011
:1020A00052EA030102D1F8BD0027F3E7D6E9011097
:1020B0004C1C746020F81120120C42EA03421B0CE5
:1020C000EEE72DE9F3418DED010A019D0378EA0F5A
:1020D00062F300030370C5F30F4313F4FF4380461C
:1020E0000BD198F8003023F0010388F8003000236A
:1020F000C8F8043002B0BDE8F081B3F5FF4FF0D06E
:10210000C5F3C754A4F17F06002EEADB05D10121F7
:1021100002B0BDE8F041FFF74EBF162EC5F316051D
:10212000A4F16F07D8BFC6F1170645F400054FEAC2
:102130002717D5BFF540963C00260936D4BF344654
:1021400024113946C8BF06F00F06FFF7DAFEC8F8BB
:1021500004702CB1D8F808006200002127F0C4FCFC
:102160004EB1D8F8083005FA06F223F81420C6F16B
:102170001006F5400134A742BCD0D8F8083023F847
:1021800014502D0CF6E72DE9F84304468F18C2F3DE
:102190005B020D46511C9846089EFFF7B2FE23785D
:1021A00068F300032370AC4600221FFA86FEBC458C
:1021B0006046626002D3401BBDE8F8830178A1F15C
:1021C0003003092B0CF1010C05D9A1F14103192BA6
:1021D00012D8A1F13703B342EDD2A06890468146F0
:1021E000B8F1000F0FD100EB420113B120F812300B
:1021F0000231091A4A10DAE7A1F16103192BDAD882
:10220000A1F15703E7E7B9F800100EFB013329F8F5
:10221000023B08F1FF381B0CE2E7F8B5044615460F
:102220001E46C1B1531E1E444FF0FF37E9000F3167
:1022300009092046FFF765FE2378002123F00103FA
:10224000237061600B4645B9A06800EB4101FFF7C0
:10225000A6FD6060F8BD0127E8E700220F2B08DC2F
:10226000307898400243013D92B203F108033E44A6
:10227000F4D1A068013100EB41006160103B20F80F
:10228000022CE0E738B505780B7805F0010203F081
:1022900001030446981A08D1D1E90132D4E90110AA
:1022A000FFF763FEEB0748BF404238BD884210B5D8
:1022B000044601D0FFF7ABFE237823F0010323701F
:1022C00010BD884210B5044601D0FFF7A0FE636838
:1022D0003BB12378C3F3000282F0010262F30003F2
:1022E000237010BD88421FB5044601D0FFF78FFE52
:1022F000626862B901212046FFF703FEA26801234C
:1023000013806360237843F00103237010E0237887
:10231000D9070FD523F00103237001230093A1688F
:10232000ADF80E3008460DF10E03FFF790FD60602A
:1023300004B010BD511C2046FFF7E3FD01230093BC
:10234000D4E90121ADF80E3008460DF10E03FFF778
:1023500055FD6060D6E74B682DE9F04705460E460F
:10236000144603B12AB931462846BDE8F047FFF7C5
:102370004EBE02F10F014FEA111803EB1111FFF7E6
:10238000C0FDD6E9012308EB0207A96807F1004068
:1023900014F00F0400F1FF3008BF10244FEA400989
:1023A00001EB400003EB4203114686464FF0000C60
:1023B000C4F1100409BB6FF001035A4383182CFACF
:1023C00004FCC8F1010820F802C003EB48034FEAFF
:1023D00048021846524227F087FB09F102090346DA
:1023E0004B4417B133F8022D9AB16F6032782B78D5
:1023F00062F300032B70BDE8F08733F802AD4AEAC0
:102400000C0C2CFA04FA2EF802A94FEA0C4C0139F4
:10241000D0E7013FE5E72DE9FF410D464968064653
:10242000144601B132B92946304604B0BDE8F04146
:10243000FFF7EDBDFFF765FDB768D5F808806A685E
:10244000234641463846FFF7B6FC7060297833785A
:1024500061F300033370DB0702460AD50023696885
:10246000ADF80E302009994201D0834204D1814257
:102470000AD804B0BDE8F08138F813509DB10123AB
:102480008142ADF80E3012D904F00F04012338F860
:10249000101003FA04F4013C214206D1BDF80E30BD
:1024A000002BE6D003E00133DDE7ADF80E30012369
:1024B00012B93B807360DCE7009339460DF10E03DF
:1024C0003846FFF79BFC7060D3E72DE9F3410D46DA
:1024D0005768D1F804803B46144606469268A868BF
:1024E0004146FFF742FD01301EBF23462C461D46E4
:1024F00023782A7883EA020318BF4746DB0719D4FA
:10250000791C3046FFF7FDFC6B680093D4E901218C
:10251000AB68B068FFF772FC7060237832780028EF
:102520000CBF002303F0010363F30002327002B01A
:10253000BDE8F08139463046FFF7E3FC6B68009355
:10254000D4E90121AB68B068FFF781FCE4E72DE92D
:10255000F3410F464E68D2F8048014464346314694
:1025600092680546B868FFF700FD01301EBF23469C
:102570003C461F4623783A7883EA020316BFB046EA
:1025800001260026DB0719D508F101012846FFF7CF
:10259000B8FC7B680093D4E90121BB68A868FFF709
:1025A0002DFC686018B1207800F0010070402B7895
:1025B00060F300032B7002B0BDE8F081414628466D
:1025C000FFF79FFC7B680093D4E90121BB68A868F2
:1025D000FFF73DFCE5E74B682DE9F04F0C465168ED
:1025E0008B42154621BF2546194613461C462B78BB
:1025F000DB0785B0064622D4237813F001071ED1ED
:10260000FFF77FFCD4E9011CB068AD683B469942F6
:102610000CD100EB4101FFF7C2FB00237060327860
:1026200063F30002327005B0BDE8F08F35F8132077
:102630003CF81340224020F813200133E7E7013132
:102640003046FFF75EFC2F782378D5F804C0B068D9
:10265000A26887EA0301C94301F0010E41F30001BA
:1026600089B207F0010947F300070291B9B201915D
:10267000A968A1F10208616803F0010A43F30003AD
:102680009BB2A1EB0C0100936746834603918FB97F
:1026900000EB4C01BEF1000F03D0012320F81C30E9
:1026A0000231FFF77CFB706022782B78C2F30002C6
:1026B0001340B4E738F8021F019B5940039B013FC8
:1026C0008944D9198F4225BF32F8021B009B00991B
:1026D00059408A44029B09EA0A0159401EFA81F1D5
:1026E0002BF8021B4FEA1A4A4FEA19494FEA114EDA
:1026F000CDE72DE9F84F4B680D4651688B421446E3
:1027000021BF2C46194613461D462378DB07064693
:1027100031D42B7813F001072DD1FFF7F2FBD5E967
:10272000012EA0686468D6F808C0A41A3B469A42F5
:1027300013D10CEB4203214600EB4202ACEB00004C
:10274000A1B903EB4403A3EB0C035810337870607A
:1027500061F300033370BDE8F88F30F813103EF8D2
:10276000135029432CF813100133E0E71588155254
:1027700001390232E4E701313046FFF7C2FB277826
:102780002B786168B068A468D5E901E203F001091B
:1027900047F3000543F3000307F00108ADB29BB215
:1027A000A4F1020C0F4683464FF0010AAEEB010E76
:1027B0002FB900EB4101FFF7F2FA0121C6E73CF81F
:1027C000024F013F6C40A0440EEB0704A7422ABF12
:1027D00032F8024B1C465C40A14448EA0904E44339
:1027E0001AFA84F42BF8024B4FEA19494FEA1848B9
:1027F0004FEA144ADCE74B68F0B50D4651688B424E
:1028000024BF19461346144624BF2C461D4627787C
:102810002B785F4017F0010785B0064636D1FFF7E9
:1028200070FBD4E901212478B06814F00104D5E9E3
:10283000015324D1521BA54212D101EB450314468A
:1028400000EB4505411AACB905EB4201FFF7A7FAC9
:1028500000273378706067F30003337005B0F0BD74
:1028600031F8147033F814C087EA0C0720F814709C
:102870000134E0E71F885F52013C0233E3E7CDE912
:102880000277CDE90057FFF708FBE1E70131FFF7D9
:1028900038FB2B78DB4303F0010303932378DB43FE
:1028A00003F001030127029301976B680093D4E9B9
:1028B0000121AB68B068FFF7F0FACAE72DE9F04FE5
:1028C0004B6885B004460E4615460BB1536843B9B4
:1028D000237823F0010323700023636005B0BDE873
:1028E000F08F81422DD1FFF721FBA5420646074616
:1028F0002ED06B68716820461944FFF702FB2268EE
:10290000A068C2F39D025200002127F0EDF8B368E1
:10291000D4F808E0D6F804900193AB680293002243
:102920006B6803930EEB4908F4461146039B9342F0
:1029300033D0DDF804B0CDF80090ACF102000023F4
:102940001AE0824206D1FFF7F1FA05460746D0E7C2
:102950000546CEE70027CCE730F802AF53441946CE
:10296000029B3BF802AB33F8123003FB0A130099C9
:10297000038001391B0C009100990029ECD14146DC
:10298000881C13B1A8F800300146A1EB0E014910D4
:102990000CF1020C01328046C8E761602A78337876
:1029A00053402278384663F30002227005B0BDE838
:1029B000F04FFFF7F4BA4B6870B50546144613B1F3
:1029C0001378DA0706D52B7823F001032B70002348
:1029D0006B6070BD636823B9BDE870400121FFF7EB
:1029E000EABA0846FFF7A2FA06462046FFF79EFA23
:1029F000012104462846FFF7DEFA636883B1A36825
:102A00001B88DB0704D5324629462846FFF756FFC8
:102A1000D4E9012101230846FFF7CDF9606038B9F8
:102A20003046FFF7BCFA2046BDE87040FFF7B7BA62
:102A3000324631463046FFF741FFDEE72DE9F04FE1
:102A40000C4651688FB09346013105460393FFF75A
:102A500058FADBF80420A86801325200002127F060
:102A600043F82B78002623F001032B706E60DBF80F
:102A7000041020460131FFF744FA59462046FFF77B
:102A8000C6FA039BD4F80890D4F80480D3E9013740
:102A90000293AB6804933A46029B41464846FFF7CF
:102AA00064FA002833D1049A6060012313806B60BC
:102AB00023786268002A0CBF002103F0010161F352
:102AC0000003039923709BF8003009784B40DB0723
:102AD00040F1FD806B682978003B18BF012363F348
:102AE00000012970002A00F0F2800BA84FF0FF319E
:102AF000FFF7ABFA0BAA29462846FFF7E6FC039A34
:102B0000214620460FB0BDE8F04FFFF7DEBC013094
:102B100001D16E60CCE7029B03F10042013A4FEA1B
:102B2000420A37F8121033460E0403F101004ED565
:102B30009BB209EB48014FF0000C08F10100C3F112
:102B4000100629F818C0019160600231CE46059642
:102B50008E4540D337F812209A400592029A012AF6
:102B600009D907EB0A02C3F1100132F8022CCA405E
:102B7000059911430591029A801A6860049A00F140
:102B80000040013802EB400207920AF1020209926A
:102B9000BA1E0892D4F804A0029A524529D30AF129
:102BA000004A0AF1FF3A09EB4A0A0022C3F1100079
:102BB000D14573D96FF000416B682BB104985A1856
:102BC00030F81220002A73D06FF0004175E0490000
:102BD00089B20346A8E7BEF8008008FA03F64CEA7B
:102BE000060C059E2EF802CB28FA06F81FFA88FC80
:102BF000AEE7019A0198118832F8022C42EA0142AC
:102C00000599B2FBF1F20999411A06910899069FBC
:102C100000200E4686460199B9420DD8098808441D
:102C2000A8BB079921F80229019A0791023A01925B
:102C30000AF1FF326260ADE736F8021FB7F8008094
:102C4000994041EA1E4E1FFA8EF1514318FA80F85E
:102C50001FFA81FC090CA8EB0C0CC1EB204127F8F2
:102C600002CB01EB2C40D6E738F8021F994041EA2D
:102C70001E4EBCF80010394411FA8EF12CF8021BDC
:102C80000F0C01996145EFD83844013AC8E7002795
:102C9000DDF82080DDF818C0BE46F2E7BAF8001073
:102CA00041FA03F6324381402AF802298AB27FE7CB
:102CB000013B6B6080E7013B63606368002B3FF47E
:102CC000F7AE5A1839F81220002AF4D0F0E60FB007
:102CD000BDE8F08FF0B51F464B6885B004460D4641
:102CE00016464BB11378DA0706D47B68012B0BD15B
:102CF000BB681B88012B07D1237823F001032370C5
:102D00000023636005B0F0BD01212046FFF753F9B1
:102D10007368002BF6D02846FFF708F905463046C1
:102D2000FFF704F90023CDE90133064603937368E6
:102D3000B3B1B3681B88DB070AD52A462146204673
:102D4000FFF7BCFD3B462246214601A8FFF776FE71
:102D5000D6E9012101230846FFF72DF8706058B924
:102D600001A8FFF74CF92846FFF719F9304605B0DE
:102D7000BDE8F040FFF713B92A4629462846FFF779
:102D80009DFD3B462A46294601A8FFF757FECEE7A0
:102D900010B5D0E90121034601EB42020020914227
:102DA00004D31B78DB0748BF404210BD32F8024D08
:102DB00044EA0040F3E730B5D0E90124002304EBF6
:102DC0004202944206D30278D20748BF5B420B60AE
:102DD000012030BDB3F5004F04D232F8025D45EA60
:102DE0000343EEE70020F4E72DE9F74FDDF830C0AC
:102DF000019206460F4609B30CEB0300D6E90189A0
:102E0000012400211A46A2468E46B8F1000F17D1C0
:102E10000199002945D0002A43D1002B41D0002F31
:102E20003BD09CF800302CB13478DB4384EAD314D7
:102E300004F00104204603B0BDE8F08F6046DDE7F2
:102E400039F8025B0EF1100E45EA0141BEF1070FA1
:102E500002DC08F1FF38D8E796F800B08DB21BF01D
:102E6000010F1FBFED435AFA85FA1FFA8AF5CAF31C
:102E7000072A42B91CB1EDB2B5FA85F46409AEF186
:102E8000080E090AE2E7EDB227B100F8015C01384B
:102E9000013AF4E700F8015BFAE7634413F8013CF8
:102EA000C1E7337813F0010F14BFFF210021002F79
:102EB00018BF604626F018FEBCE70000D0E90132DA
:102EC0009FED0C0A9FED0C7A02EB43039A4205D367
:102ED0000378DB0748BFB1EE400A704733F8021DA4
:102EE00007EE901AF8EEE77AE0EE077AB0EE670A9E
:102EF000ECE700BF00000000000080472DE9F74F1D
:102F00000A2944689DF830A00D9E154614BF04227E
:102F10000322804689460092A4B98DB1013D324614
:102F200015F8011F134641B930221A70002203F828
:102F3000012F981B03B0BDE8F08F02F8011BEFE7EB
:102F40003346F1E7640020460193FDF791F9D8F884
:102F500008102246074626F083FD019B3046B34603
:102F600007EB040C3A3BACF102040021A742A64651
:102F70001DD9303139295C4688BFC91804F8011BB6
:102F800039468C458E461DD83846FDF799F965BB04
:102F900098F80030DB0744BF2D2304F8013B33468B
:102FA000621E9A4233D800232370A01BC2E7BEF8EA
:102FB00000E04EEA014EBEFBF9F124F8021909FBCC
:102FC00011E1D3E7BEF800200231002AD9D0BAF1CE
:102FD000000F08D0009A211A914204D10BF102048B
:102FE0008BF801A02046A346BDE7284626F0BAFD8F
:102FF00029185A460B46AB4204D88D4288BF0020A0
:103000000444C5E713F8017D02F8017FF3E719785E
:10301000107803F8010B02F80119C2E7D0E9023277
:1030200093423DBF5A1C826018784FF0FF307047C2
:103030000368013B033310B5044602D84068FDF72E
:103040003FF92046BDE81040FDF73AB9F8B505460E
:1030500010200C461F461646FDF70AF9054B846002
:10306000C0E900743444C4606B60034B2860AB60FB
:10307000F8BD00BF1D3002083130020802690A2A7B
:10308000F8B504461BD18369013383610123E361F1
:10309000237D2361637D237500260A27256EB5B144
:1030A0006B1CA26D2366555D626D934201D366650C
:1030B0002666237D0D2B14D0BDB16575F8BDC3699F
:1030C000092A04BF073323F007030133DFE7D4E9FC
:1030D00001039847431CECD0012838BF0120054666
:1030E000E7E70A2D2775D9D0E6E7237D002BE4D04A
:1030F0000A2B18BF0A25E0E701692729024601D0FB
:10310000222912D1012024E0137D272BFAD0222B73
:10311000F8D0722914D1662B16D1507D2728F1D012
:10312000A0F12203584258417047A1F162001328D0
:1031300004D8084B034113F00100E5D0002070478C
:10314000662904D1722B00E0622B02D1E5E76229E7
:10315000F8D07047EEFFF6FF38B504460D462069FB
:10316000D0B10A2806D10DB1636AB3B12046FFF78A
:1031700085FFF4E7FEF788FD0028F7D12369232BAC
:1031800008D12046FFF77AFF2369002BE7D00A2BEE
:10319000F7D1E4E75C2B02D00025284638BD237D1B
:1031A0000A2BF9D12046FFF769FFDFE72DE9F04F41
:1031B0000023044685B001214364FFF7CDFF276A51
:1031C000A3696363002FE369A36307DA072384F825
:1031D0003C300137276205B0BDE8F08F04D00623EC
:1031E00084F83C30013FF5E7002835D039462046C9
:1031F000FFF7B2FF052384F83C30D4E90B3003F12C
:103200000042013AE56930F81220013D9542E2D0D2
:1032100009D8013B30F81320954218D3DBD00223A4
:1032200084F83C30D7E7A16A8B4207D308314900C4
:10323000FDF739F8A36A20630833A362E36A5A1CD6
:10324000E26220F81350236A01332362C3E7226A43
:10325000E362013A2262DCE7256915B984F83C5043
:10326000B9E72046FFF748FF0646002800F00C8229
:1032700084F83C702369722B6CD008D8622B0CD078
:10328000662B71D0B9460025A8460B230EE0753B8E
:10329000D3F1000949EB0309F5E7237D722B4FF0C9
:1032A000000569D0A8464FF001090C2394F83C2092
:1032B000002A6AD184F83C30B9F1000F08D02046CA
:1032C000FFF7DCFEB9F1020F02D12046FFF7D6FE70
:1032D0002369222B0CBF2223272320460193FFF7CB
:1032E000CDFE2369019A934240F08680237D93426C
:1032F00040F082802046FFF7C1FE2046FFF7BEFE69
:103300004FF0030935B1A36E23B9A64904F1640057
:10331000FEF76DF804F140034FF0000B02932169B2
:10332000002900F0A881B9F1010F02D10A2900F0AB
:10333000A281CB4563D3594604F14000FEF77CF8E7
:1033400001212046FFF708FF2046FFF7D5FE0028A1
:1033500090D11CE0237D622B0DD0662B10D0002570
:10336000B0464FF0010990E7237D722B354608D017
:103370004FF00008F5E70025B0464FF0020994E74A
:103380003546B0464FF002097FE79A4294D0A36ECB
:10339000002B3FF420AF292104F16400FDF7E4FF86
:1033A000236E04F15006002B40F06B810321304660
:1033B000FDF7C0FF23690370237D4370637D837035
:1033C000D4E91A57216E2A463046FEF71DF82A46E0
:1033D000394626F045FB0023A366236EA26D581CD8
:1033E0002066D15C2161991C2166105C2075033335
:1033F0002366535C6375EEE64FF0010982E7019B9B
:103400008B4209D1029819460BF1010BFDF7B3FF6E
:103410002046FFF733FE82E7002D60D15C2940F0A3
:10342000278120460391FFF729FED4F810A00399C5
:10343000B8F1000F6CD00298FDF79DFFD346D2E0A3
:1034400004F1640B28215846FDF78EFFD4F868A0DC
:103450000022216979B172BB3A290CD07D290AD0AA
:10346000212928D1207D7238012829D8607D3A2869
:1034700001D07D2824D1D4E91A21881810F8010C34
:103480003D2809D1A2EB0A02514404F14000FDF7A6
:10349000DBFEA26E013AA266924508BF042358469D
:1034A00008BF84F83C302921FDF75EFF2C215846E7
:1034B000FDF75AFF24E021F020005B280AD10132F9
:1034C000C9B258460392FDF74FFF2046FFF7D6FDDD
:1034D000039ABEE75D2808BF02F1FF32F0E77B29BF
:1034E0009CD120460391FFF7C9FD23697B2BA7D10F
:1034F00004F140000399FDF737FF2046FFF7BEFDBA
:103500007B2104F14000FDF72FFF4FF0000B06E791
:10351000BAF1780F09D8BAF15B0F0AD8BAF1220FC5
:1035200053D029D8BAF10A0F23D05C2104F140000E
:1035300082E7AAF15C021C2A73D8DFE802F0467227
:103540007272728A2A7272723A72727272727272C3
:10355000307272720F722D3D37725C004FF00D0B9E
:1035600094F83C300B2B77D1594604F14000FDF71D
:1035700002FF4FF0000B4BE7BAF1550F1CD0D4D827
:10358000BAF1270F21D0BAF14E0F4AD106480AF0FE
:1035900021FE4FF0080BE3E74FF0090BE0E74FF097
:1035A0000A0BDDE7088B0508118B05084FF00B0BA4
:1035B000D6E74FF00C0BD3E794F83C200C2A06D149
:1035C0005C2104F14000FDF7D6FED346C8E7BAF10E
:1035D000750F14BF4FF0080A4FF0040A4FF0000BAC
:1035E000BAF1010A0AD2BBF5881FB9D34FF0010323
:1035F00084F83C30BDE74FF0020AEFE72046FFF7C2
:103600003DFD226903921046FEF75CFB002800F0A6
:103610005081039A1046FEF795FB4FEA0B1B83443B
:10362000DEE7AAF1300BBBF1070F3FF67EAF4FF09C
:10363000030A06E02046FFF721FD2269303A02EB3B
:10364000CB0B227D303A072ACDD8BAF1010AF1D14D
:10365000C9E74FF0070B83E7BBF1FF0FC6D80C2B70
:10366000C4D15FFA8BF104F14000FDF77DFE80E7E5
:103670000298C9B2F9E7CB453CBF032384F83C303C
:1036800059E6033B23669BE62846FEF707FB2169C4
:10369000D8B95F2919D07F2917D80846FEF708FB4B
:1036A000002855D123692E2B4DD0844D00262F782C
:1036B0001FB12369BB4240F0A4802046FFF7DEFC27
:1036C000002F40F0A6800123AAE5082384F83C30AF
:1036D00004F14005C9B22846FDF746FE2046FFF733
:1036E000CDFC2069D8B92846FDF72FFE744F064659
:1036F000002557F8041B304626F042FA00281CD15A
:103700000E35EDB2112D84F83C507FF464AD6D4B55
:10371000D3F80032002B14BF0E23102380E5FEF7F0
:10372000BDFA40B920695F2805D07F2803D8FEF78D
:10373000BFFA0028D7D0217CCDE7FFF64CAD01358C
:10374000242DD6D147E5207DFEF7B2FA0028ACD073
:1037500021692E292AD10A2384F83C30002504F15E
:1037600040063046FDF707FE2046FFF787FC0A2794
:10377000206900283FF42FAD55BB20F02003452BD6
:1037800026D16521304684F83C70FDF7F4FD2046D3
:10379000FFF774FC21692B2901D02D29E8D130468F
:1037A000FDF7E9FD2046FFF769FCE1E70923302931
:1037B00084F83C30D2D1237D43F02003623BDBB25E
:1037C000162BCBD8404DDD4015F00105C7D1C5E71C
:1037D000FEF764FA28B121692E290DD184F83C70D6
:1037E000DDE72069FEF764FA0028F4D123692E2B67
:1037F000F1D05F2BD6D0EEE421F020034A2BCED1BE
:10380000ECE7652F01D0632F00D10135013601357A
:103810004DE7212F08D123693D2B7FF454AF20467B
:10382000FFF72CFC3923FBE42E2F0FD123692E2B1D
:1038300002D1237D2E2B01D05C23F1E42046FFF73B
:103840001DFC2046FFF71AFC0D23E9E4033533463F
:1038500015F8027C632F18D0652F16D01B4AD35C55
:1038600084F83C30543BDBB2052B3FF6B4AC01226C
:1038700002FA03F313F02A0F18D113F0150F3FF4D7
:10388000AAAC636A13446362A5E415F8012C2169AC
:10389000914206F1010607D12046FFF7EFFB3346C0
:1038A000652FDBD00235D3E7632FFAE7636A013B6C
:1038B000E9E7012384F83C30834651E6C38A0508D2
:1038C000C4D40508700400200120400054D5050828
:1038D0007FB5064601AD742085E80E00FCF7C8FCF4
:1038E0000446034695E8070043F8046B83E80700A5
:1038F00001236FF001020025C4E906320A22C4E95F
:103900000A23C4E908551420FCF7B2FC20212063E7
:1039100004F14000FDF7AAFC294604F15000FDF730
:10392000A5FC294604F164002566FDF79FFC236B86
:1039300020461D802561A582FFF7A0FB2046FFF7EA
:103940009DFB2046FFF79AFB2046FFF72FFCA36B59
:10395000012B06D094F83C30052B1CBF062384F8BD
:103960003C30204604B070BD30B585B001AC054692
:103970002046FFF76BFB94E80E002846FFF7A8FFF0
:1039800005B030BD30B585B001AD044601462846CE
:1039900020F0ACFC95E80E002046FFF799FF05B03B
:1039A00030BD10B50446B0B1C3684068984704F113
:1039B0004000FDF785FC04F15000FDF781FC04F1A7
:1039C0006400FDF77DFC206BFCF77AFC2046BDE827
:1039D0001040FCF775BC10BDD0E90432013B036117
:1039E00052F823007047036942695B1A013B52F8A1
:1039F00023007047F8B5446A06460D46B4B1D4E9D1
:103A000000030B44834222D908310022014420469E
:103A1000FCF754FC0246B8B9616820460831FCF74F
:103A20004DFC63682360336A63603462802D2F46E7
:103A300038BF802707F10800FCF71AFC0023076055
:103A400043600446706202E023682B442360606890
:103A50000544656008342044F8BD38B50D460C2196
:103A60001446FFF7C7FF4FF49D72C0E901240560BB
:103A700038BD38B5D0E903329A4204460D4608D322
:103A8000103399004069FCF70EFCE3686061103365
:103A9000E360D4E90432591C216142F8235038BD57
:103AA000F8B504461D46D0E9000383420F4616468A
:103AB00008D31030C100A068FCF7F5FB2368A060B4
:103AC00010332360D4E90103421C626053F83010C4
:103AD00067F3170143F8301003EBC002D67055604E
:103AE000F8BD10B48469CAB20023616B5DF8044B61
:103AF000FFF7D6BFF0B593B0044668460E461746AA
:103B00001D46FCF775FB10B1002013B0F0BD3A461E
:103B1000314620460AF098F90446FCF73FFBA3071C
:103B200003D12268024B9A42EED02C600120ECE7D0
:103B300020E2050810F00102034604D040F0010322
:103B40000B6001207047A8B110F0030013D11A795F
:103B50003A2A11D19B680B6013F00100F1D19A074A
:103B60000AD11868054B9842EBD0054BC31A58424E
:103B70005841704770471046704700BF0CEB05086E
:103B8000B4E8050810F001021CD110F003030CD0BA
:103B900000F00F03062B15D00A2B11D100090D38A8
:103BA00003288CBF00200120704770B102793A2AA7
:103BB00008D02D2A08D18068B0FA80F040097047FB
:103BC000104670470120704718467047C20702D55B
:103BD00040F001007047830710D0030900F00F0088
:103BE000062803D1D80040F002007047A3F10E0070
:103BF000022809D8064B53F82000704730B10379EA
:103C00003A2B03D1806870470248704702487047DA
:103C100080D50508D4F1050808F6050838B505462D
:103C20000C46FFF7AFFF38B12846FFF7CFFF0BF088
:103C3000C9FA031B5842584138BD2DE9F0410F46DF
:103C400005461446114689B9204612F06FFE01461A
:103C500000F10808A4B90A4628463946FFF7FDFED8
:103C600001462846FFF705FF012007E001392846F5
:103C7000FFF7B9FEFFF786FF0028E4D1BDE8F08129
:103C80002846FFF7A9FE0646FFF7A0FF013C48F8CB
:103C90002400002EDED0B307DCD1686A00F10803EF
:103CA0009E42D7D3426813449E42D3D273681B0A04
:103CB0000233A2EB83024260CCE70000F7B58669CD
:103CC00096F83C20A2F1080305460F46042B52D873
:103CD000DFE803F003232B384C00D6E91110FDF781
:103CE00025F9902F04460ED1C100002241F00201B7
:103CF00005F128000AF014FE28B14268D3071CD54C
:103D000042F0010002E0200140F002000146284696
:103D100003B0BDE8F040FFF7ACBE0022D6E91110B9
:103D2000334608F003FC0246E8E70096D6E9111096
:103D30000023012208F032FD0246716B2846FFF78E
:103D40008CFEE3E7D6E911100A2906D8FDF7EEF854
:103D500030B1000140F00600D8E7FDF799F8F7E729
:103D6000D6E91121064810F0C9FEE5E7D6E91110A1
:103D700010F0A4FFE0E7120142F00A00C6E700BF1E
:103D8000FCF4050810B5FFF7D5FE50B10B6813F031
:103D9000010007D19A0704D11868034BC31A58428F
:103DA000584110BD0120FCE70CEB05080021FFF78E
:103DB00035BF0121FFF732BF2DE9F04F2D2A85B025
:103DC0000446884616461D460BD10021FFF70BFE20
:103DD000C0B1820702D10379922B13D005B0BDE8A0
:103DE000F08F922A2ED10021FFF7FDFD014648B148
:103DF000830707D14768FBB2952B18D12046FFF700
:103E0000EBFD013DA6F12303DFB2092F00F2EB80A9
:103E1000092B00F2CF80DFE813F0ED00ED00ED009C
:103E20001E011E011E014501ED00CD008F01962BE4
:103E3000E8D127F0FF07204647F09207FFF7CCFDB7
:103E40004F60CBE7962A13D1D0E9012303EBC203DD
:103E5000013513F8153C2D2B40F0AD802A46FFF7B5
:103E6000ECFE002800F0A7806368023B6360B5E7C2
:103E7000A2F11E03012B5FD9202A00F08380052ABE
:103E8000C0D10021FFF7AFFD0746002800F0938066
:103E900010F0030A05D1436803F0FE03562B00F02F
:103EA0008A8001212046FFF79EFD00F00F03022BC0
:103EB00040F08180BAF1000F7DD13B792C2B7AD173
:103EC000BB6803F00F02022A75D11B09482B72D17F
:103ED000FB68002B6FD09A076DD11A79302A6AD10E
:103EE000D3F808B04FEA10195846FFF74BFE0028E8
:103EF00040F0FD80B749B8480DF08AF8A1693A68EA
:103F00000968054653460DF065F92846FCF788F91F
:103F10001E2E0AD1FFF74DFF18BB3846FFF746FFAC
:103F200000B9D3460BF1FF3A0BE0FFF73FFFC0B9F2
:103F30003846FFF73EFFF3E705F1FF3A8DB1AB4698
:103F4000A94609F1FF3949462046FFF74CFD236990
:103F50006269A3EB0B03074642F82300B9F1000F97
:103F6000D6D10021514508D16D1A012D3FF436AF4D
:103F7000362E00F04281332E3DE12046FFF72CFD26
:103F80000131EFE70021FFF72EFD0746FFF70EFF97
:103F900068B93846FFF70DFF68B1EA212046FFF700
:103FA0001BFD204605B0BDE8F04FFFF762BD4FF4A2
:103FB0008571F3E72B26A91C89002046FFF71AFD1F
:103FC00046EA05230746C0F80080436000F1080177
:103FD000002D40F01B81962E03D139462046FFF775
:103FE00048FD3946DDE7922E00F0FE80062E00F0F7
:103FF0000481BDE7691E2046FFF7F5FC01A9FFF724
:1040000099FD0028B7D0022F9ABFA6F10D095FFADB
:1040100089F94FF02209AF1E002F09DA002D40F078
:10402000CD80019AD30740F1CE8042F00101B8E77C
:1040300039462046FFF7D7FC02A9FFF77BFD002891
:1040400099D0DDE9011201AB4846FFF753FD002886
:1040500091D0013FE0E7691E2046FFF7C4FC01A9AB
:10406000FFF768FD002886D0AF1E002FD6DD791E31
:104070002046FFF7B8FC02A9FFF75CFD00283FF4DB
:104080007AAF39462046FFF7AEFC00092438DDE957
:10409000011201ABC0B2FFF72DFD00283FF46BAF5A
:1040A000023FE2E700212046FFF79DFC01A9FFF750
:1040B00041FD00283FF45FAF01212046FFF793FC4C
:1040C000C0F30710332801990BD1CF0707D4880715
:1040D0007FF451AF0A68414B9A427FF44CAF022003
:1040E00001E03F38C0B209F0EDF8019096E758467C
:1040F000FFF76CFD4FEAC9030A46074643F0020189
:1041000004F128000AF00CFC47604846FCF7D3FF96
:1041100003785F2B204608D1FFF75EFC0025204680
:10412000FFF75AFCA84608266CE6FFF755FC5946EF
:104130002046FFF79EFC3EE701212046FFF753FC97
:1041400000F00F03022B07467FF415AF0021204635
:10415000FFF749FC00283FF40EAF10F003027FF494
:104160000AAF0379322B7FF406AF3909C900D0F8C2
:1041700008901B4841F002010AF0D2FB00283FF4EE
:10418000FAAE406802AA4FEA191108F0DDFF029B5F
:10419000002B3FF4F0AED9070AD49A077FF4EBAEB8
:1041A0001A680E498A4203D00E498A427FF4E3AE70
:1041B000039A002A7FF4DFAE01932FE72046FFF732
:1041C0000BFC013D2AE729462046FFF746FC014645
:1041D000E7E600BFAA8B050860E505080CEB0508BB
:1041E0008CD50508B4E80508D4E9012303EBC20324
:1041F00013F8053C2D2B7FF4DEAE2A4641462046BF
:10420000FFF71BFD00287FF4E9ADD4E62046FFF759
:10421000E3FB013D41F82500DAE600BF03460068F4
:1042200030B550B184070AD14468E5B28D4206D159
:1042300000F10803200A136030BD0346FBE70120AC
:10424000F9E700002DE9F04FA94B97B0CDE9073110
:1042500002900D4605A8A74901920024FBF7A6FF8E
:1042600040234FF40070CDE90934FCF701F8202316
:104270000B908020CDE90C34FBF7FAFF2146CDE905
:104280000E0513A8CDE911440AF014FB019B002B85
:1042900048D0022B0CBF3F2222460023696B964F69
:1042A00009A8FFF7FDFB00230A9C002C00F06481A5
:1042B000013C0B9991480A9401EBC40251F8341067
:1042C000D6785268C1F3170A8D4911F806B08D49A6
:1042D000895D632E88BF41F4807100EB41080BF0CB
:1042E000300110290BF00F091ED020294BD0002BD4
:1042F00000F01B81B9F1020F40F00A81012A40D081
:1043000000211BF0010F02F1FF3306D0B8F80200C4
:104310003840B0F5805F08BF5308012B40F0E580BE
:10432000E1B1E2E03D22B8E702B1BBB108EB4208DF
:1043300025E0C34638F8023B03EA0701B1F5805F88
:104340000ED195F83C10C3F30B03994216D109A87E
:104350003146FFF7B3FC2846FEF728FF0023A3E70A
:10436000531C4B4504D23246514609A8FFF798FB2F
:10437000BBF8001009A8FFF7B4FBEFE70132914545
:10438000D7D8012390E773B102F10043013B38F81D
:1043900013303B40B3F5405F21D1002109A80392BF
:1043A000FFF767FB039A08EB420491452BD8019B6A
:1043B00083B1052E0ED1002109A8FFF714FB48B9DF
:1043C000012109A8FFF70FFB830744D000F00F007D
:1043D000022845D1002408EB4903A1465AE0012AEE
:1043E000CFD995F83C30062B40F0F4804649474839
:1043F0000CF00EFE6A6B2968044600230CF0EAFEFE
:104400002046FBF70DFF039434F8021B01EA070076
:10441000B0F5805F16D195F83C00C9B288420ED144
:10442000082805D1314609A80392FFF747FC039AF3
:1044300003922846FEF7BAFE039A0132B5E7002A36
:104440009FD0CEE7531C5146324609A8FFF728FB00
:10445000039B19888EE70028BCD003793A2BB9D189
:1044600009A8FFF7B9FA09A8FFF7B6FA002308224E
:10447000514609A8FFF7A0FC70E733F8022D02EAC5
:104480000701B1F5805F10D1D2B2082A02D1013400
:1044900009F101094345F0D1B9F1010F1CD11BF01D
:1044A000400F19D00026314610E0214609A8039399
:1044B000FFF799FA039B08B109F101090134E9E713
:1044C000FFF78AFA0136002818BF0146A64209A85C
:1044D000F6D1FFF7CEFA41E71BF0800F04D00021A0
:1044E00009A8FFF7C6FA013423463246C0E700BFE9
:1044F000A33902084BD0020800F0FFFF78D6050868
:1045000000DA0508C8D50508B68B05083CE505089E
:10451000012A3FF436AF12F001013FF4F2AEB9F1D7
:10452000030F7FF45EAF0121EBE609EA020303F01B
:10453000010338F8134004EA0701B1F5805F13D195
:1045400095F83C10C4F30B04A14202F1010409D117
:104550001BB9314609A8FFF7B1FB2846FEF726FE36
:104560002246E2E72246C5E6531C5146324609A8D8
:10457000FFF796FA2146FDE613A80AF0AFF9129864
:1045800050B1416822460831FBF798FE129B5A68E9
:104590001A60119A5A60119395F83C30002B7FF401
:1045A00020AF0D9B002B3FF41CAF0E9B0B981B689C
:1045B0001093FBF785FE0E98FBF782FE0120FBF7B8
:1045C000FDFDDDE91001029B83E80300184617B0EA
:1045D000BDE8F08F022B01D1034908E7042B0CBF83
:1045E00002490349034803E7BF8B0508E68B05082A
:1045F000F98B050860E5050838B50446406808B938
:10460000606038BD4568FBF75BFE2846F7E70000B1
:10461000F8B5054630200E461746FBF742FE072D3B
:1046200004460570C66001D0012D0FD1B368C3F3F5
:104630000F13A38208F08AF9042320612783E384FF
:104640002020FBF715FEE0622046F8BD014B5B5DC4
:10465000EFE700BFB0DA050810B50446C06AFBF703
:104660002FFE2046BDE81040FBF72ABE30B5058D71
:1046700004460022954201D8002030BDE36A03EBD6
:10468000C20043688B42F8D00132F3E770B50446AC
:104690000D461646FFF7EAFFC0B9E38C228D9A4219
:1046A00008D30633D900E06AFBF7FDFDE38CE06236
:1046B0000633E384238DE26A591C02EBC300218593
:1046C00002F83360002343704380456070BD0346A9
:1046D00018465B68002BFBD1FFF7C8BFF8B54468EC
:1046E0000E462CB9F8BD042BFCD105230370F9E765
:1046F000254628466D68002DF4D077683946FFF7C7
:10470000B5FF0028F5D00378043B022BEAD8062534
:104710003570002239462046FFF7B8FF0378002B9A
:10472000E1D105706468F4E7036A1B8B012B1EBF9F
:10473000C3685B18C3607047836A10B504469B6FFB
:10474000406A9847238B226A0133918C9BB299422D
:10475000238338BF938410BD038B10B5013B0383C3
:10476000836A0446D3F88430406A98472046012182
:10477000BDE81040FFF7D8BF2DE9F04F85B00446E3
:104780000D46039298461BB1CB8A43F00803CB82B7
:10479000039BEB83236ADA8A42F03002DA821B78C9
:1047A000002B46D1A36A039AD3F8B460606A4346EB
:1047B0002946B44605B0BDE8F04F6047DB6A03EB1D
:1047C000C60B13F83630053B012B1DD84FF00009FE
:1047D00017E0EB6A03EBC90213F83930062B0ED150
:1047E000DBF804105368994209D1A36ABBF8022090
:1047F0001B69606A1F460023B8470AF1010A09F1E4
:1048000001092B8D4B45E4DC0136236A1A8DB24237
:10481000D4DCBAF1000FC5D0A36ACDF80080D3F87C
:10482000B860606A039B52462946B04705B0BDE8B0
:10483000F08F0026B246E8E7836A10B50446D3F845
:104840008830406A00219847A36A606A1B6B0F2179
:104850009847A36A606AD3F8CC3001219847204674
:104860000321BDE81040FFF75FBF38B5836A0446F7
:104870005B6C406A00229847A36A606AD3F8C05014
:1048800000231A461946A8472046BDE83840FFF7DE
:10489000D3BF836A89681B6D406A002209091847E3
:1048A000836A8968DB6B406A184710B5044608467E
:1048B00011461A46FFF7ACFE236A4360002383606B
:1048C000E3690BB9E06110BD1A469B68002BFBD170
:1048D0009060F8E72DE9F04F87B0054600AF0C4631
:1048E00011B90121116013E011F0030619D10B7900
:1048F000682B19D1CB681B0913608C68002CF0D091
:10490000012604F00F03022B0DD12109002EE9D05E
:10491000AB6A686ADB6A002298471C37BD46BDE86F
:10492000F08F0026EDE716B9A3681B091360A046B7
:1049300058F8043F4FEA132A08EB8A030AF1FF3BB9
:10494000BB60C14659F8040F0009FCF7A9FBBB681E
:1049500099458344F6D10BF1070323F00703ADEB30
:10496000030DC7F80CD0E946002358F8040F3B604C
:1049700007F114010009FCF7AAFB7A697A60014685
:10498000484625F06DF83B687A6801339A454A44F9
:1049900005D091464FF02E0209F8012BE5E7594664
:1049A000F868FCF7C3FAAB6A0146DB6A686A002262
:1049B0009847002EB1D00834BB689C42ADD054F863
:1049C000041FAB6A686A1B6D002209099847F3E768
:1049D00031B1826801F00303134304BF0B688360A5
:1049E00070472DE9F04107461E4659B111F0030505
:1049F00010D14B68D8B290420CD14FEA13280C1D4D
:104A0000454501DBBDE8F08154F8041F3846B04746
:104A10000135F5E738463346BDE8F0411847000058
:104A2000F8B504460E4611461A46002385780769F4
:104A3000837003610E4BFFF7D4FF6368BBB9618AD3
:104A400051B1228A42B9A36A606AD3F8A03098476C
:104A5000A36A606A1B6C9847238A628A31462046A3
:104A6000FFF78AFE003D18BF0125A5702761F8BD3C
:104A7000CD52020870B54378012B05460C4606D18D
:104A8000036A0A461B8B0221FFF70FFF2061A26811
:104A9000216928464C23BDE87040FFF7C1BF70B5BF
:104AA00013464278012A05460C4604D10A460721DE
:104AB000FFF7FBFEA061A669E2682846462331465F
:104AC000FFF7AEFFB08A70BD024B89689D22FFF7E9
:104AD00088BF00BFD9570208024B89686B22FFF7D5
:104AE00080BF00BF7173020838B543680D460446A5
:104AF00011464BB905480CF08BFA294660602046F8
:104B0000BDE83840FFF764BF38BD00BF60E5050869
:104B1000014AFFF7E9BF00BFFD8B05080B79092BA0
:104B200070B50CBF858AC58A4FF6FF739D42044657
:104B300002D1064AFFF7D8FF218B628BA36A606A15
:104B40005B6F8A1A2946BDE8704018470A8C050831
:104B500038B5054679B101F00F03022B0DD10C09D0
:104B6000204609F023FD002806DA064906482246B9
:104B70000CF0E4FA6860002038BD044AFFF7B4FF87
:104B8000F9E700BF238C0508F4E40508288C050824
:104B900070B51446054612780E4683B132B1032A29
:104BA00004D0104ABDE87040FFF79EBF0326267070
:104BB0006168286AFFF78BFD00B1067070BD62B9AD
:104BC00001232370006A2146FFF788FD2378012B1B
:104BD000F4D1054A31462846E4E7062AEED0034AD6
:104BE000E0E700BF2F8C05083C8C0508498C0508C0
:104BF0002DE9F3414378012B04460D461AD10B7978
:104C0000102B0CBF4FF001084FF0000808D0036ACA
:104C10001B782BB9114A02B0BDE8F041FFF764BF21
:104C200001AA6D2105F10800FFF7F8FA00260746F2
:104C3000B74202D102B0BDE8F081019B206A53F86F
:104C4000261000220909FFF721FD434602462946A6
:104C50002046FFF79DFF0136EAE700BF508C0508AC
:104C60004278012A0B4602D1006A02F013BE816A23
:104C7000026A406A203102F01CBE4278012A0B46CB
:104C800002D1006AFFF702BD816A026A406A1031F0
:104C900002F00FBE70B505460C4600292ED0CA079B
:104CA00006D5836A5B6B4910686ABDE87040184797
:104CB0008B0717D004F00F04022C4FEA11110AD011
:104CC000062C0CD0052919D0836A406A1B6BBDE8FD
:104CD0007040C9B21847BDE87040FFF7CEBF836A85
:104CE0009B6BE1E7836A0968DB68406A9847227931
:104CF000034B214653F822302846D6E770BD00BF4B
:104D0000B8DA05082DE9F74F05460C4616461F464A
:104D10002046FFF74BF840B16EB9AB6A9B6E39463F
:104D2000686A03B0BDE8F04F18472046FFF741F826
:104D300020B1002EF1D103B0BDE8F08F002C48D097
:104D4000A30746D163684FEA132BDBB21E2B18D1A1
:104D5000DEB1043404EB8B0B5C45ECD054F8041F3B
:104D60003B4632462846FFF7CDFFF5E75AF8041FC9
:104D7000019243462846FFF7C5FF09F10109019A50
:104D800011E01F2B1FD1002EE3D0D5F80C8008F1C5
:104D90000103EB600BF1FF3304F1040A4FF000094B
:104DA000009386F00102009B4B45DFDC0BF1010113
:104DB0003B4654F8211032462846FFF7A3FFAB6A62
:104DC00041469B6AACE7202B03D1A46886F001061C
:104DD0009EE721462846FFF75DFFAB6A686ADB6EF7
:104DE0003A46314603B0BDE8F04F184738B5026A7D
:104DF0001278072A04460B4606D0022A04D0BDE8E2
:104E00003840144AFFF770BE9D6885B9A36A606A8E
:104E10001B6B0F219847A36A606AD3F8CC3000213E
:104E2000984720460121BDE83840FFF77DBCAB071D
:104E30000BD12B79AF2B08D12046A968FFF72AFFA9
:104E40002046BDE83840FFF7F7BC29462046FFF76B
:104E500021FFE0E7628C050870B54378CE68012B2E
:104E60000446154606D1036A0A461B8B2946FFF7FE
:104E70001CFD7061002371691A462046FFF77CFC17
:104E8000F1682046FFF706FF062D05D1A36A606A88
:104E9000D3F8883000219847A36A606AD3F8BC50E1
:104EA0000023AC461A46BDE870400121604738B582
:104EB0000C460546C968FFF7EDFEA1682846BDE827
:104EC0003840FFF7E7BE0B79342B70B504460D462A
:104ED00010D18968FFF7DEFEED68AD6885B9A36A79
:104EE000606A1B6B0F219847A36A0422D3F8A03095
:104EF00002211AE0836A406A1B6B0F219847ECE796
:104F0000AB071FD12B799A2B13D1A36A606A1B6B55
:104F10000F219847A9680029E6D02046FFF7BAFE7E
:104F2000A36AD3F8A03004220321606ABDE8704070
:104F300018479B2B06D1A9682046FFF7ABFEEB680C
:104F40009968E8E729462046FFF7A4FECCE710B5AC
:104F500004468968FFF79EFEA36A606ADB6CBDE8C1
:104F600010400021184700002DE9F7438D680446E2
:104F700016465DB9002A75D0836AD3F8A0300222A4
:104F80002946606A03B0BDE8F043184715F00307EF
:104F900040F08A802B79372B13D132B1836A406A73
:104FA000D3F8A03002220121984720462946FFF776
:104FB00071FEA36A606AD3F8A43003B0BDE8F04381
:104FC00018479F2B70D1EB681A79A12A5AD1A221D8
:104FD00001AA03F10800FFF721F9A968804621B36F
:104FE0008B0722D10B79372B1FD136B1A36A411C15
:104FF000D3F8A030606A02229847A9682046FFF7DC
:1050000049FEA36A606AD3F8A43098474FF00109BB
:10501000474510D1B9F1000F24D1A36A606AD3F8D3
:10502000A0300322791C98471CE02046FFF732FE8F
:105030004FF00009ECE7019B53F82710A9B18E0748
:1050400013D10E79A6F13700464246412046FFF7BC
:1050500021FEB9F1000F11D04EB9184A2946204659
:10506000FFF742FD03B0BDE8F0830026EEE7A36A38
:10507000606AD3F8A43098470137C9E7002EFBD007
:105080000F4AEBE7AB685BB19A0709D11B79372B65
:1050900006D10422294603B0BDE8F043FFF7DCBE89
:1050A000052229462046F6E729462046FFF7F2FD6D
:1050B000A36A0322D3F8A030012162E76D8C0508B2
:1050C0007E8C05080122FFF74FBF70B50D46C968F9
:1050D0000446FFF7DFFDA968A36A606AD3F8983039
:1050E000C1F30711332918BF3F39BDE8704014BF21
:1050F000C9B202211847F8B54F680C4689680546C1
:10510000FFF7C8FD3F0A0C3400260236B74204F10F
:10511000080400DCF8BD54F8041C2846FFF7BAFD6B
:1051200054F8081CAB6A686AD3F89C300909243922
:10513000C9B29847E9E72DE9F0410C464E6854F8AA
:10514000081F0546FFF7A6FDA6F10D085FFA88F8CF
:10515000360A0127B74201DBBDE8F08154F8041F8D
:105160002846FFF797FDAB6A686AD3F89C30414642
:1051700098470137EEE72DE9F0414E6804460D46A9
:10518000360A8968FFF786FD032E83BFD4F80C80AA
:1051900008F10103E3604FF0000801277B1C9E42E9
:1051A00022DC032E55D9E568606A6B1CE360A36AB4
:1051B00029469B6E9847A36A606A9B6A4146984756
:1051C000A36A606A9B6801219847A36A606A1B6EA4
:1051D0009847A36A606ADB6D9847A36A606A9B6A16
:1051E0002946BDE8F0411847296920460237FFF7F4
:1051F00051FDB74207DAA36A606A5B6D9847A36AFC
:10520000606A5B6E9847EB68A26A606AD2F89C207D
:1052100003F00F010A2911D1C3F30713252B1ABF7D
:10522000343BD9B206219047B74205DAA36A606AD7
:105230001B6F4246002198470835AFE71979852949
:1052400001D13221EFE79B680BB90721EBE733214E
:10525000E9E7BDE8F08110B504468968FFF71AFD5B
:10526000A36A606AD3F89830BDE81040032118475C
:105270002DE9F0470D46D0F80C8055F8046F5FFA21
:1052800086F9A9F11E03D3F1000949EB030908F1DE
:1052900001030446C360360A0027B74206DBA36A4F
:1052A000606A9B6A4146BDE8F047184755F8041FFD
:1052B00020460137FFF7EEFCB742F0DAA36A606AD6
:1052C0001B6F424649469847E7E7000001F00F038D
:1052D000022B70B5044612D00B79492B09D0483BFC
:1052E000082B18D8DFE803F008170717171717055A
:1052F00007000123A37070BD8E680D6975B9A3788E
:10530000002BF8D1638A002BF5D020461D4ABDE85A
:105310007040FFF7E9BBD1E90265EFE7A3783BB343
:10532000238A01339BB2012B23820ED1618AD4E9F7
:105330000903D1B1D3F8A03000229847A36A606A6C
:10534000D3F8A03002220021984729462046FFF7D3
:10535000A1FCA36A606A9B6B31099847A36A606AE3
:10536000D3F8A430BDE8704018471B6C9847E5E7B8
:10537000638A0133638229462046BDE87040FFF707
:1053800089BC00BF898C05082DE9F041C568D1F8BA
:105390000C800E46AB1C04460022D8F80810C360EF
:1053A0002B46FFF7AFFCB1682046FFF773FCA36AFA
:1053B000606A9B6E6F1C39469847A36A606A9B6A55
:1053C00029469847A36A606A9B684FF0FF31984767
:1053D000D8F80C102046FFF75DFCA36A606A9B6A50
:1053E0003946BDE8F04118472DE9F047C668D0F8C6
:1053F00014A0B0F81A908682B31CC36006F10108AD
:10540000038BA0F816800446438388680D46FEF798
:10541000CDFCF8B9E768A8687B1CE360FEF7C9FC1F
:1054200020B9A36A606A9B6E41469847A36A606A86
:105430009B6A39469847E9682046FFF72BFCA36A28
:10544000606A9B6A41469847A9683B46012220460C
:10545000FFF758FC2969C4F814A02046A4F81A9054
:10546000FFF718FCA36A606A9B6A3146BDE8F04703
:1054700018472DE9F347C668731CC3600446886863
:105480000D46FEF793FC0246E8B9E768A9687B1C65
:10549000E36020463B46FFF735FC2046E968FFF70E
:1054A000F9FBA868FEF785FCD8B92B690BB96B69C5
:1054B00023B1A36A606A9B6E31469847A36A606A0B
:1054C0009B6A3946984701AA712105F11000FEF741
:1054D000A5FE002781464F450BD169692046FFF79D
:1054E000D9FBA36A606A9B6A3146984702B0BDE85F
:1054F000F087019B53F82780D8F80800FEF756FC88
:10550000024600BBD4F80CA0D8F808100AF1010339
:10551000E36020465346FFF7F5FBD8F80C10204611
:10552000FFF7B8FBD8F80800FEF743FCD4E90923DD
:105530000028D6D19B6E314610469847A36A606A10
:105540009B6A514698470137C5E70000184B2DE983
:10555000F041D3F8007204460D463FBBC668896827
:10556000731CC36001223346FFF7CCFBA36A606A59
:105570005B691F2101229847E96851B12046FFF776
:1055800089FBA36A606AD3F8BC503A463B460121C6
:10559000A847A36A606AD3F8C83001219847A36A74
:1055A000606A9B6A3146BDE8F0411847BDE8F0816A
:1055B0007004002070B58D6804463DB9836AD3F845
:1055C000C8302946606ABDE870401847AB070ED165
:1055D0002B795E2B0BD1A968FFF75CFBE9682046AD
:1055E000FFF758FBA36A0221D3F8C830EAE729463F
:1055F0002046FFF74FFBA36A0121D3F8C830E1E74B
:1056000010B504468968FFF745FBA36A606ADB6D45
:10561000BDE81040184700002DE9F041026A1278F9
:10562000072A044604D0BDE8F0411A4AFFF75CBAE5
:105630008D685DB9836A406A1B6B0F219847A36A26
:10564000606AD3F8C430BDE8F041184715F0030292
:105650001DD12B791B2B1AD1C668EF68731CC36050
:10566000B9683346FFF74EFBA9682046FFF712FBE7
:10567000A36A606AD3F8C4309847A36A606A9B6AD9
:1056800031469847F9682046FFF704FBD7E72946DB
