:020000040800F2
:10000000F8F700202DBE0208A7C2020895C2020818
:10001000A9C20208B5C20208C1C20208000000005D
:10002000000000000000000000000000CDC2020837
:10003000CFC202080000000065C30208E5010020ED
:10004000D9020008D7C20208E1C20208E9C20208C8
:10005000599A0208D902000895B502089BB5020812
:10006000A1B50208A7B50208ADB5020841430208D0
:1000700051430208614302087143020881430208A8
:1000800091430208A1430208D9020008D9020008DE
:10009000D9020008D9020008D9020008B3B5020845
:1000A000FDC2020803C3020815C302081BC30208ED
:1000B00021C302080000000000000000ED4F02080C
:1000C000055002080000000000000000D9020008EE
:1000D00000000000C1020020C70200200000000054
:1000E000D7B50208DBC202080000000000000000D3
:1000F0000000000000000000000000000000000000
:10010000000000000000000000000000D90200080C
:10011000000000000000000027C302082DC30208F1
:10012000B1430208C1430208D1430208E143020877
:10013000F143020800000000000000000000000081
:10014000D9020008D9020008D9020008D902000823
:10015000014402081144020833C30208D90200080E
:100160000950020821500208D902000800000000CE
:10017000D9020008D90200080000000000000000B9
:10018000D9020008D9020008D9020008064B03F181
:100190003C02DA61B3F8FC2112B20021012A596451
:1001A00008BFA3F8FC1170470C030020054B43F86F
:1001B0002010054B01221A60044B4FF080525A6008
:1001C000704700BFF40A0020F80A002000ED00E0AC
:1001D00010F4FF7F02BF024B0422C3F8002E7047C9
:1001E00000E100E00D4B10B51C6801341C604FF0BD
:1001F000E02304F001021B69094B53F822300BB1D4
:1002000020469847074B1B68A34205D1BDE8104024
:1002100005490020FFF7CABF10BD00BF340700200A
:1002200060080020780A0020B1540208224B03EB3A
:10023000800310B5D3F86C41002C3BD06268D369C1
:100240009BB2E3839B0618D5618A00292DD0A38A2F
:100250009BB20133B3FBF1F001FB1033E18A9BB297
:10026000994222D0918CA2890A40A17A91B1134976
:10027000096891420ED1FFF789FFE38B626803F0B2
:1002800018011162A28B134214D0206ABDE81040FD
:1002900000F01EB8E17AA0690129A18A89B20CBFD9
:1002A00020F811204254A382E7E7136823F02003CB
:1002B0001360E2E710BD00BF0C030020D80200204D
:1002C0000120FFF7B3BF0220FFF7B0BF000000001E
:0802D0005FF800F0755402080C
:1002D800FEE7000030B51C4CD4E9A553C01AC1098B
:1002E800C0F3021E6B5C012202FA0EF223EA02033B
:1002F8006B54D4F8A02283094FEA101CB2EB901F6C
:10030800D4F88C0288BFC4F8A032C15C4FEA9C0EB6
:100318000CF0030303255B0005FA03F321EA03014C
:1003280000F80E100CF1010CD4F88C024FEA9C0E68
:100338000CF0030310F80E105A0041FA02F202F012
:100348000302022AE7D030BD0C030020064A034608
:10035800506A1A684168C1F31E018A4202D3521AD0
:100368001A6070470068F5E70C0300207F289DBFDE
:10037800024B185CC0F3400000207047E8070308F0
:100388007F289DBF024B185CC0F3C0000020704757
:10039800E80703087F289DBF024B185CC0F3800064
:1003A80000207047E80703087F289DBF024B185CB0
:1003B800C0F3001000207047E80703087F289DBF9E
:1003C800024B185CC0F3401000207047E807030890
:1003D80008B50246FFF7E8FF02EB401008BD08B574
:1003E8000246FFF7EBFF404220F01F00104408BD13
:1003F800D0E9023293423DBF5A1C826018784FF010
:10040800FF30704701692729024601D0222912D1FD
:10041800012024E0137D272BFAD0222BF8D0722953
:1004280014D1662B16D1507D2728F1D0A0F12203D4
:10043800584258417047A1F16200132804D8084B6C
:10044800034113F00100E5D000207047662904D16C
:10045800722B00E0622B02D1E5E76229F8D07047E1
:10046800EEFFF6FF02690A2AF8B504461BD1836934
:10047800013383610123E361237D2361637D237558
:1004880000260A27256EB5B16B1CA26D2366555D43
:10049800626D934201D366652666237D0D2B14D0C9
:1004A800BDB16575F8BDC369092A04BF073323F0D8
:1004B80007030133DFE7D4E901039847431CECD075
:1004C800012838BF01200546E7E70A2D2775D9D04E
:1004D800E6E7237D002BE4D00A2B18BF0A25E0E7C6
:1004E80038B504460D4622690AB9104638BD0A2AAD
:1004F80006D10DB1636AE3B12046FFF7B3FFF2E717
:100508001046FFF733FF0028F6D1232A08D12046EA
:10051800FFF7A8FF2369002BE5D00A2BF7D1E2E704
:100528005C2AE3D1237D0A2BE0D12046FFF79AFF0E
:10053800E2E72846DAE7000010F00102034604D09B
:1005480040F001030B6001207047A8B110F00300D0
:1005580013D11A793A2A11D19B680B6013F0010064
:10056800F1D19A070AD11868054B9842EBD0054B90
:10057800C31A58425841704770471046704700BF29
:1005880004070308E006030810F001021CD110F06C
:1005980003030CD000F00F03062B15D00A2B11D142
:1005A80000090D3803288CBF00200120704770B166
:1005B80002793A2A08D02D2A08D18068B0FA80F04A
:1005C8004009704710467047012070471846704729
:1005D800C20702D540F001007047830710D0030915
:1005E80000F00F00062803D1D80040F00200704741
:1005F800A3F10E00022809D8064B53F820007047D3
:1006080030B103793A2B03D18068704702487047AC
:1006180002487047CC060308C4060308D806030836
:100628000346006830B550B184070AD14468E5B282
:100638008D4206D100F10803200A136030BD03463D
:10064800FBE70120F9E7D0E90432013B036152F8E6
:1006580023007047036942695B1A013B52F8230083
:10066800704730B5058D04460022954201D8002018
:1006780030BDE36A03EBC20043688B42F8D0013215
:10068800F3E731B1826801F00303134304BF0B6839
:10069800836070472DE9F04107461E4659B111F0B5
:1006A800030510D14B68D8B290420CD14FEA1328F9
:1006B8000C1D454501DBBDE8F08154F8041F3846A0
:1006C800B0470135F5E738463346BDE8F0411847ED
:1006D800024B89689D22FFF7DDBF00BFE5330008A4
:1006E800024B89686B22FFF7D5BF00BF914600080F
:1006F80070B504460D4610461946FFF7B2FF037859
:100708005A1E012A05D86B6800222046BDE87040B1
:100718001847032B02D16B680122F6E72D6842883F
:10072800042B2046AC4608BF0023BDE8704018BF24
:1007380001236047426A03464079032888BF586B03
:10074800114494BF1846801859627047827903464D
:100758000AB118467047C26A40790328114401D883
:10076800D962F6E7986AD9620244586B1044704718
:1007780010B50C460121FFF7E9FF047010BD43795D
:10078800012B07D083681944036981605A8C914210
:10079800C8BF5984704710B51446FFF7F0FF012110
:1007A800FFF7D4FF047010BD038B013B03835D2268
:1007B800406A4FF0FF31FFF7EEBFF8B516461F4607
:1007C800FFF7DDFF8479054604BB4379022B25D961
:1007D800C46A036AC4F1FF2453F8273004F57F0480
:1007E800FE34442E1C4412D814F1400F14DB3F2C65
:1007F800D4BF00270127E41BB91C2846FFF7A6FF32
:1008080006706FB9442E98BF40344470F8BD7F2CF1
:1008180094BF00270127EEE70127ECE70127EBE764
:100828006B79442E98BF04F58044042B05D1B4F5A8
:10083800004F24BF012385F8383064F07F03E411AA
:1008480043708470E2E70B4620B5B2FA82F10546A0
:10085800490902F14700C2B24900686AFFF7ADFFD3
:100868002B8B2A6A0133918C9BB299422B8338BF18
:10087800938420BD264BD3F8F431022B2DE9F047A1
:10088800044689460ED88669B1420BD9C56A4369C0
:100898008E1BED1A40F2FF7756EA050304D1E36A8E
:1008A800C4E90539BDE8F087062E01D90F2D1AD9FC
:1008B8001F2DAA4628BF4FF01F0A1F2D10D8032E40
:1008C800B04628BF4FF0030801212046FFF732FF4A
:1008D8004AEA48130370A5EB0A05A6EB0806DBE70E
:1008E8004FF00008F0E7BE42B0464FF0020128BFC3
:1008F800B8462046FFF71EFF4FEA181303F07003AF
:100908002B4363F07F03037080F80180AA46E2E777
:100918000C030020002383714379012B03D0036A61
:10092800C26A43F82120704701F110033F2B73B5C9
:1009380006460C4608D8A1F18002D2B2012102B0C5
:10094800BDE87040FFF727BF012122220DF1050500
:10095800FFF721FF294604F07F00E3B2E4112A469D
:1009680005F8010D601C0128F5D8013403F0400397
:1009780014D11BB97F2305F8013C951E491B30464D
:10098800FFF7E4FE01AC6A1E014612F8013FA242DD
:1009980008D11044401B037002B070BD002BEDD08D
:1009A8000023E8E763F07F0301F8013BEDE75322FA
:1009B8000121FFF7F0BE57220121FFF7ECBE5922B3
:1009C8004FF0FF31FFF7E7BE5A220021FFF7E3BEE1
:1009D8005B220021FFF7DFBE10B50B46044642221A
:1009E8000021FFF7EAFE0123A37110BD322938B5B3
:1009F800044611D0332912D000252939CAB220461D
:100A08004FF0FF31FFF7C7FE65B12046D322BDE89E
:100A180038400021FFF7BFBE01250621EDE701257B
:100A28000721EAE738BD62226FF00101FFF7B3BE84
:100A380010B5632204464FF0FF31FFF7ACFE0123E7
:100A4800A37110BD10B501F167020446D2B2494244
:100A5800FFF7A1FE2269D38A43F00103D38210BDB8
:100A68002DE9F04F099FDDE90BC4DDE90D5628B1EA
:100A7800884203D3710713D50137013416F0020EEB
:100A88003ED0002D3CD010DB0A998D4238DA2C4438
:100A9800A74203DC07F1FF3CA4EB0C0C00252FE078
:100AA8000A210135B0FBF1F0E8E7291D28DB69428E
:100AB8004FF000084FF00A0AB0FBFAF90AFB1904D4
:100AC8001CB108EB0504414604E008F1010888451B
:100AD8004846F1D11D464FF0300905F8029B7F1AB0
:100AE800091B4FF02E084C1E83F801802346A846A8
:100AF800002B54DC002908BF00242B190025FF24F3
:100B080007F1FF3841464FF00A0900294BDA611C0A
:100B1800B94257DBFE2CD4BF002101213B44BCF174
:100B2800000F07D0A4EB0804A4EB0C0C2E203027F0
:100B380064454CD1BEF1000F09D041B119460B46AE
:100B480011F8010D3028FAD02E2808BF0B4606F000
:100B5800010129431ED071071CD4002D06F0200482
:100B6800BABF6D422D212B2144F04504632D1C7022
:100B7800597034DC9C1C0A202346B5FBF0F6B6FB02
:100B8800F0F100FB1161303103F8021B00FB165134
:100B98003031617000211970981ABDE8F08F08F89B
:100BA800019B013BA4E78C42B4BF01F1010B8B46CA
:100BB800B0FBF9FA09FB1A00303003F80B000139D1
:100BC8005046A2E701332E2119550121A6E714B991
:100BD80003F8010B012103F8017B013CA8E764211C
:100BE800B5FBF1F13031DC1C9970C4E708461146B9
:100BF80024F090BF38B505460C46FFF7C5FC38B160
:100C08002846FFF7E5FC07F027FA031B584258412E
:100C180038BDC90010B50122044641F00201083070
:100C280009F006FA43683BB9A368C3F3DC03013B48
:100C38005B0043F001034360C3F34F0010BD8968B4
:100C4800406A29F023BA00000D2902D1034929F08E
:100C58001DBA4231CAB20121FFF79DBDC40603087F
:100C680010B504465E22406A0021FFF794FD606AD1
:100C78000F21FFF7E9FF606A0121BDE81040FFF787
:100C8800E1BE492348222AF0CFBA4F234E222AF048
:100C9800CBBA00000E4AD2F8883043F47003C2F889
:100CA80088300C4B1A68002142F001021A609960E2
:100CB8001A6822F0A85222F410221A604FF48052C7
:100CC800DA601A6822F480221A609961704700BFBE
:100CD80000ED00E000100240024B5A6902605861C2
:100CE800002070470C030020024B5A6912685A61B1
:100CF800704700BF0C030020044A9369196891618A
:100D080010B15A6818461047704700BF0C030020FE
:100D1800C460056146618761C0F81C80C0F82090F6
:100D2800C0F824A0C0F828B0C0F82CD080ED0C8BF7
:100D380080ED0E9B80ED10ABC0F808E0FFF7CCBF4C
:100D48002DE9F0432B4C864600254FF0030CD4F8D0
:100D58008C02002101310EEB01039A0803F0030312
:100D6800825C5B0042FA03F303F00303022BF1D029
:100D7800D4F89802090100EB0E108E0889B300EB35
:100D8800860603681A0729D1D4F898125A1AC2F3AA
:100D9800011E99424FEA92174FEA4E0E4FEA12127D
:100DA8001CD8D4F89C12994218D9D4F88C8218F817
:100DB800071041FA0EF303F003030CFA0EF9012BA6
:100DC80041EA09010AD104EB450E3F2D08F8071046
:100DD8009ABF0135AEF8AC22C4F8A8320430B0424C
:100DE800CFD12DB1013D04EB4503B3F8ACE2AEE73A
:100DF800BDE8F0830C03002071B3F8B5041F174E4B
:100E080004EB810554F8043F1A071AD1D6F8982242
:100E1800981AC0F301119A424FEA901C4FEA410117
:100E28004FEA10100DD8D6F89C229A4209D9D6F864
:100E38008C7217F80C2042FA01F303F00303012B1C
:100E480002D0AC42DED1F8BD03238B401A4307F829
:100E58000C20FFF775FFF4E7704700BF0C03002074
:100E68002DE9F04F7D4ED6F8A832D6F88C1295B001
:100E7800C3B1D6F8903200259800C6F8A85288B1B8
:100E88000024A30804F00302CB5C5200134103F0D2
:100E98000303032B2FD001348442F2D3D6F8A832AF
:100EA800002BEAD1D6F8A4324FF000094FEAD30854
:100EB8000127D6F8943213F809504FEAC904A5B1AE
:100EC800EA0704D46D08EA0704F10104FAD5A30877
:100ED80004F00302CB5C5200134103F00303012B1F
:100EE8001BD06D0804F10104EAD1C84509F10103DA
:100EF80061D09946DDE72046FFF722FFD6F8903209
:100F0800D6F88C120134B4EB830F4FEA8300B8D3C0
:100F1800D6F8A832002BB0D1C4E7D6F8982223011E
:100F280002EB0410D358002B37D06A464FF4EE7109
:100F380009F0E0F9009B83B3EFF3108272B6B6F8BC
:100F4800FC311B0443BFB6F8FC3103F1FF331BB27D
:100F58004FF6FF73A6F8FC3182F3108802A8DDE98A
:100F680000ABFFF7D5FE002867D15946504607F079
:100F78001BFBFFF7B9FEEFF3108272B6B6F8FC312F
:100F880001331BB2A6F8FC312BB9F369002B59D0F9
:100F98000023A6F8FC3182F31088D6F89402E308FF
:100FA80004F00701C25C07FA01F122EA0102C25407
:100FB800D6F88C1295E70027BE463A460324022548
:100FC8000FE0012806D104FA03F32CEA03030B709F
:100FD8004FF0010ED6F8A43201329A421FD8D6F843
:100FE8008C12900802F0030311F800C05B004CFA61
:100FF80003F000F00300022801EB920119D0032846
:10100800DFD105FA03F32CEA030C81F800C0D6F807
:10101800A432174601329A424FF0000EDFD93389C5
:10102800002223F00103C6E9A827338115B0BDE8E3
:10103800F08FBEF1000FEAD0C5E70399084808F021
:101048007BFB98E7D6F80032002BA1D196F808323E
:10105800002B9DD10123A6F8FC319CE70C0300204E
:1010680030130308554BD3E9A6122DE9F043521A61
:101078000024D3E9A361C0E90144C0E90344C0E9FD
:10108800054402604FEA810C22462146A146A64645
:101098002746254616F809304FEA4E0E43FA0EF356
:1010A80003F00303012B02F1010255D0022B24D0D7
:1010B80033BB01379445876004F101046DD04FEAD2
:1010C800920902F0030E16F809804FEA4E0148FA19
:1010D80001F818F002013BD108F0030894452DD01F
:1010E800B8F1010F04D1C3689C4288BFC4600024D2
:1010F8004FEA920902F0030ECCE701354560013151
:10110800944541D04FEA920902F0030E16F80930CF
:101118004FEA4E0843FA08F303F003089B0718D474
:1011280001292CD0022903D14369013343610221EB
:1011380083698B42D2D294458161D1D1C368A342DD
:1011480000D2C4602D013F01C0E90157BDE8F0831A
:10115800194694459ED1F5E701359445456025D05B
:101168004FEA920902F0030E16F809804FEA4E0181
:1011780048FA01F818F0020FEAD108F003080369E9
:10118800013303610121D3E701299846F7D00229E9
:10119800CAD083699942CED8D0E7C3689C42D0D8D8
:1011A8002D013F01C0E90157BDE8F0830269013212
:1011B80002618269002AC1D18361BFE70C03002064
:1011C8002DE9F84300F10F06360945D06F4C238905
:1011D800002B41D1B4F82C230D46002A56D0D4E96F
:1011E800CC12914250D2D4F8A002D4F8907287421F
:1011F80088BF9E4654D9D4F88CC20138013F604458
:1012080067440021CCF1010818E04A1C964252D9E3
:1012180013F00C0F2BD18A1C964240F2A68013F0D3
:10122800300F2AD10132964240F2A4803F2B17D8C2
:10123800511C8E4240F2A380B8420AD008EB000944
:1012480010F8013F9A07E0D013F00C0F0AD10122E1
:10125800E2E7BEF1000F23D000231846BDE8F8836B
:101268000021E9E713F0300F0CD10122DBE703F08E
:101278003002B2FA82F25209D8E73F2B8CBF002124
:101288000121D9E70022D1E727F06AFFD4F8A002AC
:10129800D4F89072B84238BF4FF0010EABD3DBE7F9
:1012A80027F05EFFD4F8A002D4F89072B8424FF04D
:1012B800010EA0D3D0E74FEA8909A9EB0201012A60
:1012C80001F1010704D109F101039B08C4F8A03218
:1012D800D4F8A4324B4538BF4B46B808C4F8A432FA
:1012E80007F0030E1CF800804FEA4E0E012302316E
:1012F80003FA0EF343EA080389450CF8003012D3C9
:101308004FF0020E8808D4F88CC201F003031CF8D1
:1013180000805B000EFA03F3013143EA08038945B4
:101328000CF80030EED2D4F83033D4F89882334435
:10133800C4F8303308EB07131846120100212AF0CD
:10134800EFFD3E010346002D87D00022D4F8940219
:1013580048F80620F9080122445C07F00707BA405C
:10136800224342541846BDE8F8834FEA890909F137
:101378000109A2E74FEA890909F102099DE74FEA45
:10138800890909F103090A4697E700BF0C03002001
:1013980010B500210446FFF713FF18B914B1204611
:1013A80007F03CFD10BD00002DE9F0410546302056
:1013B80090460E461F46FFF7EBFF8223F340DB07FC
:1013C80006704CBFD8F80820124BC0F80C8054BFE8
:1013D8009A5DC2F30F12044682820C20FFF7D8FFF1
:1013E8000123837004232061E38427832020FFF7EF
:1013F800CFFF2B6A63600023A360EB69E0621BB92F
:10140800EC612046BDE8F0811A469B68002BFBD1B1
:101418009460F6E71C0103080021FFF7D1BE000025
:10142800034B1A89012A02D808B1FEF753BF704747
:101438000C0300200368013B033310B5044602D8AF
:101448004068FFF7EDFF2046BDE81040FFF7E8BF12
:101458002DE9F84F0F460646002800F0CA80734D64
:101468002C89002900F09180002C40F09280D5F85A
:101478009802D5F890C2301A030903F1010E0F3112
:10148800BEEB8C0F4FEA11114FEA8C0A80F0B7803F
:10149800D5F88C92A4464FF001084FEA9E040EF04E
:1014A800030B19F804404FEA4B0B44FA0BF404F011
:1014B8000304022C2BD02CB90CF1010C0CEB080402
:1014C8008C4226D341455CD065D3C4448C4525D293
:1014D800002A5ED0C209D5F89412895C03F007038C
:1014E8001941384601F00101FFF76AFE0446002859
:1014F8004FD04FEA081231462AF0CEFC2B89012B37
:1015080002D83046FEF7E6FE2046BDE8F88F08F11F
:1015180001080EF1010EF245BFD1D3E75C18434430
:101528009C421FD9980803F0030219F80070520072
:101538004FF0020C01330CFA02F23A439C4209F8CC
:1015480000200FD99808D5F88C7203F0030217F819
:1015580000E052000CFA02F2013342EA0E029C4209
:101568003A54EFD1D5F8A432A1EB08029C4238BF17
:101578001C46120106EB08100021C5F8A4422AF007
:10158800CFFC34462046BDE8F88F012C01D8FEF781
:10159800A1FE0024B8E75C18A00804F0030719F8B6
:1015A80000E07F004FF0030CA8EB01010CFA07F7ED
:1015B8002EEA0707012909F8007004F1010410D088
:1015C80003EB080EA708D5F88C3204F00302D95DA6
:1015D80052000CFA02F2013421EA02027445DA558B
:1015E800F0D1D5F8A0328342CBD9C5F8A002344651
:1015F800C8E701463846BDE8F84FFFF7E1BD0129C5
:10160800BFD029B14FF00108002A7FF463AFC0E7CB
:10161800D5F88C42800903F0030359000322235CA8
:101628008A4023EA02032354DBE700BF0C030020AF
:1016380010B501220C46FFF70BFF18B914B120466C
:1016480007F0ECFB10BDF8B504461D46D0E90003D1
:1016580083420F46164608D31030C100A068FFF732
:10166800E7FF2368A06010332360D4E90103421C1C
:10167800626053F8301067F3170143F8301003EB3A
:10168800C002D6705560F8BD10B48469CAB2002390
:10169800616B5DF8044BFFF7D6BF38B5D0E903326C
:1016A8009A4204460D4608D3103399004069FFF763
:1016B800BFFFE36860611033E360D4E90432591C6A
:1016C800216142F8235038BDF8B5446A06460D46F4
:1016D800B4B1D4E900030B44834222D90831002273
:1016E80001442046FFF7B4FE0246B8B961682046B7
:1016F8000831FFF7ADFE63682360336A63603462C4
:10170800802D2F4638BF802707F10800FFF740FEDD
:101718000023076043600446706202E023682B449C
:10172800236060680544656008342044F8BD38B516
:101738000D460C211446FFF7C7FF4FF49D72C0E910
:101748000124056038BD2DE9F0410F4605461446D1
:10175800114689B9204610F08DF8014600F10808B5
:10176800A4B90A4628463946FFF7E1FF014628464C
:10177800FFF793FF012007E001392846FEF76AFFCB
:10178800FEF702FF0028E4D1BDE8F0812846FEF705
:101798005AFF0646FEF71CFF013C48F82400002EBD
:1017A800DED0B307DCD1686A00F108039E42D7D3C4
:1017B800426813449E42D3D273681B0A0233A2EBD9
:1017C80083024260CCE7014441F20553884204D3C6
:1017D80098B2012838BF0120704710F8012B03EB9D
:1017E80043135340F2E700002DE9F04781460F46C6
:1017F800002943D0FFF7E7FF214B5C6A82460CB90A
:10180800204637E094F90730E668002B06F1FF36EA
:101818004FF0000516DB013604F11808B54215D360
:101828002468ECE705EB06084FEA580808F10603B8
:101838003A4654F8231048462AF0D6FB0028CCBF75
:1018480045464646731B012BECD8E4E7236933F879
:1018580015309A4510D163695B5D9F420CD158F8E9
:1018680025003A4649462AF087FB28B96068C0F344
:101878001E002844BDE8F0870135CFE70120F9E7CD
:101888000C0300202DE9F04780460F46FFF7ACFF18
:10189800002840F08F80FF2F03D94749474807F0B9
:1018A800B1FA474DD5F8E8317E1CABB1D5E97B12CA
:1018B80032448A422CD9024631441846FFF7C8FD03
:1018C800D5F8E8310446E0B90246D5F8F0111846D3
:1018D800FFF7BEFDC5F8E841802E344638BF8024A6
:1018E8002046FFF799FD0346C5F8E801A8BB304636
:1018F800FFF792FD0346C5F8E80168BB304607F0DC
:101908008DFAD5F8EC213244C5F8EC21002BE3D050
:10191800D5F8F0219C1832444146C5F8F0212046FC
:101928003A4600262AF0B8FAE65539462046FFF727
:101938004AFF8046686AD0E902A252452AD30E209F
:1019480000FB0AF018304FEA4A09FFF765FD50B965
:10195800C5F8E8014846D2E734460022C5F8EC410C
:10196800C5F8F021D4E700F1180202EBCA02696A4F
:10197800026102EB8A0242614A680160C968C66076
:10198800C2F31E020A44416862F31E01C0E901194C
:10199800324668620169436921F812809F54911D9B
:1019A8006B6A43F82140D96858680131C0F31E00BA
:1019B800D9601044BDE8F087F94C03080C130308FC
:1019C8000C03002007B5019001A8FEF7BFFC019A9F
:1019D800036933F8120003B05DF804FB07B5019002
:1019E80001A8FEF7B3FC019B4269D05C03B05DF827
:1019F80004FB07B5019001A8FEF7A8FC019B06337C
:101A080050F8230003B05DF804FB13B5019001A85A
:101A18000C46FEF79BFC019B4269D25C22600633B0
:101A280050F8230002B010BD2DE9F0472D4DDFF826
:101A3800B880D5F88CC20024D5E9A66E04600C6085
:101A480014601C606C6A74B91968126811441960D2
:101A5800BDE8F08715686F1C19F8015B2F44176003
:101A68000FE0002739E04445EED00568D4F814901B
:101A7800013505600D68E7683D440D60E56809EBD0
:101A8800050AD145E6D314F00F07EAD1B44224D3AE
:101A9800744522D2A51B4FEA95194FEA151A1CF86E
:101AA8000990C5F301156D0049FA05F909F0030914
:101AB800B9F1010F11D101370AEB07054FEA950972
:101AC80005F003051CF809906D0049FA05F909F0BD
:101AD8000309B9F1020FEED03F011D6824683D44A7
:101AE8001D60B0E70C0300209008030830B5002300
:101AF800202511F8012F0AB9027030BD120600F135
:101B0800010420D513B12023037020460B78124A14
:101B180003F07F036BB9013A12F8013F13F0800F0D
:101B2800044600F101000BD003F07F03237001236A
:101B3800DFE712F9014B002CFBDA013BDBB2E9E7E6
:101B480000F8013CE8E7012B04BF057020460B783C
:101B580000F8013B0223CCE7FE4C030838B5012905
:101B6800044638BF01210025084621606560FFF75B
:101B78000FFC2573A06038BD38B505460C46013109
:101B8800FFF7ECFF6C6038BD037B10B5044613B952
:101B98008068FFF745FC0023A36010BD10B504461C
:101BA800B0B1C3684068984704F14000FFF7ECFF04
:101BB80004F15000FFF7E8FF04F16400FFF7E4FFC9
:101BC800206BFFF72DFC2046BDE81040FFF728BC2E
:101BD80010BD38B50446154662688A42084603D9DE
:101BE80029448A4201D8606038BDA368521A184453
:101BF80019442AF081F963685B1B6360F4E700000D
:101C080008B50248002107F0FDF800BF0C130308CF
:101C1800D0E90013994210B504460BD1037B0BB1F0
:101C2800FFF7EEFF80680131FFF702FD2368A0602F
:101C380001332360D4E901320021D154A06810BDDA
:101C480038B5436819440368994205460ED9037BA1
:101C58000BB1FFF7D5FF01F1100424F00704083495
:101C680080682146FFF7E4FC2C60A86038BD38B5D1
:101C780004460D46FFF7E4FFD4E901301D446560D2
:101C8800184438BD10B50C460121FFF7F0FF047069
:101C980010BD7F29F8B50C46CEB204D80121FFF754
:101CA800E6FF0670F8BD06F03F06B1F5006FC1F318
:101CB800871546F0800607D20221FFF7D8FF65F0A6
:101CC8003F0505704670EDE705F03F05B1F5803F2B
:101CD800C1F3073745F0800508D20321FFF7C7FF96
:101CE80067F01F07077045708670DBE70421FFF770
:101CF800BEFFA40C07F03F0764F00F0467F07F07EE
:101D0800047047708570C670CCE770B504460E46FF
:101D180011461546FFF794FFD4E901302A461844C6
:101D280031462AF0E9F863682B44636070BD38B522
:101D3800054608460C462AF031F92146024628464F
:101D4800BDE83840FFF7E1BFF8B54768B942044637
:101D580028BF39460D4611461646FFF771FFA3689E
:101D6800A81959197A1B18442AF0C6F86368A0689C
:101D7800334463602844F8BD70B5054608460E46EE
:101D88002AF00CF9044620B102466B6828683146EF
:101D98009847204670BD00002DE9F74F8A469DF808
:101DA800301091460D9A11F0DF0F0746A2EB090596
:101DB80052D0302954D1C3F34721002954D05F2988
:101DC8000CBF0526042692FBF6F106FB11210CBF79
:101DD8002A482B4809B901350132711E92FBF6F4E5
:101DE80006FB14228A1A00EB020813F020023ED0E8
:101DF80005EBD573A5EB63045D10002D3BDDAB4609
:101E08005E4532467B683868A8BF5A46414601920B
:101E18009847019AABEB020BBBF1000FF0DCB9F16C
:101E2800000F05D07B6838684A46514698474D44AC
:101E3800002C0DDD2544A642B146A8BFA1467B680B
:101E480038684A464146A4EB09049847002CF2DC5E
:101E5800284603B0BDE8F08FDFF828801026C4E7D5
:101E68000DF130080126C0E7DFF81C80F6E713F013
:101E78000104C2D02C460025D1E700BF840803081E
:101E880089080308680803087808030803460078E7
:101E980093F90020002A0ADA00F07F00402210425D
:101EA80006D113F8012F02F0C001802904D0704731
:101EB80020EA02005208F2E702F03F0242EA8010EC
:101EC800EFE703460144002099421A4600D87047BC
:101ED800127802F0C002802A03F1010318BF013012
:101EE800F2E700007F289DBF024B185CC0F380100A
:101EF80000207047E80703082DE9F04F0023044647
:101F080085B001214364FEF7EBFA276AA36963638E
:101F1800002FE369A36307DA072384F83C3001370D
:101F2800276205B0BDE8F08F04D0062384F83C3062
:101F3800013FF5E7002835D039462046FEF7D0FAAC
:101F4800052384F83C30D4E90B3003F10042013A10
:101F5800E56930F81220013D9542E2D009D8013BED
:101F680030F81320954218D3DBD0022384F83C3094
:101F7800D7E7A16A8B4207D308314900FFF758FB1E
:101F8800A36A20630833A362E36A5A1CE26220F85A
:101F98001350236A01332362C3E7226AE362013ADA
:101FA8002262DCE7D4F81080B8F1000F02D184F87F
:101FB8003C80B6E72046FEF725FA0646002800F0E2
:101FC800118284F83C702369722B6ED008D8622B7A
:101FD8000CD0662B73D0B9460025A8460B230EE01B
:101FE800753BD3F1000949EB0309F5E7237D722B13
:101FF8004FF000056BD0A8464FF001090C2394F868
:102008003C20002A6CD184F83C30B9F1000F08D08C
:102018002046FEF727FAB9F1020F02D12046FEF753
:1020280021FA2369222B0CBF222327232046019360
:10203800FEF718FA2369019A934240F08880237DBD
:10204800934240F084802046FEF70CFA2046FEF7C3
:1020580009FA4FF0030935B1A36E23B9A44904F175
:102068006400FFF764FE04F140034FF0000B029395
:102078002169002900F0AD81B9F1010F02D10A29C7
:1020880000F0A781CB4565D3636C9B4594BFA3EB58
:102098000B030023636401212046FEF721FA204642
:1020A800FEF7B0F900288ED11CE0237D622B0DD0FD
:1020B800662B10D00025B0464FF001098EE7237D2E
:1020C800722B354608D04FF00008F5E70025B046DA
:1020D8004FF0020992E73546B0464FF002097DE716
:1020E8009A4292D0A36E002B3FF41BAF292104F132
:1020F8006400FFF7C7FD236E04F15006002B40F083
:102108006E8103213046FFF7B2FD23690370237DFA
:102118004370637D8370D4E91A57216E2A4630468E
:10212800FFF712FE2A46394629F0B6FE0023A366B9
:10213800236EA26D581C2066D15C2161991C216612
:10214800105C207503332366535C6375E9E64FF032
:10215800010980E7019B8B4209D1029819460BF1CE
:10216800010BFFF796FD2046FEF77CF980E7002D6E
:1021780060D15C2940F02A8120460391FEF772F96C
:10218800D4F810A00399B8F1000F6CD00298FFF7AB
:1021980080FDD346D3E004F1640B28215846FFF7AD
:1021A80071FDD4F868A00022216979B172BB3A297F
:1021B8000CD07D290AD0212928D1207D7238012808
:1021C80029D8607D3A2801D07D2824D1D4E91A2164
:1021D800881810F8010C3D2809D1A2EB0A025144D5
:1021E80004F14000FFF791FDA26E013AA266524544
:1021F80008BF0423584608BF84F83C302921FFF75C
:1022080041FD2C215846FFF73DFD24E021F0200038
:102218005B280AD10132C9B258460392FFF732FD52
:102228002046FEF71FF9039ABEE75D2808BF02F1B2
:10223800FF32F0E77B299CD120460391FEF712F983
:1022480023697B2BA7D104F140000399FFF71AFDFE
:102258002046FEF707F97B2104F14000FFF712FD45
:102268004FF0000B04E7BAF1780F09D8BAF15B0F09
:102278000AD8BAF1220F54D029D8BAF10A0F23D0BC
:102288005C2104F1400082E7AAF15C021C2A76D89E
:10229800DFE802F047757575758D2A7575753B759C
:1022A800757575757575357575750F75323E387533
:1022B8005D004FF00D0B94F83C300B2B7AD159464A
:1022C80004F14000FFF7E5FC4FF0000B4BE7BAF1D3
:1022D800550F1DD0D4D8BAF1270F22D0BAF14E0F1E
:1022E8004DD1044806F07EFE4FF0080BE3E700BF2F
:1022F8003E500308475003084FF0090BDBE74FF047
:102308000A0BD8E74FF00B0BD5E74FF00C0BD2E7D1
:1023180094F83C200C2A06D15C2104F14000FFF718
:10232800B8FCD346C7E7BAF1750F14BF4FF0080AD7
:102338004FF0040A4FF0000BBAF1010A0AD2BBF5BC
:10234800881FB8D34FF0010384F83C30BCE74FF046
:10235800020AEFE72046FEF785F822691046FFF7E4
:10236800C1FD002800F05381303A092A88BF22F0C5
:1023780020024FEA0B1B88BF073A9344DCE7AAF117
:10238800300BBBF1070F3FF67BAF4FF0030A06E0B7
:102398002046FEF767F82269303A02EBCB0B227D24
:1023A800303A072ACBD8BAF1010AF1D1C7E74FF082
:1023B800070B80E7BBF1FF0FC4D80C2BC2D15FFA23
:1023C8008BF104F14000FFF75DFC7DE70298C9B28C
:1023D800F9E7CB453CBF032384F83C3054E6033B84
:1023E800236698E64046FDF7CBFFB0B9B8F15F0F1A
:1023F80013D0B8F17F0F10D84046FDF7CBFF002867
:102408004AD1B8F12E0F40F0B180207DFDF7C2FF10
:102418000546002843D1804E9EE0082384F83C30CE
:1024280004F140055FFA88F12846FFF72BFC2046A7
:10243800FEF718F8216969B10846FDF7A1FF38B918
:102448005F2905D07F2903D80846FDF7A3FF08B107
:10245800C9B2E9E72846FFF7DBFB704F06460025BF
:1024680057F8041B304629F0A7FD00280ED10E3579
:10247800EDB2112D84F83C507FF453AD684BD3F87E
:10248800F431002B14BF0E2310236FE5FFF649AD7E
:102498000135242DE4D144E5B8F12E0F2BD10A23C0
:1024A80084F83C30002504F1400641463046FFF7E9
:1024B800F0FB2046FDF7D6FF0A27216900293FF4E3
:1024C80030AD5DBB21F02003452B27D16521304677
:1024D80084F83C70FFF7DDFB2046FDF7C3FF216958
:1024E8002B2901D02D29E8D13046FFF7D2FB204611
:1024F800FDF7B8FFE1E70923B8F1300F84F83C3065
:10250800D0D1237D43F02003623BDBB2162BC9D820
:10251800444DDD4015F00105C5D1C3E70846FDF778
:102528002FFF40B90846FDF735FF20B92E2909D1FC
:1025380084F83C70D8E72E29FAD021F020034A2BE2
:10254800D2D1F5E75F29D2D0EBE4652F01D0632F14
:1025580000D101360135013637780FB1B845F4D1CD
:102568002046FDF77FFF1FB90123FFE4002552E74E
:10257800212F07D123693D2BF6D12046FDF772FFA5
:102588003923F3E42E2F0FD123692E2B02D1237D7B
:102598002E2B01D05C23E9E42046FDF763FF20469B
:1025A800FDF760FF0D23E1E403362B4616F8027CA5
:1025B800632F18D0652F16D01B4AD35C84F83C30A3
:1025C800543BDBB2052B3FF6ACAC012202FA03F315
:1025D80013F02A0F18D113F0150F3FF4A2AC636A59
:1025E800134463629DE416F8012C2169914205F1B8
:1025F800010507D12046FDF735FF2B46652FDBD0B7
:102608000236D3E7632FFAE7636A013BE9E7012360
:1026180084F83C3083464EE6F94F03085807030810
:102628000C030020012040002C07030810B50246C7
:102638000144E5240020914203D8B0FA80F0400913
:1026480017E012F8013B30B103F0C003802B11D121
:102658000138C0B2EFE7BF2B09D9F72B09D8DB083F
:1026680003F0060344FA03F303F00300E3E71B0651
:10267800E1D510BD0020FCE7023981420B4603D3A7
:102688001A880239002AF8D00233181A4010704705
:10269800994210B511D313D800EB410002EB410267
:1026A80009B9084610BD30F8023D32F8024D1B1B2F
:1026B800002B02DB04D10139F2E74FF0FF30F1E7DC
:1026C8000120EFE7B2EB131F70B504464FEA131071
:1026D80019D901EB4001101A03F00F0302462646F0
:1026E800012A0CBF0D880D68013A25FA03F526F872
:1026F800025B01F10201F3D104EB400434F8023C1F
:1027080003B9013870BD0020FCE7F0B5059C002531
:10271800121B2E46AC420FD101EB4403174600EBC7
:102728004404411A9FB904EB420316B124F812601D
:102738000233181A4010F0BD31F8157033F815C07F
:1027480067443E4420F81560360C0135E2E71D88E1
:1027580035445D522E0C013F0233E3E7F0B4049F89
:1027680000260D463446D11BB7420BD105EB470373
:102778000A4600EB4707451B7AB907EB4101F0BC55
:10278800FFF77ABF35F816C033F816206444A41A48
:1027980020F8164024140136E6E71E8834445C53BA
:1027A800013A24140233E7E72DE9F043079CDDF8EA
:1027B80028E0DDE908760239154684464FF6FF78A9
:1027C800A4EB020955B900EB42011FB1012320F81F
:1027D80012300231BDE8F043FFF74EBF31F8024F27
:1027E800013D4444264405EB0904A5422ABF33F8B9
:1027F800024B4FF6FF744444744486EA040E17FAF9
:102808008EF72CF8027B4FEA144E360C3F0CD9E7B2
:1028180003789B0702D48068FEF702BE704710B5A4
:10282800044638B18068FEF7FBFD2046BDE810403D
:10283800FEF7F6BD10BD38B502290446806838BFDA
:1028480002210D4618B12368B1EB930F07D969002F
:10285800FEF7EEFE2368A06065F39F03236038BD92
:1028680038B504460C20FEF793FD23682278054608
:1028780002F00102C3F39D0023F0030313432B600E
:1028880063686B604000FEF783FDA8602268A1685A
:10289800C2F39D02520029F0FFFA284638BD38B528
:1028A80004460D464968FFF7C6FF2A782378A068D2
:1028B80062F3000323706A686260A9685200BDE889
:1028C800384029F0E9BA2DE9F3415768D1F8048076
:1028D8000D4606461446A86892683B464146FFF7EF
:1028E800D7FE013003D0234647462C461D462378A1
:1028F8002A785340DB0719D4791C3046FFF79BFF31
:102908006B680093D4E90121AB68B068FFF7FDFE5E
:1029180070602378327800280CBF002303F001038D
:1029280063F30002327002B0BDE8F08139463046E8
:10293800FFF781FF6B680093D4E90121AB68B068A9
:10294800FFF70CFFE4E72DE9F04F4B6885B004462C
:102958000E4615460BB1536843B9237823F001039B
:1029680023700023636005B0BDE8F08F81422DD14C
:10297800FFF776FFA542064607462ED06B687168BA
:1029880020461944FFF757FF2268A068C2F39D024A
:102998005200002129F0C4FAB368D4F808E0D6F848
:1029A80004900193AB68029300226B6803930EEBCB
:1029B8004908F4461146039B934233D0DDF804B02E
:1029C800CDF80090ACF1020000231AE0824206D153
:1029D800FFF746FF05460746D0E70546CEE700273E
:1029E800CCE730F802AF53441946029B3BF802ABE0
:1029F80033F8123003FB0A130099038001391B0CCA
:102A0800009100990029ECD14146881C13B1A8F81F
:102A180000300146A1EB0E0149100CF1020C013205
:102A28008046C8E761602A78337853402278384670
:102A380063F30002227005B0BDE8F04FFFF7EFBE68
:102A480010B5D0E90121034601EB42020020914272
:102A580004D31B78DB0748BF404210BD32F8024D53
:102A680044EA0040F3E730B5D0E90124002304EB41
:102A78004202944206D30278D20748BF5B420B60F9
:102A8800012030BDB3F5004F04D232F8025D45EAAB
:102A98000343EEE70020F4E7D0E901329FED0C0A8A
:102AA8009FED0C7A02EB43039A4205D30378DB07C8
:102AB80048BFB1EE400A704733F8021D07EE901A7E
:102AC800F8EEE77AE0EE077AB0EE670AECE700BFC7
:102AD800000000000000804770B505460C46022142
:102AE800FFF7A9FE002C2B78B4BF0122002262F365
:102AF8000003AA682B70B4BF61422146012388B243
:102B0800090C14461E4622F8020B03F10103F6D104
:102B18006E60208070BD2DE9F04F0C4651688FB073
:102B28009346013105460393FFF785FEDBF8042041
:102B3800A86801325200002129F0F2F92B7800260A
:102B480023F001032B706E60DBF80410204601317E
:102B5800FFF771FE59462046FFF7A1FE039BD4F804
:102B68000890D4F80480D3E901370293AB68049342
:102B78003A46029B41464846FFF78AFD002837D16E
:102B8800049A6060012313806B6023786268002ACE
:102B98000CBF002103F0010161F3000303992370C6
:102BA8009BF8003009784B40DB0740F101816B68E6
:102BB8002978003B18BF012363F300012970002A1C
:102BC80000F0F68000230BA84FF0FF31CDE90B335E
:102BD8000D93FFF781FF0BAA29462846FFF773FEDE
:102BE800039A214620460FB0BDE8F04FFFF76BBEB1
:102BF800013001D16E60C8E7029B03F10042013A3F
:102C08004FEA420A37F8121033460E0403F1010066
:102C18004ED59BB209EB48014FF0000C08F10100BA
:102C2800C3F1100629F818C0019160600231CE4640
:102C380005968E4540D337F812209A400592029A9D
:102C4800012A09D907EB0A02C3F1100132F8022C54
:102C5800CA40059911430591029A801A6860049A3E
:102C680000F10040013802EB400207920AF102022B
:102C78000992BA1E0892D4F804A0029A524529D3A0
:102C88000AF1004A0AF1FF3A09EB4A0A0022C3F1A5
:102C98001000D14573D96FF000416B682BB10498CF
:102CA8005A1830F81220002A73D06FF0004175E0EE
:102CB800490089B20346A8E7BEF8008008FA03F67F
:102CC8004CEA060C059E2EF802CB28FA06F81FFAE5
:102CD80088FCAEE7019A0198118832F8022C42EA82
:102CE80001420599B2FBF1F20999411A0691089936
:102CF800069F00200E4686460199B9420DD80988DC
:102D08000844A8BB079921F80229019A0791023AB9
:102D180001920AF1FF326260ADE736F8021FB7F898
:102D28000080994041EA1E4E1FFA8EF1514318FA6D
:102D380080F81FFA81FC090CA8EB0C0CC1EB2041B0
:102D480027F802CB01EB2C40D6E738F8021F994050
:102D580041EA1E4EBCF80010394411FA8EF12CF8E5
:102D6800021B0F0C01996145EFD83844013AC8E7B6
:102D78000027DDF82080DDF818C0BE46F2E7BAF873
:102D8800001041FA03F6324381402AF802298AB238
:102D98007FE7013B6B6080E7013B63606368002B62
:102DA8003FF4F3AE5A1839F81220002AF4D0ECE6B2
:102DB8000FB0BDE8F08F7FB5064601AD742085E8F9
:102DC8000E00FEF7E5FA0446034695E8070043F8C7
:102DD800046B83E8070001236FF001020025C4E9B2
:102DE80006320A22C4E90A23C4E908551420FEF76A
:102DF800CFFA2021206304F14000FEF7AFFE2946F8
:102E080004F15000FEF7AAFE294604F16400256685
:102E1800FEF7A4FE236B20461D802561A582FDF7E1
:102E280021FB2046FDF71EFB2046FDF71BFB204635
:102E3800FFF762F8A36B012B06D094F83C30052B02
:102E48001CBF062384F83C30204604B070BD30B562
:102E580085B001AD04460146284619F04BFE95E8B9
:102E68000E002046FFF7A7FF05B030BD70B5044639
:102E78000D461646FDF7F5FBC0B9E38C228D9A4244
:102E880008D30633D900E06AFEF7D2FBE38CE06290
:102E98000633E384238DE26A591C02EBC3002185C3
:102EA80002F83360002343704380456070BDF8B575
:102EB80044680E462CB9F8BD042BFCD105230370D9
:102EC800F9E7254628466D68002DF4D0776839461D
:102ED800FDF7C7FB0028F5D00378043B022BEAD89E
:102EE80006253570002239462046FFF7BFFF0378D4
:102EF800002BE1D105706468F4E700004278012AEC
:102F08000B4602D1006AFFF7B1BF026A0149406A65
:102F1800FDF7EEBB1401030810B501220446FFF7C4
:102F2800A5FF0378012B05D12378012B8CBF04233F
:102F38000223037010BD00004278012A0B4602D11B
:102F4800006AFFF7E9BF026A0149406AFDF7D0BB92
:102F5800040103084278012A0B4602D1006AFFF7F0
:102F6800DBBF026A0149406AFDF7C2BB0C010308D6
:102F780038B543680D46044611464BB9054805F077
:102F880013FF294660602046BDE83840FDF779BB4D
:102F980038BD00BF3C060308F8B50B79092B0CBFF8
:102FA800848AC48A4FF6FF739C42064602D11A4AA5
:102FB800FFF7DEFF328B738B756AD61A24F400474D
:102FC8001AD123040FD559212846FDF7D1FB5921E1
:102FD8002846FDF7CDFB59212846FDF7C9FB5921A5
:102FE8002846FDF7C5FB3B46422200212846FDF74F
:102FF800E4FB0123AB71F8BD28463B464022002183
:10300800FDF7DBFB210A21F07F013143C9B22846D5
:10301800FDF7AEFBEDE700BF5850030870B5144646
:10302800054612780E46ABB132B1032A04D0124AD3
:10303800BDE87040FFF79CBF032323702B6A6168CB
:1030480018465B68002BFBD1FDF70BFB08B1032387
:10305800037070BD62B901232370006A2146FFF72F
:1030680026FF2378012BF4D1044A31462846DFE7AE
:10307800062AEED0024ADBE7715003087E500308A7
:103088008B5003082DE9F3414378012B04460D4684
:103098001AD10B79102B0CBF4FF001084FF0000824
:1030A80008D0036A1B782BB9114A02B0BDE8F04179
:1030B800FFF75EBF01AA6D2105F10800FDF7B0FA20
:1030C80000260746B74202D102B0BDE8F081019B55
:1030D800206A53F8261000220909FFF7C7FE434665
:1030E800024629462046FFF799FF0136EAE700BF66
:1030F80092500308014AFFF73BBF00BFA4500308E2
:103108008842F8B507460C4601D10120F8BD04F005
:1031180009FF0546204604F005FF854201D000203E
:10312800F4E7194B9D4213D17A6863689A42F6D145
:103138003E1D043400257B68AB42E6D954F8041FD1
:1031480056F8040FFFF7DCFF0028E8D00135F2E756
:103158002146384605F06AF80028E0D00B4B9D421E
:10316800D3D1D7ED017AF5EE407AF1EE10FACCD151
:1031780017EE900A636800F0004003F00043C31A9A
:1031880058425841C2E700BFE8FF0208E0060308BA
:1031980038B504461D46FDF7FEFA2A462046024980
:1031A800BDE8384014F0B8BB5507000830B41D46D8
:1031B80001EB420441EA022325B13522E14330BC48
:1031C800FFF7E6BF34226142F9E770B504460D46C1
:1031D800C06819461646FDF71CFD324603462946C7
:1031E8002046BDE87040FFF7D3BF10B504460B4634
:1031F800406A14220121FFF7E8FF606A00233622A3
:103208004FF0FF31FFF7C4FF2046BDE81040FDF73F
:1032180027BD0B4610220121FFF7D7BF70B5054621
:103228000C4679B3CA0705D5BDE87040406A491015
:10323800FDF77ABB8B0718D004F00F04022C4FEA75
:10324800111109D0062C0BD005291BD0BDE8704000
:10325800406AC9B2FDF7F8BCBDE87040FFF74EBE42
:10326800BDE87040406AFFF7D4BF0968406AFDF7BF
:1032780001FB2279044B2146284653F82230BDE849
:103288007040184770BD00BF180003082DE9F041D1
:103298000E46054656F8043F0F464FEA1328002409
:1032A800444501DBBDE8F08156F8041F2846FFF7C6
:1032B800B5FF6B683BB10234284657F82410BDE8C7
:1032C800F041FDF7DEB90134EAE710B50446FFF72F
:1032D800DDFF606A2221BDE81040FDF787BB2DE9BC
:1032E800F74F06460C4615461F4600212046FDF7B7
:1032F80081FC38B16DB9706A394603B0BDE8F04F4A
:10330800FDF76ABB01212046FDF774FC20B1002DB2
:10331800F1D103B0BDE8F08F002C4DD0A3074BD1FD
:1033280063684FEA132BDBB21E2B37D1002D39D13E
:10333800D6F80C8008F10103F3600BF1FF3304F1B8
:10334800040A4FF00009009385F00102009B4B45E9
:103358000FDC0BF10101304654F821103B462A4698
:10336800FFF7BDFF706A414603B0BDE8F04FFDF7B7
:10337800D1BA5AF8041F019243463046FFF7AFFF0F
:1033880009F10109019AE1E754F8041F3B462A466E
:103398003046FFF7A4FF4445F6D1BAE71F2B05D105
:1033A800002DC5D1043404EB8B08F4E7202B03D19E
:1033B800A46885F0010598E730462146FFF72EFFFF
:1033C800706A3B463DB143224FF0FF3103B0BDE880
:1033D800F04FFDF7F2B94422F6E7000001F00F03C1
:1033E800022B2DE9F04705460C4604D1BDE8F0470D
:1033F8000909FFF7A1BD002965D011F0030662D1C4
:103408000B792C2B49D18968FFF708FFE668002E55
:1034180059D016F0030856D17768FAB28E2A334687
:1034280009D13F0A06F1040907F1FF3AC24518DC41
:10343800013756F827301A79312A1AD1996828465F
:10344800FFF7ECFE6C6A2046FDF7B1FA2046FDF75F
:10345800BFFA20465622BDE8F0476FF00201FDF79B
:103468009AB959F8041F2846FFF7D8FE08F1010851
:10347800DCE7322A27D16C6A9D682046FDF797FA67
:103488002D092046FDF7A0FA2B4620461822BDE854
:10349800F0476FF00101FFF798BE2D2B13D18C6810
:1034A8008CB163681B0A022B01D1E36833B9271D6D
:1034B8006368B6EB132F0DD3BDE8F0879A07F6D1F2
:1034C8001B79AC2BF3D121462846064ABDE8F047C4
:1034D800FFF74EBD57F8041F2846FFF77FFF013658
:1034E800E6E700BFB1500308F8B5026A1278072A68
:1034F800044604D0BDE8F840164AFFF739BD8D6888
:1035080045B9406A0F21FDF79FFB606ABDE8F840A6
:10351800FDF78EBA15F003021AD12B791B2B17D1A0
:10352800C668EF68731CC360B9683346FFF7D7FEF7
:10353800A9682046FFF772FE606AFDF779FA3146FE
:10354800606AFDF7E7F9F9682046FFF767FEDCE7F0
:103558002946F9E7BB50030810B504468968FFF708
:103568005DFE606ABDE81040FDF729BA38B58D6880
:10357800044645B9446A642229462046FDF70BF9FA
:103588000123A37138BDAB070ED12B795E2B0BD16C
:10359800A968FFF743FEE9682046FFF73FFE646A23
:1035A80066226FF00101E8E729462046FFF736FE5C
:1035B800646A65224FF0FF31DFE72DE9F347C668FB
:1035C8000D46731CC36004460021A868FDF712FB72
:1035D8000246E0B9E768A9687B1CE36020463B46E1
:1035E800FFF77DFEE9682046FFF718FEA86801216D
:1035F800FDF700FBC8B92B690BB96B691BB1606A91
:103608003146FDF7E9F9606A3946FDF783F901AA01
:10361800712105F11000FDF703F8002781464F4599
:103628000AD169692046FFF7F9FD606A314602B0A0
:10363800BDE8F047FDF76EB9019B53F827800021DC
:10364800D8F80800FDF7D6FA0246F8B9D4F80CA065
:10365800D8F808100AF10103E36020465346FFF743
:103668003EFED8F80C102046FFF7D8FDD8F8080021
:103678000121FDF7BFFA636A0028D6D13146184602
:10368800FDF7AAF9606A5146FDF744F90137C6E724
:103698002DE9F047C668D0F814A0B0F81A908682D1
:1036A8000D46B31CC36006F10108038BA0F8168011
:1036B800044643830021A868FDF79CFAE8B9E76847
:1036C800A8687B1CE3600121FDF794FA18B9606AC9
:1036D8004146FDF781F9606A3946FDF71BF9E9684B
:1036E8002046FFF79BFD606A4146FDF713F9A9687C
:1036F8003B4601222046FFF7F2FD2969C4F814A0D1
:103708002046A4F81A90FFF789FD606A3146BDE8A3
:10371800F047FDF7FFB800002DE9F04F85B0C56808
:103728001E460E9B03936B1C0293AB1C0446C3609E
:103738000F46934629460122FDF785F8394620466B
:10374800FFF76CFD676A4A2238466B1C0021FDF7BB
:1037580034F80123BB71606A2946FDF7DBF80421C0
:10376800FDF70DF8D4F80C9009F10103E360002788
:103778005F4515DB2046FDF717F8606A6FF0020118
:10378800FCF7FDFF0299FDF7C5F803992046FFF7FE
:1037980045FD606A494605B0BDE8F04FFDF7BAB887
:1037A8003346D4F80CA01A6801920AF10102E260CB
:1037B800019AD2F8088004360137B8F1000F48D1D1
:1037C8005F453BD1606AFDF7FAF80025A846019BE2
:1037D8002046D968FFF722FDEDB1606A0F21FDF799
:1037E80033FA606A4146FDF795F80121FCF7C7FFF7
:1037F8000F21FDF729FA29462046FFF7ABFB29469A
:103808002046FFF799FB606A4FF0FF31FCF7B7FFDE
:103818002046FCF7C9FFD4F824804B464A2240468C
:1038280001250021FCF7C9FF5146606A88F8065057
:10383800FDF770F82946FCF7A2FF99E720461D4AD4
:103848001968FFF795FB204605B0BDE8F04FFCF777
:10385800ABBF18F003052BD198F80420762A43460D
:1038680003D1DD68D8F808802D09606AFDF7A3F850
:1038780041462046FFF7D2FC606A0821FDF7B6F8FA
:10388800606A534644224FF0FF31FCF796FF002D43
:1038980098D029462046FFF75DFBD4F80C8008F144
:1038A8000103E360022241462046FCF7CCFF8EE785
:1038B8000025DAE7C75003082DE9F347C76898469B
:1038C8007B1C16460D46C36002223946DDE90AA96B
:1038D8000446FCF7B8FF36BB606A0321FCF74FFFCC
:1038E80029462046FFF79AFC606A6FF00201FCF750
:1038F80046FF606A0F21FDF7A7F9606A3946FDF7B0
:1039080009F80121FCF73BFF49462046FFF786FCF2
:10391800606A4FF0FF31FCF732FF204602B0BDE885
:10392800F047FCF741BFCDF800A043463246294690
:103938002046FFF7F1FEDCE7F0B5CE683379782B47
:1039480085B005460C4609D1B3680193002300935E
:1039580089681A46FFF7B0FF05B0F0BD742B03AABB
:103968004FF0770113D106F10800FCF759FE3769CB
:10397800039BA1680246F06827B900902846FFF724
:10398800CBFEE9E7BC68CDE900042846E2E704F18C
:103998000C00FCF745FE00230093A168039B024638
:1039A800ECE72DE9F041C568D1F80C800E46AB1C58
:1039B80004460022D8F80810C3602B46FFF78FFC96
:1039C8006F1CB1682046FFF729FC606A3946FDF78D
:1039D80003F8606A2946FCF79DFF4FF0FF31FCF7BA
:1039E800CEFED8F80C102046FFF718FC606A39465E
:1039F800BDE8F041FCF78EBF01F00F03022B70B554
:103A080004460D46164602D01E4AFFF7B1FA314663
:103A18002046FFF703FC606AFCF7CDFF6378012BB3
:103A28004FEA151610D1226A1378033B032B0BD8E3
:103A380050683146FFF770FA0346206A1A78032A5D
:103A480008D13146FFF712FA31462046BDE87040EA
:103A5800FFF780BA00223146FFF708FA236A5B684D
:103A68005B68002B02460CBF0123002304D00178B9
:103A7800012904BF0021017029462046FFF7CEFA2C
:103A8800E2E700BFDF500308D1E90212FFF7B4BF35
:103A98002DE9F8430D46C76855F8046F7B1C5FFA9B
:103AA80086F90446C360360A4FF00008B04505DBC6
:103AB800606A3946BDE8F843FCF72CBF55F8041F87
:103AC800204608F10108FFF7A9FBB045F0DAB9F183
:103AD8001E0F606A3B460CBF452246224FF0FF315D
:103AE800FCF76BFEE2E710B504468968FFF796FB22
:103AF800606AD322BDE810400021FCF74CBE2DE9D6
:103B0800F0414E6804460D46360A8968FFF786FB81
:103B1800032E83BFD4F80C8008F10103E3604FF053
:103B2800000801277B1CB3421ADB032E4AD9E5683B
:103B3800606A6B1CE3602946FCF74EFF606A4146E9
:103B4800FCF7E8FE0121FCF71AFEFCF73DFF606A6E
:103B5800FCF735FF606A2946BDE8F041FCF7DABE9C
:103B6800296920460237FFF759FBB74205DA606A30
:103B7800FCF721FF606AFCF72BFFEB68606A03F033
:103B88000F020A2A13D1C3F30713252B1ABF343B9C
:103B9800D9B20621FCF72AFFB74206DA606A434623
:103BA80046224FF0FF31FCF708FE0835BAE71A79CC
:103BB800852A01D13221EDE79B680BB90721E9E796
:103BC8003321E7E7BDE8F0812DE9F0410C464D6867
:103BD80054F8081F0646FFF721FBA5F10D085FFA08
:103BE80088F82D0A0127AF4201DBBDE8F08154F8BF
:103BF800041F3046FFF712FB706A4146FCF7F6FED9
:103C08000137F0E7F8B54B680C46896805461F0A86
:103C1800FFF704FB0C3400260236B74204F108040F
:103C280000DCF8BD54F8041C2846FFF7F7FA54F8EE
:103C3800081C686A09092439C9B2FCF7D7FEEBE702
:103C480038B50C46C9680546FFF7E8FAA268686AFD
:103C5800C2F30712332A1ABF3F3AD2B20222303ACD
:103C6800BDE83840D2B20021FCF795BD10B5044636
:103C78008968FFF7D3FA606A5522BDE810404FF013
:103C8800FF31FCF788BD38B50C460546C968FFF713
:103C9800C5FAA1682846BDE83840FFF7BFBA00005A
:103CA80038B5026A1278072A04460B4606D0022A5B
:103CB80004D0BDE83840114AFFF75AB99D684DB99C
:103CC800606A0F21FCF7C0FF606A0021BDE8384038
:103CD800FCF7B8BEAB070BD12B79AF2B08D1204628
:103CE800A968FFF79BFA2046BDE83840FCF7B8BF43
:103CF80029462046FFF792FAE6E700BFEA50030894
:103D080011320B46D2B20121FFF75FBAF8B5174B53
:103D1800D3F8F47104460D4637BBC6688968731C2E
:103D2800C36001223346FFF7DAFA1F21606A0122D5
:103D3800FFF7E6FFE96841B12046FFF76FFA606ACE
:103D48003B463A460121FFF731FA656A4FF0FF31E9
:103D580028466522FCF71FFD0123606AAB713146D6
:103D6800BDE8F840FCF7D6BDF8BD00BF0C03002045
:103D780016320B46D2B24FF0FF31FFF726BA19328E
:103D88000B46D2B20021FFF720BA0B4613220021BE
:103D9800FFF71BBA2DE9F14F8F0705460C4616466B
:103DA80013D001F00F03022B19D102F0FD06012EEA
:103DB8004FEA111104D001B0BDE8F04FFFF7CAB8BF
:103DC80001B0BDE8F04FFFF799B84968CBB22D2B89
:103DD80000F085800BD8062B0ED02C2B13D0544A1C
:103DE8002146284601B0BDE8F04FFFF7C1B82E2B99
:103DF80000F08A809D2BF2D1002EF0D104F1080248
:103E0800090A284685E0022A02D0A168FFF706FAC7
:103E1800E768002FE3D017F00309E0D17B68DAB236
:103E28008E2AB8460DD1022E4FEA132805D007F185
:103E3800040A08F1FF3BD94515DB08F1010857F8DA
:103E4800288098F80430312B29D1022E13D1686AC2
:103E5800FCF7BEFD56226FF00201686A01B0BDE8AA
:103E6800F04FFCF798BC5AF8041F2846FFF7D6F91C
:103E780009F10109DFE72846D8F80810FFF7CEF95D
:103E8800012E686A07D158220221FCF784FC5522CA
:103E98004FF0FF31E1E756226FF00201DEE7322BE7
:103EA8009DD1012E686A0AD1FCF785FDD8F8081063
:103EB800686A090901B0BDE8F04FFFF766BF022E36
:103EC80001D1FCF781FDD8F80830686A1B0918226F
:103ED8006FF0010101B0BDE8F04FFFF776B9A268B5
:103EE800002A3FF47CAF002E7FF479AF5168090AAD
:103EF800022907D1D3682BB1980703D11B79AC2BC2
:103F08003FF46DAF08327CE7002A7FF468AFA16800
:103F180021B901B0BDE8F04F00F00CB88E0703D10D
:103F28000B79922B0A46E1D004F10802012168E7D7
:103F3800DF5003082DE9F04701F1FF3A04460D462A
:103F480090464FEA0A2900264FF0FF3719F5807F7F
:103F58000CD17B1C05D1606A2B4630225146FFF7F5
:103F680017F90026AE421DD1BDE8F08758F8261093
:103F780071B18A070CD10A79222A09D101370BD1EC
:103F8800606A49EA060331225146FFF701F93746CC
:103F98000136A9F58079D9E72046084ABDE8F047F7
:103FA800FEF7E6BF58F82610B74208BF8968002216
:103FB8002046FFF7EFFE0136D4E700BFF5500308AF
:103FC8002DE9F04FD1E902B70BF00F03022B87B0B0
:103FD80004460D4640F0E780002F00F0E480B80763
:103FE80040F0E1803B792C2B40F0DD80BB6803F08A
:103FF8000F02022A40F0D7801B097C2B40F0D380A7
:10400800FB681A79302A40F0CE809B68059304AA91
:10401800A42105A8FCF704FB431E022B00F2C38071
:10402800049B01281A6800F0B180022800F0AC80D7
:104038009E68F10740F1B780710800F0B480D3F8AA
:10404800049032B1930704D11179A639022940F2BC
:10405800AA80B9F1000F08D019F0030F05D199F81B
:104068000410A639022940F29E802B696F690193DA
:10407800E5686369218B0093638B029305F1010A5C
:104088006183EB1C291D19F00108A582A4F816A06C
:104098000393E16005D1494620460392FFF7BEF835
:1040A800039A11462046FFF7B9F8606AE91CFCF745
:1040B80093FC606AA91CFCF72DFCFCF77CFC002231
:1040C80059462046FFF766FE01992046FFF7A6F8F5
:1040D800606A5146FCF71EFC31462046FFF79EF801
:1040E800606A0E21FCF782FC606AE91CFCF712FC8E
:1040F800B8F1000F4ED158220221FCF74CFB606A40
:10410800FCF762FC002EACBF00210121606AFCF7BD
:104118006DFCAB1C606A43224FF0FF31FCF74DFB8E
:10412800009B6361029B6383002F3AD0606AFCF7AF
:1041380046FCB8F1000F02D1606AFCF740FC394632
:104148002046FFF76BF8E668606A731C3146E36047
:10415800FCF742FC88F00101606A0131FCF70FFBB3
:10416800606A2946FCF7D6FBFCF729FCB8F1000F7A
:1041780002D1606AFCF723FC1FB1606A3146FCF784
:10418800C9FB07B0BDE8F08F032658E79146032620
:1041980002465EE7FCF70FFC49462046FFF73EF86B
:1041A800B0E73E46DCE7E668238BB4F81AA06383E1
:1041B8006FEA46436FEA5343D4F814B0A38206F17A
:1041C8000108F31CE36039462046A4F81680FFF77F
:1041D80025F8606A5F220321FCF7DDFA06F102097F
:1041E800606A4146FCF796FB4B464B220121FCF7DF
:1041F800E4FA0022A9682046FFF7CCFD2969204689
:10420800FFF70CF8606A4146FCF7E6FB606A49462E
:10421800FCF780FB6FF00301FCF7B1FA6969C4F899
:1042280014B02046A4F81AA0FEF7F8FF606A3146D9
:1042380007B0BDE8F04FFCF76DBB2DE9F047044629
:10424800904699460F4621B9BDE8F0471946FEF752
:10425800E5BFC668731CC360156885B315F0030A0B
:104268002DD12B797B2B2AD1A968FEF7D7FF52468F
:1042780031462046FCF7E7FAE96852462046FFF740
:1042880089FD4B4608F10402791E2046FFF7D5FF49
:10429800656A0F212846FCF7D7FC28463146FCF70B
:1042A80039FB5C220221FCF776FA28466FF00301FD
:1042B800FCF765FA2046BDE8F047FCF775BA2946D1
:1042C8002046FEF7ABFF204600223146FCF7BBFA3A
:1042D800606AFCF774FBD4E737B50C46054601AABB
:1042E8007A2104F10800FCF79BF9E368019A01467A
:1042F800284603B0BDE83040FFF79FBF2DE9F041E5
:10430800CD6804460E464DBB0378ABB1036A1D78F1
:1043180095B940F2E311FEF7F1FDB1682046FEF7CA
:104328007DFF606A2B462A460121FEF73FFF606A3F
:10433800BDE8F041FCF743BBB1688B0707D001F03B
:104348000F03022B08D12046FEF768FFEFE700298C
:10435800F9D00B793A2BF6D1BDE8F081AF0740F0E0
:10436800A9806B68DAB25B2A11D1ED68002D46D1BD
:10437800006A0378072BEFD1896801F00F03022B3D
:10438800EAD10422BDE8F041D140FEF76FBD562ABC
:1043980011D101228968FFF7FDFCE9682046FEF784
:1043A8003DFFA968606A09093E39C9B2FCF71EFBDE
:1043B8000222B16879E0572A23D11B0A5F1E013314
:1043C80055F82310FEF72AFF002F02DD606AFCF77C
:1043D800F2FAB16800222046FFF7DCFC043500261B
:1043E800BE42B9DA0136BE4202DA606AFCF7E3FA85
:1043F80055F8041F00222046FFF7CCFCF0E7A90778
:1044080058D16B68DAB2062A54D1B768002F51D058
:10441800BA074FD17A68D1B206294BD11B0AB3EB40
:10442800122F4FEA122845D1A8F10203012B41D8D7
:10443800BB6823B1980702D11B79222B3AD0FB68BD
:1044480023B1990702D11B79222B33D0B8F1020F7F
:1044580006D03B6923B19A0702D11B79222B29D0B8
:10446800A9682046FEF7DAFEE9682046FEF7D6FE80
:10447800B8F1030F06D120462969FEF7CFFE606A1E
:10448800FCF7A6FA606AFCF79FFAB9680022204692
:10449800FFF780FCF96800222046FFF77BFCB8F1A3
:1044A800030F7FF459AF396900222046BDE8F04177
:1044B800FFF770BC29462046FEF7B0FE002278E7D9
:1044C8002DE9F843C7681D46BB1C0C46C360064669
:1044D8003946406A07F101089146FCF71BFA434642
:1044E8004B220121FCF769F9A16800223046FFF749
:1044F80051FC24697CBB30464946FEF78FFE336A7F
:10450800706A1B78062B13D12146FCF79BFA706A58
:10451800FCF755FA706A3946FCF75EFA4146706A4C
:10452800FCF7F8F9BDE8F8436FF00301FCF727B989
:10453800AD00032B05F1050502D0042B09D1012498
:104548002346254443EA85032F22E143FEF720FE54
:10455800E0E70223F5E72379AD2B07D1A1683B46B5
:1045680000223046FEF7BBFEE468C3E7E168304648
:10457800FEF754FE706A5F220321FCF70CF96B1CEE
:104588004A4621463046FFF79BFFC3E72DE9F04F27
:1045980087B0064600AF0C4611B90123136013E03B
:1045A80011F003051AD10B79682B1AD1CB681B09B6
:1045B80013608C68002CF0D0012504F00F03022B47
:1045C8000ED12309002DE9D0706A1B224FF0FF316C
:1045D800FEF7FBFD1C37BD46BDE8F08F0025ECE774
:1045E80015B9A3681B091360A04658F8043F4FEAA1
:1045F800132A08EB8A030AF1FF3BBB60C14659F84E
:10460800040F0009FDF7EAF9BB6899458344F6D120
:104618000BF1070323F00703ADEB030DC7F80CD02C
:10462800E946002358F8040F3B6007F1140100091C
:10463800FDF7EBF97A697A600146484627F02CFCC9
:104648003B687A6801339A454A4405D091464FF051
:104658002E0209F8012BE5E75946F868FDF712F92B
:104668001B2203464FF0FF31706AFEF7AEFD002DA6
:10467800B0D00834BB689C42ACD054F8041F706AB0
:104688000909FFF782FBF5E737B504460D46802296
:10469800406A0121FCF77FF8606A0F21FCF7D4FA21
:1046A8002946204601AAFFF771FF0199204603B069
:1046B800BDE83040FEF74EBC2DE9F74F04461746DB
:1046C8009B460D4629B9194603B0BDE8F04FFEF7E1
:1046D800A5BDC668331DC360136806F1010906F15C
:1046E800020A06F10308002B00F0CB8013F0030246
:1046F80040F0C78019797B2940F0C38099680192FE
:104708000093FEF78BFD606AFCF755F940F2D5116E
:104718002046FEF76AFDDDE900322046D968FFF73A
:1047280039FB022231462046FCF78DF8606A0321E6
:10473800FCF725F85B463A1D691E2046FFF7BCFFCB
:10474800656A6FF002012846FCF719F80F21FCF79B
:104758007BFA2846FCF738F949462846FCF73CF925
:1047680031462846FCF7D6F8FCF725F901222846F9
:104778002121FFF7C5FA28460821FCF737F95346E7
:1047880044224FF0FF312846FCF717F8606AFCF71F
:1047980012F9606AFCF71CF9606AFCF715F94FF426
:1047A800EB7314220121606AFEF70FFD606AFCF7C3
:1047B8000FF9606AFCF70CF9606AFCF7FCF8606AAC
:1047C8000A21FFF7E2FA606AFCF7FEF8606A0F2137
:1047D800FCF73AFA606A032336226FF00301FEF70A
:1047E800D7FC2046FCF73CFA43464422606A4FF067
:1047F800FF31FBF7E2FF606AFCF7E1F8606A0F211E
:10480800FCF722FA606A4146FCF7E6F8606A022182
:10481800FBF7B5FF5146FCF77DF8FCF7D9F8606A5D
:10482800FCF7D6F8606A4946FCF774F84FF4EB7366
:1048380014220121FEF7C9FC0F21606AFCF704FA73
:10484800606AFCF7B8F8606AFCF7B5F8032336220B
:104858006FF00301606AFEF79BFC2046FCF700FA44
:10486800606AFCF7ACF8606A4FF0FF31FBF787FF2E
:104878004146FCF74FF8204603B0BDE8F04FFBF780
:1048880093BF19462046FEF7C9FC606AFCF793F807
:10489800204640F2D511FEF7A8FC606AFCF78FF8B5
:1048A8003FE78968406A0909FFF76FBA70B4C468BE
:1048B8002678042E1D4608BF6668638808BF46F838
:1048C80023505D1C658070BCFEF762BC10B40446C2
:1048D80043B90F2A06D8503A5DF8044BD2B20121E9
:1048E800FBF759BF03F12401204613465DF8044B3A
:1048F800CAB20121FEF74CBC2DE9F14F06460C4621
:1049080091461D461BB1CB8A43F00803CB82336A1C
:10491800A4F81E901B78002B4DD155EA0905706A42
:104928004DD123693222012101B0BDE8F04FFFF7D4
:10493800BDBFDB6A03EBC80B13F83830053B012B0E
:104948001AD84FF0000A14E0E36A03EBCA0213F81E
:104958003A30062B0BD1DBF804105368994206D184
:10496800BBF80220706A0023FFF7B0FF01370AF195
:10497800010A238D5345E7DC08F10108336A1A8DD3
:104988004245D6DC002FC8D0766A236955EA090566
:104998000CBFC7F10101F94330460CBF2022212288
:1049A800FFF784FF5FFA87F84146304601B0BDE85B
:1049B800F04FFBF7DDBE4FF000084746DEE72369FE
:1049C80033224FF0FF31AFE770B54378CE68012B43
:1049D8000446154606D1036A0A461B8B2946FCF78E
:1049E800E3FC7061002371691A462046FFF784FFD3
:1049F800F1682046FEF712FC062D04D1606A5E229B
:104A08000021FBF7C8FE0023606A1A46BDE8704023
:104A18000121FEF7CBBB00002DE9F04F87B0CDE9AF
:104A28000221044605AAA42103A81D46FBF7F8FDA8
:104A380000270190B946B8463E464FF0010B019B4E
:104A48009F421BD1B8F1000F03D0606A4946FBF7BB
:104A58006BFF029B606A002B00F0818005EB46012A
:104A680045EA0623B8F1000F76D0C1F1FF2101F520
:104A78007F013722FE31FEF78BFB14E0059B53F8CC
:104A880027A0BAF1000F5AD01AF0030F57D19AF89D
:104A98000420A62A1CD118F0020F07D0334A514629
:104AA8002046FEF765FA07B0BDE8F08F1D2F01D943
:104AB8002F4AF4E70BFA07F2DAF80810204649EA19
:104AC8000209FEF7ABFB01354FF001080137B6E7E5
:104AD800A72A0BD1606AFBF76AFFDAF8081048F0DA
:104AE80002082046FEF79AFB0136EFE7A82A26D1EE
:104AF800DAF80C2072B193070CD11179AA2907D1E1
:104B08009268DAF808102046FEF776FF0135DDE7EF
:104B1800AC290ED0DAF8081001F00F02022A01D0F1
:104B2800144ABCE70909606AFEF773FBDAF80C104F
:104B3800D7E7062251462046FFF746FFE6E718F07A
:104B4800020F01D00C4AAAE70EB10C4AA7E751465A
:104B58002046FEF763FBD9E73622C9438BE7434675
:104B680032462946FEF722FB9DE700BFFC500308AA
:104B7800035103080F5103081C510308235103086C
:104B880070B50D46417801290446134603D12A46DB
:104B9800FCF70AFC6861606A54220121FBF7FBFDFF
:104BA8006E6900231A4631462046FFF7A5FEB18AF2
:104BB800606AFEF72EFBE96829B18B0703D10B79F0
:104BC800A32B08BF0021204602230022FFF724FF61
:104BD800B08A70BD036A10B51A8B0446FFF7D0FF80
:104BE80001462046BDE81040FEF7B4B900238968A5
:104BF8001A46FFF711BF10B404464BB90F2A07D85D
:104C0800403A5DF8044BD2B24FF0FF31FBF7C3BD19
:104C180003F12601204613465DF8044BCAB24FF053
:104C2800FF31FEF7B5BA03F128011346CAB20021D5
:104C3800FEF7AEBA022A02F12A020B46D2B214BF1C
:104C4800C1F101010121FEF7A3BAF8B50C460546EA
:104C580054F8046F360A04EB8607BC4206D1686A2A
:104C680031460022BDE8F840FFF7E4BF54F8041FBE
:104C78002846FEF7D3FAF0E701F00F03022B70B5D0
:104C8800044612D00B79492B09D0483B082B18D879
:104C9800DFE803F0081707171717170507000123A0
:104CA800A37070BD8E680D6975B9A378002BF8D113
:104CB800638A002BF5D02046194ABDE87040FEF7FC
:104CC80057B9D1E90265EFE7A37803B3238A013323
:104CD8009BB2012B23820AD1618A606AA1B10022AA
:104CE800FFF7A8FF606A02220021FFF7A3FF294609
:104CF8002046FEF793FA606A3109FEF78AFA606A7D
:104D0800BDE87040FBF78FBEFBF751FEEAE7638A08
:104D18000133638229462046BDE87040FEF77EBA1B
:104D28002A510308F8B504460E4611461A460023D0
:104D380085780769837003610D4BFBF7ABFC6368EB
:104D4800A3B9618A39B1228A2AB9606AFFF772FF6A
:104D5800606AFBF72CFE238A628A31462046FFF7F9
:104D6800CBFD003D18BF0125A5702761F8BD00BF28
:104D7800814C000870B513464278012A05460C4656
:104D880004D10A460721FCF70FFBA061A669E26877
:104D9800284646233146FFF7C5FFB08A70BD00009C
:104DA8002DE9F04F044685B0884602AA422108F151
:104DB8000800FBF735FC236A00251F8B0646A94629
:104DC800B5420AD1D8F80C100B79032B3FD13A46DB
:104DD8002046FFF7CFFF054649E0029B53F82530F0
:104DE80000936C2103F1080003AAFBF719FCDDF816
:104DF8000CB0DBF800100B09732B82460CD0204650
:104E0800FEF70CFA0123534517D3009BD96859B113
:104E18002046FEF703FA07E0022807D0204A20467A
:104E2800FEF7A6F809F101090135C9E7DBF8041016
:104E38000B09412BF2D10127F4E75BF82310606AD4
:104E480001930909FEF7A1FF019B0133DBE7442B1E
:104E580019D1D1F808803A4641462046FFF78AFF23
:104E6800D8F81820D38A43F001030546D3820027D7
:104E7800A6EB0906BE420BD82946204605B0BDE878
:104E8800F04FFEF767B83A462046FFF779FEA2E7EB
:104E98000023606A1A460121FEF788F90137E9E71D
:104EA80048510308036A10B51A8B0446FFF762FFDE
:104EB80001462046BDE81040FEF74CB82DE9F04FFA
:104EC8008D682B79032B87B004460AD12946FFF752
:104ED800E9FFAA69D38A43F00103D38207B0BDE88A
:104EE800F08F026AD28AD20706D45B4A294607B0F5
:104EF800BDE8F04FFEF73CB8162B40F09E80C66820
:104F0800E968331DC360FEF789F9606A40F2D71378
:104F180014220121FEF759F9606A362200234FF066
:104F2800FF31FEF735F9E76863690293638B0193F4
:104F3800BB1C07F10109E360238B638306F1010BB6
:104F4800606AA7824946A4F81690FBF7E3FC0122A1
:104F580059462046FBF777FC606AFBF72CFD204694
:104F680040F2D911FEF741F9A96820460022FEF760
:104F780011FFB31C4A22606A03900021FBF71DFC55
:104F880003984FF0010880F806805946606AFBF7DD
:104F9800C1FC0421FBF7F3FBFBF70DFD4246606AF9
:104FA80040F2BD11FEF7ACFE06F1030A606A082163
:104FB800FBF71CFD5346606A44224FF0FF31FBF7B4
:104FC800FCFB606AFBF7FBFCD4F824B04A223346AA
:104FD80058460021FBF7F1FB606A8BF806805146C2
:104FE800FBF798FC4146FBF7CAFB2046FBF7DCFBC6
:104FF800606A6FF00201FBF7C2FBB11CFBF78AFC89
:1050080029692046FEF70AF9606A4946FBF7E4FC7D
:10501800029B6361019B6383606A3146FBF77AFCFC
:1050280069692046FEF7FAF8606A3946FBF772FCB0
:1050380007B0BDE8F04FFBF7C2BC05AA7A2105F11D
:105048000800FBF7EDFAEB68059A0146204607B021
:10505800BDE8F04FFFF730BB6051030870B54378E7
:10506800012B05460C4606D1036A0A461B8B022112
:10507800FCF79AF92061A268216928464C23BDE80B
:105088007040FFF74FBE00002DE9F3418D6805F031
:105098000F030A2B04460E4607D0002D31D015F019
:1050A80003012ED12B79652B1ED1019500256A4667
:1050B800652101A8FBF7B4FA009B002103EB8000EF
:1050C80040F2CA52984215D1F26840F21A439A4205
:1050D80033D1236A1F78B7B1374A3146204602B028
:1050E800BDE8F041FDF744BF622BEDD1AB680193F9
:1050F800ED68DCE753F8047B97420CBF01310331BC
:10510800E0E70021E0E7606AFBF70EFC606A052132
:10511800FEF77FF8606A3A460121FFF78BFD01AA86
:1051280029462046FFF732FA606A69224FF0FF31BC
:1051380002B0BDE8F041FBF72EBB606AFBF7F4FB59
:1051480006F10C0001AA6A21FBF76AFA0027064655
:10515800B742606A11D100223146FFF76BFD29463C
:105168006A462046FFF712FA0025B542606A0DD15B
:1051780002B0BDE8F041FBF722BC019B53F8273091
:1051880099680909FEF745F80137E1E7019B53F8EB
:105198002580D8F808703F0901213B461C22FEF7FC
:1051A80014F8D8F80C1029B939462046FDF7D2FE74
:1051B8000135DAE70909F8E77751030889680346F2
:1051C80019B9406A0A46FFF735BD4A68120A022A29
:1051D8000AD1CA6842B112F0030F05D11279AC2A7C
:1051E80002D10622FFF7F0BB1846FFF72EBD38B5EF
:1051F8008C68054634B901222146686ABDE8384002
:10520800FFF718BDA1071BD16368DAB2922A17D13C
:105218001B0A022B0CD1E36853B19A0708D11B79FA
:10522800AC2B05D121460322BDE83840FFF7CCBBA3
:1052380021462846FEF72AF861680122090ADCE7B8
:1052480021462846FDF7EAFF01221146D5E700006E
:105258002DE9F7438D680446164655B9002A00F033
:105268008D8002222946606A03B0BDE8F043FFF74B
:10527800E1BC15F003077AD12B79372B0FD122B176
:10528800406A02220121FFF7D5FC20462946FDF796
:10529800C5FF606A03B0BDE8F043FBF7C4BB9F2BB2
:1052A80065D1EB681A79A12A4FD1A22101AA03F18D
:1052B8000800FBF7B5F9A9688046D9B18B0719D161
:1052C8000B79372B16D126B1411C0222606AFFF7F1
:1052D800B1FCA9682046FDF7A1FF606AFBF7A3FBB4
:1052E8004FF0010947450BD1B9F1000F46D1032210
:1052F800791CB8E72046FDF791FF4FF00009F1E768
:10530800019B53F82710A9B18E0713D10E79A6F186
:105318003700464246412046FDF780FFB9F1000FAD
:105328000FD04EB9174A2946204603B0BDE8F043CE
:10533800FDF71EBE0026EEE7606AFBF774FB013737
:10534800D0E7002EFBD0104AEDE7AB685BB19A07B7
:1053580009D11B79372B06D10422294603B0BDE8B1
:10536800F043FFF731BB052229462046F6E72946D8
:105378002046FDF753FF0322012174E703B0BDE87F
:10538800F08300BF89510308975103082DE9F843BA
:105398000C4689680546FDF741FFE668002E56D0A1
:1053A8007768296AFBB209788E2BA36819BF04F1C4
:1053B8000C0601273F0A0836072903F00F024AD1D5
:1053C800022A46D11A099A2A47D133681A79302A0B
:1053D8003FD19B68002B3CD10A212846FDF78EFD62
:1053E8002A6AD36A128D32B931683F4A2846BDE825
:1053F800F843FDF7BDBD5978C9070DD5284659684A
:10540800FDF77CFD022F686A09D800231A4602219D
:10541800FDF7CCFE012418E0013A0833E3E773688E
:105428001A79322AF1D1B4682279302AEDD19B68F1
:1054380015221B094FF0FF31FDF7C7FEA1680023B5
:1054480001222846FFF7E8FA0324A74224D8BDE83A
:10545800F8830024F9E7022AFBD140F28912B2EB63
:10546800131FF6D133681A79302AF2D19B68002BC2
:10547800EFD013F00304ECD11B792F2BE5D1686A28
:10548800234622462146FDF791FE33682246996855
:105498002846FFF7DDFEBDE704F10108B84556F8D8
:1054A80024104FEA84031AD20A79322A17D13344D6
:1054B800D3F8049099F80430302B10D18B68686ABF
:1054C8001B0914220121FDF780FED9F808100023DA
:1054D80001222846FFF7A0FA08F10104B5E728469B
:1054E800FDF79CFEA046F7E7A251030810B5026A33
:1054F8001278072A04460B4606D0022A04D0BDE8D3
:105508001040064AFDF734BD20461946FFF73EFF16
:105518002046BDE81040FBF7A3BB00BFB15103080C
:105528000122FFF795BE38B50B79342B04460D469A
:105538000CD18968FDF772FEED68AD685DB9606AE7
:105548000F21FBF781FB0422022115E0406A0F219D
:10555800FBF77AFBF1E7AB071CD12B799A2B10D11B
:105568000F21606AFBF770FBA9680029EBD0204681
:10557800FDF754FE04220321606ABDE83840FFF7B6
:1055880059BB9B2B06D1A9682046FDF747FEEB685F
:105598009968EAE729462046FDF740FED3E7000070
:1055A8002DE9F04F0023032A85B004460D4617461F
:1055B80042700162C36080F8282003D1408D002822
:1055C8005BD1E062666AB5F82080B5F82490B5F83A
:1055D8001AA0B5F816B000236385C6E90453B36072
:1055E800B371F362736286F838306B8C777101227D
:1055F80098449045B8BF90464FEA89010AF00300E5
:1056080008F1FF3801F0040101434FEAC80000F037
:105618007800B2610143AA8BEB8B01910BF00F0B61
:105628004FEA18184FEA59094FEA9A0A4BEA08074D
:10563800174347EA0A0747EA09071F4321D101210F
:105648003046FBF777F8019B03707379022B4AD831
:10565800736AA98AF363F068FBF7DBFAAE4902467E
:10566800304612F059F94FF000086B8BAA8B13449F
:10567800984570DA298D002269E08000FBF788FEE2
:105688009FE701213046CDE90223FBF753F8019B40
:10569800029A63F07F010170039B4FEA8B114FEA76
:1056A800081000F0300001F04001014303F0010050
:1056B8000143D00000F0080001434FEA8A0000F0DF
:1056C800040001434FEA490000F002000143019140
:1056D8004FEA98084FEA59094FEA5B0B4FEA5A0A12
:1056E80052085B08A2E7D6E90F9A4FEA49080AF080
:1056F800010308F07E084FEA5A0A4FEA991948EA66
:1057080003085AEA090B4FF00101304618BF48F068
:105718008008FBF70FF880F80080BBF1000FE4D198
:1057280096E7EB6A03EBC2035878C0070ED5588892
:1057380040450BD15968F068FBF76BFA7649024689
:10574800304612F0E9F808F101088EE701328A4282
:10575800E7DB0521EFE794F80180B8F1010F02D1EA
:1057680000236B84AB84EE6856B3B20728D1337933
:105778003F2B25D1B1682046FDF750FD606AFBF745
:1057880057F9646A6379012B16D0E26B636A9B1A36
:10579800E363002323642269138D9F42C0F0C28013
:1057A8006379032B40F0D080606AE36AA0622363C8
:1057B8001844FBF7EDFD6063012005B0BDE8F08FEC
:1057C8002B78072B7AD8DFE803F004791A343434BD
:1057D800340D31462046FDF721FD606A0F21FBF7A5
:1057E80033FACBE7B8F1010F07D10023A370F168B2
:1057F8004A4B46222046FAF74DFF7169EAE73168BD
:10580800606AFBF737F86378012B07D10023A37090
:10581800B168434B4C222046FAF73CFFF16820461A
:10582800FDF7FCFCEB8ADB07A8D5606AFBF7C7F835
:10583800D3E7B8F1010FD6F80C9006D1206A0422FC
:105848004146FDF713FBA5F81A803168606AFBF73B
:1058580011F82B78032B1FD10122606A0021FFF772
:10586800E9F92B78062B1FD1606AFBF7A0F8012114
:105878002046FDF743FB606AFBF799F8606AFBF77F
:1058880096F80023B26849462046FEF719FE2B78A1
:10589800062B7FF473AFA0E7042B01D10222DCE7CB
:1058A800052BDED10322D8E720460121FDF726FB90
:1058B800606A5F220321FAF76EFFE2E7B8F1010F91
:1058C80004D104220A212846FDF7D0FA17212046E0
:1058D800FDF714FB16212046FDF73CFBB168606A12
:1058E8000909FDF796FC1A212046FDF733FB3169BB
:1058F8002046FDF793FC0A212846FAF7B2FE024635
:10590800606A1378042B01D10F2168E752880023BD
:10591800FEF7DCFF32E700BF3D0700088B0C0008EC
:10592800930C0008D36A03EBC70213F83730052B32
:1059380008D1012120469578FAF7FCFE0570236C02
:1059480001332364013726E7042B7FF435AFD4E90C
:105958000A03616A814202D1206B984203D0A16296
:105968002363002029E794F838301BB10849094817
:1059780003F048FAE1681369D28A606B4968022427
:1059880002F00102C3E901019C70DA7014E700BF5C
:10599800BC5103080C13030808B52DED028BE8B1C0
:1059A800B5EE400AF1EE10FA18D010EE103AC3F333
:1059B800C752024462F3DE5310F10A0F08EE103AA0
:1059C8000FD3434200EE903AB1EE040AF8EEE00A33
:1059D80019F0B6FCF0EE407A88EE270ABDEC028B8F
:1059E80008BD07EE900AB1EE040AF8EEE70A19F0CE
:1059F800A7FC28EE000AF1E72DE9F04F2DED028B08
:105A0800A1B0B0EE408A119090070A921293134603
:105A180058BFC2F3800310EE102A5ABF5B01DBB2F5
:105A28002B23002A2D9C80F28780B4EE400AF1EEE9
:105A380010FA80F18180B1EE408A2D238DF85C3018
:105A48000DF15D074FF020089FEDAA7AF0EEC87AB5
:105A5800F4EE477AF1EE10FA01F0200373DD43F01B
:105A6800490043F04E01FC1C43F046020023387005
:105A78007970BA70237017ABE41A0A9BDA0520D53F
:105A88002E2117A826F0DCFAD8B9652117A826F028
:105A9800D7FAB0B96E2117A826F0D2FA88B9631CD4
:105AA80004F180026A4480336B442E2102F8241CDE
:105AB8000234302203F8242C04F180036B4403F8E9
:105AC800240C0A9B5B060ED504F18002631C0DEBC7
