:020000040800F2
:10000000F8FF072029010208E3560708D156070820
:10001000E5560708F1560708FD56070800000000DE
:100020000000000000000000000000000957070861
:100030000B57070800000000816D070841020220ED
:100040000100020891570708A3570708A957070896
:100050005BE307080100020835D707083BD707080C
:1000600041D7070847D707084DD707082591070844
:1000700035910708459107085591070865910708CC
:1000800075910708859107080100020829B707083C
:10009000F1B60708F7B60708FDB6070853D70708F3
:1000A000BD570708C3570708D5570708DB57070888
:1000B000E1570708E7570708ED570708F1970708C2
:1000C0000D980708299807084598070801000208B5
:1000D000010002082D03022033030220390302200D
:1000E00077D70708975707081957070819580708B7
:1000F0001F5807083758070831580708959107080F
:10010000010002089DED0708F557070801000208E5
:10011000150302201B0302200D5807081358070877
:10012000A5910708B5910708C5910708D59107085B
:10013000E5910708C5C407089D5707080100020894
:100140000100020801000208010002080D5707081B
:10015000F591070805920708159207083F0302204A
:100160000100020801000208010002080100020863
:10017000010002080100020801000208000000005E
:1001800001000208010002082103022027030220C7
:100190000100020801000208010002080100020833
:1001A0000100020801000208010002080100020823
:1001B0000100020801000208010002086198070816
:1001C0007D980708010002080000000001000208F5
:1001D00001000208010002080100020801000208F3
:1001E00001000208010002080100020801000208E3
:1001F0000100020801000208024800234030836029
:1002000000F02AB900400220054B012243F82010DB
:10021000044B1A604FF08052034B5A60704700BF86
:10022000A0CC0220A8CC022000ED00E010F4FE7F5C
:1002300003D1024B0422C3F8002E704700E100E016
:100240000D4B10B51C6801341C604FF0E02304F026
:1002500003021B69094B53F822300BB12046984723
:10026000074B1B68A34205D106490020BDE810409A
:10027000FFF7CABF10BD00BFF8B10220ACCC02200E
:10028000F4B102208DB40608204B03EB800310B5B7
:10029000D3F89C41002C37D06268D369E3839B0676
:1002A00016D5618A59B3A38A0133B3FBF1F001FB80
:1002B0001033E18A9BB2994221D0516AA2890A4047
:1002C000A17A91B11249096891420ED1FFF794FFCA
:1002D000E38B626803F018011162A28B134213D002
:1002E000206ABDE8104000F0BFB8E07AA16901289B
:1002F000A08A0CBF21F810200A54A382E8E71368F3
:1003000023F020031360E3E710BD00BF004002208C
:10031000B80402200420FFF7B7BF0520FFF7B4BFE1
:100320000720FFF7B1BF0820FFF7AEBF0120FFF79E
:10033000ABBF0220FFF7A8BF0320FFF7A5BF062031
:10034000FFF7A2BF124B002270B505469A61114C0F
:1003500000F072F80646E368DA0307D4E36813F0A6
:10036000F20F0DD000F070F8012070BD691CF2D0C2
:1003700025B100F061F8801BA842ECD90320F4E716
:10038000E368DB0701D40020EFE70123E360FAE72D
:10039000FCB10220003C02402DE9F843244F054601
:1003A00088463B7D012B40D001234CF250303B75F9
:1003B000FFF7C8FF0446B0B94FF0FF33C8F800306C
:1003C0002B68012B14D16968287C00F041F84CF2AD
:1003D0005030FFF7B7FF174A0446136923F4004370
:1003E00023F00403136100233B752046BDE8F88326
:1003F000AE68DFF84090D5E902231344B342F2D946
:10040000297C304600F02CF84CF25030FFF79AFF70
:10041000D9F8103023F0FA03C9F8103018B10446A7
:10042000C8F80060DFE70136E5E70224DDE700BF3A
:10043000FCB10220003C0240014B1868704700BF2D
:10044000F8B10220000000005FF800F0010F07087B
:100450005FF800F0191007085FF800F01DE40208CB
:100460005FF800F0551007085FF800F0E9AE0608E5
:020000040802F0
:10000000FEE700000F490020D1F8883043F4700368
:10001000C1F888300C4B1A6842F001021A609860EF
:100020001A6822F0847222F480321A60074A5A60F9
:100030001A6822F480221A60D8604FF000638B6047
:10004000704700BF00ED00E000380240103000248F
:1000500030B5002495B02F4D2C22214609A8C5F8B3
:10006000904003944AF0BEF92B6C4FF480004FF09F
:10007000040C4FF4A05E43F080532B642B6C03F010
:1000800080530093009B244B1A6842F440421A604C
:1000900001221B680A9403F4404304940193019BDA
:1000A0004FF4A023CDE9072310230F220B93022343
:1000B0000292D8221193CDE90D30092307A812939B
:1000C0004FF48053CDE90FC2CDE905E34EF00EF9B0
:1000D00010B1124854F0A4FE4EF07AF808B110485E
:1000E000F8E7109B30210F9ADB00B3FBF2F3B3FB70
:1000F000F1F201FB12321199121A02A818BF012263
:10010000B3FBF1F156F03EFF08B10648E2E715B047
:1001100030BD00BF0038024000700040B001080848
:10012000C2010808DC0108080446DFF82CD00B499E
:100130000B4A0C4B03E051F8040B42F8040B9A42B3
:10014000F9D300200849094A01E041F8040B914223
:10015000FBD3204654F0BABFF8FF072084450A08B5
:1001600070040220C40402200040022068410320E1
:1001700040F8044B40F8045B40F8046B40F8047B03
:1001800040F8048B40F8049B40F804AB40F804BBF3
:1001900040F804CB40F804DB68467047024B5A69CC
:1001A000026058610020704700400220024B5A69EB
:1001B00012685A61704700BF00400220024B9A69E2
:1001C000C0E900219861704700400220044A936909
:1001D0001968916110B15A6818461047704700BFFE
:1001E0000040022038B50446044DAB690BB1A34270
:1001F00000D338BD0120FFF7E9FFF6E700400220F9
:10020000C460056146618761C0F81C80C0F8209019
:10021000C0F824A0C0F828B0C0F82CD080ED0C8B1A
:1002200080ED0E9B80ED10ABC0F808E0FFF7B6BF85
:10023000124D6C6908B50CB954F034FF606020466B
:10024000FFF7D0FF23686B612046C46805694669E3
:100250008769D0F81C80D0F82090D0F824A0D0F87E
:1002600028B0D0F82CD090ED0C8B90ED0E9B90ED3B
:1002700010ABD0F808E00120704700BF004002201A
:1002800010B50021044600F011FB18B914B1204646
:100290000DF05EFE10BD002100F008BB10B501217D
:1002A000044600F003FB18B914B120460DF050FECF
:1002B00010BDFFF7E5BF10B501220C4600F018FC99
:1002C00018B914B120460DF043FE10BD00F010BC6B
:1002D00000F0D0BB484308B50830FFF7DCFF40B161
:1002E000044A936A03B118600021C0E900139062C8
:1002F000083008BD00400220034678B153F8042CB2
:10030000083812B153F8081C116053F8083C13B1B7
:100310005A6000F0AFBB024B9A62FAE7704700BF29
:10032000004002202DE9F041DFF8B0C04FF0000E90
:1003300003240546DCF8CC02002101316B189A0831
:1003400003F00303825C5B0042FA03F303F0030350
:10035000022BF2D0090131D0DCF8D80200EB0510F5
:10036000014403681A0726D1DCF8D8229D1A9A4264
:100370004FEA9516C5F301124FEA15151BD8DCF8A4
:10038000DC7252009F4216D9DCF8CC7204FA02F8F3
:10039000BB5D43FA02F243EA080302F00302012ABA
:1003A00009D1BEF13F0FBB550CEB4E0310D80EF137
:1003B000010EA3F8EC5204308842D2D1BEF1000FF6
:1003C00009D00EF1FF3E0CEB4E03B3F8EC52B1E74F
:1003D000CCF8E822EFE7BDE8F08100BF0040022042
:1003E00030B51C4C0122D4E9B553C01AC109C0F381
:1003F00002134FEA101C9A406B5C4FEA9C0E23EAF2
:1004000002036B548309D4F8E0220325B2EB901F5A
:10041000D4F8CC020CF0030288BFC4F8E032C15C0F
:1004200052000CF1010C05FA02F30CF0030221EA70
:100430000301530000F80E104FEA9C0ED4F8CC02D2
:1004400010F80E1041FA03F303F00303022BE7D078
:1004500030BD00BF0040022021F00F01144A0B1AEA
:10046000013BDB00A2FB032310B55B0A114C9A0091
:10047000C4F8DC12C4F8D032A1EB83110133073287
:10048000C4F8D812C11803EBD202C4F8CC02C4F8E5
:10049000D412002149F0A6FF002301214FF0FF32C2
:1004A0002381A4F86C13C4E9B833C4E9DC3210BD6D
:1004B000F32C23FA00400220024A138902331381ED
:1004C000704700BF00400220024A1389023B13819B
:1004D000704700BF00400220024B1889003818BF47
:1004E00001207047004002201F4900200B8901F1C4
:1004F000080270B543F0010301F5087482B0C1F839
:10050000E802C1F870030B8152F8043F18071AD1B2
:10051000D1F8D852581BAB424FEA901EC0F3011CD1
:100520004FEA10100FD3D1F8DC524FEA4C0CAB421B
:1005300009D2D1F8CC6216F80E5045FA0CF303F04C
:100540000303012B03D0A242DED102B070BD03230E
:10055000019203FA0CF31D4306F80E50FFF7E2FE7A
:100560000149019AEFE700BF00400220B1B3002229
:10057000F0B50D4683B0011F194C51F8043F180720
:100580001AD1D4F8D862981B9E424FEA901EC0F34D
:10059000011C4FEA10100FD8D4F8DC624FEA4C0C63
:1005A0009E4209D9D4F8CC7217F80E6046FA0CF3C3
:1005B00003F00303012B04D001329542DDD103B0D7
:1005C000F0BD032303FA0CF31E4307F80E60CDE9D8
:1005D0000021FFF7A7FEDDE90021EDE7704700BF2E
:1005E000004002202DE9F043624E83B0D6F8E83295
:1005F000D6F8CC12C3B1D6F8D03200259800C6F890
:10060000E85288B10024A30804F00302CB5C520036
:10061000134103F00303032B2CD00134A042F2D882
:10062000D6F8E832002BEAD1D6F8E4324FF00009D0
:1006300001274FEAD308D6F8D43213F80940002C2A
:100640004FD04FEAC90501E064080135E20703D441
:1006500064080135E307F7D5AB0805F00302CB5C6E
:100660005200134103F00303012B15D0640838D066
:100670000135EFE720460134FFF754FED6F8D032BB
:10068000D6F8CC12B4EB830F4FEA8300BBD3D6F875
:10069000E832002BB3D1C7E7D6F8D8022B01C358F4
:1006A00000EB051073B16A4640F212410CF0FAFDFE
:1006B000009B3BB10DF0BEFEDDE900010DF094FEA4
:1006C0000DF0CEFEEB08D6F8D40205F00701640861
:1006D000C25C07FA01F122EA0102C254D6F8CC1238
:1006E000C6D1C14502D009F10109A4E700250327BD
:1006F0004FF0020C2C462A460EE0012905D107FADC
:1007000003F301242EEA030303700132D6F8E43226
:100710009A421FD8D6F8CC124FEA920E02F0030389
:1007200001EB920011F80EE05B004EFA03F101F0CC
:10073000030102291AD00329DFD10CFA03F315466D
:10074000013200242EEA030E80F800E0D6F8E432ED
:100750009A42DFD933890022C6F8E45223F001031C
:10076000C6F8E022338103B0BDE8F083002CC6D187
:100770001546CAE700400220044B00211A89C3F83D
:10078000E81242F001021A81FFF72CBF004002205C
:10079000454A00232DE9F043D2E9B641C0E90433CC
:1007A000091B9C469E469946D2E9B35601601A46FB
:1007B000B600194643608361C0E90233930802F032
:1007C0000304EB5C6400234103F00303012B57D0C7
:1007D000022B49D0002B4CD1013209F101090CF157
:1007E000010CB242C0F808900CBF01241C462CD06A
:1007F0001946930802F00308EB5C4FEA480843FAF5
:1008000008F303F00303012B01D9002CD6D0A3F188
:1008100001030129B3FA83F34FEA53131ED00229CF
:1008200004D1476907F10108C0F814808769B9420B
:1008300000D981610CB9002BC0D0C3689C4501D997
:10084000C0F80CC044BBA446B8E71946A3F10103A5
:100850000129B3FA83F34FEA5313E0D1076907F193
:100860000108C0F81080E1E70EF1010E0131C0F877
:1008700004E00132B2420CBF01240024B9D1C2E726
:1008800001320EF1010EB242C0F804E00CBF0124A7
:100890000024ADD11946BAE74FEA0E134FEA091703
:1008A000C0E90137BDE8F083004002202DE9F8439C
:1008B00000F10F04240900F09F806D4D2F89002F57
:1008C00040F09A80B5F86C238846002A40F0988062
:1008D000D5F8E012D5F8D0E2714580F08D8001277F
:1008E000D5F8CCC200200CF1FF360E440FE013F017
:1008F0000C0200F0A38013F0300F00F0B280002251
:100900003F2B40F2938000200131714573D216F8DD
:10091000013F9A07EBD1421C944240F2A78013F0AA
:100920000C0F40F093800230844240F28B8013F031
:10093000300F40F0918002329442E1D889008B1C44
:10094000A3EB020E012A08F001090EF1010603D102
:10095000591C8908C5F8E012D5F8E41206F003071F
:10096000B0080EF1020E99424FEA470738BF194608
:100970007345C5F8E4124FF0010101FA07F11CF8C4
:10098000007041EA07010CF8001013D302270EF0A3
:1009900003004FEA9E01D5F8CCC20EF1010E4000D3
:1009A0001CF80180734507FA00F040EA08000CF8D3
:1009B0000100ECD2D5F870331201D5F8D8720021BD
:1009C0002344340107EB0610C5F8703349F00AFDE3
:1009D0000346B9F1000F10D00022D5F8D402F10877
:1009E00006F007063A510122445CB24022434254C9
:1009F0001846BDE8F88377B100231846BDE8F883B0
:100A0000D5E9DC1291422ED2D5F8E012D5F8D0E229
:100A10007145FFF465AF5CF0C5F8D5F8E012D5F884
:100A2000D0E201277145FFF45BAFE5E7501C84423B
:100A30003FF66AAF89000246CB1C81E70120844261
:100A40003FF675AF890002464B1C79E713F0300F73
:100A50000CBF0122002253E73F2B8CBF0020012056
:100A600052E7012268E75CF09DF831E78B0067E709
:100A700000400220034B1B89012B02D808B1FFF76D
:100A8000AFBC704700400220034610F00F001AD19F
:100A9000164AD2F8D812994214D810B4D2F8DC42CF
:100AA0009C420DD95B1AD2F8CCC2C3F301119A094A
:100AB00049001CF802200A4102F00302012A04D076
:100AC00010BC7047704700207047013000EB1312D4
:100AD000910802F003021CF80110520041FA02F2E0
:100AE00002F00302022AF0D00001E9E700400220F0
:100AF0002DE9F84F0546002800F0CC80764C914651
:100B00000A462689002900F08980002E40F08A805C
:100B1000D4F8D83201F10F0EC31AD4F8D0024FEA3C
:100B20001E1E9B461B098700591CBA46B1EB800F5D
:100B300080F0B680B446D4F8CC720126880801F063
:100B40000308385C4FEA480840FA08F000F0030058
:100B500002286BD028B90CF1010C0CEB0600704593
:100B600065D3B64556D066D3B444F4451DD2B9F129
:100B7000000F57D010464FEADB11D4F8D42203F00F
:100B80000703515C194101F00101FFF78FFE074691
:100B9000002840D03201294649F0DAFB2389012B95
:100BA00039D82846FFF71CFC35E003EB0E0133442F
:100BB00099421FD903F0030298084FF0020C013349
:100BC000520017F8008099420CFA02F242EA080239
:100BD0003A540FD903F003029808D4F8CC720133C9
:100BE000520017F8008099420CFA02F242EA080219
:100BF0003A54EFD1D4F8E432AEEB060205EB06101E
:100C000099424FEA021238BF1946C4F8E412002193
:100C100049F0E8FB2F463846BDE8F88F012E01D891
:100C2000FFF7DEFB00273846BDE8F88F01360131BB
:100C30008A4583D195E773444FF0030CA6EB0E0E63
:100C400003EA0C014FEA9308BEF1010F4FEA41019C
:100C500017F808000CFA01F120EA010107F8081062
:100C600011D05F1E77440133D4F8CC6203F0030245
:100C70009808BB424FEA4202315C0CFA02F221EAC8
:100C800002023254EFD1D4F8E0324345C2D9C4F85D
:100C9000E082BFE708462946BDE8F84FFFF706BEE9
:100CA000BEF1010FB6D0BEF1000F05D00126B9F19B
:100CB000000F7FF45FAFB5E703F003034FEA9B1823
:100CC000D4F8CC1203225B009A4011F8083023EAD2
:100CD000020301F80830D6E70040022010B58AB0C0
:100CE000044603A8FFF754FD039A0949DDE90430DF
:100CF0000090204600F082FF2046069C079ADDE91E
:100D00000831CDE90014034900F078FF0AB010BDA6
:100D1000748C0808988C08082DE9F843DFF858917E
:100D200007464749D9F8D82200F068FFD9F8D01211
:100D300089006DD00025DFF8448115F03F0633D0DF
:100D400005F003067600AB08D9F8CC22D35C33411A
:100D500003F00303022B63D0032B5FD0012B4AD196
:100D6000D9F8D8222B01D25842455BD0354B9A4254
:100D70005AD0354B9A425BD0344B9A4256D0344BC2
:100D80009A4253D0334B9A4254D0334B9A4251D06B
:100D9000324B9A4252D0324B9A424DD0314B9A420A
:100DA00014BF68224D2227E0A9421ED9D9F8CC02EF
:100DB0002C4602E001348C4208D0A20804F0030360
:100DC000825C5B0042FA03F39B07F3D0621B7F2A2D
:100DD0000BD992092449384624F03F0500F00EFF54
:100DE000D9F8D032B5EB830F12D22A011F49384609
:100DF00000F004FFA7E72E221D49384600F0FEFE52
:100E00000135D9F8D032B5EB830F4FEA830194D383
:100E100038461849BDE8F84300F047BB6D22EBE7C0
:100E20003D22E9E75422E7E74C22E5E75322E3E7D6
:100E30004422E1E74122DFE74222DDE74622DBE709
:100E4000E08C0808CCD2080874CA08089CDB0808A3
:100E5000CCDB080824C708089CC708081CCF080872
:100E6000E0CF080860D40808FC8C0808188D080832
:100E7000208D0808DC8C08080040022014DD0808DA
:100E8000064B02685B6A5968C1F31E018A4203D3AC
:100E9000521A0260184670471B68F4E700400220AF
:100EA000014441F20553884204D398B2012838BF67
:100EB0000120704703EB431310F8012B5340F2E776
:100EC000034B044A5A620022C3F82422704700BF31
:100ED000004002206C2B09082DE9F0478146884626
:100EE00000293FD0FFF7DCFF1F4B82465C6A0CB93C
:100EF000204633E094F907300025E668002B06F120
:100F0000FF3613DB013604F11807B54212D324680B
:100F1000EDE77719424648467F08BB1D54F8231079
:100F200049F0C4FA0028CCBF3D463E46731B012B56
:100F3000EFD8E7E7236933F815309A4510D1636994
:100F40005B5D98450CD14246494657F8250049F06B
:100F500071FA28B96068C0F31E002844BDE8F08724
:100F60000135D2E70120F9E7004002202DE9F843DE
:100F700080460F46FFF7B0FF0246002840F08D8004
:100F8000FF2F03D9464947480CF0F0F9464D7E1C27
:100F9000D5F8240290B1D5E98A1333448B4227D97E
:100FA0003144FFF793F90446D5F82402CCB9224620
:100FB000D5F82C12FFF78AF9C5F82442802E344662
:100FC00038BF80242046FFF766F9C5F82402B0BB7D
:100FD0003046FFF760F9C5F8240278BB30460CF0C4
:100FE000B7FFD5F828323344C5F828320028E5D0B9
:100FF000D5F82C324FF0000941463A46C4181E4439
:101000002046C5F82C6249F0A3F93946204604F879
:101010000790FFF745FF8046686AD0E90261B14258
:101020002BD376000A2E38BF0A26C6EBC60018302E
:10103000FFF731F948B9C5F82402CFE73446002359
:10104000C5F82842C5F82C32D2E700F11802696AC7
:1010500002EB86020160026102EB460242614A68CD
:10106000C968C2F31E02C0F80C900A44416862F3DA
:101070001E01C0E90116494668620269436922F807
:1010800011808A1D5F546B6A43F82240DA6801328E
:10109000DA605A68C2F31E020A441046BDE8F883BB
:1010A000F001080810CC08080040022010B50446E2
:1010B00049F0D6F901462046BDE81040FFF756BF7B
:1010C00007B5019001A8FFF7DBFE019A036933F829
:1010D000120003B000BD07B5019001A8FFF7D0FED4
:1010E000019B4269D05C03B000BD07B5019001A827
:1010F000FFF7C6FE019B063350F8230003B000BD86
:1011000013B5019001A80C46FFF7BAFE019B426996
:10111000D25C063350F82300226002B010BD0000FC
:101120002DE9F8431D46002307468846036016460E
:101130000B6013602B60154BDFF854905C6A64B948
:101140002B68326813442B60BDE8F883336812F8CB
:10115000010B0133034433600DE04C45F0D03B6894
:1011600001333B60E268D8F8003013446269C8F884
:101170000030E368D1188A42E8D32046FFF784FCA8
:101180002B68246803442B60D9E700BF004002208D
:101190006C2B0908F8B50B4B0B4F5C6A0CB1BC42C9
:1011A00000D1F8BD04F11805E36805EB8306B542EC
:1011B00001D32468F2E755F8042B0449044800F0F1
:1011C0001DFDF4E7004002206C2B0908F50108081A
:1011D00084BA080830B50023202511F8012F0AB978
:1011E000027030BD120600F101041FD513B1202397
:1011F000037020460B78124A03F07F0363B9013A6B
:1012000012F8013F0446013013F0800F0BD003F0B9
:101210007F0323700123E0E712F9014B002CFBDA76
:10122000013BDBB2EAE700F8013CE9E7012B04BF30
:10123000057020460B7800F8013B0223CDE700BF84
:10124000FC01080838B5436805461944036899420B
:1012500010D9037B1BB1002107480CF087F801F17E
:101260001004806824F0070408342146FFF723F8AF
:101270002C60A86038BD00BF10CC080870B50446CB
:101280000E4611461546FFF7DDFF31462A46D4E9E2
:101290000130184449F090F863682B44636070BDD6
:1012A000012938B538BF01210446002508462160D0
:1012B0006560FEF7E5FF2573A06038BD38B50546CB
:1012C0000C460131FFF7ECFF6C6038BD0023016074
:1012D000C0E90132012303737047000038B514469A
:1012E0000546FFF7DDFF024B2560636038BD00BF98
:1012F0007D120208037B10B5044613B98068FEF71F
:10130000E7FF0023A36010BD38B505461020FEF7A7
:10131000B7FF04462946FFF7C3FF204638BD10B586
:10132000044648B1037B13B98068FEF7D1FF20461D
:10133000BDE81040FEF7CCBF10BD000038B5037B00
:1013400004460D461BB1002106480CF00FF8016859
:1013500080682944FEF7AFFF2368A0601D4418444D
:10136000256038BD10CC080838B504460D46FFF797
:1013700069FFD4E901301D441844656038BDD0E9E7
:10138000002310B59A42044602D10121FFF7D6FF8F
:101390000021D4E90132D154A06810BD10B50C462B
:1013A0000121FFF7E1FF047010BD7F29F8B50C465D
:1013B00004D80121FFF7D8FF0470F8BD01F03F0603
:1013C000B1F5006F4FEA911566F07F0607D265F020
:1013D0003F050221FFF7C8FF46700570EDE705F0F5
:1013E0003F05B1F5803F4FEA113765F07F0508D220
:1013F0000321FFF7B9FF67F01F0345700370867084
:10140000DBE70421A40CFFF7AFFF07F03F0364F014
:101410000F04857063F07F03C67004704370CCE7DF
:1014200038B505460C46084649F01AF821460246EA
:101430002846BDE83840FFF721BFF8B547680546A4
:101440001646B94228BF39460C461146FFF7FAFE48
:10145000AB68A0193A1B1919184448F0ADFF6B6826
:10146000A868334420446B60F8BD43688B422CBFAE
:101470005B1A00234360704738B51546426804463E
:101480000B468A4203D929448A4201D8636038BD99
:101490008068521A0144184448F08EFF63685B1B51
:1014A000F4E7084611464AF099B870B50546084673
:1014B0000E4648F0D5FF044620B102466B6831461F
:1014C00028689847204670BD2DE9F74F0191914655
:1014D0009DF8301080460D9A11F0DF0FA2EB090441
:1014E0005AD030295BD1C3F3472100295AD05F2954
:1014F00004F101000BBF052604262E4F2E4F92FB50
:10150000F6F106FB1121002902F1010104BF0A4690
:101510000446711E92FBF6F006FB10228A1A17444D
:1015200013F0200240D004EBD473A4EB63055C10ED
:10153000002C3DDDA3465E45B246D8F8043039465E
:10154000A8BFDA46D8F80000ABEB0A0B5246984722
:10155000BBF1000FEFDCB9F1000F07D04C44D8F815
:1015600004304A460199D8F800009847002D0FDD55
:101570002C44AE42B146D8F804303946A8BFA9463B
:10158000D8F80000A5EB09054A469847002DF0DC85
:10159000204603B0BDE8F08F084F1026C0E70CAF1F
:1015A0000126BDE7064FF8E713F00105C0D0254638
:1015B0000024D0E798BA08089DBA0808A3BA08081A
:1015C0008CBA08082DE9F04F814693B0C8070C4645
:1015D00093461E461C9D9DF874A0DDE91E870BD422
:1015E000A10703D121687B4B994205D020460DF01D
:1015F00091FD440044F0010415F0210F08D1B845D5
:101600004346B8BF3B46BAF1300F04BF98460027A7
:10161000204610F0C1FF00280EDA0AAB2807F6B208
:1016200022D5BBF1020F13D13020194601F8020B6D
:10163000701C58700B4617E0AA0705D52B238DF8B0
:1016400028300DF12903E9E76B07E6D52023F6E7FB
:10165000BBF1080F5CD130211970290649BF06F192
:101660000E0101335970023300210AAA0EA8012F7E
:101670001970A3EB02030B904FF010000693C5F313
:101680004723C8BF05438DF8271015F01002CDE998
:101690000C010592CDE9026344D023460DAA0BA8A4
:1016A000CDE900B10CA910F04DFE037883462D2B37
:1016B00006D18DF8273000F1010B0D9B013B0D93F6
:1016C000012F7CDD0D9C059BBC42B8BF3C462BB175
:1016D0009DF8273003B10134069B1C4425F001031B
:1016E000A045079373DD15F00105A8EB04046FD145
:1016F000202301942A463849009348462B462C461D
:10170000FFF7E2FE0646059B4FF0300AC3B938E00A
:10171000BBF1100FA8D13020194601F8020B06F1D9
:10172000170086E70AAB0DAA0CA90BA8CDE900B3F8
:10173000234610F007FE8346C2E70024079526469D
:101740009DF827305BB1002301220DF127014846A7
:1017500008F1FF38CDE90032FFF7B6FE0644069BDC
:1017600063B1002301220AA94846CDE90032069A56
:10177000FFF7AAFE069B0644A8EB0308012FD8BF7B
:101780004746079B59460D9A4846CDE900A7FFF703
:101790009BFE06444CB120230F4948460194009318
:1017A00000231A46FFF790FE06440B980EAB9842B2
:1017B00001D0FEF78DFD304613B0BDE8F08F059BDC
:1017C000002BBAD1059C474607952646D9E7002449
:1017D000002698E7A4D10808386B08082DE9F043E3
:1017E0000746900798468DB054BFC2F380032B2361
:1017F000154603A858BF5B010A464FF02101149E0D
:1018000058BFDBB20093159B0AF07EFCE905044645
:101810001FD52E2103A848F083FED0B9652103A867
:1018200048F07EFEA8B96E2103A848F079FE80B981
:1018300004F1300204F131032E2102346A446B4476
:1018400002F8241C302203F8242CA3186B4403F85C
:10185000240C6A060ED504F13002631C00210DEB46
:101860000204252204F8242C03F130021C466A44A9
:1018700002F8241CEB0603D59DF80C302F2B0DD954
:1018800003A94FF000092B4622463846CDE90086D1
:10189000FFF71AFE48440DB0BDE8F0830023012293
:1018A00003A93846013E013CCDE90032FFF70CFEAA
:1018B0000DF10D018146E6E72DE9F04F81468BB031
:1018C00014464FF000080B461A781D461AB1252A17
:1018D00003F10103F8D1A94208D26E1AD9F80430F5
:1018E000D9F800003246B044984729460B78002BBF
:1018F00000F07B8120224B1C002703921E783EB112
:101900002D2E37D030D8202E3BD02B2E36D000268F
:101910001A781D460133A2F13001092934D92E2A43
:1019200047D16A782A2A42D1023554F8042B22EA98
:10193000E27B2B786C2B08BF01352978002900F059
:101940005481782906D8572936D847297ED8442982
:1019500000F23E81D9F8043001222946D9F800006E
:1019600008F101089847B8E0302ED0D147F01007B1
:10197000039601E047F001070133BFE747F0020794
:10198000FAE747F00407F7E70A2101FB0622A2F174
:101990003006BDE70A20013300FB021BABF1300229
:1019A00019781D46A1F130000928F3D9BFE70022BC
:1019B000F6E74FF0FF3BBCE7A1F15803202BC9D855
:1019C00001A252F823F000BF511A0208551902086B
:1019D0005519020855190208551902085519020827
:1019E0005519020855190208551902085519020817
:1019F000C11A0208EB1A0208511A0208D11B020888
:101A0000D11B0208D11B02085519020855190208FA
:101A100055190208551902085519020855190208E6
:101A20005519020855190208511A0208011B02082B
:101A300055190208291B020855190208511A0208F3
:101A40005519020855190208511A0208502981D166
:101A500001F0DF0354F8040B502B034676D121F03C
:101A60000F014FF0000C10220F398DF817C000281D
:101A70007DD130230DF1270A8DF8273017F0100B98
:101A80009DF8173000F09680002B00F09F80039B9C
:101A900001220DF11701484600933B460192013E99
:101AA000FFF712FD8346039B0AAA5146484600935E
:101AB000A2EB0A023B460196FFF706FD58440BE0F5
:101AC00054F8043B019653B1039B04224949009307
:101AD0003B464846FFF7F8FC8044691CF3E6039B4D
:101AE0000522454900933B46F3E754F8043B0122A5
:101AF00006A901968DF81830039B00933B46E8E752
:101B000006A954F8040BFFF7FBFABBF1FF3F0146AF
:101B100004D0069B9B4538BFCDF818B0039B069AAE
:101B200000933B460196D4E754F804AB504648F086
:101B300097FCBBF1FF3F024602D0584528BF5A46EA
:101B4000039B5146019600933B46C2E7642906D0A9
:101B5000752984D14FF0000C0A22612185E7002805
:101B60001CDA2D22434251218DF817200A220DF153
:101B7000280A0A390DF1180EB3FBF2FC02FB1C30E7
:101B800009288CBF401830300AF8010DF2453FF4A7
:101B900075AF9A423FF672AF6346EDE7BA0706D4D7
:101BA000C7F3800C4FEA4C1C0A2251215DE74FF02D
:101BB0002B0CF9E7002B3FF476AF06AA92457FF68F
:101BC00072AF0AF8013C0AF1FF3A6CE79B466AE7FC
:101BD0000734039B3A46484624F00704CDE9006BDE
:101BE000B4EC020BFFF7FAFD76E740460BB0BDE818
:101BF000F08F00BFAC320808B13208080EB403B54C
:101C000003AA52F8041B0192FFF756FE02B05DF8DA
:101C100004EB03B0704790F900200378002A0ADA39
:101C200003F07F034022134207D110F8012F02F086
:101C3000C001802905D01846704723EA02035208E4
:101C4000F1E702F03F0242EA8313EEE7431C184635
:101C50000133027802F0C002802AF8D070470023D6
:101C6000814201D81846704711F8012D02F0C002D8
:101C7000802A18BF0133F3E701440346002099424C
:101C80001A4600D870471278013302F0C002802A49
:101C900018BF0130F3E700007F289DBF024B185C9E
:101CA000C0F3400000207047B3BA08087F289DBFEA
:101CB000024B185CC0F3C00000207047B3BA08089C
:101CC0007F289DBF024B185CC0F380000020704746
:101CD000B3BA08087F289DBF024B185CC0F3801080
:101CE00000207047B3BA08087F2809D8064B1B5C50
:101CF00003F00C0333B9A0F15F0358425841704719
:101D00000020704701207047B3BA08087F289DBFA4
:101D1000024B185CC0F3001000207047B3BA0808EB
:101D20007F289DBF024B185CC0F340100020704715
:101D3000B3BA0808024608B5FFF7E8FF02EB401007
:101D400008BD08B50246FFF7EBFF404220F01F0038
:101D5000104408BD303820F02003073B092888BF15
:101D60001846704730B50A440024E5258A4203D856
:101D7000B4FA84F0400906E00B784CB103F0C003DC
:101D8000802B01D0002030BD013CE4B20131EDE7F1
:101D900058B9BF2B09D9F72BF4D8DB0803F0060399
:101DA00045FA03F303F00304F0E71B06EAD4EDE77A
:101DB000023981420B4603D31A880239002AF8D02F
:101DC00002331B1A58107047B2EB131F70B54FEA5D
:101DD00013141CD9121B01EB440103F00F03064638
:101DE0001446012C01F102010CBF31F8025C51F8DC
:101DF000025C013C25FA03F526F8025BF1D100EB09
:101E0000420030F8023C03B9013A104670BD00228E
:101E1000FBE7F0B5059C0025121B2E46AC420FD106
:101E200001EB4403174600EB4404411A9FB904EB4D
:101E3000420316B1023324F81260181A4010F0BDA4
:101E400031F8157033F815C067443E4420F815602A
:101E5000360C0135E2E71D88013F35445D522E0CFA
:101E60000233E3E7F0B4049E0025921B2C46AE42F9
:101E70000BD101EB4605174600EB4606431A7FB926
:101E800006EB4201F0BCFFF793BF31F815703C44FC
:101E900033F81570E41B20F8154024140135E6E7EB
:101EA0002988013F0C44EC5224140235E7E72DE960
:101EB000F043079C0239DDF828E0154684464FF6CA
:101EC000FF78A4EB0209DDE9087655B900EB420181
:101ED0001FB10123023120F81230BDE8F043FFF7B3
:101EE00067BF31F8024F013D4444264405EB090425
:101EF000A5422ABF33F8024B4FF6FF7444447444A2
:101F000086EA040E360C17FA8EF74FEA144E2CF8B8
:101F1000027B3F0CD9E7022938B538BF02210446BD
:101F200080680D4618B12368B1EB930F07D969009B
:101F3000FEF7C1F92368A06065F39F03236038BDF5
:101F400038B504460C20FEF79BF905462368227835
:101F5000C3F39D0023F0030302F00102400013438A
:101F60002B6063686B60FEF78BF9A8602268A1683C
:101F7000C2F39D02520048F0EBF9284638BD994261
:101F800010B502D24FF0FF3010BD01D90120FBE7A0
:101F900000EB410002EB410209B90846F4E730F8D2
:101FA000023D32F8024D1B1BECD4EFD10139F3E7AF
:101FB00010B5044638B18068FEF78AF92046BDE8BE
:101FC0001040FEF785B910BD38B50C460221054614
:101FD000FFF7A1FF211E2B78B6BF01220022494244
:101FE00062F300032B7000236B60D5E90132581CAB
:101FF000686022F81310090CF7D138BD0023C0E93E
:1020000000338360704728B103789B0702D480684F
:10201000FEF75EB9704738B504460D464968FFF7CC
:102020007AFF2A782378A06862F3000323706A6835
:10203000A96862605200BDE8384048F089B929B902
:102040000378416061F3000303707047FFF7BCBF82
:1020500008B5FFF7D3FFBDE80840FFF7F0BF9200D7
:1020600042F0020202600022C0E901211946FFF796
:10207000E6BFF8B514461D469DF8187004210646C3
:10208000FFF749FF22462B4627B1002D0CDA6242AA
:1020900065EB4503317867F3000131700021716011
:1020A00052EA030102D1F8BD0027F3E7D6E9011097
:1020B0004C1C746020F81120120C42EA03421B0CE5
:1020C000EEE72DE9F7438DED000BDDE900560378CF
:1020D0008046F20F62F30003037047F6F07313EAD1
:1020E00016420BD198F8003023F0010388F8003035
:1020F0000023C8F8043003B0BDE8F0839A42F1D061
:10210000C6F30A53A3F2FF34002CEBDB05D1012107
:1021100003B0BDE8F043FFF757BFA3F2EF37C6F3B4
:102120001306332C4FEA271746F4801637DCC4F128
:102130003402A4F11403C4F1140406FA03F3D540E5
:1021400026FA04F4D6401D4325430024A14639460F
:102150004046FFF7E0FEC8F80470B9F1000F06D062
:102160004FEA49020021D8F8080048F03BF9A4B131
:1021700005FA04F2D8F8083023F81920C4F1100346
:10218000103409F10109A3F12002DD4006FA04F43C
:1021900026FA02F2DE40254315434B4610E00C348C
:1021A000A3F2334304F00F044FEA2319CFE7D8F822
:1021B000082022F813502D0C013345EA0645360C51
:1021C0009F42F4D197E72DE9F84301EB0208C2F3EF
:1021D0005B0207460D46511C1C46089EFFF79BFEFE
:1021E0003A7800211FFA86FC64F300023A702A460E
:1021F0004245796002D3501BBDE8F8831078A0F106
:102200003003092B05D9A0F14103192B11D8A0F1F6
:102210003703B342EFD2B86801320C4686467CB928
:1022200000EB410413B1023420F81130241A61107C
:10223000DEE7A0F16103192BDDD8A0F15703E8E731
:10224000BEF80090013C0CFB09332EF8023B1B0C3E
:10225000E5E7F8B5044615461E46C1B1531E4FF0DA
:10226000FF371E44E90020460F310909FFF753FEEE
:102270002378002123F00103616023700B4645B9E8
:10228000A06800EB4101FFF793FD6060F8BD0127F6
:10229000E8E700220F2B09DC3078013D3E4400FACC
:1022A00003F003F1080342EA0002F3D101F1010C4B
:1022B000A068103BC4F804C020F811206146DEE796
:1022C00038B5057804460B7805F0010203F00103E8
:1022D000981A08D1D1E90132D4E90110FFF74FFE75
:1022E000EB0748BF404238BD884210B5044601D0D4
:1022F000FFF791FE237823F00103237010BD88427D
:1023000010B5044601D0FFF786FE63683BB1237821
:10231000C3F3000282F0010262F30003237010BDD8
:1023200088421FB5044601D0FFF775FE626862B9A6
:1023300001212046FFF7EFFD0123A26813806360AF
:10234000237843F00103237010E02378D9070FD5D9
:1023500023F00103237001230093A168ADF80E3030
:102360000DF10E030846FFF77DFD606004B010BD5F
:10237000511C2046FFF7CFFD01230093ADF80E302E
:102380000DF10E03D4E901210846FFF742FD60601C
:10239000D6E74B682DE9F04704460D46164603B1D3
:1023A0002AB929462046BDE8F047FFF734BE02F1BE
:1023B0000F014FEA111803EB1111FFF7ACFD16F0F6
:1023C0000F026FF0004EA16808BF1022D5E901038B
:1023D000C2F1100208EB000606EB0E0C86444FEA31
:1023E0004C0703EB4E034FF0000E01EB4C0C014683
:1023F0000233E146F9B96FF00103C8F101082EFA82
:1024000002FE023758434FEA48020CEB00032CF857
:1024100000E0524203EB480047F0E4FFC31916B155
:1024200033F8022D9AB1237866602A7862F30003AC
:102430002370BDE8F08733F802AD01394AEA0E0E89
:102440002EFA02FA4FEA0E4E29F802A9D2E7013E0F
:10245000E5E72DE9FF410D4649680646144601B1FE
:1024600032B92946304604B0BDE8F041FFF7D3BD8C
:10247000FFF751FDB768D5F8088023466A683846EB
:102480004146FFF7A1FC337870600246297861F37A
:1024900000033370DB070BD500234FEA141C696877
:1024A000ADF80E30994201D0634504D161450AD898
:1024B00004B0BDE8F08138F8130098B101236145FC
:1024C000ADF80E3012D904F00F04012338F81C10B7
:1024D00003FA04F4013C214206D1BDF80E30002B72
:1024E000E6D003E00133DDE7ADF80E30012312B989
:1024F0003B807360DCE7009339460DF10E033846EC
:10250000FFF787FC7060D3E72DE9F3410C464E6876
:1025100057689046314692683B460546A068FFF7EB
:102520002EFD013017BF37464646264644463378CF
:1025300022785340DB0719D4791C2846FFF7EBFCBF
:1025400063680093A368A868D6E90121FFF761FCDE
:10255000686033782A7800280CBF002303F0010359
:1025600063F300022A7002B0BDE8F08139462846C4
:10257000FFF7D1FC63680093A368A868D6E901213E
:10258000FFF770FCE4E72DE9F3410F464E68D2F8FF
:10259000048014463146926843460546B868FFF702
:1025A000EEFC01301DBF23463C46B046012618BF55
:1025B0001F46237818BF00263A785340DB0719D509
:1025C00008F101012846FFF7A6FC7B680093BB6871
:1025D000A868D4E90121FFF71CFC686018B12078D5
:1025E00000F0010070402B7860F300032B7002B004
:1025F000BDE8F08141462846FFF78DFC7B680093DB
:10260000BB68A868D4E90121FFF72CFCE5E72DE9B8
:10261000F04F53680C46496885B0054699422DBF76
:1026200026461646194614463378DB0722D423780B
:1026300013F001071ED1FFF76EFCA868B6683B4691
:10264000D4E9011C99420CD100EB4101FFF7B0FB2A
:10265000002368602A7863F300022A7005B0BDE8A1
:10266000F08F36F813203CF81340224020F8132056
:102670000133E7E701312846FFF74DFC377823782F
:10268000D6F804C007F0010887EA0301A86803F040
:10269000010A43F30003C943A2689BB2834601F0D9
:1026A000010E41F30001009389B2029147F300014A
:1026B00067460191B168A1F102096168A1EB0C01C3
:1026C00003918FB900EB4C01BEF1000F03D0012341
:1026D000023120F81C30FFF76BFB686022783378FA
:1026E000C2F300021340B5E739F8021F013F019B16
:1026F0005940039B18FA81F8D919B9429BBF32F8A7
:10270000021B009B00995940029B8A4408EA0A0177
:102710004FEA1A4A4FEA184859401EFA81F14FEA27
:10272000114E2BF8021BCCE72DE9F84F0D465368EC
:102730004968044699422DBF2E461646194615464D
:102740003378DB0731D42A7812F001072DD1FFF757
:10275000E2FBD4F808C0B1683A46D5E9013E756895
:10276000ED1A934213D10CEB43002A4601EB4303CD
:10277000ACEB0101A2B900EB4500A0EB0C0040104E
:102780002378606062F300032370BDE8F88F31F8AE
:1027900012003EF8126030432CF812000132E0E7DC
:1027A0001E88013A5E520233E4E701312046FFF70A
:1027B000B2FB2B7837784FF0010A716803F00109FA
:1027C000A06843F3000307F0010847F300079BB23A
:1027D0008346D5E901E2B5680E46AEEB010EA5F1E0
:1027E000020C2EB900EB4101FFF7E2FA0122C7E724
:1027F0003CF8025F013E7D4018FA85F80EEB0605B5
:10280000AE422ABF32F8025B1D465D40A94448EA49
:1028100009054FEA19494FEA1848ED431AFA85F5B8
:102820004FEA154A2BF8025BDBE7F0B553680D461B
:10283000496885B0064699422BBF2F461746154674
:1028400019463C782B785C4014F0010436D1FFF730
:1028500062FBB068D5E9013C3D7815F00105D7E988
:10286000012123D1D21A2C469C4211D101EB4405FF
:10287000411A00EB440314469CB903EB4201FFF7F5
:1028800097FA3378706064F30003337005B0F0BDDD
:1028900031F814503CF814707D4020F81450013485
:1028A000E2E72F88013C6F520235E5E7CDE90034BD
:1028B0006346CDE90244FFF7FAFAE2E70131012469
:1028C000FFF729FB2B78DB4303F0010303933B78ED
:1028D0000194DB4303F0010302936B680093AB6840
:1028E000B068D7E90121E6E74B682DE9F04F0646CD
:1028F00085B00D4614460BB1536843B9337823F0C5
:10290000010333700023736005B0BDE8F08F81428E
:102910002DD1FFF715FBB442054607462ED063685C
:10292000304669681944FFF7F6FA32680021B0684A
:10293000C2F39D02520047F055FDAB68D6F808E09F
:102940000022D5F804900193F446A3680EEB4908E1
:102950001146029363680393039B934233D0ACF117
:102960000200DDF804B00023CDF800901AE08242A6
:1029700006D1FFF7E5FA04460746D0E70446CEE75E
:102980000027CCE730F802AF03EB0A01029B3BF8CB
:1029900002AB33F8123003FB0A13009903800139AC
:1029A0001B0C009100990029ECD14146881C13B101
:1029B0000146A8F80030A1EB0E010CF1020C013227
:1029C00080464910C8E77160384622782B7853401A
:1029D000327863F30002327005B0BDE8F04FFFF7C4
:1029E000E7BA4B6870B50546144613B11378DA0799
:1029F00006D52B7823F001032B7000236B6070BD8C
:102A0000636823B90121BDE87040FFF7DDBA0846CD
:102A1000FFF796FA06462046FFF792FA0121044690
:102A20002846FFF7D1FA636883B1A3681B88DB07E8
:102A300004D5324629462846FFF756FF0123D4E93C
:102A400001210846FFF7C0F9606038B93046FFF74A
:102A5000AFFA2046BDE87040FFF7AABA32463146C9
:102A60003046FFF741FFDEE72DE9F04F0C46516895
:102A70008FB0054601314FF0000A01920393FFF732
:102A80004AFA019B0021A8685A680132520047F0B7
:102A9000A9FC2B78C5F804A0204623F001032B7075
:102AA000019B59680131FFF736FA01992046FFF77B
:102AB000B2FA039BA668D4F8048030464146D3E9B5
:102AC000013B00935A46AB680493009BFFF757FA0B
:102AD000002833D10123049A606013806B6023784F
:102AE0006268002A0CBF002103F0010161F30003BA
:102AF00003992370019B09781B784B40DB0740F159
:102B000000816B682978003B18BF012363F3000143
:102B10002970002A00F0F5800BA84FF0FF31FFF775
:102B200097FA0BAA29462846FFF7EEFC039A21469E
:102B300020460FB0BDE8F04FFFF7E6BC013002D1F0
:102B4000C5F804A0CBE7009B03F10047013F4FEA23
:102B500047093BF817301A045CD506EB48004FF0E4
:102B6000000C08F10102B646831C26F818C062600A
:102B700002931FFA8AF3C3F11001059102998E4561
:102B80004CD33BF8171001FA03FA0099012908D930
:102B90000BEB0901C3F1100731F8021CF9404AEAB6
:102BA000010A0099521A04996A6002F10042013A3E
:102BB00001EB4202079209F1020209926268059252
:102BC0000599009A8A4235D301F1004B0022C3F1E6
:102BD00010000BF1FF3B06EB4B0B5E4540F284808F
:102BE0006B6843B103F100420499013A31F81220B5
:102BF000002A00F083806368002B3FF470AF03F17C
:102C00000042013A36F81220002A7FF468AF013BF7
:102C10006360F0E70AF1010A5B009CE7BEF800A0E0
:102C200005990AFA03F84CEA08082AFA01FC2EF87A
:102C3000028BA3E70188002730F8022CB84642EA4D
:102C40000142B2FBFAF20292099A821A0692ABF1A1
:102C50000202DDF818C0089260450DD801880F44C3
:102C6000002F39D1079A0238029922F802190792E7
:102C7000059A013A6260A1E7089ABCF8009032F820
:102C8000021F19FA87F999400892029A41EA1848F6
:102C90001FFA88F151431FFA81FE090CA9EB0E0EB1
:102CA000C1EB27412CF802EB01EB2E47D4E739F8B2
:102CB000021F994041EA1848BEF80010614411FA19
:102CC00088F14FEA114C2EF8021B7045EFD8029A9A
:102CD0006744013A0292C3E74FF0000CABF10209DE
:102CE000DDF818E0E046F0E7BBF8001041FA03F722
:102CF0003A432BF8022901FA00F26EE7013B6B60C0
:102D00006EE70FB0BDE8F08FF0B51F4613780D46A3
:102D100085B0D9070446164606D47B68012B0BD133
:102D2000BB681B88012B07D1237823F00103237094
:102D30000023636005B0F0BD01212046FFF744F990
:102D4000736853B93B78DA07F4D53A4621462046F2
:102D500005B0BDE8F040FFF7D7BB6B68002BE3D0B0
:102D60002846FFF7EDF805463046FFF7E9F800235F
:102D700006460393CDE9013373685BB901A8FFF7F9
:102D800042F92846FFF714F9304605B0BDE8F04097
:102D9000FFF70EB9B3681B88DB070AD52A46214620
:102DA0002046FFF7A1FD3B462246214601A8FFF73A
:102DB0005BFE0123D6E901210846FFF705F87060A4
:102DC0000028DBD02A4629462846FFF78DFD3B46E2
:102DD0002A46294601A8FFF747FECDE7D0E90121A1
:102DE000002301EB420210B5914205D30278D207CD
:102DF00048BF5B42184610BD32F8024D44EA034317
:102E0000F2E730B5D0E90124002304EB42029442FA
:102E100006D302780120D20748BF5B420B6030BD69
:102E2000B3F5004F04D232F8025D45EA0343EEE702
:102E30000020F4E7037813F0010310B501D000205F
:102E400010BDD0E9012404EB4202944202D30120D8
:102E50000B60F5E7B3F5803FF1D232F8020D40EA9E
:102E60000343F2E72DE9F74FDDF830A088460192E1
:102E7000B1B10AEB030501784FF00109D0E9012453
:102E800041F30001A4F1020E0024C9B227462646F0
:102E900042B9D3BB019B93BB012003B0BDE8F08FC7
:102EA0005546E8E73EF802CF10364CEA0747072EB2
:102EB00001DC013AECE7BCB290F800B06FEA040C18
:102EC0001BF0010B59FA8CFC1FFA8CFC18BF6446EE
:102ED0004FEA142C18BFE1465FFA84FC23B9614520
:102EE0001CD1083E3F0AE2E7B8F1000F04D005F814
:102EF00001CC013D013BF4E705F801CBFAE74C407A
:102F000084F08004C4F3C010C7E71A46B8F1000F7C
:102F10000CBF2846504647F065FABDE71846BCE7A7
:102F2000D0E901329FED0C0B9FED0D6B02EB4303DB
:102F30009A4205D30378DB0748BFB1EE400B7047D8
:102F400033F8021D07EE101AB8EEC77BA0EE067B21
:102F5000B0EE470BECE700BF0000000000000000EF
:102F6000000000000000F0402DE9F74F0A294468F6
:102F70008046894616469DF830A00D9D14BF4FF03F
:102F8000040B4FF0030B9CB982B1561E2B4616F86A
:102F9000012F42B930221A70002203F8012F581B6A
:102FA00003B0BDE8F08F03F8012BF0E72B46F1E703
:102FB00060000193FDF764F9D8F808106200074635
:102FC00047F0C6F9019B07EB440C28462A463A3BDA
:102FD000ACF102040021A7422AD93031CC1839299A
:102FE00088BF2146144604F8011B39468C458E469D
:102FF00029D83846FDF76CF95EB1304647F030FA13
:103000003218611E1346B3422FD8964288BF002063
:10301000044498F80030DB0744BF2D2304F8013B3B
:103020002B46621E9A4225D80023601B2370B7E707
:10303000B4F800E04EEA0141B1FBF9FE09FB1E11B4
:1030400024F802E9C7E7BEF800E00231BEF1000F44
:10305000CCD0BAF1000F06D0211A594502BF941CFA
:1030600082F801A020462246B2E713F8017D01F85C
:10307000017FC8E71978107803F8010B02F80119ED
:10308000D0E7D0E9023293423DBF5A1C82601878E3
:103090004FF0FF3070470368013B033310B504461F
:1030A00002D84068FDF714F92046BDE81040FDF74E
:1030B0000FB90000F8B50C461F461646054610200D
:1030C000FDF7DEF8054B8460C0E900743444C46049
:1030D0006B60034B2860AB60F8BD00BF8330020813
:1030E0009730020802690A2AF8B5044623D1836999
:1030F000013383610123E3610026237D0A272361D5
:10310000637D2375256EF5B16B1CA26D2366555D3D
:10311000626D934201D366652666237D0D2B02D135
:103120000A2D2775EED025B9237D13B10A2B18BFC0
:103130000A256575F8BDC369092A04BF073323F062
:1031400007030133D7E7D4E901039847431CE4D0D0
:10315000012838BF01200546DFE700000169272963
:1031600002D10123184670472229FAD0A1F1620248
:10317000132A01D90023F5E70F4B134113F0010384
:10318000F8D1027D272AECD0222AEAD0722909D16F
:10319000662A0BD1437D272BE3D0A3F122025342B1
:1031A0005341DFE7662904D1722A00E0622AD9D1AF
:1031B000F0E76229F8D0D5E7EEFFF6FF38B5044610
:1031C0000D46206908B905461BE00A2806D10DB155
:1031D000636AB3B12046FFF785FFF2E7FEF75CFDB7
:1031E0000028F7D12369232B08D12046FFF77AFF67
:1031F0002369002BE5D00A2BF7D1E2E75C2B02D044
:103200000025284638BD237D0A2BF9D12046FFF73B
:1032100069FFDFE7002301212DE9F04F044685B067
:103220004364FFF7CBFFA369266A6363002EE3695B
:10323000A36307DA0723013684F83C30266205B021
:10324000BDE8F08F04D00623013E84F83C30F5E75A
:10325000002835D031462046FFF7B0FF0523E56949
:1032600084F83C30013DD4E90B3003F10042013ACF
:1032700030F812209542E2D009D8013B30F81320F3
:10328000954218D3DBD0022384F83C30D7E7A16AFB
:103290008B4207D308314900FDF70DF8A36A20637C
:1032A0000833A362E36A5A1CE26220F81350236ACF
:1032B00001332362C3E7226AE362013A2262DCE758
:1032C000256915B984F83C50B9E72046FFF746FF59
:1032D0008046002800F0128284F83C602369722B3B
:1032E00049D008D8622B0CD0662B4ED0B1460025B1
:1032F0002F460B230DE0753BD3F1000949EB030981
:10330000F5E7237D0025722B46D02F464FF00109AB
:103310000C2394F83C20002A47D184F83C30B9F1C2
:10332000000F08D02046FFF7DDFEB9F1020F02D1F1
:103330002046FFF7D7FE23692046222B0CBF4FF013
:1033400022094FF02709FFF7CDFE23694B4502D133
:10335000237D4B4560D04FF0010A35B1A36E23B9F0
:10336000AA4904F16400FEF75BF804F140034FF052
:10337000000B0093EFE0237D622B0CD0662B0FD067
:10338000002547464FF00109B3E7237D4546722BE0
:1033900007D00027F6E7002547464FF00209B7E7B8
:1033A000454647464FF00209A3E79A42B7D0A36EBD
:1033B000002B3FF444AF292104F16400FDF7EEFF38
:1033C000236E04F15006002B40F095810321304616
:1033D000FDF7CAFF23690370237D4370637D83700B
:1033E000216E3046D4E91A572A46FEF726F82A46B7
:1033F000394646F0ADFF0023A26DA366236E581C2C
:103400002066D15C2161991C03332166105C236620
:103410002075535C637512E720464FF0030AFFF7EF
:1034200061FE2046FFF75EFE97E7894509D14946D0
:1034300000980BF1010BFDF7B8FF2046FFF752FE95
:1034400089E0002D6DD15C2940F04C812046FFF7CA
:1034500049FE236967B9782B0AD85B2B00F2988064
:10346000222B00F0CC8000F2C4800A2B00F0BE803A
:103470005C2100980193FDF798FFDDF804B001E1AD
:1034800004F1640B28215846FDF788FFA36E002243
:10349000216981B17ABB3A290DD07D290BD0212930
:1034A00029D1207D7238C0B2012829D8607D3A2800
:1034B00001D07D2824D1D4E91A21881810F8010CF4
:1034C0003D2809D1D21A194401980293FDF7D6FE7E
:1034D000A26E029B013AA266934258464FF0290120
:1034E00004BF042384F83C30FDF758FF2C215846D4
:1034F000FDF754FF29E021F020005B280CD10132B8
:10350000C9B25846CDE90232FDF748FF2046FFF721
:10351000E9FDDDE90232BBE75D2808BF02F1FF32B9
:10352000EEE77B298FD120460291FFF7DBFD04F106
:103530004003019323697B2BA2D104F1400002993F
:10354000FDF72CFF2046FFF7CDFD4FF0000B7B2150
:103550000198FDF723FF2169002900F0C680BAF128
:10356000010F02D10A2900F0C080D345FFF45DAFFE
:10357000594604F14000FDF778FF01212046FFF78E
:103580001DFE2046FFF7EAFD00287FF4A7AE0EE7F8
:10359000A3F15C021C2A7DD8DFE812F031007C0028
:1035A0007C007C007C0095003C007C007C007C0062
:1035B00048007C007C007C007C007C007C007C005F
:1035C00042007C007C007C001D007C003F004B0022
:1035D00045007C00C3014FF00D0B94F83C300B2BE1
:1035E00074D1594604F14000FDF7DFFE4FF0000BA7
:1035F00023E7552B1DD03FF63BAF272B01D19B4630
:10360000EBE74E2B46D102480AF0B4FEFC32080824
:10361000053308084FF0080BDFE74FF0090BDCE734
:103620004FF00A0BD9E74FF00B0BD6E74FF00C0B1E
:10363000D3E794F83C200C2A07D15C2104F1400028
:103640000193FDF7B2FE019BD9E7752B14BF082348
:1036500004234FF0000B20460193FFF743FD22693E
:1036600010460292FEF736FB002800F05581019BC0
:103670000298013B0193FEF76DFB019B00EB0B1BD6
:10368000002BE8D1BBF5881FA7D34FF0010384F8C6
:103690003C30ABE7A3F1300BBBF1070F3FF6E8AED0
:1036A000032308E020460193FFF71CFD2269019BDC
:1036B000303A02EBCB0B227D303AD2B2072AE1D866
:1036C000013BEFD1DEE74FF0070B86E7BBF1FF0FC1
:1036D000DBD80C2BD9D15FFA8BF104F14000FDF758
:1036E0005DFE83E7C9B20098F9E7D3453CBF0323E9
:1036F00084F83C303CE7033B236671E62846FEF73E
:10370000D5FA054600283FD120695F283CD07F28A4
:103710003AD8FEF7D5FA48B923692E2B40F09880A5
:10372000207DFEF7CDFA002800F0928021692E2935
:1037300065D10A2384F83C3004F140060A2730465C
:10374000FDF733FE2046FFF7CDFC206900283FF44B
:1037500076AD002D65D120F02003452B61D1652188
:10376000304684F83C70FDF720FE2046FFF7BAFC97
:1037700021692B2901D02D29E7D13046FDF715FE0F
:103780002046FFF7AFFCE0E7082304F1400584F88A
:103790003C30217C2846FDF701FE2046FFF7A2FCC5
:1037A000206960B1FEF782FA0028F2D120695F2813
:1037B000EFD07F28EDD8FEF783FA0028E9D128461C
:1037C000594EFDF7DCFD002507463168384646F0C6
:1037D00055FE00280CD10E35EDB2112D7FF472ADDF
:1037E000524BD3F83032002B14BF0E2310234BE57D
:1037F000FFF625AD01350436242DE6D11FE509235A
:10380000302984F83C3097D1237D494A43F0200386
:10381000623BDBB2DA4002F00102162B98BF15467C
:103820008AE7FEF743FA30B92069FEF749FA10B982
:1038300023692E2B09D121692E2903D021F02003E1
:103840004A2B9AD184F83C7097E75F2B98D0F6E426
:103850000026384D2F7817B12369BB4205D1204689
:10386000FFF740FC4FB901230EE5652F01D0632F10
:1038700000D1013501360135ECE7212F07D123694D
:103880003D2BF0D12046FFF72DFC3923FCE42E2FF1
:103890000FD123692E2B02D1237D2E2B01D05C2347
:1038A000F2E42046FFF71EFC2046FFF71BFC0D2329
:1038B000EAE40335334615F8027C632F01D0652F07
:1038C0000FD115F8012C01362169914207D120460C
:1038D000FFF708FC652F05D033460235EBE7632F71
:1038E000FBD11E46144B9B5D84F83C30543BDBB24D
:1038F000052B3FF6A4AC012202FA03F313F02A0FC2
:1039000007D113F0150F3FF49AAC636A1344636256
:1039100095E4636A013BFAE70123834684F83C306F
:103920005BE6022395E600BF34BB08080040022096
:1039300001204000B7320808C4BB080830B585B084
:10394000054601A880E80E007420FCF799FC01AA46
:103950000446034607CA43F8045B002583E80700D2
:1039600001236FF001021420C4E906320A22C4E9DF
:103970000855C4E90A23FCF783FC2021206304F1E5
:103980004000FDF78DFC294604F15000FDF788FC4E
:10399000294604F164002566FDF782FC236B20466E
:1039A0001D802561A582FFF79DFB2046FFF79AFB4E
:1039B0002046FFF797FB2046FFF72CFCA36B012B5B
:1039C00006D094F83C30052B1CBF062384F83C300D
:1039D000204605B030BD1FB5044601A8FFF76AFBBD
:1039E00001AB20460ECBFFF7A9FF04B010BD1FB5F9
:1039F0000446014601A823F087FD01AB20460ECB0B
:103A0000FFF79CFF04B010BD10B50446B0B1C36809
:103A10004068984704F14000FDF76CFC04F1500049
:103A2000FDF768FC04F16400FDF764FC206BFCF713
:103A30004FFC2046BDE81040FCF74ABC10BDD0E961
:103A40000432013B036152F8230070470369426965
:103A50005B1A013B52F823007047F8B5446A0646EA
:103A60000D46B4B1D4E900030B44834222D9083196
:103A7000002201442046FCF729FC0246B8B96168DF
:103A800020460831FCF722FC63682360336A6360D8
:103A90003462802D2F4638BF802707F10800FCF7DD
:103AA000EFFB0023076004464360706202E0236876
:103AB0002B44236060680834054444F8045C2044C7
:103AC000F8BD38B50D460C211446FFF7C6FF4FF47C
:103AD0009D730560C0E9013438BD38B50D46044614
:103AE000D0E903138B4208D3103140698900FCF7F9
:103AF000E2FBE36860611033E360D4E90432591CEF
:103B0000216142F8235038BDF8B50E461D460446E3
:103B10001746D0E900138B4208D310318068C900E2
:103B2000FCF7C9FB2168A06010312160D4E90110C5
:103B30004B1C636000EBC10350F8312066F31702A1
:103B400040F83120DF705D60F8BD10B48469CAB2FE
:103B50000023616B10BCFFF7D7BF0000C20704D57C
:103B600040F0010008600120704708B9002070474C
:103B70008307FBD103793A2BF8D1836813F0010056
:103B80000B60F0D19A0707D11868044B9842EAD02D
:103B9000034BC31A58425841704700BFA4D10808CC
:103BA0001CCF0808C20701D50120704783070ED03B
:103BB00000F00F03062BF7D00A2B01D0002070472E
:103BC00000090D3803288CBF002001207047002811
:103BD000F4D003793A2BE7D02D2BEFD18068B0FADF
:103BE00080F0400970470000C20702D540F0010094
:103BF000704783070FD0030900F00F00062803D198
:103C0000D80040F0020070470E3B022B0BD8074A49
:103C100052F82300704708B90548704703793A2BDA
:103C2000FAD1806870470348704700BFF0BB0808AE
:103C3000D8DC0808A4D8080838B505460C46FFF7B4
:103C4000B1FF38B12846FFF7CFFF0BF0ADFB031BE8
:103C50005842584138BD0000F0B593B004460E46B6
:103C6000174668461D46FCF7CBFA10B1002013B08A
:103C7000F0BD3A46314620460AF086F90446FCF784
:103C800095FAA30703D12268024B9A42EED0012095
:103C90002C60ECE788C808082DE9F0410E4605467F
:103CA0001446114689B9204613F008F9074600F179
:103CB0000808A4B93A4631462846FFF702FF0146F4
:103CC0002846FFF70AFF012007E001392846FFF7E1
:103CD000BDFEFFF767FF0028E4D1BDE8F08128466C
:103CE000013CFFF7ACFE0146FFF77EFF48F82400D9
:103CF0000029DED08B07DCD16A6A02F10803994201
:103D0000D7D3506803449942D3D24B681B0A02337D
:103D1000A0EB83005060CCE7F7B5866905460F46F7
:103D200096F83C00A0F10803042B55D8DFE803F017
:103D300003232E3B4F00D6E91110FDF717F9902F02
:103D4000044614D1C100002205F1280041F002010F
:103D50000AF0C4FE58B14268D1071FD542F00100F5
:103D60000146284603B0BDE8F040FFF7B6BE20018B
:103D700040F00200F4E733460022D6E9111008F0C3
:103D80003BFCC30709D540F00100E9E7009600239A
:103D90000122D6E9111008F08FFD0246716B28460A
:103DA000FFF78FFEDCE7D6E911100A2906D8FDF7E8
:103DB000DDF830B1000140F00600D1E7FDF78CF8E6
:103DC000F7E7D6E91121064811F0B8F8E5E7D6E99A
:103DD000111011F023F9E0E7000140F00A00BFE7FD
:103DE000CCDB080808B5FFF7B9FE08B9002008BD0C
:103DF0000B68D90707D49A07F8D11868034BC31A80
:103E000058425841F3E70120F1E700BFA4D1080868
:103E10000021FFF711BF0121FFF70EBF2D2A2DE969
:103E2000F04F044685B0884616461D461DD1002138
:103E3000FFF70CFE20B1810734D10379922B31D1E9
:103E4000A6F12303DFB2092F00F20282092B00F250
:103E5000F381DFE813F0F700F700F7002A012A01E9
:103E60002A014F01F700F101AD01922A1DD1002175
:103E7000FFF7ECFD07460028E2D08207E0D1416859
:103E8000CBB2952B04D12046013DFFF7D8FDD7E7F3
:103E9000962BD5D121F0FF012046FFF7D0FD41F050
:103EA0009201796005B0BDE8F08F962A13D10135F3
:103EB000D0E9012303EBC20313F8153C2D2B40F08E
:103EC00060812A46FFF7E8FE002800F05A81636807
:103ED000023B6360E6E7A2F11E03012B40F28480FF
:103EE000202A00F09580052AAAD10021FFF7AEFD17
:103EF0000746002800F0458110F0030905D143680A
:103F000003F0FE03562B00F03C8101212046FFF711
:103F10009DFD00F00F030146022B40F03281B9F104
:103F2000000F06D13B795B2B06D1FF68002F00F014
:103F30002881B80740F025813B792C2B40F0218166
:103F4000BB6803F00F02022A40F01B811B09482BBB
:103F500040F01781FB68002B00F0138113F0030978
:103F600040F00F811A79302A40F00B81D3F808A075
:103F70005046FFF717FE8346002840F0DD80AF492A
:103F8000AF480DF085F9A16905465B463A680968B6
:103F90000DF060FA2846FCF74BF9A946AA460AF14B
:103FA000FF3A20465146FFF751FD23696269834677
:103FB000A3EB090342F82300BAF1000F17D01E2E1D
:103FC0000BD1FFF728FF90B95846FFF721FF0028D3
:103FD00018BF4F46B946013FE1E7FFF719FF30B977
:103FE0005846FFF718FFF2E76F1E002DD5D10021CC
:103FF000B94208D16D1A012D3FF454AF362E00F0AE
:104000003181332E2DE120460131FFF718FDEFE716
:104010000021FFF71BFD0746FFF7FAFE78B9384687
:10402000FFF7F9FE002800F0AC80EA212046FFF7F8
:1040300006FD204605B0BDE8F04FFFF74EBD4FF43A
:104040008571F3E7691E2046FFF700FD01A9FFF720
:1040500085FD002800F09580022FA5F1020796BF8C
:10406000A6F10D094FF022095FFA89F9002F09DA4C
:10407000002D40F0D680019AD30740F1D78042F05E
:104080000101D6E739462046FFF7E0FC02A9FFF719
:1040900065FD002875D001AB4846DDE90112FFF748
:1040A000DBFD00286DD0013FE0E7691E2046FFF7E9
:1040B000CDFC01A9FFF752FD002862D0AF1E002FF2
:1040C000D6DD791E2046FFF7C1FC02A9FFF746FDA9
:1040D000002856D039462046FFF7B8FC01AB00094E
:1040E0002438DDE90112C0B2FFF7B6FD002848D040
:1040F000023FE4E700212046FFF7A8FC01A9FFF7F3
:104100002DFD00283DD001212046FFF79FFCC0F384
:104110000710019933280CD1CB0705D48F0730D174
:104120000A68484B9A422CD1022009F079F9019093
:104130009EE73F38C0B2F8E70F095046FFF754FD3D
:104140008346F900012204F1280041F002010AF03F
:10415000C5FCC0F804B03846FCF7C7FF037820461A
:104160005F2B08D1FFF76BFC20464D46C84608265A
:10417000FFF765FC64E6FFF762FC51462046FFF757
:10418000ACFCA91C20468900FFF767FC074646EAFD
:10419000052300F10801C0F800804360002D6AD1BA
:1041A000962E03D139462046FFF797FC394640E763
:1041B00001212046FFF74AFC00F00F030746022BBF
:1041C000DFD100212046FFF741FC0028D9D010F0B4
:1041D0000302D6D10379322BD3D13909D0F8089014
:1041E0001948C90041F002010AF078FC0028C8D043
:1041F00002AA4FEA1911406809F054F8029B002BFB
:10420000BFD0D90708D49A07BBD11A680D498A4292
:1042100002D00E498A42B4D1039A002AB1D1019347
:1042200026E72046013DFFF70AFC21E72946204604
:10423000FFF747FC0146FCE62B26A2E78833080877
:10424000C8CB0808A4D10808FCBB08081CCF080884
:10425000922E17D1D4E9012303EBC20313F8053CD6
:104260002D2B8ED12A4641462046FFF715FD00280A
:104270007FF418AE85E7013D2046FFF7E0FB41F8EB
:1042800025008BE7062EEDD0B8E600BF0346006898
:1042900030B560B1840702D00120136030BD44689E
:1042A000E5B28D42F8D100F10803200AF5E7034694
:1042B000F3E700002DE9F04FAB4B97B00E4600241A
:1042C000029005A80192CDE90731A849FBF776FFD6
:1042D00040234FF40070CDE90934FBF7D1FF2023D0
:1042E0000B908020CDE90C34FBF7CAFF2146CDE9C5
:1042F0000E0613A8CDE911440AF0BAFB019B002B6E
:1043000050D0022B0CBF3F2222464FF0000B984F9B
:104310000023716B09A8FFF7F7FB0A9C002C00F043
:104320007581013C0B9B934D03EBC40253F8343071
:104330000A9492F80380C3F3170A8F4BB8F1630F06
:10434000526813F8083000938C4B13F8083088BF7C
:1043500043F4807305EB4305009B03F00F0903F062
:104360003003102B20D0202B4FD0BBF1000F00F0DA
:104370002381B9F1020F40F01281012A42D04FF09F
:10438000000B0099531EC90705D569883940B1F55E
:10439000805F08BF5308012B40F0FF80BBF1000F86
:1043A000BBD0FAE03D22B0E712B1BBF1000FB4D0B0
:1043B00005EB420524E02B8803EA0701B1F5805F95
:1043C0000FD196F83C10C3F30B03994216D109A8FC
:1043D0004146FFF7A1FC3046FEF71CFF4FF0000BF3
:1043E0009BE7531C4B4504D24246514609A8FFF7B0
:1043F0008BFB298809A8FFF7A8FBEFE702350132FC
:104400009145D8D84FF0010B87E7BBF1000F0ED0D4
:1044100002F10043013B35F813303B40B3F5405FF8
:1044200008D1002109A80392FFF757FB039A05EB77
:10443000420B30E0012A7FF670AF96F83C30062B35
:1044400040F012814E494F480CF022FF04460023F1
:10445000726B31680CF0FEFF2046FBF7E9FEBBF8FB
:10446000003003EA0701B1F5805F32D1DBB296F884
:104470003C1099422AD108290BF1020B05D1414683
:1044800009A80392FFF748FC039A30460392FEF70F
:10449000C1FE039A01329145E1D8019B8BB1B8F17D
:1044A000050F0ED1002109A8FFF7D0FA48B9012164
:1044B00009A8FFF7CBFA820714D000F00F000228FA
:1044C00015D1002405EB4909A3462CE0002A99D018
:1044D000B3E7531C5146424609A8FFF715FBBBF84A
:1044E000001087E70028ECD003793A2BE9D109A81E
:1044F000FFF7A5FA09A8FFF7A2FA00230822514600
:1045000009A8FFF78BFC69E739F8023D03EA0702C7
:10451000B2F5805F12D1DBB2621C082B0BF10103F4
:1045200004BF14469B464D45EED1BBF1010F2BD184
:10453000009B5B0628D5002529460EE0214609A8E8
:10454000FFF784FA08B10BF1010B0134EBE7FFF739
:1045500076FA0135002818BF0146A54209A8F6D110
:10456000FFF7BBFA3AE700BF093A0208A7D10208F1
:1045700000F0FFFFE8BC080870C0080838BC080855
:1045800094330808A4CB0808009B1D0604D5013409
:10459000002109A8FFF7A1FA23464246AFE7012A06
:1045A0003FF430AFD0077FF5EAAEB9F1030F7FF4E7
:1045B00044AF4FF0010BE4E609EA020303F0010304
:1045C00035F8134004EA0701B1F5805F13D1C4F355
:1045D0000B0496F83C10A14202F1010409D11BB969
:1045E000414609A8FFF798FB3046FEF713FE224626
:1045F000E2E72246BDE6531C514609A84246FFF7B2
:1046000083FA214609A8FFF7A0FA86E613A80AF064
:1046100043FA129850B1416822460831FBF756FE22
:10462000129B5A681A60119A5A60119396F83C309E
:10463000002B7FF402AF0D9B002B3FF4FEAE0E9BD0
:104640000B981B681093FBF743FE0E98FBF740FE98
:104650000120FBF7BBFD029BDDE9100183E80300AD
:10466000184617B0BDE8F08F022B01D10349EAE6E6
:10467000042B03480CBF03490349E5E69D330808B2
:10468000C8CB0808C4330808D733080838B504462F
:10469000406808B9606038BD4568FBF719FE2846D8
:1046A000F7E70000F8B5054630200E461746FBF741
:1046B00000FE072D04460570C66001D0012D0ED105
:1046C000B3681B09A38208F0D5F9042320612020D8
:1046D0002783E384FBF7D4FDE0622046F8BD014B5D
:1046E0005B5DEFE720C1080810B50446C06AFBF720
:1046F000EFFD2046BDE81040FBF7EABD30B50022D3
:10470000048D944202D80023184630BDC36A03EBDF
:10471000C2035D688D42F7D00132F2E770B50446FE
:104720000D461646FFF7EAFFC0B9E18C238D8B4298
:1047300008D30631E06AC900FBF7BDFDE38CE062F7
:104740000633E384238DE26A591C02EBC300218502
:1047500002F83360002345604370438070BD034618
:1047600018465B68002BFBD1FFF7C8BFF8B544685B
:104770000E462CB9F8BD042BFCD105230370F9E7D4
:10478000254628466D68002DF4D077683946FFF736
:10479000B5FF0028F5D00378043BDBB2022BE9D843
:1047A00006253570002239462046FFF7B7FF03780B
:1047B000002BE0D105706468F4E7036A1B8B012BC2
:1047C0001EBFC3685B18C3607047836A10B5044698
:1047D0009B6F406A9847238B226A0133918C9BB26E
:1047E0009942238338BF938410BD038B013B10B5DE
:1047F00003830446836A406AD3F88430984720468E
:104800000121BDE81040FFF7D8BF2DE9F04F044665
:1048100085B00D4691469A461BB1CB8A43F00803FA
:10482000CB82236AA5F81E90DA8A42F03002DA823F
:104830001B78002B4AD1A36A4A462946606AD3F8FE
:10484000B4605346B44605B0BDE8F04F6047DB6A3C
:1048500003EBC60B13F83630053BDBB2012B20D837
:10486000002319E0EB6A039A039903EBC20213F8E1
:104870003130062B0ED1DBF804105368994209D170
:10488000A36A08F10108BBF802201B69606A1F4691
:104890000023B847039B01330393039A2B8D934264
:1048A000E0DC0136236A1A8DB242D0DCB8F1000F89
:1048B000C1D0A36A4246CDF800A02946D3F8B8601B
:1048C0004B46606AB04705B0BDE8F08F0026B046A1
:1048D000E8E7836A002110B50446D3F88830406ABF
:1048E0009847A36A606A0F211B6B9847A36A606AA6
:1048F0000121D3F8CC30984720460321BDE8104071
:10490000FFF75BBF38B5836A04460022406A5B6CE0
:104910009847A36A606AD3F8C05000231A46194624
:10492000A8472046BDE83840FFF7D3BF836A00227E
:1049300089681B6D0909406A1847836A8968DB6BBF
:10494000406A184710B50446084611461A46FFF754
:10495000A9FE236A436000238360E3690BB9E06129
:1049600010BD1A469B68002BFBD19060F8E72DE93B
:10497000F04F87B005460C4600AF51B111F0030669
:1049800012D10B79682B1ED1CB681B0913608C6880
:10499000B4B90121AB6A11602246DB6A686A9847A4
:1049A0001C37BD46BDE8F08F002604F00F03022B34
:1049B00008D1210906B91160AB6A0022DB6AEDE774
:1049C0000126F2E716B9A3681B091360A04658F840
:1049D000043F4FEA1329C24608EB890309F1FF3B64
:1049E000BB605AF8040F0009FCF775FBBB688344F1
:1049F0009A45F6D10BF1070323F00703ADEB030D46
:104A00000023EA46C7F80CD058F8040F07F1140148
:104A10003B600009FCF774FB7A69014650467A60F6
:104A200045F096FC3B687A680133994518D15946A0
:104A3000F868FCF79BFAAB6A01460022DB6A686AF9
:104A40009847002EACD00834BB689C42A8D054F8DC
:104A5000041F0022AB6A0909686A1B6D9847F3E7D7
:104A600092444FF02E020AF8012BCDE731B101F04C
:104A700003038268134304BF0B68836070472DE90A
:104A8000F04107461E4661B111F0030511D1D1F87E
:104A900004805FFA88F393420BD10C1DB5EB182FFD
:104AA00001D1BDE8F08154F8041F38460135B04704
:104AB000F4E738463346BDE8F0411847F8B50F46ED
:104AC00011461A46002304468578066983700361FF
:104AD0000E4BFFF7D4FF6368BBB9ED1A618A18BFAC
:104AE000012551B1228A42B9A36A606AD3F8A03085
:104AF0009847A36A606A1B6C9847238A3946628A82
:104B00002046FFF782FEA5702661F8BD55530208C6
:104B100070B5437805460C46012B06D1036A0A4658
:104B200002211B8BFFF70EFF2061A2682846216936
:104B30004C23BDE87040FFF7C1BF70B51346427803
:104B400006460C46012A04D10A460721FFF7FAFE61
:104B5000A061A56930464623E2682946FFF7AEFF0B
:104B6000A88A70BD024B9D228968FFF788BF00BFED
:104B700051580208024B6B228968FFF780BF00BFC3
:104B8000E573020838B5436804460D4653B911462B
:104B900005480CF07DFB294660602046BDE83840A2
:104BA000FFF764BF38BD00BFC8CB0808014AFFF754
:104BB000E9BF00BFDB3308080B79092B4FF6FF7301
:104BC00070B508BF858A044618BFC58A9D4202D1C8
:104BD000064AFFF7D7FF218B628BA36A8A1A606AA5
:104BE00029465B6FBDE87040184700BFE8330808EE
:104BF00070B5144605460E46127883B132B1032AC9
:104C000004D0104ABDE87040FFF7BCBF03266168BE
:104C10002670286AFFF7A3FD00B1067070BD62B967
:104C2000012321462370006AFFF7A0FD2378012BA2
:104C3000F4D1054A31462846E4E7062AEED0034A75
:104C4000E0E700BF013408080E3408081B340808E8
:104C500038B505460C4671B101F00F03022B0CD19B
:104C6000080909F085FD002806DA220905490648E9
:104C70000CF0A4FB6860002038BD044AFFF782FFF7
:104C8000F9E700BF223408085CCB0808273408087D
:104C90002DE9F341437806460F46012B19D10B79D4
:104CA000102B08D0026A12782AB9134A02B0BDE864
:104CB000F041FFF767BF103B01AA6D2107F1080023
:104CC0005D424FF000045D41FFF7E0FA8046A045E9
:104CD00002D102B0BDE8F081019B0022306A53F896
:104CE000241001340909FFF719FD2B460246394605
:104CF0003046FFF77DFFEAE73734080842780B4675
:104D0000012A02D1006A02F003BE816A026A2031E0
:104D1000406A02F00CBE42780B46012A02D1006ABA
:104D2000FFF7FCBC816A026A1031406A02F0FFBDE5
:104D300070B505460C4600292DD0CA0706D5836AF2
:104D400049105B6B686ABDE8704018478B0716D046
:104D500004F00F040909022C0AD0062C0CD00529F6
:104D600019D0836AC9B2406A1B6BBDE8704018470E
:104D7000BDE87040FFF7CFBF836A9B6BE2E7836AB1
:104D80000968DB68406A98472279034B2146284628
:104D900053F82230D7E770BD28C108082DE9F74F36
:104DA00005460C46164698462046FFF731F840B1B6
:104DB0006EB9AB6A41469B6E686A03B0BDE8F04FBE
:104DC00018472046FFF727F820B1002EF1D103B095
:104DD000BDE8F08F002C44D0A30742D163681F0ABE
:104DE000DBB21E2B2FD196BBD5F80C90013F04F1FE
:104DF000040B4FF0000A09F1010386F00102EB6099
:104E000057450BDC023743463246284654F82710F4
:104E1000FFF7C4FFAB6A49469B6ACDE74B465BF898
:104E2000041F284601920AF1010AFFF7B7FF019A11
:104E3000E6E74346324654F8041F2846FFF7AEFF24
:104E4000BC42F6D1C3E71F2B05D1002ECCD10434D0
:104E500004EB8707F4E7202B03D1A46886F0010652
:104E6000A2E721462846FFF763FFAB6A4246314678
:104E7000DB6E686A03B0BDE8F04F184738B5036AC7
:104E800004460A461B78072B06D0022B04D0154A8D
:104E9000BDE83840FFF776BE956885B9A36A0F2153
:104EA000606A1B6B9847A36A0021606AD3F8CC3014
:104EB000984720460121BDE83840FFF77EBCAB078C
:104EC0000BD12B79AF2B08D12046A968FFF730FF13
:104ED0002046BDE83840FFF7FCBC29462046FFF7D6
:104EE00027FFE0E74934080870B5437804461646C2
:104EF000CD68012B06D1036A0A4631461B8BFFF7AA
:104F000021FD68610023696920461A46FFF77DFC90
:104F1000E9682046FFF70CFF062E05D1A36A0021A1
:104F2000606AD3F888309847A36A0121606AD3F891
:104F3000BC500023AC461A46BDE87040604738B507
:104F400005460C46C968FFF7F3FEA1682846BDE890
:104F50003840FFF7EDBE0B79342B70B504460D4693
:104F600010D18968FFF7E4FEED68AD6885B9A36AE2
:104F70000F21606A1B6B9847A36A04220221D3F8B1
:104F8000A0301AE0836A0F21406A1B6B9847ECE758
:104F9000AB071FD12B799A2B13D1A36A0F21606A1B
:104FA0001B6B9847A9680029E6D02046FFF7C0FE92
:104FB000A36A04220321D3F8A030606ABDE87040E0
:104FC00018479B2B06D1A9682046FFF7B1FEEB6876
:104FD0009968E8E729462046FFF7AAFECCE710B516
:104FE00004468968FFF7A4FE0021A36A606ADB6CAF
:104FF000BDE81040184700002DE9F7438D680446CE
:1050000017465DB9002A6FD0836A02222946D3F879
:10501000A030606A03B0BDE8F043184715F00306FE
:1050200040F08A802B79372B13D132B1836A022268
:105030000121406AD3F8A030984720462946FFF75F
:1050400077FEA36A606AD3F8A43003B0BDE8F043EA
:1050500018479F2B70D1EB681A79A12A5AD1A22147
:1050600001AA03F10800FFF711F9A968804621B3EE
:105070008B0722D10B79372B1FD137B1A36A411C83
:105080000222606AD3F8A0309847A9682046FFF74B
:105090004FFEA36A4FF00109606AD3F8A430984725
:1050A000464510D1B9F1000F1ED1A36A0322711C2D
:1050B000606AD3F8A030984716E020464FF0000908
:1050C000FFF736FEECE7019B53F8261079B900276D
:1050D0002046FFF72DFEB9F1000F17D07FB91B4A0C
:1050E00029462046FFF74EFD03B0BDE8F0838F0749
:1050F000EDD10F79A7F1370047424741E8E7A36AAE
:10510000606AD3F8A43098470136C9E7002FFBD076
:105110000F4AE5E7AB685BB19A0709D11B79372BDA
:1051200006D10422294603B0BDE8F043FFF7DCBEF8
:10513000052229462046F6E729462046FFF7F8FDD6
:10514000A36A03220121D3F8A03062E7543408088F
:10515000653408080122FFF74FBF70B50D46C968D6
:105160000446FFF7E5FDA968A36AC1F30711606A69
:10517000D3F89830332916BF3F390221C9B2BDE8B0
:1051800070401847F8B54E680C4600258968360A05
:105190000C340746FFF7CCFD0235AE4200DCF8BD0B
:1051A00038466168FFF7C4FD2168BB6A0834090905
:1051B000786AD3F89C302439C9B29847ECE72DE9D6
:1051C000F041D1F804800C4601250746A8F10D06F0
:1051D00054F8081FFFF7ACFDF6B2B5EB182F01DB52
:1051E000BDE8F08154F8041F3846FFF7A1FDBB6A03
:1051F0003146786AD3F89C3001359847EDE72DE9C0
:10520000F0414E680D4689680446360A0127FFF7CB
:105210008FFD032E89BFD4F80C804FF0000808F1F1
:105220000103E3607B1C9E4222DC032E55D9E56816
:10523000606A6B1C2946E360A36A9B6E9847A36A69
:105240004146606A9B6A9847A36A0121606A9B682D
:105250009847A36A606A1B6E9847A36A606ADB6D11
:105260009847A36A2946606A9B6ABDE8F0411847DF
:10527000023729692046FFF75BFDB74207DAA36AC8
:10528000606A5B6D9847A36A606A5B6E9847EB68DB
:10529000A26A03F00F01606AD2F89C200A2911D19A
:1052A000C3F30713252B16BF343B0621D9B2904711
:1052B000B74205DAA36A42460021606A1B6F98472D
:1052C0000835AFE71979852901D13221EFE79B68CD
:1052D0000BB90721EBE73321E9E7BDE8F08110B511
:1052E00004468968FFF724FD0321A36A606AD3F8A6
:1052F0009830BDE8104018472DE9F0470D46D0F82A
:105300000C800446002755F8046F5FFA86F9360AC8
:10531000A9F11E03D3F1000949EB030908F10103C8
:10532000C360B74206D1A36A4146606A9B6ABDE882
:10533000F0471847013755F8041F2046FFF7F8FCDF
:10534000B742EEDAA36A42464946606A1B6F984745
:10535000E7E7000001F00F03022B70B5044612D0FE
:105360000B79492B09D0483B082B18D8DFE803F00C
:10537000081707171717170507000123A37070BD3B
:105380008E680D6975B9A378002BF8D1638A002B5C
:10539000F5D020461D4ABDE87040FFF7F3BBD1E9C8
:1053A0000265EFE7A3783BB3238A01339BB2012B5D
:1053B00023820ED1618AD4E90903D1B1D3F8A03098
:1053C00000229847A36A02220021606AD3F8A03025
:1053D000984729462046FFF7ABFCA36A606A31096B
:1053E0009B6B9847A36A606AD3F8A430BDE870400D
:1053F00018471B6C9847E5E7638A29462046013326
:105400006382BDE87040FFF793BC00BF72340808A8
:105410002DE9F041C5680446CF688846AB1C0022E0
:10542000B968C3602B46FFF7B9FCD8F808102046CE
:10543000FFF77EFCA36A691C606A9B6E9847A36AAB
:105440002946606A9B6A9847A36A606A4FF0FF31F9
:105450009B689847F9682046FFF76AFCA36A691CB5
:10546000606A9B6ABDE8F04118472DE9F047C668BD
:105470000446D0F814A00D46B31C06F10108B0F89C
:105480001A90C360038B8682A0F8168043838868D5
:10549000FEF7BEFCF8B9E768A8687B1CE360FEF77E
:1054A000BAFC20B9A36A4146606A9B6E9847A36A1A
:1054B0003946606A9B6A9847E9682046FFF738FCDE
:1054C000A36A4146606A9B6A98473B460122A968E5
:1054D0002046FFF763FC29692046C4F814A0A4F80D
:1054E0001A90FFF725FCA36A3146606A9B6ABDE803
:1054F000F04718472DE9F347C66804460D46731C6C
:10550000C3608868FEF784FC0246E8B9E768204675
:10551000A9687B1CE3603B46FFF740FC2046E96836
:10552000FFF706FCA868FEF776FCD8B92B690BB923
:105530006B6923B1A36A3146606A9B6E9847A36A80
:105540003946606A9B6A984701AA712105F11000EB
:105550000027FEF79BFE824657450BD1696920461E
:10556000FFF7E6FBA36A3146606A9B6A984702B080
:10557000BDE8F087019B53F82780D8F80800FEF7B4
:1055800047FC0246F8B9D4F80C902046D8F8081029
:1055900009F10103E3604B46FFF700FC2046D8F811
:1055A0000C10FFF7C5FBD8F80800FEF734FC002804
:1055B000D8D1A36A3146606A9B6E9847A36A494670
:1055C000606A9B6A98470137C6E70000184B2DE9CF
:1055D000F041D3F8306204460F463EBBC568012255
:1055E00089686B1CC3602B46FFF7D8FBA36A1F2199
:1055F00001225B69606A9847F96851B12046FFF75C
:1056000097FBA36A32460121D3F8BC703346606A27
:10561000B847A36A0121606AD3F8C8309847A36AE3
:105620002946606A9B6ABDE8F0411847BDE8F081F1
:105630000040022070B58D6804463DB9836A294652
:10564000D3F8C830606ABDE870401847AB070ED188
:105650002B795E2B0BD1A968FFF76AFBE96820461E
