:020000040800F2
:10000000F8FF0120190102080BFC0408F9FB0408A1
:100010000DFC040819FC040825FC0408000000007D
:1000200000000000000000000000000031FC040897
:1000300033FC040800000000351105084D110508C7
:1000400001000208B1FC0408C3FC0408C9FC040850
:100050002B76050801000208F1690508F769050813
:10006000FD690508036A0508096A0508E531050800
:10007000F531050805320508153205082532050851
:1000800035320508453205080100020861560508A9
:100090003556050845560508555605080F6A0508E2
:1000A000DDFC0408E3FC0408F5FC0408FBFC040880
:1000B00001FD040807FD04080DFD0408413805088A
:1000C0005D380508793805089538050801000208EB
:1000D000010002085DFD040863FD040869FD0408D1
:1000E000336A0508B7FC040841FC040839FD04081C
:1000F0003FFD040857FD040851FD0408553205086A
:10010000010002080100020815FD040801000208B0
:100110006FFD040875FD04082DFD040833FD040877
:1001200065320508753205088532050895320508DF
:10013000A532050801000208BDFC0408A156050807
:1001400075560508855605089556050835FC0408BA
:10015000B5320508C5320508D53205087BFD04080F
:100160000100020801000208010002080100020863
:10017000010002080100020801000208000000005E
:08018000010002080100020861
:10018800006870470B0A017043700B0C090E8370EE
:10019800C1707047036A0239023B8B4283BFC3892F
:1001A800406B01FB030000207047034600F10B0180
:1001B8000020C20102EB500213F8010B02448B42EB
:1001C800D0B2F6D1704737B50D460446E8B103689A
:1001D800D3B15A7922B9092000242C6003B030BD6C
:1001E80081885A899142F6D118680DF107020621D3
:1001F80002F0C8FA9DF8073003F00103184310F025
:10020800FF00E8D12468E8E71C460920E5E72DE966
:10021800F8430026D0F800908E75836907460C468F
:10022800002B78D0C36A01335ED1F96900234D1ED3
:10023800184615F8012F202A00F101000DD0052AD3
:1002480008BFE522092805D10B2B9FBFE6182E27EA
:1002580077720133E618013372720B28E9D1E2187C
:1002680000205072A27D002A4AD1002B3FD004F111
:10027800080308255A78581C002A4ED11B1B083B36
:1002880038E06319020A9A75D87502231D440020C4
:1002980002368046D9F81030985BA8B1B8F1000F43
:1002A80005D100F520539BB2B3F5006FF0D340F2AF
:1002B800B51140EA084043F081FFFF280CD9A5F1A9
:1002C800FE03012BDDD80025B8F1000F18BF00256B
:1002D80025440023AB75A8E70028F4D0FF2DF2D001
:1002E800631998750123D1E7B0463546D2E73F2315
:1002F800A3750123234400229A750B7B03B963720B
:10030800CB7A237201F11C00FFF73AFF2060CB8AF9
:10031800E3800B8BA380BDE8F8832E2A13460BD00D
:10032800413A192A05D80E7B03F12002354218BF3D
:100338001346437303469DE71025FAE7130A8A76A6
:10034800CB764379032B01BF120C0A75120A4A7542
:10035800704770B5C5790446CDB1826B00F13C0198
:100368000123006802F0F9F9054690B9A16BE36A28
:10037800626AE071CB1A934209D2A379022B06D1A3
:100388000A442068012304F13C0102F0E6F92846FA
:1003980070BD0125FBE7F8B50446FFF7DAFF05460F
:1003A800002842D16379032B37D1277A012F34D122
:1003B80001464FF4007204F13C0046F031FF55232A
:1003C80084F83A32AA2384F83B325223412272211C
:1003D80084F83C3084F83D30612384F83E3084F85A
:1003E800233284F83F2084F8201284F8211284F8FC
:1003F8002222A16904F50970FFF7C4FE616904F5BA
:100408000A70FFF7BFFEA26A20680132A2633B466A
:1004180004F13C0102F0A1F925720022206811467E
:1004280002F0B0F9003818BF0120F8BD38B5836B69
:100438008B4205460C4610D0FFF78BFF60B9224669
:100448002868012305F13C0102F078F900281CBF57
:100458004FF0FF340120AC6338BD0020FCE70000FA
:1004680038B50023C3714FF0FF3383630546FFF7A8
:10047800DDFF044608BBB5F83A224AF655239A42EE
:100488001DD195F83C2002F11803DBB2012B01D9EC
:10049800EB2A16D10C49032205F1720046F0E8FE5A
:1004A80048B10A49052205F18E0046F0E1FE041E16
:1004B80018BF01246400204638BD0424FBE7032448
:1004C800F9E70224F7E700BF81D8050885D80508B1
:1004D8002DE9F041437986B0044601F0FE0593B159
:1004E800062100680DF1070202F04CF99DF807306B
:1004F800D90708D41DB113F0040518BF0A252846EA
:1005080006B0BDE8F081002363710DF10702206891
:10051800052102F037F99DF80730DA0700F1EF807E
:1005280015B15B0700F1ED8000212046FFF798FF29
:10053800022803D0012832D825793DB302AA04F253
:10054800022304F24221174613F8040C10B118468E
:10055800FFF716FE1033994242F8040BF4D12679BE
:10056800002E18BF013E57F82650B5B1294620463F
:10057800FFF776FF237923B9012807D90136032E1F
:10058800F1D9042800F0BF80012804D8B4F8473016
:10059800B3F5007F05D00D25B1E70320EAE7002574
:1005A800EFE7B4F8527027B904F16000FFF7E8FDEF
:1005B800074694F84C3067625A1E012AA371EAD89C
:1005C80094F84920E281002AE5D0511E1142E2D177
:1005D800B4F84D80A4F80C8018F00F0FDBD1B4F8F4
:1005E8004F0018B904F15C00FFF7CAFDB4F84A10CF
:1005F8000029D0D007FB03FE01EB181CF44460452A
:10060800C9D3A0EB0C039342C5D3B3FBF2F33F4A23
:100618009342C0D84FF6F57293425DD840F6F5760E
:10062800B3428CBF022601269A1C29440CEB050014
:10063800032E2262A562E16260634FD1B4F866308E
:1006480058EA0303A7D104F16800FFF799FD930066
:1006580003F2FF13B7EB532F20639CD34FF0FF3304
:10066800C4E90533032E4FF0800323722BD1B4F86D
:100678006C30012B27D1691C2046FFF7D7FE10BB31
:10068800B4F83A2220724AF655239A421BD104F153
:100698003C00FFF775FD1E4B984214D104F5087015
:1006A800FFF76EFD03F1FF5303F500532033984223
:1006B80009D104F50970FFF763FDA06104F50A701C
:1006C800FFF75EFD6061134A6671138800250133E8
:1006D80013806381E56112E70326A5E7B8F1000FEF
:1006E8003FF459AF022E1CBF02EB420203F0010394
:1006F80001EB0E000CBF530003EB5203A8E70325E0
:10070800FDE60A25FBE60125F9E600BFF5FFFF0F28
:10071800525261419405002001292DE9F04706460F
:100728000C46174609D9036A8B4206D94379022B2E
:1007380040D0032B50D0012B03D002252846BDE81A
:10074800F08701EB5108C16A01EB5821FFF76EFEF3
:1007580005460028F2D106F13C0908F1010AC8F360
:10076800080814F001041CBF19F8082002F00F0251
:100778003B4618BF42EA071309F80830F16A01231B
:10078800F37101EB5A213046FFF750FE0546002869
:10079800D4D1CAF3080A2CB13F0909F80A70012319
:1007A800F371CBE719F80A30C7F3032723F00F03D7
:1007B8001F43F2E7C16A01EB1421FFF737FE054634
:1007C8000028BBD1640006F13C0304F4FF741A1935
:1007D8001F553F0A5770E2E7C16A01EBD411FFF7D2
:1007E80025FE05460028A9D1A40006F13C0304F41F
:1007F800FE741819FFF7C4FC014667F31B011819AA
:10080800FFF7C0FCCBE7F8B505460E46FFF7A1FD9C
:10081800044698B931462846FFF7BCFC4FF40072ED
:100828000746A863214605F13C0046F0F9FCEB8930
:100838009C4205D3EB891C1B18BF01242046F8BD38
:10084800286801233A1905F13C0101F086FF0028C8
:10085800F0D10134EBE703284B8B04BF8A8A43EAC3
:100868000243184670470129F8B506460C4609D9CF
:10087800036A994206D24379022B2BD0032B36D038
:10088800012B01D00120F8BD01EB5105C16A01EB34
:100898005521FFF7CBFD10B14FF0FF30F3E76F1C88
:1008A800F16AC5F30805354401EB5721304695F840
:1008B8003C50FFF7BBFD0028EED1C7F308073744CB
:1008C80097F83C3045EA0320E3074CBF0009C0F322
:1008D8000B00D8E7C16A01EB1421FFF7A7FD002838
:1008E800DAD1640004F4FF743444A08FCBE7C16A02
:1008F80001EBD411FFF79AFD0028CDD1A40006F131
:100908003C0004F4FE742044FFF73AFC20F07040E9
:10091800B9E7F8B50C46012C0646114629D90568F1
:100928002B6AA34225D92AB14FF0FF322846FFF798
:10093800F3FEE8B921463068FFF795FF27460446DD
:10094800B0B1012815D0431C15D0002239462846DD
:10095800FFF7E2FE60B92A6AAB69911E8B4205D2A5
:100968000133AB612B7A43F001032B72A242E1D829
:10097800F8BD0220FCE70120FAE72DE9F8430468F6
:1009880007460E4671BBD4F81490B9F1000F39D060
:10099800236A4B4598BF4FF00109A06958B3B14588
:1009A80034D1236A3868751C9D4228BF0225294620
:1009B800FFF759FF01281ED0431C1AD028B3D4F8DA
:1009C8001480B8F1010F21D9236A984528BFB04691
:1009D8004546236A0135AB421BD8B8F1010F17D140
:1009E800002008E02046FFF73EFF012840D9421CBE
:1009F80003D14FF0FF30BDE8F883236A8342FAD869
:100A0800B146CAE74FF00109C7E775B9C846DFE73D
:100A1800022538682946FFF726FF30B10128EAD0B9
:100A28000130E6D04545D4D1DAE74FF0FF32294608
:100A38002046FFF771FEA8B92EB12A463146204656
:100A4800FFF76AFE70B9226AA3696561023A9342A8
:100A58009CBF03F1FF33A361237A43F001032372A0
:100A68002846C8E701280CBF4FF0FF300120C2E735
:100A78000120C0E72DE9F8430369066803F120085F
:100A8800B8F5001F24BF00238361836905468946A2
:100A980013B90420BDE8F883C8F30807002F37D13D
:100AA80041690133836131B9B389B3EB581F2FD83A
:100AB8000023AB61EDE7F389013B13EA582327D103
:100AC8003046FFF7D0FE0128044601D80220E1E7AE
:100AD800421C01D10120DDE7336A834212D8B9F103
:100AE800000FE5D069692846FFF747FF0446B0B113
:100AF8000128EBD0431CEDD001463046FFF783FEBA
:100B08000028C7D16C6121463046FFF743FBA86136
:100B18003C363E44C5F81080EE610020BAE7072055
:100B2800B8E700002DE9F047FF24056807460E46A0
:100B3800A1464FF00408B96919B9B8F1000F78D087
:100B480007E02846FFF772FC804620B9F86901786B
:100B580021B94FF004080023BB616AE0C37AE52994
:100B680003F03F03BB7154D02E2952D023F020024A
:100B7800A2F1080CDCF1000242EB0C02B24248D1AF
:100B88000F2B4CD14B0642D53B69447BFB6201F0ED
:100B9800BF01437BA3423CD1428B002A39D1037861
:100BA800D5F810E0DFF8908023F040034FF00D0CEB
:100BB800013B0CFB03F34FF6FF7A4FF0010C98F85A
:100BC800009030F80990BCF1000F25D0FF2B20D8F9
:100BD8002EF81390CC46013301320D2A08F1010892
:100BE800EDD10278520607D5BCF1000F04D0FF2BD7
:100BF8000FD800222EF813204B1E5FFA83F900212C
:100C08003846FFF737FF8046002894D0A3E7894588
:100C1800BFD04FF0FF09F2E7D145DDD0F9E7B9F1D0
:100C2800000F03D1FFF7C1FAA04202D04FF0FF3303
:100C3800FB624046BDE8F08766870608F8B521F4F0
:100C4800FF1323F4FF5306460D466BBB8268046806
:100C58000161B2B96379022B01D9236B93B9A389D6
:100C6800B3EB551F20D9206BC6E90520E0B100EB96
:100C780055203C34C5F308052C44B061F4610020CC
:100C880013E01346E7891A46B5EB472F114603D2FE
:100C98002046FFF77FFAE7E73068FFF7E4FD431CDB
:100CA800024609D0012801D80220F8BD236A8342F0
:100CB800FAD9A5EB4725E7E70120F6E7F8B50F468F
:100CC800002106680446FFF7B9FF68B90546A1691F
:100CD8003046FFF7ABFB38B9E3691B78E52B00D04A
:100CE8001BB90135BD4201D1F8BD05460121204699
:100CF800FFF7C0FE0028EAD0042808BF0720F3E762
:100D0800C16A4B1C2DE9F04105680669044618D1F3
:100D1800E5274FF00108A1692846FFF787FBA0B92E
:100D2800E3691F7085F807802369B3420DD2014635
:100D38002046FFF79FFE0028EDD0042808BF0220B8
:100D480003E0FFF77BFF0028E2D0BDE8F081000058
:100D58002DE9F04F002187B0D0F800900446FFF746
:100D68006DFF0546002840F088804FF0FF38FF27C8
:100D780004F12003C4F82C80BA460193A1694846BF
:100D8800FFF754FB0546002877D1E6693378002B36
:100D980077D0F17AE52B01F03F02A27103D0090761
:100DA80057D50F2A02D0C4F82C804AE094F82B209B
:100DB80050063CD4590642D52269777BE26203F09B
:100DC800BF03727BBA423CD1728B002A39D1357885
:100DD800D9F810A005F03F050D22013D55432A4AD8
:100DE800012002F10D0B1178715A68B3FF2D28D834
:100DF8000846CDE90313059243F010FA02903AF839
:100E0800150043F00BFA029B8342DDE9043218D146
:100E18000398013501329345E5D13278520603D55E
:100E280010B13AF8152062B9013B5FFA83FA002144
:100E38002046FFF71FFE054600289FD01DE09A4573
:100E4800BFD04FF0FF0AF2E74FF6FF7C6145E1D0D3
:100E5800F7E7BAF1000F04D13046FFF7A6F9B84218
:100E68000BD094F82B5015F001059CD101990B2259
:100E7800304646F0FDF9002895D1284607B0BDE870
:100E8800F08F0425F9E700BF668706082DE9F04FC3
:100E980090F82BA01AF0A00489B0054640F0838092
:100EA80007683A6932F81430002B64D105F120063E
:100EB80096E8070005AB1AF0010F83E8070079D020
:100EC800402385F82B304FF001084FF07E0B05AA20
:100ED80007CA3346D7F810C003C323F8022BB8F16A
:100EE800050F4FEA12421A7059D9ACF10201434674
:100EF80031F8022F002A40D10DF1140C072203F01B
:100F08000F0000F130013730392988BF01461B092D
:100F18000CF8011D02F1FF32F1D102F12001694400
:100F280001F814BC05F11F0108469A4204D011F8D3
:100F380001CFBCF1200F34D1072A9CBF02F1200158
:100F4800694403F1010396BF11F8141C20210132F2
:100F5800072BC154F0D92846FFF7FAFE814628BB73
:100F680008F10108B8F1640FB1D14FF007094846FC
:100F780009B0BDE8F08F013494E7102002F0010CAD
:100F88000CEB430383F4883C13F4803F8CF0210C72
:100F980018BF634601384FEA5202EFD1A8E743462B
:100FA800AAE70133C1E74FF00609E0E70428DED1DC
:100FB80085F82BA01AF0020F1BBF0C340D23012457
:100FC800B4FBF3F418BF013421462846FFF776FE38
:100FD80081460028CBD1013C55D029692846A1EB90
:100FE8004411FFF72BFE81460028C0D13046FFF799
:100FF800DCF84FF6FF780190A9693846FFF716FA32
:1010080081460028B3D1EB69019AD7F810E05A73EA
:10101800E1B24FF00F024FF00D0CDA72DFF8A4A026
:1010280018734A1E0CFB02F29876D87684461AF892
:10103800019B404518BF3EF8120003F8090003EB76
:10104800090B0CF1010C18BF01324FEA10290028D6
:1010580008BF4046BCF10D0F8BF80190E7D1404521
:1010680002D03EF812200AB941F04001197001235C
:10107800FB7100212846FFF7FDFC814600287FF41C
:1010880076AF013CB8D1A9693846FFF7CFF9814658
:1010980000287FF46CAF01462022E86946F0C0F8CA
:1010A80003CEEB6918605960B278318819819A7259
:1010B80095F82B30EA6903F0180313730123FB71C9
:1010C80055E700BF668706082DE9F04F85B003682D
:1010D80001930B782F2B0646884601D05C2B0AD14A
:1010E800424613782F2B904602F10102F9D05C2B6F
:1010F800F7D0002301E0019BDB69B36098F800306A
:101108001F2B00F2228180230021304686F82B30E5
:1011180005B0BDE8F04FFFF791BD1F2830D8042473
:10112800012D4ED1BAF800302E2B50D100232AF8C9
:10113800153006F11F02AB422CBF20212E210133AE
:101148000B2B02F8011FF6D144F0200486F82B403F
:101158003046FFF7FDFD96F82B30002800F0E480BC
:10116800042840F00381990603F0040240F1D88076
:10117800002A00F0EA80802386F82B300020F5E072
:101188002F2813D05C2811D07F2808D8954A092326
:10119800013B04D012F8011B8842F9D1E5E0FF2D8C
:1011A80000F0E3802AF815000135D2E042461378B2
:1011B8002F2B904602F10102F9D05C2BF7D00024C6
:1011C800AEE7022D03D1BAF802302E2BAAD00AEBD3
:1011D800450306E033F8022D202A01D02E2A02D139
:1011E800013D002DF6D14FF000032AF815306A00B2
:1011F800002D00F0BA8000213AF8110020280B4693
:1012080001F10101F8D00BB92E2801D144F00304F3
:10121800524432F8021D2E2901D0013DF9D14FF078
:1012280020324FF0000972623262C6F827204FF070
:10123800080B4F463AF81300002800F0BB8020281E
:1012480003F1010304D02E2805D1AB4200F0A7809A
:1012580044F00304EEE7D94580F0A480AB4211D1F5
:10126800BBF10B0F06D1A1E0AB4203D044F003045D
:1012780000F2A080BF00FFB22B464FF00B0B4FF0DF
:101288000809D7E77F2836D944F0020240F2B511A1
:101298000393029242F092FF10F0800FDDE90223DF
:1012A80010D0514900F07F00085C38B14F4C07213D
:1012B800013960D014F801CB6045F9D142F003023E
:1012C8005F2010E0FF28F0D90BF1FF31894503D3E7
:1012D80044F00304D946ADE706EB0901040A81F896
:1012E800204009F1010906EB0901144681F82000A4
:1012F80009F101099EE72246D8E747F00207FFB245
:10130800F1E7A0073FF522AF07F0010344EA031312
:10131800DCB244F0080317F0040F18BF1C4615E7A9
:10132800002A08BF052021E05A071FD4B379DB063D
:101338001FD5019B03F13C013369C3F3080319442A
:10134800019B5879FFF787FAB0603368D3F810A08B
:10135800002518F8010B00283FF4E1AE40F2B51162
:1013680042F048FF00287FF4D8AE062005B0BDE85B
:10137800F08F0520FAE7A0F1410189B21929BCD9FB
:10138800A0F1610447F00101A4B2C9B2192C98BFB9
:101398000F46A0F1200189B298BF0846A3E7D945B6
:1013A800FFF45EAFBBF10B0F7FF45EAF44F00304B4
:1013B8004FF00B0B96F82030E52B04BF052386F879
:1013C8002030BB00DBB2BBF1080F08BF1F4607F097
:1013D8000C030C2B03D007F00303032B91D144F02B
:1013E8000204B3E68BD80508E686060894D80508F3
:1013F80000214171FFF76CB82DE9F0430546ADF5C2
:101408000D7D0C4691469846002900F0C38003F0F4
:101418003F073946FFF75CF8002840F0B3800CAB73
:101428002B61494668460095FFF74EFE6E46024618
:1014380020B99DF92B308342B8BF062218F01C0F43
:1014480000F08480002A42D0042A40F08980304687
:10145800FFF71CFD0246002840F0828047F008078D
:10146800D6F81C9068794946FFF7F5F9804656F09A
:10147800D1FA014609F10E00FEF784FEF369202235
:10148800DA72F16900222846FEF758FFF369002254
:101498001A775A779A77DA770123EB71B8F1000F48
:1014A80012D041463046D5F83890FFF732FA024656
:1014B800002855D149462846FEF7B8FF08F1FF3302
:1014C8006B61024600284BD147F040070AE0B37928
:1014D80003F01103002B42D118F0040F54D118F077
:1014E800080FBDD1AB6BF169236261626879FFF7C0
:1014F800B2F9A060034601F11C00FEF741FE6A89BB
:10150800A28000226274E261626117F0200206463E
:10151800E0602560277414D000283DD0EF89606111
:101528007F02B7421FD30022A361CAB9C6F30801DC
:1015380039B119462846FEF72DFE48B300EB562070
:10154800E06110460DF50D7DBDE8F08342B9B37931
:10155800D8061BD418F0020FC4D0D907C2D5072269
:1015680000232360EDE719462068FFF77CF901287E
:101578000346A6EB070603D9421CD2D10122D3E7C2
:101588000222D1E70246EBE70822E9E70422E7E76F
:101598000222E5E70922D4E70246D2E72DE9F04F17
:1015A8009B4685B000238946CBF8003003A9044642
:1015B8001546FEF708FE002840F0838094F8118055
:1015C800B8F1000F1FD194F810A01AF0010300938E
:1015D8007AD0E7686369FF1AAF4228BF2F4697B1F0
:1015E8006269039EC2F30803002B52D1F389013BC1
:1015F80013EA522A18D152B9A06801280CD84FF022
:10160800020884F81180404605B0BDE8F08FA16952
:101618002068FFF728F9F0E7431C04D10123DDF81F
:1016280000806374EFE7A061A1693046FEF7B2FD60
:101638000028E4D07D0A0AEB000229D0F189019242
:101648000AEB0500884288BFA1EB0A0530682B46E3
:10165800494601F073F80028E0D1F37963B1B06B23
:10166800019A801AA84207D24FF4007206F13C0191
:1016780009EB402045F08AFD6D02DBF800302B4471
:10168800CBF8003063692B447F1BA9446361A6E74C
:10169800E261E16965693046FEF7C8FE0028BDD100
:1016A800C5F30805C5F500756169BD4228BF3D460B
:1016B8003C36C1F308012A463144484645F066FDE8
:1016C800DBE74FF009089EE74FF007089BE72DE995
:1016D800F04F9A4685B000238946CAF8003003A91E
:1016E80004469046FEF76FFD002840F0A780677C0F
:1016F8004FBB237C9A0740F1A380636913EB080F63
:1017080001D36FEA0308B8F1000F04D1237C43F03A
:101718004003237417E06369039EC3F30802002A99
:1017280070D1F589013D15EA53251AD17BB9A16815
:1017380029B92046FFF721F901460028E6D00129FA
:1017480007D102276774384605B0BDE8F08FA16954
:10175800EFE74B1C01D10127F4E7A368A16103B9A6
:10176800A160B26BE3699A4204D13046FEF7F1FDFD
:101778000028F0D1A1693046FEF70CFD0028E0D022
:101788005FEA582305EB000B2FD0F189E81888424F
:1017980088BF4B1B306801935A46494600F0DDFF6D
:1017A80005460028D7D1B16B019BA1EB0B019942EB
:1017B80009D24FF4007209EB412106F13C0045F0D3
:1017C800E5FC019BF5715D02DAF800302B44CAF89C
:1017D80000306369A8EB0508A9441D44E368656106
:1017E800AB422CBFE360E5608DE76169E36899422D
:1017F80006D33046FEF7ADFD0028ACD1C6F838B0A8
:10180800C4F81CB0E16965693046FEF70FFE002890
:10181800A1D1C5F30805C5F5007563694545C3F34E
:10182800080328BF454606F13C0018442A464946A5
:1018380045F0ACFC4FF00103F371C5E7092782E7D7
:10184800072780E72DE9F34101A90546FEF7BBFC10
:1018580088BB2C7C14F0400429D056F0DBF8019F9B
:10186800296A80463846FEF7E1FD0446F8B96E6AF3
:10187800F37A43F02003F372AA6828683146FEF72A
:101888005DFDE96806F11C00FEF77CFC414606F1A7
:101898001600FEF777FC0123B474F4743846FB7124
:1018A800FEF779FD2B7C23F0400304462B74204679
:1018B80002B0BDE8F0810924F9E713B50446FFF743
:1018C800C1FF28B901A92046FEF77DFC10B92060A8
:1018D80002B010BD0920FBE7F0B50F46ADF50D7D50
:1018E80000210646FEF7F4FD044670B90CAB3361DF
:1018F800394668460096FFF7E7FB044698B99DF914
:101908002B30834205DA029BF36120460DF50D7DED
:10191800F0BD9DF80630DB0609D507997079FEF70A
:101928009AFFF061F1E7042808BF0524EDE70524D4
:10193800EBE72DE9F04F0D460021ADF5557D2970F7
:1019480007469046FEF7C4FD064600285ED154AA15
:10195800D7F81C9002973A614446B9F1000F16D1A6
:10196800444502D1013C2F232B552B46611B1A5DA0
:1019780003F8012B5A184245F9D308F1FF331B1B12
:101988000134A04538BF002301351D443EE0019BCA
:10199800CDF81090202102A80993FFF74FF90028ED
:1019A80061D1099B089901933846FEF73FFD8246AD
:1019B800002856D101997879FEF74DFF51460490D9
:1019C80002A8FFF73BF900284DD104980999049023
:1019D800099102A80021FFF7A5F8824688B9099B5A
:1019E800787901931946FEF736FF484515D05146D8
:1019F80002A8FFF73FF8824609990498BAF1000F48
:101A0800E5D0BAF1040F14BF56460226002330462B
:101A18002B700DF5557DBDE8F08F02A80EA9DDF8F5
:101A28001090FEF7F4FB0DF14D00524610F8013FFF
:101A380011460132002BF9D1944216D328190A46CF
:101A480032B9621E541A2A44521A2F21117084E79F
:101A5800013A0EAB03EB020C9CF816C000F801CD5E
:101A6800EEE70646D2E70646D0E71126CEE72DE98F
:101A7800F7430D4601A90446FEF7A5FB00287FD1D0
:101A8800667C002E51D1E368AB4204D2227C12F06E
:101A9800020F08BF1D46002263696261ADB1DDF81F
:101AA8000490B9F80E804FEA482803B3013B6A1E38
:101AB800B3FBF8F1B2FBF8F28A4218D3C8F1000779
:101AC8001F406761EF1BA569B5B9E2686369934276
:101AD80082BF227CE36042F04002C3F3080388BF60
:101AE800227413B3E369AB421FD0E5611DE0A1681E
:101AF800A1B12F46A1610D462946474522D83A464D
:101B08006369C2F3080513446361002DDDD04846BC
:101B1800FEF740FB38B100EB5225D6E72046FEF72A
:101B28002CFF012805D102266674304603B0BDE8B3
:101B3800F083411C01D10126F6E72F46A060A06181
:101B48000546C1E7636943446361237C9A0706D568
:101B58002046FEF712FF024628B90146D0E7206862
:101B6800FEF781FE0246531CE5D0012ADBD9D9F8DD
:101B780020309342D7D9A7EB0807A2611146BCE7EA
:101B88000926D2E770B50546ADF5007D0C46164628
:101B980049B30021FEF79CFCD0B925603146C5F851
:101BA80010D02046FFF790FAB8B994F92B30834249
:101BB80007DBA379DB0614D56879E169FEF74BFEEC
:101BC800A0606B89A38000212046FFF737F808B191
:101BD800002323600DF5007D70BD042808BF052093
:101BE800F6E70520F4E70920F4E713B501A9044650
:101BF800FEF7E9FA00B9206002B010BD70B5ADF586
:101C0800027D0D4601A90446FEF7DDFA00BB3DB989
:101C1800294620460DF5027DBDE87040FFF70EB855
:101C2800019B02AA01461A612046FEF77BFF10F0CD
:101C3800FB060AD129462046FEF7E9FA3146204636
:101C4800FEF718FF042808BF00200DF5027D70BDBF
:101C58000920FAE72DE9F0418846ADF50C7D002111
:101C680007461646FEF734FC0097044680B90CABCD
:101C78003B6141466846FFF727FA044640B99DF99B
:101C88002B30834209DB1EB131466846FEF7BFFAA6
:101C980020460DF50C7DBDE8F0810624F8E72DE916
:101CA800F047884600210446FEF712FC054640B975
:101CB800D4F82090A369A9F10202934204D8C8F885
:101CC80000302846BDE8F0876379012B17D1022739
:101CD800064639462046FEF7C6FD431C34D0012887
:101CE80034D000B90136236A0137BB42F1D8C8F8AD
:101CF8000060237AA66143F001032372E1E7D4F878
:101D08002CA00746064637B951462046FEF78EFBFB
:101D1800F0B90AF1010A627907F13C03022A04EBDF
:101D2800030009D1E35A03B901360237B9F10109B1
:101D3800C7F30807E7D1DAE7FEF722FA30F0704375
:101D480008BF01360437F1E70125D0E70225CEE7C1
:101D58000546CCE72DE9F0410F46ADF5187D022187
:101D68000546FEF7B5FB0446A8B918AB8DF82B005D
:101D78002B61394668460095FFF7A6F9044650B925
:101D88009DF82B3013F0A00F3DD19DF8068018F078
:101D9800010F05D0072420460DF5187DBDE8F08118
:101DA80007996879FEF757FD18F0100F07460BD111
:101DB8006846FEF7A5FF04460028ECD1D7B92846A7
:101DC800FEF7E9FA0446E6E7EB698342E2D00E90B3
:101DD80021460CA80C95FEF731FF04460028DAD1FD
:101DE80001460CA8FEF79EFE04460028D2D004281F
:101DF800D1D1DDE7024639466846FEF78AFD04463A
:101E08000028C8D1DBE70624C5E72DE9F0470F46CF
:101E1800ADF5107D02210546FEF75AFB0446002861
:101E28006CD110AB2B61394604A80495FFF74CF927
:101E38000446002871D0042860D19DF83B1011F0A9
:101E480020016CD168460095FEF797FD07460028EB
:101E580059D0012859D0431C5C425C4155F0DAFD49
:101E68008146002C53D139462846FEF7CCFC04465F
:101E780000284CD14FF02033C5F83D30C5F841302B
:101E8800A5F845302E2385F83C30102385F84730D7
:101E9800494605F15200FEF775F93A4605F13C014D
:101EA8002846FEF74BFA05F15C031A4651F8040B75
:101EB80042F8040B9942F9D12E23069A85F85D3031
:101EC80028464FF0010AFEF739FA85F807A004A85A
:101ED800FEF7DCFF0446D0B90B9849461630FEF7EA
:101EE80051F93A460B992846FEF728FA0B9B10221F
:101EF800DA7285F807A0FEF74EFA044620460DF57B
:101F0800107DBDE8F0870724A8E70224A6E7002291
:101F180039466846FEF7FDFCF0E70824EEE706249C
:101F2800ECE72DE9F0430E46ADF5217D022104468C
:101F38009146FEF7CDFA002837D120AB0A902361ED
:101F4800314608A80894FFF7BFF870BB9DF84B30DE
:101F580013F0A00F7CD10F9EDDF8288033466F4622
:101F680006F1200C186859683A4603C208336345DD
:101F78001746F7D10DF1200EBEE80F00F77A14AE20
:101F8800B446ACE80F00BEE80F00ACE80F009EE8CE
:101F98000F008CE80F0049463046FFF795F80028F7
:101FA80053D1B368434504D008200DF5217DBDE821
:101FB800F08332690C9B9A42F6D13046FEF766FFF1
:101FC8000028F2D1F1690DF10D0301F10D020DF1B7
:101FD8001D0053F804CB42F804CB8342F9D118888A
:101FE80010809B78937047F0200317F0100FDBB236
:101FF80008BF1F46CF720127E771CB7ADB061BD5D6
:10200800B368434518D06079FEF725FC01462046A1
:10201800FEF7C0F80146E8B12046FEF707FA0028A7
:10202800C3D194F85D302E2B06D1B26804F15C015F
:102038002046FEF783F9E77108A8FEF761FE00283D
:10204800B3D12046FEF7A7F9AFE70428ADD1B4E72E
:102058000620AAE70220A8E7F0B50F4693B00221B0
:102068000546FEF735FA60BB4FF02033CDE9003363
:10207800013FCDF80730044617F8010F1F2813D881
:102088009DF80030E52B1BD024B1631E1DF80320FA
:10209800202A25D0002106A806950891FEF7CEFD36
:1020A8000746F8B138460CE040F2B51142F0A2F804
:1020B80030B142F0B3F840F2B51142F07FF810B9F0
:1020C800062013B0F0BD254B1A7822B1904203F1D7
:1020D8000103F9D1F4E7FF2830D80B2C37D1EFE70B
:1020E8001C46D1E7012106A8FEF71CFD90B90D9A00
:1020F80044B16B4603CB1060516019889B7893728A
:10210800118101E0E52313700123EB712846FEF7E6
:1021180042F9D6E70428D4D1002CC3D0012106A85F
:10212800FEF7CCFD0028CCD1202201460D9845F0C1
:1021380077F80D9B0822DA720D9ADAE7092CBFD8D6
:1021480004F148036B44020A03F8482C013404F1F3
:1021580048036B44013403F8480C8DE7D48606081D
:102168002DE9F04FD0F800908DB01C460023437144
:10217800039103790293164605210DF1270248467B
:10218800169D00F0FFFA9DF82730DA0700F18981E3
:102198005F0700F188810AAA0321484600F0F2FA95
:1021A80030B90A9A531EB3F5004F01D21A4201D032
:1021B80001230A935EB19B4BA6F500729A4202D89E
:1021C800731E334203D013200DB0BDE8F08F14B155
:1021D8006B0A059301D11120F6E7029B002B00F052
:1021E8008B80012300222146484600F0A7FA08B157
:1021F8000120E9E7B4F8FE214AF655239A4279D13D
:10220800029B04EB031202F5D77392F8B221002A5D
:1022180070D003F10800FDF7B3FF804603F10C000E
:10222800FDF7AEFF8346BBF1150FCDF82CB061D991
:10223800B6F5813F4FEA5622C5D2039B13F002033D
:102248000693039B6ED003F00703022B04D0039B75
:1022580003F00103002B68D1002A40F03381724B50
:102268004FEA5B450122188808B1A8427FD90023AC
:102278006E4EBBFBF2F5A5F57F40F638B04239D873
:10228800AD0005F2072516461A46002301936D0A8C
:10229800202303270198DDF828E008EB030A05EB63
:1022A800000CD4440EF1FF306044CEF1000E00EA79
:1022B8000E00A0EB0C00032F06BF1B1882442D183C
:1022C800C8EB06106044584514D80198ABEB0000E1
:1022D800C01A032FA0EB0500B0FBF6F004904ED116
:1022E80004994FF6F570814200F2F58012B9720830
:1022F80040F0E8800E2067E70BAA0121484600F06D
:1023080041FA00287FF474AF039A0B9B100706D498
:102318003E2BEFD94FF03F08A3EB080B83E7DDF81E
:102328000880F9E7D9077FF54EAF32BB404B4FEA3B
:102338001B350126188808B1A8421BD940F6F57349
:10234800BBFBF6F59D429BBF05EB45050135023504
:102358006D088CBF6D0003354FF0200305F2FF15A3
:1023680001938CBF022701276D0A012392E70233EC
:10237800520078E702337600DCE71646DEE7022FE4
:1023880040F0A28004994FF6F570814208D9002ADE
:1023980040F094807600402E00F287803246C4E7F1
:1023A800049940F6F570814200F29580002AA1D187
:1023B8007200802AB9D99DE7594604F12000FDF73B
:1023C800E1FEB0E055F026FB014604F12700FDF7D9
:1023D800D9FE2B0AE375802384F82430292384F856
:1023E8002630144BA57504F12B0203F1100153F8A4
:1023F800040B42F8040B8B42F9D1D3E0F823237085
:10240800FF236370A370E37023716371A371E37199
:1024180023726372A3720F23E37229E10C2562E130
:10242800062560E100FEFF00C6860608FFFFFE0FD6
:10243800B8860608BBD80508039B1B0700F16E8108
:1024480002994FF40072204644F0EAFE552384F8BE
:10245800C2510B9D84F8FE31AA2384F8FF3105EBA5
:10246800080243F6C163B2FBF3F2FE2384F8C331DA
:10247800930843F03F03012684F8C43184F8C5214A
:10248800414604F5E37084F8BF6184F8C061FDF744
:1024980079FE294604F5E570FDF774FE029A334685
:1024A80035E1032090E60A208EE6069B002B7FF498
:1024B800D6AE802E3FF61EAF32463FE7069B002B76
:1024C8003FF418AF1346D3E6049940F6F5729142EB
:1024D8003FF610AF01274FF4007200212046069303
:1024E80044F09EFE069B924AA3731B0A1168E3738D
:1024F80001232160237451686160FB1E1189927A5F
:10250800A27218BF012302225B00BBF5803F218124
:1025180022736673A374BFF44FAF84F813B04FEA05
:102528001B2B84F814B0F82363753F232376FF230D
:10253800A376414604F11C00FDF724FE032F7FF427
:1025480041AF55F067FA014604F14300FDF71AFE62
:10255800294604F12400FDF715FE022384F82C30E7
:10256800002384F82D3084F82E3084F82F3084F836
:10257800313084F83330802384F840302923012215
:1025880084F842306B4B84F83020062284F83220DD
:1025980003F1100104F1470253F8040B42F8040B4D
:1025A8008B42F9D119889B7893704FF0AA0B4FF0A2
:1025B80055031180484684F8FE3184F8FFB10123A1
:1025C8004246214600F0C9F8069000287FF410AE74
:1025D800059B032F4FEA4323079339D1012308F1C1
:1025E80006022146484600F0B8F806994FF40072F2
:1025F800204644F015FE5223237063706123A370B4
:1026080084F8E731049B41227221E27084F8E411D6
:1026180084F8E51184F8E621591E04F5F470FDF7F5
:10262800B1FD022384F8EC314FF0550384F8FE31F4
:1026380008F107020123214684F8FFB1484600F05B
:102648008CF8012308EB03022146484600F085F880
:10265800079A0021204644F0E3FD032F3FF4CEAE55
:10266800012F3549204618BF6FF00701FDF78AFD95
:10267800059BAB4228BF2B462146524648469B46FF
:1026880000F06BF8014600287FF4B2AD4FF40072F9
:10269800204644F0C5FDB5EB0B05DA44E8D1019BB3
:1026A800032F08BF33460193019D059B9D4228BF18
:1026B8001D462B4652462146484600F04EF8002853
:1026C8007FF496AD019B5B1BAA440193ECD1032FC9
:1026D8003FF4A4AE0B9BB3F5803FBFF4A1AE022F2D
:1026E80014BF01250425029B002B3FF4A5AE002250
:1026F80001232146484600F021F8024600287FF4CD
:1027080077AD029B04EB031383F8B25101232146F2
:10271800484600F022F800287FF46AAD00221146EE
:10272800484600F02FF8003818BF01204CE500BFDC
:102738009BD80508A7D80508F8FFFF0010B50C4678
:1027480011461A4638B12346043041F0ADF9003835
:1027580018BF012010BD0420FCE710B50C46114637
:102768001A4650B12346043041F0B6F910F11E0F55
:1027780005D0003818BF012010BD0420FCE7022056
:10278800FAE7000070B506460C46154610B9042451
:10279800204670BD294A01F00703D15C002935D0D5
:1027A8000022043041F0B6F9062CF0D801A353F802
:1027B80024F000BF99270008DB270008E527000858
:1027C800F527000897270008FB270008FB270008C3
:1027D80006202BF05FFB28600024D9E7062829D0C3
:1027E8002BF058FB80B22880B060F5E701232B60FE
:1027F800F2E7062801D0400806D1336AB3FA83F31A
:102808005B099B002B70E7E70123FBE7062CBED88A
:1028180001A353F824F000BF99270008D92700081E
:102828003D280008F5270008972700080328000816
:10283800032800084FF40070D5E700BFC4850608D8
:10284800022970B5044615461E4613D15368012B5C
:102858000AD0022B0CD01BB91168201DFFF707F90D
:10286800A3692B60002070BD81692B681944F4E7C7
:102878000169FAE701290AD10430FEF7E3FF0028CD
:10288800F0D0084B1B5C33604FF0FF30EBE70429B6
:1028980006D14368002BE5D00430FFF70EF8EEE7C9
:1028A8001623F0E7A486060837B51D46043001ABA9
:1028B8001446FEF70CFF38B1064B1B5C2B604FF03B
:1028C800FF34204603B030BD019BA342F9D01C233E
:1028D800F4E700BFA486060813B51C46043001AB14
:1028E800FEF75CFE30B1044B1B5C23604FF0FF30F9
:1028F80002B010BD0198FBE7A486060870B505462E
:1029080008460C462BF0D8F92346024602492846C9
:10291800BDE8704001F016B976D80508F8B5064646
:1029280010460F4631F0DEFD002401382A4909E03F
:10293800782B07D8712B21D8612B3CD0622B40D043
:102948002B2B3BD010F8013F002BF1D12C202BF082
:10295800A0F90546384631F0C5FD2F1D0246E3B201
:1029680006F144003946FEF747FD064658B32846A7
:102978001DF0A2FC194B985D2AF0AEFB723B062BAA
:10298800E0D801A252F823F0AD2900084D2900082B
:10299800352900084D2900084D290008B3290008E9
:1029A800B929000844F00104CCE744F00A04C9E757
:1029B80044F00604C6E744F01204C3E744F00304F5
:1029C800C0E70749BEE7E30603D529693846FFF79C
:1029D8004EF82846F8BD00BFD4850608A486060828
:1029E800048606082DE9F04FDDF824E0DDE90B74D4
:1029F800DDE90D5658B1884209D3710747BF0EF17A
:102A0800010E013401350A2158BFB0FBF1F016F070
:102A1800020C38D0002D36D00ADB0A998D4232DA02
:102A28002C44A64502DC0EF1FF37E71B00252AE0FF
:102A3800291D28DB69424FF000084FF00A0AB0FB55
:102A4800FAF90AFB19041CB108EB0504414604E035
:102A580008F1010888454846F1D1AEEB010E091B83
:102A68001C464FF0300804F8028B4FF02E0983F80B
:102A780001904D1E2346002D32DC002918BF013974
:102A880063180025FF240EF1FF3841464FF00A096C
:102A9800002929DA611C714535DBFE2CD4BF0021E1
:102AA800012173443FB1A4EB0804E71B2E204FF02B
:102AB800300EA7422CD1BCF1000F09D041B1194604
:102AC8000B4611F8010D3028FAD02E2808BF0B4606
:102AD80035BBF00726D400211970981ABDE8F08F8D
:102AE80003F8018B013DC6E78C42B4BF01F1010B2D
:102AF8008B46B0FBF9FA09FB1A00303003F80B00DB
:102B080001395046C4E701332E2119550121C8E780
:102B180014B903F8010B012103F801EB013CC8E7E4
:102B28007107D8D4002DBABF6D422D212B2106F094
:102B38002004632D597044F04504C8BF64211C70FB
:102B48004FF00A00C9BFB5FBF1F19C1CDC1C303109
:102B5800C8BF9970B5FBF0F62346B6FBF0F100FB51
:102B68001161303103F8021B00FB165130316170DE
:102B7800B1E700002DE9F04F2DED028B884610EEED
:102B8800101A97B000291C46B0EE408A9DF888308C
:102B98000E902ADAB4EE400AF1EE10FA25D6B1EE1C
:102BA800408A2D230E9F07F8013B08F1FF389FED5F
:102BB8007D7AF0EEC87AF4EE477AF1EE10FA02F078
:102BC800200316DD43F0490443F04E00FA1C43F09D
:102BD8004601002378703C70B97013700E9BD01AB0
:102BE80017B0BDEC028BBDE8F08F002BDAD10E9F39
:102BF800DDE7B4EE488AF1EE10FA06D743F04E014D
:102C080043F04100FA1C0C46E3E742F02002662A32
:102C18004ED143F0040B002CA8F103064FDA06242A
:102C2800A642D4BF0C960C9418EE103A002B0993C8
:102C380053D0C3F3C7537F3B07EE903A9FED5A7AC0
:102C4800F8EEE77A18EE103A67EE877AB3F17E5F0E
:102C5800FDEEE77A38BF4FF0000917EE905A28BF0B
:102C68004FF0010909EB0500B7EE000A00F01AFA67
:102C7800099BB3F17E5F2CBF4FF0010A4FF0FF3A7A
:102C8800B4EEC80AF1EE10FA94BF012300234B45B5
:102C98001BD01BF0040F4CD0002D20DD631902332C
:102CA80098451CDA8BF0040343F0020B013444E02E
:102CB800672A0CBF43F0020B43F0010BABE7632C10
:102CC800AED110230C930924AEE7554405EB090057
:102CD800B7EE000A00F0E6F9D2E7099DD9E7A8F1B6
:102CE8000202A242D4BF33462346002D1EDA022B2D
:102CF80015DDAA1C17DA6E429E42A8BF1E46023E88
:102D08009C1B092C0DDD1BF00403A4F10902079399
:102D18004FF009041CD004230793032319E05C1C1B
:102D280000260022F7E75C1C0026EAE76C1C1C441E
:102D3800FAE71BF0020FB9D034B1092C4FF00006A6
:102D4800E1DC3246079603E0264622460794012432
:102D58000723062CA146A8EB0408A8BF4FF00609D4
:102D6800A8EB0308A9EB0503013B0D939045D4BFDD
:102D780004EB0803A3181193119BA3EB09030F930A
:102D8800099B002B00F0C280079B002B00F0BA8043
:102D9800002D80F2B4804EB909F1FF3008963B4609
:102DA80013E000BFFFFF7F7F9B209A3E3B46302108
:102DB80003F8021B2E227A701846324644F030FA85
:102DC800FF228319089209EB06000A214FF0010C33
:102DD8000A91E14500F39F80B9F1060F02DD012851
:102DE80000F3A0804FF00108B0EE480A0B9300F002
:102DF80059F9F6EE007A30EE270A0A99BCEEC00AB5
:102E08003A4610EE103A08FB03F8089B03930F9B11
:102E180002930C9BCDE9045BCDE9009340460B9BE4
:102E28001093FFF7DFFD15AA01460B90384600F016
:102E380067F9DDED157A0B9977EEC87A17EE903AB7
:102E4800002B58D0B9F1060FC4BFA9F1060202EB56
:102E580042024FF0010AC8BF0AFA02FA0C22109B7C
:102E6800CDF82C80F0EE678A109217EE902A002A8F
:102E7800089A03920F9A02920C9A0A991393B4BF74
:102E8800D044A8EB0A08CDE90092CDE9045B3A46A4
:102E98004046FFF7A7FD15AA01461290384600F0F4
:102EA8002FF9DDED157A129977EEC87A17EE903A78
:102EB8000BB3B0EEE77AF0EEE86A37EE667A139B6A
:102EC80017EE102A002A3ADB4FF00A0CB8FBFCF088
:102ED8000CFB108002430B9A08BF42460B9208BFB6
:102EE800F0EE678ABAF1010F2ED0109A013A4FEA34
:102EF8005A0A1092B9D10E9B3944C81A70E60D9837
:102F080008954CE7079B0D98089348E7099A08929B
:102F18003B46104659E70A990A2251430A910CF197
:102F2800010C56E7B9F1070F05D0022803D0023883
:102F38004FF0640858E701384FF00A0854E7CDF815
:102F48002C80F0EE678ACDE7A14505DA0D9B0133A9
:102F58000D9309F101090FE70B9A9045CBD0089A18
:102F680003920F9A02920C9ADDE90A10CDE90092B9
:102F7800CDE9045B3A46FFF735FD0146BBE700BFE4
:102F880008B5044631B1054B4A6B03600968002354
:102F98002DF010F920461DF03FF900BF501E06081D
:102FA8002DE9FF411F460192002A39D146180446EF
:102FB800B442254640D214F8010B1EF0A3FA80460D
:102FC8000028F5D12B782B2B30D12546711B2846AC
:102FD80001AA28F0CEFB019B054428460024B042F4
:102FE80002462CD3B8F1000F00D06442640044F0CC
:102FF8000104AA4209D01546B5422B463DD218789D
:1030080001351EF07FFA0028F6D1019A224923489B
:10301800012A08BF00222DF081F83946FFF7B0FFDA
:10302800023A222AC2D91E4829F032FE2D2B04BFAB
:1030380025464FF00108C9E74FF00008C6E790F8A9
:1030480000C0ACF1300109290AD9BCF15F0F12D0D8
:103058004CF02001A1F1610CBCF1190FC2D857390D
:103068008B42BFD983FB0442B2EBE47F0AD10C4404
:1030780094EA440206D40130B1E7C6D1204604B030
:10308800BDE8F0814246711B03A803952EF017FA9C
:10309800039A0446ADE700BFE3C00508C01D060853
:1030A800CEC0050808B52DED028BD0B1B5EE400AAB
:1030B800F1EE10FA15D010EE103A00EBD35262F38D
:1030C800DE5310F10B0F08EE103A0DD9434200EE13
:1030D800903AB1EE040AF8EEE00A42F047FD88EEB5
:1030E800000ABDEC028B08BD07EE900AB1EE040A97
:1030F800F8EEE70A42F03AFD20EE080AF1E7000090
:1031080000232DE9F0470144904607461A461C461D
:1031180018461D469A461E468F4260D2BC461CF889
:1031280001EBAEF13009B9F1090F3FD8022E09D1F0
:10313800DFF8E8E00A2707FB00977045D8BF384654
:103148006746E9E7B9F1000F14D0334FBD4211D8F3
:103158004FF00A0EA4B914460A22C4B9BD4222D8B7
:10316800012E4FF00A0208BF03F1FF3302FB059559
:103178000022E5E70EB90134E2E701320126DFE774
:10318800BD4294BF0EFB05F50133013CE2E703F1B4
:10319800FF3EBD4298BF734605FB02FEBD4298BF85
:1031A8007546013CD9E78EBB0133E1E796B9BEF11C
:1031B8002E0FE3D04EF02009B9F1650F0CD161450F
:1031C80004D97E782B2E1AD107F1020C8C4521D018
:1031D8000226B5E7022EEDD1BEF15F0FB0D0BAF1ED
:1031E800000F15D107EE905A1C44B8EE670A204428
:1031F800FFF758FF88ED000A3846BDE8F0872D2E06
:10320800E6D107F1020C4FF0010ADFE72246B5E7E5
:103218004042E7E70027EFE7979999196466660641
:103228002DE9F04F2DED048B83B09FED658ADDF815
:1032380040809FED649A054691461F4646184FF018
:10324800000AF0EE488AF7EE009ACDED018AB54201
:103258002C4674D215F8010B1EF054F98346002849
:10326800F5D123782B2B64D12C46A31C9E4279D907
:10327800237843F02003692B64D1637843F020035B
:103288006E2B6FD1A37843F02003662B6AD14FF0E1
:10329800FF420192E21D964204F103001AD9E27836
:1032A80042F02002692A15D1227942F020026E2AC2
:1032B80010D1627942F02002692A0BD1A27942F03A
:1032C8002002742A06D1E27942F02002792A01D13B
:1032D80004F10800B9F1000F0DD0B0420BD202780A
:1032E80042F020026A2A06D1844208BFCDED019A35
:1032F80001304AF0020ABBF1000F05D0DDED017A7A
:10330800F1EE677ACDED017A844232D00446B442B8
:10331800254635D2287801341EF0F4F80028F6D175
:103328003FB3BAF1000F24D19DED018A4FF0010A95
:103338008BE72D2B04BF2C464FF0010B95E74FF080
:10334800000B92E76E2B0DD1637843F02003612BBD
:1033580008D1A37843F020036E2B03D1E01C8DED38
:10336800019AB7E701AA311B2046FFF7C9FE0028DA
:10337800B0D1154915482CF03BFE4146FFF700FE39
:10338800CED1BAF1010FF4D09DED010ABAF1000FC8
:103398000AD0F0EE400AB0EE480A03B0BDEC048B48
:1033A800BDE8F04F2BF0CCBD17B1DFED050AF4E70F
:1033B80003B0BDEC048BBDE8F04F2CF0EDBF00BFAF
:1033C800000000000000C07FEFC00508C01D06080F
:1033D8000846114644F0B0BE70B5054608460E468C
:1033E80043F05CFF044620B102466B68286831460A
:1033F8009847204670BD00002DE9F74F01919DF8D0
:10340800301091460D9A11F0DF0F8046A2EB0904A7
:103418005CD030295DD1C3F3472100295CD05F29F6
:103428000CBF0526042692FBF6F106FB11210CBF02
:103438002D4F2E4F002902F1010108BF0A4604F161
:10344800010008BF0446711E92FBF6F006FB10222D
:103458008A1A174413F0200240D004EBD473A4EB6B
:1034680063055C10002C3DDDA3465E45B246A8BF4F
:10347800DA46D8F80430D8F8000052463946ABEBA3
:103488000A0B9847BBF1000FEFDCB9F1000F07D02A
:10349800D8F804300199D8F800004A4698474C44B7
:1034A800002D0FDD2C44AE42B146A8BFA946D8F87E
:1034B8000430D8F800004A463946A5EB0905984774
:1034C800002DF0DC204603B0BDE8F08F084F102631
:1034D800C0E70CAF0126BDE7064FF8E713F001057A
:1034E800C0D025460024D0E7200D0608250D060883
:1034F8002B0D0608140D06082DE9F04F93B08146F0
:10350800C807DDE91E871C9D9DF874A00C469346EC
:103518001E460BD4A10703D121687B4B994205D0E5
:1035280020462AF0B7FC440044F0010415F0210FAE
:1035380008D1B8454346B8BF3B46BAF1300F04BF7F
:103548009846002720462DF0C7FE00280EDA0AAB61
:103558002807F6B222D5BBF1020F13D11946302045
:1035680001F8020B701C58700B4617E0AA0705D526
:103578002B238DF828300DF12903E9E76B07E6D5F1
:103588002023F6E7BBF1080F5CD13021197029061A
:1035980045BF06F10E0159700133023300210AAA12
:1035A8000EA81970012FA3EB02030B904FF0100027
:1035B8000693C5F34723C8BF054315F01002CDE9AC
:1035C8000C01CDE902638DF82710059244D0CDE9AE
:1035D80000B123460DAA0CA90BA82DF053FD0378C2
:1035E8002D2B834606D18DF827300D9B013B00F12A
:1035F800010B0D93012F7CDD0D9C059BBC42B8BFD0
:103608003C462BB19DF8273003B10134069B1C447E
:1036180025F00103A045079373DD15F00105A8EB1C
:1036280004046FD120230194009338492B462A467D
:103638004846FFF7E1FE2C460646059B4FF0300A48
:10364800C3B938E0BBF1100FA8D11946302001F8F2
:10365800020B06F1170086E70AABCDE900B30DAA05
:1036680023460CA90BA82DF00DFD8346C2E70024C4
:10367800079526469DF827305BB100230122CDE946
:1036880000320DF127014846FFF7B6FE08F1FF3872
:103698000644069B63B100230122CDE900320AA942
:1036A800069A4846FFF7A8FE069B0644A8EB0308BF
:1036B800012FD8BF4746CDE900A7079B0D9A594669
:1036C8004846FFF799FE06444CB120230093002397
:1036D8000E4901941A464846FFF78EFE06440B9899
:1036E8000EAB984201D01CF0E7FD304613B0BDE8A0
:1036F800F08F059B002BBAD1059C079526464746B7
:10370800D9E70024002698E70424060844D90508C8
:103718002DE9F04307469007984658BFC2F3800347
:103728008DB05ABF5B01DBB22B23154600930A46C6
:10373800159B149E212103A8FFF71CFAE9050446EE
:103748001FD52E2103A843F0EDFDD0B9652103A8AC
:1037580043F0E8FDA8B96E2103A843F0E3FD80B962
:1037680004F130026A4404F131036B442E2102F85B
:10377800241C0234302203F8242CA3186B4403F8C9
:10378800240C6A060ED504F13002631C0DEB02040A
:10379800252204F8242C03F130026A44002102F89F
:1037A800241C1C46EB0603D59DF80C302F2B0DD995
:1037B80003A94FF00009CDE900862B46224638467A
:1037C800FFF71AFE48440DB0BDE8F083002301223C
:1037D80003A9CDE900323846FFF70EFE013E8146C7
:1037E800013C0DF10D01E6E72DE9F04F81468BB064
:1037F80014464FF000080B461A781D461AB1252AC0
:1038080003F10103F8D1A94208D26E1AD9F804309D
:10381800D9F8000032469847B04429460B78002B67
:1038280000F0878120224B1C039200271E783EB1AE
:103838002D2E3ED037D8202E42D02B2E3DD000261C
:103848001A78A2F1300109291D4603F101033AD97A
:103858002E2A4DD16A782A2A48D154F8042B0235E9
:1038680022EAE27B2B786C2B08BF013595F800A083
:10387800BAF1000F00F05D81BAF1780F09D8BAF1FA
:10388800570F38D8BAF1470F7ED8BAF1440F00F273
:103898003E81D9F80430D9F800000122294698471A
:1038A80008F10108B9E0302EC9D147F01007039696
:1038B80001E047F001070133B8E747F00207FAE7EC
:1038C80047F00407F7E70A2101FB0622A2F13006B8
:1038D800B6E70A2000FB021B0133ABF1300219786E
:1038E800A1F1300009281D46F3D9B9E70022F6E70F
:1038F8004FF0FF3BB6E7AAF15803202BC9D801A225
:1039080052F823F0973900089B3800089B380008C4
:103918009B3800089B3800089B3800089B38000833
:103928009B3800089B3800089B380008093A0008B3
:10393800333A000897390008173B0008173B00087E
:10394800173B00089B3800089B3800089B38000884
:103958009B3800089B3800089B3800089B380008F3
:103968009B38000897390008493A00089B38000836
:10397800713A00089B380008973900089B380008FE
:103988009B38000897390008BAF1500F81D154F8D4
:1039980004CB0AF0DF03502B624677D12AF00F0AD6
:1039A800AAF10F03002010218DF81700BCF1000FB9
:1039B8007ED130238DF827300DF1270A17F0100B30
:1039C8009DF8173000F09580002B00F09E80039B37
:1039D8000093012201923B460DF117014846FFF77B
:1039E8000BFD013E8346039B00930AAA01963B46C2
:1039F800A2EB0A0251464846FFF7FEFC58440BE08A
:103A080054F8043B019653B1039B4C49009304229C
:103A18003B464846FFF7F0FC8044691CEBE6039BF5
:103A2800009347493B460522F3E754F8043B8DF8D9
:103A38001830039B009301963B46012206A9E8E74C
:103A480006A954F8040B1DF04BFBBBF1FF3F0146E0
:103A580004D0069B9B4538BFCDF818B0039B009354
:103A6800069A01963B46D4E754F804AB504643F017
:103A780015FCBBF1FF3F024602D0584528BF5A4605
:103A8800039B009301963B465146C2E7BAF1640F87
:103A980006D0BAF1750F81D100200A21612383E78E
:103AA800002A1CDA2D238DF8173052420A2151239F
:103AB8000DF1280A0A3B0DF1180EB2FBF1FC01FBCF
:103AC8001C2009288CBFC01830300AF8010DF245B7
:103AD8003FF474AF91423FF671AF6246EDE7BB0722
:103AE80005D4C7F3800040010A2151235CE72B204D
:103AF800FAE7002B3FF477AF06AA92457FF673AF3B
:103B08000AF8013C0AF1FF3A6DE79B466BE7073478
:103B180024F00704F4E8020155F0CAF8CDE9006B77
:103B280000EE100A039B3A4651464846FFF7F0FD5F
:103B380072E740460BB0BDE8F08F00BF67BB0508D1
:103B48006CBB05080EB403B503AA52F8041B019216
:103B5800FFF74AFE02B05DF804EB03B070470000BF
:020000040802F0
:10000000FEE700000F49D1F8883043F47003C1F8CF
:1000100088300D4B1A68002042F001021A60986087
:100020001A6822F0847222F480321A60074A5A60F9
:100030001A6822F480221A60D8604FF000638B6047
:10004000704700BF00ED00E000380240103000248F
:1000500030B5002495B010252A4621460AA80494FC
:1000600027F0E2F8284B01941A6C42F080521A648F
:100070001B6C03F080530193019B244B029419687D
:1000800041F4804119601B68059403F48043029396
:100090000122029B4FF48033CDE908234FF4800105
:1000A00002230F22CDE90E3112930723CDE90B4530
:1000B000039208254FF4A87213934FF4A05C4FF4F9
:1000C000805308A8CDE91052CDE906C32AF06CFC94
:1000D00010B10F482FF058FA119B109A3021DB0015
:1000E000B3FBF2F3B3FBF1F201FB1232121A1299D5
:1000F000B3FBF1F118BF012203A831F007F908B1F1
:100100000448E7E715B030BD0038024000700040F9
:10011000FC9005080E9105080446DFF82CD00B4929
:100120000B4A0C4B03E051F8040B42F8040B9A42C3
:10013000F9D300200849094A01E041F8040B914233
:10014000FBD320462FF076BBF8FF012000E2060823
:10015000000000204000002040000020B0220020CD
:1001600040F8044B40F8045B40F8046B40F8047B13
:1001700040F8048B40F8049B40F804AB40F804BB03
:1001800040F804CB40F804DB68467047024B5A69DC
:10019000026058610020704740000020024B5A69FD
:1001A00012685A61704700BF40000020024B9A69F4
:1001B000C0E900219861704740000020044A93691B
:1001C0001968916110B15A6818461047704700BF0E
:1001D0004000002038B5054D0446AB690BB1A34281
:1001E00000D338BD0120FFF7E9FFF6E7400000200B
:1001F000C460056146618761C0F81C80C0F820902A
:10020000C0F824A0C0F828B0C0F82CD080ED0C8B2A
:1002100080ED0E9B80ED10ABC0F808E0FFF7B6BF95
:10022000124D6C6908B50CB92FF0F0FA60602046E9
:10023000FFF7D0FF23686B612046C46805694669F3
:100240008769D0F81C80D0F82090D0F824A0D0F88E
:1002500028B0D0F82CD090ED0C8B90ED0E9B90ED4B
:1002600010ABD0F808E00120704700BF400000202C
:1002700010B50021044600F00DFB18B914B120465A
:100280000CF0F6FC10BD002100F004BB10B50121FC
:10029000044600F0FFFA18B914B120460CF0E8FC4F
:1002A00010BDFFF7E5BF10B501220C4600F014FCAD
:1002B00018B914B120460CF0DBFC10BD00F00CBCEA
:1002C00000F0CCBBDFF8B8C02DE9F04305464FF095
:1002D000000E0324DCF8B402002101316B189A08E7
:1002E00003F00303825C5B0042FA03F303F00303B1
:1002F000022BF2D0090136D0DCF8C00200EB051069
:10030000014403681A072BD1DCF8C0525A1BC2F310
:1003100001169D424FEA92174FEA46064FEA121223
:100320001ED8DCF8C4529D421AD9DCF8B48218F801
:10033000075045FA06F303F0030304FA06F9012B0C
:1003400045EA09050CD10CEB4E06BEF13F0F08F84B
:1003500007509ABF0EF1010EA6F8D422CCF8D03285
:1003600004308842CDD1BEF1000F06D00EF1FF3E21
:100370000CEB4E03B3F8D452ACE7BDE8F08300BFFA
:100380004000002030B51C4CD4E9AF53C01AC1095D
:10039000C0F3021E6B5C012202FA0EF223EA020392
:1003A0006B54D4F8C82283094FEA101CB2EB901F9B
:1003B000D4F8B40288BFC4F8C832C15C4FEA9C0EBE
:1003C0000CF0030303255B0005FA03F321EA0301A4
:1003D00000F80E100CF1010CD4F8B4024FEA9C0E98
:1003E0000CF0030310F80E105A0041FA02F202F06A
:1003F0000302022AE7D030BD4000002021F00F01A7
:100400000B1A134A013BDB0010B5A2FB0323114C6E
:100410005B0AC4E9AD03C4F8C4129A00A1EB8311CE
:100420000133C4F8C0120732C11803EBD202C4F87A
:10043000BC12002126F0F8FE002301214FF0FF320C
:10044000C4E9B233C4E9D6322381A4F8541310BDF1
:10045000F32C23FA40000020024A1389023313814F
:10046000704700BF40000020024A1389023B1381FD
:10047000704700BF40000020024B1889003818BFA9
:10048000012070474000002070B51E4C23890022D7
:1004900043F0010382B004F50275C4F8D022C4F819
:1004A0005823238104F1080252F8043F19071AD196
:1004B000D4F8C012581AC0F3011C8B424FEA901EA8
:1004C0004FEA4C0C4FEA10100DD3D4F8C4128B42F3
:1004D00009D2D4F8B46216F80E1041FA0CF303F006
:1004E0000303012B03D0AA42DED102B070BD032367
:1004F00003FA0CF3194306F80E100192FFF7E2FE1F
:10050000019AF0E740000020B9B3F0B51B4C0D464E
:1005100083B0011F002251F8043F18071AD1D4F804
:10052000C072D81BC0F3011E9F424FEA90164FEADB
:100530004E0E4FEA10100DD8D4F8C4729F4209D95C
:10054000D4F8B47217F806C04CFA0EF303F00303A4
:10055000012B04D001329542DDD103B0F0BD03235D
:1005600003FA0EF34CEA030C07F806C0CDE90021AC
:10057000FFF7A8FEDDE90021ECE77047400000200E
:100580002DE9F043614ED6F8D032D6F8B41283B0DC
:10059000C3B1D6F8B83200259800C6F8D05288B159
:1005A0000024A30804F00302CB5C5200134103F0C3
:1005B0000303032B2BD00134A042F2D8D6F8D0325B
:1005C000002BEAD1D6F8CC324FF000094FEAD3081D
:1005D0000127D6F8BC3213F809404FEAC90514B90F
:1005E0004CE064080135E20703D464080135E307F1
:1005F000F7D5AB0805F00302CB5C5200134103F0C2
:100600000303012B15D0640838D00135EFE72046ED
:10061000FFF758FED6F8B832D6F8B4120134B4EB6E
:10062000830F4FEA8300BCD3D6F8D032002BB4D16D
:10063000C8E7D6F8C0222B0102EB0510D35873B1DE
:100640006A4640F297310BF0BDFC009B3BB10CF0C9
:1006500087FDDDE900010CF055FD0CF097FDD6F8A3
:10066000BC02EB0805F00701C25C07FA01F122EABF
:100670000102C2546408D6F8B412C6D1C14502D0F2
:1006800009F10109A5E70027BE463A4603240225E1
:100690000FE0012806D104FA03F32CEA03030B70E0
:1006A0004FF0010ED6F8CC3201329A421FD8D6F85C
:1006B000B412900802F0030311F800C05B004CFA7A
:1006C00003F000F00300022801EB920119D0032887
:1006D000DFD105FA03F32CEA030C81F800C0D6F849
:1006E000CC32174601329A424FF0000EDFD93389DF
:1006F000002223F00103C6E9B227338103B0BDE82D
:10070000F083BEF1000FC6D11746CBE740000020B2
:10071000044B1A89002142F00102C3F8D0121A8159
:10072000FFF72EBF40000020594B00212DE9F0417A
:10073000D3E9B042C0E90411121BD3E9AD458846A4
:100740004FEA850CC0E90111C160816102600E466B
:100750008E460D4618E05BBB01359445856001F17E
:10076000010179D09608A75D02F0030676003741B3
:1007700017F002084AD107F003071646B44536D0F1
:10078000012F34D094453AD0B30806F00302E35C5D
:100790005200134103F00303012B06F1010238D08C
:1007A000022BD8D10EF1010EC0F804E008F10108C7
:1007B000944545D0960802F00303A75D5B001F41F6
:1007C000BB0724D4B8F1010F07F003075BD0B8F1E1
:1007D000020F164604D14369013343614FF002080A
:1007E00083699845CAD9B445C0F81880C8D1C36890
:1007F000994200D9C16094454FF00001C4D14FEA3D
:100800000E132D01C0E90135BDE8F081984616466A
:10081000B8E70EF1010E9445C0F804E027D0960821
:10082000A75D02F0030676003741BE07EED407F05D
:10083000030716460369013303614FF00108CFE750
:10084000B8F1010F1F4620D0B8F1020F19D083690B
:1008500098456646C7D8CAE7C3689942CFD94FEAD8
:100860000E132D01C0E90135C160BDE8F0810669B4
:1008700001360661866906B9836116464FF00108A4
:10088000B5E76646A7E71646D4E76646D2E700BF57
:10089000400000202DE9F84300F10F04240900F086
:1008A0009D806D4D2F89002F40F09880B5F854231E
:1008B0008846002A40F09680D5F8C812D5F8B8E2EC
:1008C000714538BF012780F08980D5F8B4C20CF19A
:1008D000FF3600200E440FE013F00C0200F0A18060
:1008E00013F0300F00F0B08000223F2B40F29180D7
:1008F00000200131714570D216F8013F9A07EBD103
:10090000421C944240F2A58013F00C0F40F09180FD
:100910000230844240F2898013F0300F40F08F8023
:1009200002329442E1D889008B1CA3EB020E012A0B
:1009300008F001090EF1010603D1591C8908C5F818
:10094000C812D5F8CC12994238BF1946B008C5F87C
:10095000CC1206F003071CF800807F0001210EF185
:10096000020EB94041EA080173450CF8001013D398
:1009700002274FEA9E01D5F8B4C20EF003001CF81E
:100980000180400007FA00F00EF1010E40EA080075
:1009900073450CF80100ECD2D5F85833D5F8C07285
:1009A00023441201002107EB0610C5F8583326F046
:1009B0003BFC34010346B9F1000F10D00022D5F8FA
:1009C000BC023A51F1080122445C06F00706B2402D
:1009D000224342541846BDE8F88377B100231846F5
:1009E000BDE8F883D5E9D61291422FD2D5F8C812C6
:1009F000D5F8B8E27145FFF468AF35F059FBD5F88A
:100A0000C812D5F8B8E271454FF00107FFF45DAFA9
:100A1000E4E7501C84423FF66CAF8900CB1C0246D1
:100A200083E7012084423FF677AF89004B1C0246E2
:100A30007BE713F0300F0CBF0122002255E73F2B5C
:100A40008CBF0020012054E701226AE735F030FB1B
:100A500032E78B0069E700BF40000020034B1B8991
:100A6000012B02D808B1FFF78DBC70474000002071
:100A7000034610F00F001AD1164AD2F8C01299425C
:100A800014D810B4D2F8C4429C420DD95B1AD2F8E3
:100A9000B4C29A09C3F301111CF8022049000A41AB
:100AA00002F00302012A04D010BC704770470020F6
:100AB0007047013000EB1312910802F003021CF89A
:100AC0000110520041FA02F202F00302022AF0D0B1
:100AD0000001E9E7400000202DE9F84F0546002815
:100AE00000F0C980754C914626890A46002900F01D
:100AF0008880002E40F08980D4F8C032C31A9B460B
:100B0000D4F8B8021B0901F10F0E591C8700B1EB94
:100B1000800F4FEA1E1EBA4680F0B380D4F8B4723C
:100B2000B4460126880801F00308385C4FEA4808FB
:100B300040FA08F000F0030002286AD028B90CF14E
:100B4000010C0CEB0600704564D3B64555D065D357
:100B5000B444F4451DD2B9F1000F56D010464FEA07
:100B6000DB11D4F8BC22515C03F00703194101F0FA
:100B70000101FFF78FFE074600283FD032012946CA
:100B800026F008FB2389012B38D82846FFF7FAFB0B
:100B900034E003EB0E01334499421FD9980803F067
:100BA000030217F8008052004FF0020C01330CFAD8
:100BB00002F242EA080299423A540FD99808D4F84E
:100BC000B47203F0030217F8008052000CFA02F22C
:100BD000013342EA080299423A54EFD1D4F8CC32B8
:100BE000994238BF1946AEEB0602C4F8CC12120186
:100BF00005EB0610002126F017FB2F463846BDE80E
:100C0000F88F012E01D8FFF7BDFB00273846BDE85D
:100C1000F88F013601318A4584D196E773444FEA53
:100C2000930C03F0030117F80C0049004FF0030880
:100C3000A6EB0E0E08FA01F120EA0101BEF1010F48
:100C400007F80C1010D05F1E77440133D4F8B4625B
:100C5000980803F00302315C520008FA02F221EA1C
:100C60000202BB423254F0D1D4F8C8326345C4D931
:100C7000C4F8C8C2C1E708462946BDE8F84FFFF7E7
:100C800009BEBEF1010FB8D0BEF1000F05D001269C
:100C9000B9F1000F7FF462AFB7E7D4F8B4024FEABE
:100CA0009B1C03F003035900032210F80C308A4008
:100CB00023EA020300F80C30D6E700BF4000002012
:100CC00010B58AB0044603A8FFF72EFDDDE9043015
:100CD000039A009007492046E2F738FFDDE9083221
:100CE00006980549CDE90020079A2046E2F72EFF35
:100CF0000AB010BDA0E30508C4E305082DE9F843D8
:100D0000DFF858914749D9F8C0220746E2F71EFF9D
:100D1000D9F8B81289006DD0DFF84481002515F0AC
:100D20003F0633D005F003067600D9F8B422AB08AD
:100D3000D35C334103F00303022B63D0032B5FD05A
:100D4000012B4AD1D9F8C0222B01D25842455BD0A1
:100D5000354B9A425AD0354B9A425BD0344B9A422B
:100D600056D0344B9A4253D0334B9A4254D0334BE3
:100D70009A4251D0324B9A4252D0324B9A424DD085
:100D8000314B9A4214BF68224D2227E0A9421ED956
:100D9000D9F8B4022C4602E001348C4208D0A208F3
:100DA00004F00303825C5B0042FA03F39B07F3D079
:100DB000621B7F2A0BD9254992093846E2F7C6FE05
:100DC000D9F8B83224F03F05B5EB830F12D2204991
:100DD0002A013846E2F7BAFEA7E72E221D49384617
:100DE000E2F7B4FED9F8B8320135B5EB830F4FEA1C
:100DF000830194D338461849BDE8F843E2F7F0BAC6
:100E00006D22EBE73D22E9E75422E7E74C22E5E7D4
:100E10005322E3E74422E1E74122DFE74222DDE714
:100E20004622DBE70CE405082C250608FC1C060816
:100E3000042E0608D42D0608241A0608AC19060844
:100E4000A4210608402206089826060828E405087A
:100E500044E405084CE4050808E4050840000020C7
:100E60004C2F0608064B02685B6A5968C1F31E01E5
:100E70008A4203D3521A0260184670471B68F4E78F
:100E800040000020014441F20553884204D398B247
:100E9000012838BF0120704710F8012B03EB4313E2
:100EA0005340F2E7034B044A5A620022C3F80C2273
:100EB000704700BF400000203C5E06082DE9F04767
:100EC00081468846002940D0FFF7DCFF204B5C6A52
:100ED00082460CB9204634E094F90730E668002BCE
:100EE00006F1FF364FF0000513DB013604F1180759
:100EF000B54212D32468ECE777197F08BB1D424640
:100F000054F82310484626F0F3F90028CCBF3D469C
:100F10003E46731B012BEFD8E7E7236933F8153002
:100F20009A4510D163695B5D98450CD157F825004F
:100F30004246494626F0A0F928B96068C0F31E0071
:100F40002844BDE8F0870135D2E70120F9E700BF6A
:100F5000400000202DE9F84380460F46FFF7AEFF22
:100F60000246002840F08D80FF2F03D946494748AC
:100F70000BF08CF8464DD5F80C027E1C90B1D5E9EB
:100F8000841333448B4227D93144FFF797F9044641
:100F9000D5F80C02CCB9D5F814122246FFF78EF919
:100FA000C5F80C42802E344638BF80242046FFF717
:100FB0006AF9C5F80C02B0BB3046FFF764F9C5F812
:100FC0000C0278BB30460BF053FED5F81032334498
:100FD000C5F810320028E5D0D5F81432C4181E44E4
:100FE00041463A4620464FF00009C5F8146226F003
:100FF000D1F8394604F807902046FFF743FF8046B2
:10100000686AD0E90261B1422BD376000A2E38BF5C
:101010000A26C6EBC6001830FFF735F948B9C5F8FF
:101020000C02CFE734460023C5F81042C5F814324D
:10103000D2E700F1180202EB8602696A026102EB54
:10104000460242614A680160C968C0F80C90C2F368
:101050001E020A44416862F31E01C0E9011668627B
:1010600049460269436922F811805F548A1D6B6A00
:1010700043F82240DA680132DA605A68C2F31E028D
:101080000A441046BDE8F88322910508981E060818
:101090004000002010B5044626F004F90146204621
:1010A000BDE81040FFF756BF07B5019001A8FFF754
:1010B000D9FE019A036933F8120003B000BD07B5E9
:1010C000019001A8FFF7CEFE019B4269D05C03B0FE
:1010D00000BD07B5019001A8FFF7C4FE019B0633D0
:1010E00050F8230003B000BD13B5019001A80C46D1
:1010F000FFF7B8FE019B4269D25C2260063350F8CC
:10110000230002B010BD00002DE9F8431D46002366
:1011100003600B6013602B60164BDFF85C905C6A19
:1011200007468846164664B92B68326813442B601C
:10113000BDE8F883336812F8010B013303443360D0
:101140000DE04C45F0D03B6801333B60E268D8F8D5
:1011500000301344C8F800306269E368D1188A424D
:10116000E8D32046FFF784FC2B68246803442B60F7
:10117000D9E700BF400000203C5E0608F8B50B4BE5
:101180000B4F5C6A0CB1BC4200D1F8BDE36804F1BE
:10119000180505EB8306B54201D32468F2E755F83C
:1011A000042B04490448E2F7D1FCF4E74000002096
:1011B0003C5E0608279105080C0D060830B5002393
:1011C000202511F8012F0AB9027030BD120600F176
:1011D000010420D513B12023037020460B78124A56
:1011E00003F07F036BB9013A12F8013F13F0800F4F
:1011F000044600F101000BD003F07F0323700123AC
:10120000DFE712F9014B002CFBDA013BDBB2E9E727
:1012100000F8013CE8E7012B04BF057020460B787D
:1012200000F8013B0223CCE72E91050838B543684E
:10123000194403689942054610D9037B1BB108483D
:1012400000210AF023FF01F1100424F00704083400
:1012500080682146FFF727F82C60A86038BD00BFE2
:10126000981E060870B504460E4611461546FFF74F
:10127000DDFFD4E901302A461844314625F0BEFF8F
:1012800063682B44636070BD38B50129044638BFDC
:1012900001210025084621606560FEF7E9FF2573FE
:1012A000A06038BD38B505460C460131FFF7ECFFAC
:1012B0006C6038BD0023C0E9013201230160037373
:1012C0007047000038B514460546FFF7DDFF024BB6
:1012D0002560636038BD00BF65120208037B10B54E
:1012E000044613B98068FEF7EBFF0023A36010BD2E
:1012F00038B505461020FEF7BBFF29460446FFF728
:10130000C3FF204638BD10B5044648B1037B13B96E
:101310008068FEF7D5FF2046BDE81040FEF7D0BF3D
:1013200010BD000038B5037B04460D461BB10748CD
:1013300000210AF0ABFE016880682944FEF7B3FF84
:101340002368A0601D442560184438BD981E060817
:1013500038B504460D46FFF769FFD4E901301D4456
:101360006560184438BDD0E900239A4210B50446A0
:1013700002D10121FFF7D6FFD4E901320021D15477
:10138000A06810BD10B50C460121FFF7E1FF047005
:1013900010BD7F29F8B50C4604D80121FFF7D8FF0E
:1013A0000470F8BD01F03F06B1F5006F4FEA9115EA
:1013B00066F07F0607D20221FFF7CAFF65F03F05FE
:1013C00005704670EDE705F03F05B1F5803F4FEA47
:1013D000113765F07F0508D20321FFF7B9FF67F0E9
:1013E0001F03037045708670DBE70421FFF7B0FF31
:1013F000A40C07F03F0364F00F0463F07F03047054
:1014000043708570C670CCE738B5054608460C4673
:1014100025F048FF214602462846BDE83840FFF740
:1014200021BFF8B54768B942054628BF39460C4682
:1014300011461646FFF7FAFEAB68A01919193A1BB8
:10144000184425F0DBFE6B68A86833446B602044C9
:10145000F8BD43688B422CBF5B1A00234360704782
:1014600038B5154642688A4204460B4603D92944DA
:101470008A4201D8636038BD8068521A014418441A
:1014800025F0BCFE63685B1BF4E790F9002003784D
:10149000002A0ADA03F07F034022134207D110F832
:1014A000012F02F0C001802905D01846704723EAB9
:1014B00002035208F1E702F03F0242EA8313EEE72B
:1014C000431C18460133027802F0C002802AF8D08B
:1014D00070470023814201D81846704711F8012D4A
:1014E00002F0C002802A18BF0133F3E7014403462B
:1014F000002099421A4600D87047127802F0C002C4
:10150000802A03F1010318BF0130F2E77F289DBF55
:10151000024B185CC0F34000002070473B0D0608EA
:101520007F289DBF024B185CC0F3C00000207047AD
:101530003B0D06087F289DBF024B185CC0F380005E
:10154000002070473B0D06087F289DBF024B185CAA
:10155000C0F38010002070473B0D06087F2809D893
:10156000064B1B5C03F00C0333B9A0F15F03584238
:101570005841704700207047012070473B0D060816
:101580007F289DBF024B185CC0F3001000207047FD
:101590003B0D06087F289DBF024B185CC0F340102E
:1015A000002070473B0D060808B50246FFF7E8FF2C
:1015B00002EB401008BD08B50246FFF7EBFF4042C2
:1015C00020F01F00104408BD303820F02003073BF6
:1015D000092888BF1846704730B50A440024E5251D
:1015E0008A4203D8B4FA84F0400906E00B784CB183
:1015F00003F0C003802B01D0002030BD013CE4B2D9
:101600000131EDE758B9BF2B09D9F72BF4D8DB0826
:1016100003F0060345FA03F303F00304F0E71B06A7
:10162000EAD4EDE7023981420B4603D31A88023926
:10163000002AF8D002331B1A58107047B2EB131F60
:1016400070B54FEA13141AD9121B01EB440103F0D1
:101650000F0314460646012C0CBF0D880D68013C93
:1016600025FA03F526F8025B01F10201F3D100EB44
:10167000420030F8023C03B9013A104670BD002226
:10168000FBE7F0B5059C0025121B2E46AC420FD19E
:1016900001EB4403174600EB4404411A9FB904EBE5
:1016A000420316B124F812600233181A4010F0BD3C
:1016B00031F8157033F815C067443E4420F81560C2
:1016C000360C0135E2E71D8835445D522E0C013F92
:1016D0000233E3E7F0B4049E0025921B2C46AE4291
:1016E0000BD101EB4605174600EB4606431A7FB9BE
:1016F00006EB4201F0BCFFF795BF31F815703C4492
:1017000033F81570E41B20F8154024140135E6E782
:1017100029880C44EC52013F24140235E7E72DE9F7
:10172000F043079CDDF828E0DDE90876023915462C
:1017300084464FF6FF78A4EB020955B900EB42014D
:101740001FB1012320F812300231BDE8F043FFF74A
:1017500069BF31F8024F013D4444264405EB0904BA
:10176000A5422ABF33F8024B4FF6FF744444744439
:1017700086EA040E17FA8EF72CF8027B4FEA144E15
:10178000360C3F0CD9E738B502290446806838BFCB
:1017900002210D4618B12368B1EB930F07D96900F8
:1017A000FEF781FD2368A06065F39F03236038BDC9
:1017B00038B504460C20FEF75BFD23682278054609
:1017C00002F00102C3F39D0023F0030313432B60D7
:1017D00063686B604000FEF74BFDA8602268A1685B
:1017E000C2F39D02520025F0D5FC284638BD99422F
:1017F00010B502D24FF0FF3010BD01D90120FBE738
:1018000000EB410002EB410209B90846F4E730F869
:10181000023D32F8024D1B1BECD4EFD10139F3E746
:1018200010B5044638B18068FEF74AFD2046BDE891
:101830001040FEF745BD10BD38B505460C460221E7
:10184000FFF7A1FF211E2B78B4BF0122002262F313
:1018500000032B704FF00003B8BF49426B60D5E91D
:101860000132581C686022F81310090CF7D138BDFA
:101870000023C0E900338360704728B103789B07D9
:1018800002D48068FEF71CBD704738B504460D468B
:101890004968FFF778FF2A782378A06862F300038D
:1018A00023706A686260A9685200BDE8384025F07C
:1018B00071BC29B90378416061F30003037070477C
:1018C000FFF7BABF08B5FFF7D3FFBDE80840FFF741
:1018D000F0BF920042F0020202600022C0E9012142
:1018E0001946FFF7E6BFF8B59DF8187014461D4677
:1018F00004210646FFF747FF22462B4627B1002D5D
:101900000CDA624265EB4503317867F30001317010
:101910000021716052EA030102D1F8BD0027F3E70C
:10192000D6E901104C1C746020F81120120C42EA18
:1019300003421B0CEEE72DE9F3418DED010A019DF9
:101940000378EA0F62F300030370C5F30F4313F447
:10195000FF4380460BD198F8003023F0010388F84C
:1019600000300023C8F8043002B0BDE8F081B3F5C0
:10197000FF4FF0D0C5F3C754B4F17F06EBD405D1C7
:10198000012102B0BDE8F041FFF756BF162EC5F3A6
:101990001605A4F16F07D8BFC6F1170645F4000578
:1019A0004FEA2717D5BFF540963C00260936D4BF2D
:1019B000344624113946C8BF06F00F06FFF7E3FE90
:1019C000C8F804702CB1D8F808006200002125F096
:1019D0002BFC4EB1D8F8083005FA06F223F8142093
:1019E000C6F11006F5400134A742BDD0D8F8083042
:1019F00023F814502D0CF6E72DE9F843074601EBC8
:101A00000208C2F35B020D46511C089E1C46FFF7FC
:101A1000BAFE3A7864F300023A7000212A461FFAAF
:101A200086FC4245796002D3501BBDE8F8831078EC
:101A3000A0F13003092B05D9A0F14103192B11D8CE
:101A4000A0F13703B342EFD2B86801320C468646A4
:101A50007CB900EB410413B120F811300234241A90
:101A60006110DEE7A0F16103192BDDD8A0F1570367
:101A7000E8E7BEF800900CFB09332EF8023B013C6E
:101A80001B0CE5E7F8B5044615461E46C1B1531ECA
:101A90001E444FF0FF37E9000F3109092046FFF7D8
:101AA00072FE2378002123F00103237061600B464E
:101AB00045B9A06800EB4101FFF7B4FD6060F8BDD7
:101AC0000127E8E700220F2B09DC3078013D00FAFE
:101AD00003F042EA000203F108033E44F3D1A06898
:101AE00001F1010CC4F804C0103B20F8112061463C
:101AF000DEE738B505780B7805F0010203F0010345
:101B00000446981A08D1D1E90132D4E90110FFF74F
:101B10006EFEEB0748BF404238BD884210B5044610
:101B200001D0FFF7B2FE237823F00103237010BD2C
:101B3000884210B5044601D0FFF7A7FE63683BB1A9
:101B40002378C3F3000282F0010262F300032370E2
:101B500010BD88421FB5044601D0FFF796FE6268AB
:101B600062B901212046FFF70EFEA268012313800F
:101B70006360237843F00103237010E02378D907D2
:101B80000FD523F00103237001230093A168ADF862
:101B90000E3008460DF10E03FFF79CFD606004B0A7
:101BA00010BD511C2046FFF7EEFD01230093D4E940
:101BB0000121ADF80E3008460DF10E03FFF761FD6F
:101BC0006060D6E74B682DE9F04704460D4616469F
:101BD00003B12AB929462046BDE8F047FFF755BEB4
:101BE00002F10F014FEA111803EB1111FFF7CBFDC2
:101BF000D5E9010316F00F02A1686FF0004E08EB63
:101C0000000606EB0E0C864403EB4E0308BF1022C1
:101C10004FEA4C0701EB4C0C02330146E1464FF012
:101C2000000EC2F11002F9B96FF001035843C8F178
:101C300001080CEB00032EFA02FE4FEA48022CF8D2
:101C400000E0524203EB480025F0EEFA0237C319D8
:101C500016B133F8022D9AB166602A78237862F3C0
:101C600000032370BDE8F08733F802AD4AEA0E0E98
:101C70002EFA02FA29F802A94FEA0E4E0139D2E7EC
:101C8000013EE5E72DE9FF410D4649680646144649
:101C900001B132B92946304604B0BDE8F041FFF742
:101CA000F4BDFFF770FDB768D5F808806A68234671
:101CB00041463846FFF7C2FC70602978337861F3FB
:101CC00000033370DB0702460BD500236968ADF8CB
:101CD0000E304FEA141C994201D0634504D161458E
:101CE0000AD804B0BDE8F08138F8130098B1012398
:101CF0006145ADF80E3012D904F00F04012338F815
:101D00001C1003FA04F4013C214206D1BDF80E3048
:101D1000002BE6D003E00133DDE7ADF80E30012300
:101D200012B93B807360DCE7009339460DF10E0376
:101D30003846FFF7A6FC7060D3E72DE9F3414E6803
:101D400057680C4690463B46314692680546A06867
:101D5000FFF74DFD013017BF37464646264644463D
:101D6000337822785340DB0719D4791C2846FFF7D3
:101D70000AFD63680093D6E90121A368A868FFF70C
:101D800080FC686033782A7800280CBF002303F0B9
:101D9000010363F300022A7002B0BDE8F081394606
:101DA0002846FFF7F0FC63680093D6E90121A36899
:101DB000A868FFF78FFCE4E72DE9F3410F464E6872
:101DC000D2F8048014464346314692680546B86806
:101DD000FFF70DFD01301EBF23463C461F4623780A
:101DE0003A7883EA020316BFB04601260026DB07D5
:101DF00019D508F101012846FFF7C5FC7B6800935F
:101E0000D4E90121BB68A868FFF73BFC686018B102
:101E1000207800F0010070402B7860F300032B70F5
:101E200002B0BDE8F08141462846FFF7ACFC7B6874
:101E30000093D4E90121BB68A868FFF74BFCE5E7F4
:101E40002DE9F04F53680C46496899422EBF26464B
:101E500016461946337828BF1446DB0785B0054679
:101E600022D4237813F001071ED1FFF78CFCD4E9AC
:101E7000011CA868B6683B4699420CD100EB4101B1
:101E8000FFF7D0FB002368602A7863F300022A7012
:101E900005B0BDE8F08F36F813203CF8134022401F
:101EA00020F813200133E7E701312846FFF76BFCE8
:101EB00037782378D6F804C0A868A26887EA0301B7
:101EC000C94301F0010E41F3000189B2029147F3C9
:101ED00000010191B168A1F10209616803F0010AF2
:101EE00043F300039BB2A1EB0C0107F00108009340
:101EF0006746834603918FB900EB4C01BEF1000F9A
:101F000003D0012320F81C300231FFF78BFB6860FF
:101F100022783378C2F300021340B5E739F8021F84
:101F2000019B5940039B013F18FA81F8D919B94226
:101F30009BBF32F8021B009B009959408A44029BC8
:101F400008EA0A0159401EFA81F12BF8021B4FEAF8
:101F50001A4A4FEA18484FEA114ECCE72DE9F84FDC
:101F600053680D46496899422EBF2E4616461946BB
